:020000021000EC
:1090000000600020759301005D9301005F930100F3
:10901000619301006393010065930100000000006B
:109020000000000000000000000000006793010045
:1090300069930100000000006B9301006D93010033
:1090400071E701006F9301001DF4010011FD0100A3
:109050008D0502000000000019F30100B5060200B2
:109060006F9301006F9301006F9301006F930100F4
:109070006F9301006F9301006F9301006F930100E4
:10908000F905020099B101006F9301006F9301008F
:10909000D9B101006F930100054002006F930100F8
:1090A0006F9301006F9301000000000000000000BA
:1090B0006F9301006F9301000000000000000000AA
:1090C00000000000000000000000000000000000A0
:1090D0000000000000000000000000000000000090
:1090E0000000000000000000000000000000000080
:1090F0000000000000000000000000000000000070
:10910000000000000000000000000000000000005F
:10911000000000000000000000000000000000004F
:10912000000000000000000000000000000000003F
:10913000000000000000000000000000000000002F
:10914000000000000000000000000000000000001F
:10915000000000000000000000000000000000000F
:1091600000000000000000000000000000000000FF
:1091700000000000000000000000000000000000EF
:1091800000000000000000000000000000000000DF
:1091900000000000000000000000000000000000CF
:1091A00000000000000000000000000000000000BF
:1091B00000000000000000000000000000000000AF
:1091C000000000000000000000000000000000009F
:1091D000000000000000000000000000000000008F
:1091E000000000000000000000000000000000007F
:1091F000000000000000000000000000000000006F
:10920000354936480A1A02D0072291438D4634491F
:1092100034480A1A06D00722914381F309880222B2
:1092200082F3148830483149314A00F044F831481B
:109230003149324A00F03FF831483249324A00F0B1
:109240003AF832483249334A00F035F83248334967
:10925000334A00F030F833483349344A00F02BF8F1
:1092600033483449344A00F026F83448344900225F
:1092700000F02CF833483449002200F027F8334836
:109280003349091A082902DB002202604160314A91
:1092900090471F481F49884205D00268043003B434
:1092A000904703BCF7E700208646EC4600200021EB
:1092B000294A9047FEE7884207D0521A05D0037822
:1092C00001300B700131013AF9D17047884202D068
:1092D00002700130FAE7704700600020005800205B
:1092E00000600020006000206C740200B4230020A5
:1092F0003C240020C0930100C0930100AA5B02003F
:109300006C740200B4230020B4230020EC5C020043
:10931000EC5C0200EC5C0200EC5C0200EC5C020025
:10932000EC5C0200EC5C0200EC5C02006A7402007F
:10933000F47402003C2400203C2400203C24002043
:10934000E8320020E8320020E8320020E832002035
:10935000E83A00208B930100F10B0200FEE7FEE7E4
:10936000FEE7FEE7FEE7FEE7FEE7FEE7FEE7FEE7D5
:10937000704700BF0C4880470C484FF007018843F6
:1093800085460B488047FFF73BBF0A480A490B4A0E
:10939000884207D0521A05D0037801300B70013192
:1093A000013AF9D17047000071930100006000207C
:1093B000EDDF0100D85C0200A0230020B4230020D0
:1093C00000B585B00190019B002B0AD0074B43F0FC
:1093D00001030393019B9B010293039B029898470F
:1093E00000E000BF05B05DF804FB00BF005D0200B7
:1093F00000B583B00190019B002B0AD04FF47A7026
:10940000FFF7DEFF019B013B0193019B002BF5D190
:1094100000E000BF03B05DF804FB08B507F07AFD7B
:1094200000BF08BD00B589B0039002910192019B75
:10943000002B33D00023079303230693029A079B44
:109440001344019A1946002007F014FD0590079A6D
:10945000059B13440793019A059BD31A0193059B1F
:10946000002B13D10F4B1B7883F00103DBB2002BD1
:1094700013D10120FFF7BCFF069B013B0693069B1F
:10948000002B03D1074B00221A7007E0054B012285
:109490001A70019B002BD1D100E000BF00BF09B0C2
:1094A0005DF804FB3C24002000B585B003900291D8
:1094B000054B00934023054A0299039800F012F8E7
:1094C00000BF05B05DF804FB259401004024002096
:1094D00082B0019000BF02B0704782B0019000BF1F
:1094E00002B0704700B5A1B00590049103920293B9
:1094F000049802F0D3FD039B1593029B169300235F
:10950000179300238DF8603000231993229B1A9340
:1095100000231F930FA91F9B0822049802F07CFED2
:1095200008231F93119B1293BDF84030ADF84C30C7
:10953000BDF84230ADF84E3000238DF851309DF823
:109540003C3003F00303DBB2012B26D10F9BC3F3A6
:1095500095231C939DF83C30C3F3C203DBB28DF816
:109560005030BDF83C30C3F38313DBB21B931B9B1D
:109570009A0009A91F9B049802F04EFE1B9B9B00BA
:109580001F9A13441F9312AA09A915AB00931346FF
:109590001B9A1C9800F0C4FE2FE09DF83C3003F0AD
:1095A0000303DBB2022B28D1BDF83E30C3F389138D
:1095B0009BB21E939DF83C30C3F3C203DBB28DF81F
:1095C00050301E9B082B28BF08231D9307A91F9B03
:1095D0001D9A049802F020FE1F9A1D9B13441F93AE
:1095E0001E9A1D9BD31A1E9315AB12AA07A81D998C
:1095F00000F038FF1E9B002BE3D1049802F05DFDC4
:1096000000BF21B05DF804FB82B00190019BDB68D4
:1096100001225A7100BF02B07047000000B583B04C
:109620004FF0FF330193FFF7F8FE0421054800F0E7
:1096300093FD01900348FFF7E7FF00BF03B05DF81B
:1096400004FB00BFC85C020000B583B0019000912C
:10965000019B1B681B6800990198984700BF03B0E5
:109660005DF804FB00B583B00190019B1B685B684B
:109670000198984700BF03B05DF804FB00B583B0C4
:109680000190019B1B689B680198984700BF03B03D
:109690005DF804FB82B001900B468DF80330019B0E
:1096A000DB689DF803201A7100BF02B0704782B0DA
:1096B0000190019BDB681B79184602B0704782B0AD
:1096C0000190019BDB6801225A7100BF02B0704714
:1096D00082B00190019BDB685B79184602B070474D
:1096E00000B585B0019000910C4B01221A700C4816
:1096F00002F038FC0390039B002B01D0039B08E091
:10970000084802F0BFFD084A084BD31ADB08029351
:109710000023184605B05DF804FB00BFE8250020D3
:109720002C5C0200185D0200C85C0200405C020074
:10973000024A034BD31ADB0818467047C85C020084
:10974000405C020000B587B001900B468DF80330F5
:109750009DF80330002B1FD0FFF7EAFF0490002391
:10976000059313E0059B9B000E4A13440393039B50
:109770001B881A46019B1B689A4204D1019B059ADB
:109780001A60002309E0059B01330593059A049BA9
:109790009A42E7D3052300E00023184607B05DF89E
:1097A00004FB00BFB423002000B585B001900B4638
:1097B0008DF803309DF8032001AB11461846FFF7E2
:1097C000C1FF0346002B07D1019BDB00054A134470
:1097D0000393039B1B6800E00023184605B05DF867
:1097E00004FB00BF405C020084B001900B468DF882
:1097F0000330019BDB00174A134402939DF80330AA
:10980000013B032B1CD801A252F823F01D98010044
:10981000259801002D9801003798010002238DF84A
:109820000F3011E004238DF80F300DE0029B1B79FF
:109830008DF80F3008E0029B5B798DF80F3003E064
:1098400000238DF80F3000BF9DF80F30184604B08C
:10985000704700BF405C020084B00190009100237B
:109860008DF80F30019B1B7803F00403DBB2002B53
:1098700024D0019B1B78C3F30103DBB2012B02D080
:10988000022B0CD017E0009B1B68019A1288C2F3D0
:109890008312D2B213449A1C009B1A600BE0009B07
:1098A0001B68019A5288C2F3891292B213449A1C1F
:1098B000009B1A6000BF01238DF80F309DF80F3018
:1098C000184604B07047000000B58BB00023ADF817
:1098D00026303B4801F008FF3A4801F005FF3A4BBB
:1098E0009B680493394B1B680693049A069B1340AC
:1098F00002339B00344A13440433089304AB1946E3
:109900000898FFF7A9FF0346002B09D0049A069B8D
:10991000134002339B002C4A134404330893EDE7B1
:1099200000BF0023079311E0049B5A1C0492069A7F
:109930001340079A920001A90A44234902339B006D
:109940000B445B681360079B01330793079B012B54
:10995000EAD99DF80430C3F30103DBB2012B10D028
:10996000022B1CD1BDF80A30ADF82630BDF8063008
:10997000C3F389139BB203339A08049B13440493E3
:109980000EE0BDF80A30ADF82630BDF80430C3F360
:109990008313DBB21A46049B1344049300E000BF18
:1099A000084801F0ADFE0590059B002B02D0049BFA
:1099B000054A9360BDF8263018460BB05DF804FBED
:1099C000002A0020FC290020E8250020BC230020DC
:1099D00000B585B00021074801F0FDFD0390039B11
:1099E0000293029B83F310030193019B184605B079
:1099F0005DF804FB042A002000B589B003900291B1
:109A000001920093039B1B0C0693FFF7E1FF079065
:109A1000079B1904009B5A1C0A9B1340069A0A4391
:109A20001B4902339B000B445A60009A0A9B134067
:109A300002339B00164A134404330593039B03F03F
:109A40000703D9B2059A137861F3C5031370019B1C
:109A500003F00F03D9B2059A138861F389131380B9
:109A6000029BC3F31501059A136861F39F231360EA
:109A7000059A1378012161F301031370059A137895
:109A80006FF38203137000BF09B05DF804FB00BFE1
:109A9000E825002000B58DB00390029113468DF8A3
:109AA0000730039B02330A9301238DF827300023EC
:109AB0008DF81B300DF11B03184601F0C3FC404B21
:109AC0005A68029B1A603F4B1A683D4B99683C4BA1
:109AD0005B68CB1A134401330B9314E001213A481D
:109AE00001F0D4FDFFF7F0FE07900799364801F02A
:109AF000CDFD344B1A68324B9968314B5B68CB1AF9
:109B0000134401330B930A9A0B9B9A42E6D89DF8B3
:109B10002730002B48D0002305939DF80730002BF9
:109B200017D09DF81430012262F301038DF8143030
:109B30009DF8143043F004038DF81430039B03F0B8
:109B40000F03DAB2BDF8143062F38913ADF81430A4
:109B500016E09DF81430022262F301038DF81430F0
:109B60009DF8143043F004038DF81430039BC3F3C5
:109B700009039AB2BDF8163062F38F13ADF81630B0
:109B80000F4B5A680F4B1B68134002339B000C4A63
:109B9000134404330893059A089B1A60084B5A68CB
:109BA0000A9B1344064A53609DF81B30184601F087
:109BB00053FC9DF8273018460DB05DF804FB00BF3C
:109BC000E8250020BC230020042A002000B58BB02B
:109BD00005900491039202931F4B1B68079306ABF9
:109BE000012219460298FFF755FF0346002B24D0A7
:109BF000069B023309930023089311E0089B9B0006
:109C0000039A1A44099B591C099107990B40126841
:109C1000124902339B000B445A60089B013308939E
:109C2000089A029B9A42E9D3069A079B009313462F
:109C3000029A04990598FFF7DFFE084B1B78002B6A
:109C400005D000BF00F07EF80346002BFAD100BF1C
:109C50000BB05DF804FB00BFBC230020E82500200A
:109C600000B583B001900091002300220099019873
:109C7000FFF7ACFF00BF03B05DF804FB00B587B091
:109C8000039002910192019B059305AA0123029979
:109C90000398FFF79BFF00BF07B05DF804FB00B51A
:109CA00087B00390029101920093019B0493009B63
:109CB000059304AA022302990398FFF787FF00BFC8
:109CC00007B05DF804FB00B589B0039002910192E2
:109CD0000093019B0593009B06930A9B079305AA9B
:109CE000032302990398FFF771FF00BF09B05DF8E5
:109CF00004FB00B58BB00390029101920093019B8D
:109D00000593009B06930C9B07930D9B08930E9B5A
:109D1000099305AA052302990398FFF757FF00BF8F
:109D20000BB05DF804FB0000054B9A68044B5B68C0
:109D30009A420CBF01230023DBB21846704700BFD4
:109D4000E825002000B599B0FFF7EEFF0346002B91
:109D500001D00023C0E19B4B0022C3F81824BFF3BD
:109D60004F8F00BF974B9B680493974B1B681093D2
:109D7000049A109B134002339B00924A134404330D
:109D80001193002317930023169300230F9304AB22
:109D900019461198FFF760FD0346002B19D0894B37
:109DA000D3F81834002B14D1864B5A68049B9A427E
:109DB00005D8844B5B68834A936000238CE1049A46
:109DC000109B134002339B007E4A134404331193CB
:109DD000DDE70023159311E0049B5A1C0492109AAE
:109DE0001340159A920001A90A44764902339B0058
:109DF0000B445B681360159B01331593159B012B76
:109E0000EAD99DF8043003F00303DBB2022B40F0E3
:109E10009C80BDF80630C3F389139BB20D93BDF847
:109E20000630C3F389139BB2502B28BF50239BB23B
:109E30000C930C9BC3F309039AB2BDF8063062F38E
:109E40008F13ADF806300C9B08330B939DF804304C
:109E5000C3F3C203DBB20F930B995C4802F08DF899
:109E60001790179B002B00F0D380179802F016F97B
:109E700001A9169B0822179802F0BAF9169B08331D
:109E80001693049BDA43109B134001339B000A9303
:109E90000C9A0A9B9A4242D90A9B002B08D0049A3A
:109EA000109B134002339B00464A1344043300E0E6
:109EB000474B08930A9B002B02D00A9BDBB201E0C0
:109EC0000C9BDBB28DF81F300A9B002B01D0404B5E
:109ED00000E0002306930A9B002B06D00C9BDAB20D
:109EE0000A9BDBB2D31ADBB200E000238DF81730F7
:109EF0009DF81F20169B0899179802F079F99DF894
:109F00001F30169A13441693069B002B16D09DF80B
:109F10001720169B0699179802F06AF90EE0049A2A
:109F2000109B134002339B00264A134404330993C9
:109F3000169B0C9A0999179802F05AF90D9B033356
:109F40009A08049B1344049362E09DF8043003F0E4
:109F50000303DBB2012B5BD1BDF80430C3F38313E1
:109F6000DBB2062B28BF0623DAB2BDF8043062F359
:109F70008913ADF80430BDF80430C3F38313DBB2AA
:109F800002330E939DF80430C3F3C203DBB20F9388
:109F90000E9B9B0019460D4801F0EFFF1790179B91
:109FA000002B35D0179802F079F801A9169B0822EA
:109FB000179802F01DF9169B08331693002315938A
:109FC0001DE000BFE8250020BC2300202C5C02001F
:109FD000F4250020049B5A1C0492109A134002336B
:109FE0009B003F4A1344191D169B0422179802F048
:109FF000FFF8169B04331693159B01331593BDF898
:10A000000430C3F38313DBB21A46159B9342E1D3AA
:10A01000179B002B40D0324BD3F810341493304BA5
:10A02000D3F81834002B1BD0179802F046F84DE0F7
:10A0300000238DF84F301498FFF74AFB0346002B9E
:10A0400002D001238DF84F309DF84F30002B03D004
:10A0500017991498FFF7F8FA149BDB681B681493A0
:10A06000149B002BE4D1179802F027F800238DF8F9
:10A0700003300DF10303184601F0E4F9184BD3F84F
:10A080001834002B02D1049B154A93609DF80330CD
:10A09000184601F0E1F919E0114BD3F8103412938E
:10A0A00006E01298FFF7EAFA129BDB681B6812932E
:10A0B000129B002BF5D10B4A0B4BD31ADB081B0468
:10A0C00043F0020309491846FFF7CAFDFFF72CFECB
:10A0D000034683F00103DBB2184619B05DF804FBB8
:10A0E000E8250020785C0200405C0200285D020048
:10A0F00000B585B00023039323E0164BD3F810344A
:10A10000029301238DF807300FE00298FFF7CFFA92
:10A1100003461A46039B934203D100238DF8073070
:10A1200006E0029BDB681B680293029B002BECD1CC
:10A130009DF80730002B01D0039B07E0039B013300
:10A140000393039B092BD8DD4FF0FF33184605B06E
:10A150005DF804FBE825002000B585B001900B46B2
:10A160008DF80330FFF7C4FF0390039BB3F1FF3F6B
:10A1700001D1039B22E0039BDBB219460198FFF754
:10A1800089FA104BD3F81034002B08D10D4A019BEB
:10A19000C2F81034019BDB6800221A600DE0094B05
:10A1A000D3F81034DA68019BDB6812681A60054B3B
:10A1B000D3F81034DB68019A1A60039B184605B087
:10A1C0005DF804FBE825002000B583B00C4BD3F804
:10A1D000103401930A4B01221A7009E00198FFF72D
:10A1E0006EFA0198FFF73EFA019BDB681B6801934A
:10A1F000019B002BF2D100BF00BF03B05DF804FB50
:10A20000E825002082B00190009100BF02B07047A5
:10A2100010B584B003900291039BDB88002B0AD019
:10A22000039BDB881A461F4B009313461E4A1F49A7
:10A23000029801F033FB039B1B7A052B2ED0039B66
:10A240005B7A002B12D0039B9B881A46039B1B7AD8
:10A2500019461046FFF7C8FA03461A46144B53F83E
:10A2600022301A461349029801F018FB039B1B6821
:10A2700019460298FFF7C6FF039B1B7A1A460E4B3E
:10A2800053F82240039B9B8800211846FFF78CFA65
:10A29000034622460949029801F000FB00BF04B0C2
:10A2A00010BD00BF5C5D02006C5D0200A45D020099
:10A2B000D4230020BC5D0200C0230020C05D02004A
:10A2C00000B585B00390029113468DF80730039BCB
:10A2D0001B7A052B0FD0039B5B7A002B06D00D4B0E
:10A2E0001B681A460C49029801F0D8FA0B490298EB
:10A2F00001F0D4FA07E09DF80730002B03D007499E
:10A30000029801F0CBFA029801F0B0FA00BF05B054
:10A310005DF804FBD4230020BC5D0200CC5D02008C
:10A3200030B58BB007900691059204930E9B1B7B72
:10A330008DF827300E9B00221A730E990498FFF7B0
:10A3400067FF059B062B7FD801A252F823F000BFC0
:10A350006DA3010077A3010087A301009BA3010067
:10A36000B9A30100E1A3010011A4010007990E980F
:10A3700001F094FA69E0069B1B681A4607990E984B
:10A3800001F08CFA61E0069B1A68069B04331B6897
:10A3900007990E9801F082FA57E0069B1A68069B0F
:10A3A00004331968069B08331B6800930B46079912
:10A3B0000E9801F073FA48E0069B1968069B043377
:10A3C0001868069B08331B68069A0C3212680192C3
:10A3D000009303460A4607990E9801F05FFA34E0AD
:10A3E000069B1868069B04331C68069B08331B6891
:10A3F000069A0C321268069910310968029101928E
:10A4000000932346024607990E9801F047FA1CE094
:10A41000069B1C68069B04331D68069B08331B685B
:10A42000069A0C32126806991031096806981430A1
:10A43000006803900291019200932B4622460799EF
:10A440000E9801F02BFA00E000BF00220E9904984C
:10A45000FFF736FF0E9B9DF827201A7300BF0BB045
:10A4600030BD00BF00B587B0039002910192009308
:10A47000029B082B60D8009B1B7B8DF81330009B40
:10A4800000221A7300990198FFF7C2FE002305937A
:10A4900014E0059A029B9A4209D2039A059B134441
:10A4A0001B781A462649009801F0F8F903E025497F
:10A4B000009801F0F3F9059B01330593059B072BE9
:10A4C000E7D92149009801F0E9F90023059326E036
:10A4D000059A029B9A421BD2039A059B13441B7850
:10A4E0008DF812309DF812307E2B0AD89DF812306C
:10A4F00018460BF0A7FA0346002B02D09DF8123045
:10A5000000E02E231A461149009801F0C7F903E034
:10A510000F49009801F0C2F9059B01330593059B93
:10A52000072BD5D9012200990198FFF7C9FE009B9E
:10A530009DF813201A7300E000BF07B05DF804FB1C
:10A54000D05D0200D85D0200DC5D0200E05D02002B
:10A55000E45D020086B003900291019201238DF820
:10A5600017309DF81730204A039B13601E4A029B48
:10A5700053601D4A019B9360039B44F20102934286
:10A5800012D0039B44F20202934220D1019B164A4F
:10A59000D360154BDB681B68134A9361124BDB6871
:10A5A0005B68114AD36112E0019B0F4A13610E4BA5
:10A5B0001B699B680C4A53610B4B1B691B680A4A59
:10A5C0009361094B1B695B68074AD36100BF72B690
:10A5D00000BF00BF9DF81730DBB2002BFAD162B686
:10A5E00000BF00BF06B07047082A002000B583B046
:10A5F00002900091019244F2010071466A4600F017
:10A6000003F803B000BD00BF30B58BB007900691D2
:10A61000059272B600BFFFF7D7FD00BFFFF792FBB0
:10A620000346002BFAD1079B44F2020293422FD03B
:10A63000079B44F20202934269D8079B44F201024D
:10A64000934237D0079B44F2010293425FD8079BA5
:10A65000012B05D0079B41F2010293420CD056E03A
:10A66000394A3A4BD31ADB081B0443F0010338493B
:10A670001846FFF7F5FA57E0334A344BD31ADB0894
:10A680001B0443F0010333491846FFF7E9FA4BE096
:10A69000059B09932C4A2D4BD31ADB081B0443F06E
:10A6A0000100099B5B681A46099B1B682A49FFF752
:10A6B000F6FA39E0059B0893234A244BD31ADB08AA
:10A6C0001B0443F00104089B9D68089B9B68184687
:10A6D00001F02CFE03461846089B5B681946089B50
:10A6E0001B68069A02920193009103462A461B4971
:10A6F0002046FFF7FEFA144A144BD31ADB081B045A
:10A7000043F0010316491846FFF7AAFA0CE00E4A77
:10A710000E4BD31ADB081B0443F00103069A1149C0
:10A720001846FFF7ABFA00BF0F4B1B6803F001039D
:10A73000002B00D000BE059A06990798FFF70AFF84
:10A7400000BF0BB030BD00BF785C0200405C02006F
:10A75000F45D0200145E0200385E0200545E0200E6
:10A760007C5E0200905E0200F0ED00E082B00346E5
:10A770008DF807309DF90730002B0CDB9DF8073072
:10A7800003F01F0205499DF907305B09012000FA1B
:10A7900002F241F8232000BF02B0704700E100E060
:10A7A00082B003468DF807309DF90730002B13DB8C
:10A7B0009DF8073003F01F0209499DF907305B0936
:10A7C000012000FA02F2203341F82320BFF34F8F1B
:10A7D00000BFBFF36F8F00BF00BF02B0704700BF64
:10A7E00000E100E082B003468DF807309DF90730A4
:10A7F000002B0DDB9DF8073003F01F0206499DF981
:10A8000007305B09012000FA02F2403341F82320AF
:10A8100000BF02B0704700BF00E100E082B0034615
:10A820008DF807309DF90730002B0DDB9DF80730C0
:10A8300003F01F0206499DF907305B09012000FA69
:10A8400002F2603341F8232000BF02B0704700BF1E
:10A8500000E100E082B0034600918DF807309DF9D9
:10A860000730002B0ADB009BDAB20C499DF9073058
:10A870005201D2B20B4483F800230BE0009BDAB202
:10A8800007499DF8073003F00F03043B5201D2B291
:10A890000B441A7600BF02B0704700BF00E100E031
:10A8A00000ED00E000B585B00190019B002B0AD0BF
:10A8B000074B43F001030393019B9B010293039B0E
:10A8C0000298984700E000BF05B05DF804FB00BFA8
:10A8D000B05E020000B583B00190064A019BC2F849
:10A8E000083506211120FFF7B5FF00BF03B05DF862
:10A8F00004FB00BF0010014008B50D4B4FF480323F
:10A90000C3F844230A4B4FF48032C3F804231120C8
:10A91000FFF784FF1120FFF729FF054B01221A6082
:10A920002F20FFF7BFFF034B01221A7000BF08BDA5
:10A9300000100140462B002008B51120FFF730FF22
:10A940000E4B4FF48032C3F848230C4B4FF4803247
:10A95000C3F80823094B01225A602F20FFF7A2FFFA
:10A96000064B01229A60064B00221A602F20FFF747
:10A9700099FF044B00221A7000BF08BD001001406F
:10A98000382B0020462B0020024BD3F80435184604
:10A99000704700BF0010014082B001900091019A01
:10A9A000009BD31A23F07F43184602B07047000083
:10A9B00082B00190034A019BC2F8403500BF02B04B
:10A9C000704700BF0010014086B00190284B1B6803
:10A9D000002B03D1264A019B136045E0019B1A68B6
:10A9E000234B1B681B689A4210D8214B1B681968BF
:10A9F000019B1A681E4B1B688A1A1A601C4B1A6846
:10AA0000019BDA611A4A019B13602DE0019B1B68D0
:10AA10000393174B1B680593154B1B68049309E0C0
:10AA2000049B1B68039AD31A0393049B0593049B0E
:10AA3000DB690493049B002B04D0049B1B68039ADE
:10AA40009A42EDD8049B002B05D0049B1A68039B07
:10AA5000D21A049B1A60019B039A1A60019B049A04
:10AA6000DA61059B019ADA6100BF06B0704700BF4A
:10AA7000342B002000B587B001902A4B1B6803934C
:10AA8000284B1B680593059B049308E0049A019BDF
:10AA90009A4208D0049B0593049BDB690493049BB2
:10AAA000002BF3D100E000BF049B002B01D1002359
:10AAB00033E0059A049B9A4214D11A4B1B68DB6958
:10AAC000184A1360174B1B68002B0BD1164B012241
:10AAD0009A60164B00221A60154B01221A702F2023
:10AAE000FFF7E0FE049B1B680293049BDA69059B59
:10AAF000DA61059BDB690493049B002B05D0049B62
:10AB00001A68029B1A44049B1A60064B1B68039A3E
:10AB10009A4214BF01230023DBB2184607B05DF848
:10AB200004FB00BF342B002000100140382B002014
:10AB3000472B002008B51120FFF754FE00BF08BDC9
:10AB400008B51420FFF74EFE00BF08BD00B583B066
:10AB50000190019B5B69019A92691046984700BF7A
:10AB600003B05DF804FB000000B585B02B4B1B68FB
:10AB7000002B4ED000230193FFF706FF0246284B1F
:10AB80001B6819461046FFF707FF0290234B1B680E
:10AB900003931DE0039B1B68029A9A421CD3039BFC
:10ABA0001B68029AD31A0293039B1B68019A1344F1
:10ABB0000193039B0093039BDB690393009B1B7C26
:10ABC000002B05D0009B00221A740098FFF7BEFFEF
:10ABD000039B002BDED100E000BF124B1A78124B12
:10ABE0001B789A420CD1104B1B780133DAB20E4B12
:10ABF0001A700D4B1B78022B02D10B4B00221A70DE
:10AC0000094B1B781946094A019B42F82130FFF78E
:10AC100097FF00BF05B05DF804FB00BF342B002098
:10AC2000382B0020442B0020452B00203C2B0020FB
:10AC300082B00190184B1A78184B1B789A4223D097
:10AC4000154B1B780133DAB2134B1A70124B1B7879
:10AC5000022B02D1104B00221A700F4B1B781A46A0
:10AC60000F4B53F82220019B1A60019B1A680D4B71
:10AC70001B6813440B4A13600A4B1B6823F07F4385
:10AC8000084A1360012303E0019B00221A6000239D
:10AC9000184602B0704700BF442B0020452B00200F
:10ACA0003C2B0020382B002088B0039002910192A9
:10ACB0000023079338E0204B1B680693069B1B6814
:10ACC000039A9A4206D2069B1A68039BD21A069BE5
:10ACD0001A602EE0069B1B68039AD31A0393069B07
:10ACE0001B68079A13440793069B00221A60124BB5
:10ACF0001B680593069BDB690F4A1360069BDB68A4
:10AD0000002B11D0029A079B134423F07F42069B2D
:10AD10005A60069BDA68069B9A60019B1A68069B3C
:10AD2000DA61019B059A1A60034B1B68002BC2D1A4
:10AD300000BF00BF08B07047342B002000B589B0B9
:10AD4000019000238DF81F30664B1B680593AAE025
:10AD5000019B002B05D0019B0693069BDB690193A9
:10AD600061E0614B1B781A4613465B001344DB001D
:10AD70005D4A1344043304935B4B1B780133DAB20E
:10AD8000594B1A70584B1A78574B9B789A4202D1FC
:10AD9000554B00221A70049B5B680693049B1B783A
:10ADA000032B1ED0032B7EDC012B1FD0022B7AD16C
:10ADB000049B5B681846FFF75DFE0346002B02D03C
:10ADC00001238DF81F30069B00221A746BE0454B5F
:10ADD0001B680393039B00221A74039BDB69414A9F
:10ADE0001360404B1B68002BF1D15CE000BF069B59
:10ADF0001B7C002B00D056E0049B9A68069B5A608F
:10AE0000049BDA68069B9A60049B1A69069BDA60C9
:10AE1000049B5A69069B9A61344B1B78002B02D025
:10AE2000069B00225A60069B5A68314B1B68D31A56
:10AE300023F07F432F4A93420ED8069B5B682C4A2F
:10AE4000126811461846FFF7A7FD0246069B9B684D
:10AE50001A44069B1A6017E0254B1A68069B5B682C
:10AE600019461046FFF798FD0290069B9B68029AD0
:10AE70009A4206D2069B9A68029BD21A069B1A60D7
:10AE800002E0069B00221A60069B00225A60069B85
:10AE900000229A60069B01221A74069B0022DA6146
:10AEA0000698FFF791FD019B002B7FF451AF0E4BED
:10AEB0001A780D4B5B789A427FF44AAF9DF81F30A9
:10AEC000002B04D1074B1B68059A9A4201D001233D
:10AED00000E0002303F00103DBB2184609B05DF87F
:10AEE00004FB00BF342B0020282A0020472B002021
:10AEF000382B0020FEFF7F0010B588B00190274B53
:10AF00001B68002B44D0254B1B681B680793FFF779
:10AF10003BFD0690224B1B68059305990698FFF7A9
:10AF20003BFD0346033304931E4B1B7883F0010360
:10AF3000DBB2002B01D0FFF7DFFC049A079B9342A2
:10AF400038BF1346059A13440593059B23F07F43AE
:10AF500005930598FFF72CFDFFF716FD0390069962
:10AF60000398FFF719FD0346DC1C06990598FFF7C7
:10AF700013FD03469C420DD9FFF706FD0346184614
:10AF8000FFF716FD2F20FFF78DFCFFF7D3FD01E043
:10AF9000FFF7D2FC00BF08B010BD00BF342B00206B
:10AFA000382B0020462B002000B587B000230193EA
:10AFB00000238DF81730194B1B680493184B1B683E
:10AFC00003936B461846FFF733FE03468DF80B30AC
:10AFD0009DF80B30002B08D0009B01AA049918465D
:10AFE000FFF762FE01238DF81730019B1846FFF72B
:10AFF000A5FE0346002B02D001238DF817309DF8E3
:10B000001730002B02D00398FFF776FF054B002284
:10B010001A7000BF07B05DF804FB00BF382B00209A
:10B02000342B0020472B002082B003468DF80730D8
:10B03000034A9DF80730537000BF02B0704700BF4D
:10B04000282A002084B00190144B5B7801338DF8DE
:10B050000F30124B9B789DF80F209A4202D10023AB
:10B060008DF80F300D4B1B789DF80F209A4201D1BF
:10B0700000230FE0019B9DF80F201A70074B5B78AF
:10B080001A4613465B001344DB00044A134404339E
:10B090000293029B184604B0704700BF282A002084
:10B0A00000B589B0039002910192009300230793A9
:10B0B00000238DF816300DF11603184600F0C2F982
:10B0C0000DF117031846FFF7BDFF0690069B002BF6
:10B0D00002D10423079318E0069B01221A70069BF5
:10B0E000039A5A60FFF750FC0246069B9A60069B43
:10B0F000029ADA60069B019A1A61069B009A5A61CD
:10B100009DF817301846FFF78FFF9DF81630184648
:10B1100000F0A2F9079B002B01D1FFF711FD079B5F
:10B12000184609B05DF804FB00B587B001900B46E6
:10B130008DF803300023059300238DF80E300DF1B8
:10B140000E03184600F07EF90DF10F031846FFF7C5
:10B1500079FF0490049B002B02D1042305930BE09C
:10B16000049B9DF803201A70049B019A5A609DF875
:10B170000F301846FFF758FF9DF80E30184600F0C4
:10B180006BF9059B002B01D1FFF7DAFC059B1846F4
:10B1900007B05DF804FB000008B50E4B0022C3F8B1
:10B1A00040210C4B0022C3F844210A4B0022C3F873
:10B1B0004821084B0022C3F84C21064B0022C3F85B
:10B1C0000021044B0022C3F80421FFF7CDFC00BF8F
:10B1D00008BD00BF0010014008B5FFF7E5FE00BF45
:10B1E00008BD000008B5FFF7A7FB134B00221A703B
:10B1F000114B00225A70104B0B229A700F4B0022F9
:10B200001A600F4B00221A700E4B00221A70142085
:10B21000FFF704FB06211420FFF71CFB1420FFF7A7
:10B22000A5FA0020FFF756FBFFF7AEFB0346064AE0
:10B2300013600023184608BD282A0020342B002064
:10B24000442B0020452B0020382B002086B0039093
:10B250000B4601928DF80B30134B9B78002B01D1DC
:10B2600008231EE0019B002B01D1072319E0039B5B
:10B27000002B01D1072314E0039B1B681B7C002BD0
:10B2800001D008230DE0039B1B680593059B00225A
:10B290001A74059B9DF80B205A74059B019A5A61FC
:10B2A0000023184606B07047282A002000B587B052
:10B2B000039002910192039B0593164B9B78002B00
:10B2C00001D1082322E0039B002B01D108231DE0BC
:10B2D000029B042B03D9029BB3F1807F01D3072388
:10B2E00014E0059B5B69002B01D108230EE0059B50
:10B2F0005B7C012B01D1029B00E000230493019BA6
:10B30000049A02990598FFF7CBFE0346184607B04A
:10B310005DF804FB282A002000B585B00190019B50
:10B3200003930D4B9B78002B01D1082310E0019B68
:10B33000002B03D0039B5B69002B01D1082307E09E
:10B34000039B00221A7402210398FFF7EDFE0346C7
:10B35000184605B05DF804FB282A002082B0EFF300
:10B3600010830093009B019372B600BF019B1846A7
:10B3700002B0704762B600BF00BF704700B585B02D
:10B380000190FFF7EBFF0390164B9B68002B1BD13E
:10B39000144B01229A60144BD3F88020134B1340B6
:10B3A000104A1360104B114AC3F880200E4BD3F89B
:10B3B00084300C4A53600C4B4FF0FF32C3F88420AA
:10B3C000019B00221A7002E0019B01221A70039B6C
:10B3D000002B01D1FFF7CEFF0023184605B05DF822
:10B3E00004FB00BF482B002000E100E0FC06FFBD8D
:10B3F00000B585B003468DF80730104B9B68002BD5
:10B4000016D09DF80730002B12D1FFF7A7FF03904D
:10B410000B4A0A4B1B681360094A084B5B68536070
:10B42000064B00229A60039B002B01D1FFF7A2FF7D
:10B430000023184605B05DF804FB00BF482B002030
:10B4400000E100E000B583B001900198FFF796FF9E
:10B4500000BF03B05DF804FB00B583B003468DF870
:10B4600007309DF807301846FFF7C2FF00BF03B052
:10B470005DF804FB86B001900091019B53E8021F28
:10B480001FFAA1F2D888824202BFBFF32F8F002398
:10B490000DE0D88902449889824228BF121AC1EA75
:10B4A000024243E802200028E8D14FF001038DF862
:10B4B0000F30059002910492029A009B1A609DF849
:10B4C0000F30DBB2184606B0704784B00190019986
:10B4D00051E8023FC3EA234341E80232002AF7D190
:10B4E0000392029300BF04B0704700B585B001908D
:10B4F0000091009B19460198FFF7BCFF0346002B03
:10B5000007D0019B1B68009A528813440393039B46
:10B5100000E00023184605B05DF804FB00B583B0D9
:10B5200001900091009B1A88009B5B889A4204D18D
:10B530000198FFF7CAFF012300E00023184603B07B
:10B540005DF804FB00B585B001900091009B5B099C
:10B550009B00019A1A44009B03F01F03012101FA8A
:10B5600003F31946104600F04CF8039000BF05B0F5
:10B570005DF804FB00B585B001900091009B5B096C
:10B580009B00019A1A44009B03F01F03012101FA5A
:10B5900003F3DB431946104600F061F8039000BF47
:10B5A00005B05DF804FB82B001900091009B5B093F
:10B5B0009B00019A13441A68009B03F01F0322FAB0
:10B5C00003F303F00103002B14BF01230023DBB2BC
:10B5D000184602B0704710B487B001900091019BEB
:10B5E000009A53E8004F104643E8000191F0000F25
:10B5F000F7D1059404900391059B184607B010BC41
:10B60000704710B487B001900091019B009A53E8F5
:10B61000004F44EA020043E8000191F0000FF6D128
:10B62000059404900391049B184607B010BC704722
:10B6300010B487B001900091019B009A53E8004F2D
:10B6400004EA020043E8000191F0000FF6D10594EE
:10B6500004900391059B184607B010BC704710B4C6
:10B6600087B001900091019B009A53E8004F04EAD3
:10B67000020043E8000191F0000FF6D10594049018
:10B680000391049B184607B010BC704710B487B0F4
:10B6900001900091019B009A53E8004F04EB0200D7
:10B6A00043E8000191F0000FF6D105940490039156
:10B6B000049B184607B010BC704710B487B00190C7
:10B6C0000091019B009A53E8004FA4EB020043E86D
:10B6D000000191F0000FF6D1059404900391049BB2
:10B6E000184607B010BC704700B583B00190012127
:10B6F0000198FFF786FF0346184603B05DF804FB88
:10B7000000B583B0019000210198FFF791FF034637
:10B71000184603B05DF804FB82B001900B468DF82B
:10B720000330019BDA689DF803300199098A01FB17
:10B7300003F31344184602B0704782B001900091A1
:10B74000009B019AD2689B1A019A128AB3FBF2F30A
:10B75000DBB2184602B0704784B00190019B002B09
:10B7600001D10E2320E0019B9A68019B5B68D31AEC
:10B770008DF80F30019B1B68019A52681A6007E030
:10B78000019B1A681368591C11609DF80F201A70EC
:10B790009DF80F305A1E8DF80F20002BF0D1019B21
:10B7A0001B6800221A710023184604B0704700B5C8
:10B7B00085B001900023039300238DF80A300DF12A
:10B7C0000A031846FFF73EFE019B1B681A68019B9F
:10B7D0005B689A421FD9019B1B681A68013A1A607C
:10B7E0001B681B7819460198FFF796FF0390019B91
:10B7F0009A68019B1B681B68D31A8DF80B30019B5C
:10B800001B681B799DF80B209A4204D9019B1B6889
:10B810009DF80B201A719DF80A301846FFF71CFEA0
:10B82000039B184605B05DF804FB10B584B0019089
:10B830000091009B039300238DF80B300DF10B0357
:10B840001846FFF7FFFD019B1B681C68621C1A600D
:10B8500003990198FFF771FF034623709DF80B30A1
:10B860001846FFF7F9FD00BF04B010BD00B583B066
:10B870000190019B9B68002B0CD0019B5B69019A96
:10B880001069019A1168019A92689847019B0022F9
:10B890009A6000E000BF03B05DF804FB0EB400B591
:10B8A00084B00190059B002B0AD00023039306ABC4
:10B8B000039303AB1A460599019800F0B5F900E02F
:10B8C00000BF04B05DF804EB03B0704700B583B06F
:10B8D00001900B468DF803309DF803300A2B03D1FD
:10B8E0000D210198FFF7F2FF019B1A68019B9B68ED
:10B8F000581C0199886013449DF803201A70019B1D
:10B900009A68019B5B689A4202D30198FFF7AEFFE9
:10B9100000BF03B05DF804FB00B587B0039002914F
:10B920000192009300230593009B03F00103002B79
:10B9300024D00BE0029B01330293059B0133059356
:10B940009DF8133019460398FFF7C0FF029B1B7840
:10B950008DF813309DF81330002BEBD106E0019BDE
:10B96000013B019320210398FFF7B0FF019A059B4B
:10B970009A422ED9019B002BF1D12AE0029B002B89
:10B980000BD002980AF0E1F8059006E0019B013B1C
:10B99000019320210398FFF799FF019A059B9A4292
:10B9A0000FD9019B002BF1D10BE0029B01330293D5
:10B9B000059B013305939DF8133019460398FFF753
:10B9C00085FF029B1B788DF813309DF81330002BF8
:10B9D000EBD100BF07B05DF804FB000000B589B0F3
:10B9E0000390029101920093029B07930123069317
:10B9F00007E0079A019BB2FBF3F30793069B013321
:10BA00000693079A019B9A42F3D2009A069B9A42A8
:10BA100001D9009B06930B9B03F00103002B22D15D
:10BA20000A9B002B1FD00B9B03F00203002B06D0B8
:10BA3000009B002B03D130238DF8173002E0202328
:10BA40008DF8173008E00A9B013B0A939DF81730E8
:10BA500019460398FFF73AFF0A9B002B03D0069A7A
:10BA60000A9B9A42EFD301230793009B012B03D932
:10BA7000009B013B009309E0029A079BB2FBF3F3A2
:10BA80000493049A019B9A4200D205E0079B019A15
:10BA900002FB03F30793E8E7029A079BB2FBF3F379
:10BAA0000493049B079A02FB03F3029AD31A0293AE
:10BAB000154A049B13441B7819460398FFF706FFA9
:10BAC000079A019BB2FBF3F30793079B002BE3D18B
:10BAD0000B9B03F00103002B11D00A9B002B0ED00F
:10BAE00006E00A9B013B0A9320210398FFF7EEFE34
:10BAF0000A9B002B03D0069A0A9B9A42F1D300BFFF
:10BB000009B05DF804FB00BFB85E020000B589B063
:10BB10000590049103920293049B002BB8BF5B42F3
:10BB200006930123079307E0039B069A92FBF3F326
:10BB30000693079B01330793039B069A9A42F3DA15
:10BB4000029A079B9A4201D9029B07930A9B002BFA
:10BB50000AD0049B002B04DB0B9B03F00403002B97
:10BB600002D00A9B013B0A930B9B03F00203002BBC
:10BB700002D0029B002B16D00B9B03F00103002B7D
:10BB800011D10A9B002B0ED006E00A9B013B0A93C1
:10BB900020210598FFF79AFE0A9B002B03D0079AF5
:10BBA0000A9B9A42F1D3049B002B07DA049B5B4269
:10BBB00004932D210598FFF789FE08E00B9B03F005
:10BBC0000403002B03D02B210598FFF77FFE0B9B6E
:10BBD00003F00203002B19D00B9B03F00103002B91
:10BBE00014D1029B002B11D10A9B002B0ED006E032
:10BBF0000A9B013B0A9330210598FFF767FE0A9BD9
:10BC0000002B03D0079A0A9B9A42F1D304990B9B0D
:10BC100001930A9B0093029B039A0598FFF7DEFEAF
:10BC200000BF09B05DF804FB00B58FB0059004912A
:10BC30000392049B002B00F09181049B1B788DF8EC
:10BC40003730049B013304939DF83730002B00F00C
:10BC50007C819DF83730252B40F06B8100230A93BF
:10BC600001230C93049B1B788DF837309DF83730F7
:10BC7000302B0DD0302B1BDC2B2B11D02D2B17D1C3
:10BC80000A9B43F001030A93049B0133049312E0DF
:10BC90000A9B43F002030A93049B013304930AE0D6
:10BCA0000A9B43F004030A93049B0133049302E0CC
:10BCB00000230C9300BF0C9B002BD3D100230993CE
:10BCC0009DF837302A2B0CD1039B1B68191D039A52
:10BCD00011601B68099A13440993049B0133049370
:10BCE0001AE0049B1B788DF837309DF837302F2BE6
:10BCF00012D99DF83730392B0ED8049B01330493A9
:10BD0000099A13469B0013445B001A469DF837308E
:10BD10001344303B0993D3E700230B93049B1B7818
:10BD20008DF837309DF837302E2B1DD1049B013311
:10BD30000493049B1B788DF837309DF837302F2BF8
:10BD400012D99DF83730392B0ED8049B0133049358
:10BD50000B9A13469B0013445B001A469DF837303C
:10BD60001344303B0B93E4E7049B1B788DF837308A
:10BD70009DF837306C2B03D09DF83730682B07D1F6
:10BD8000049B01330493049B1B788DF83730EFE755
:10BD90009DF83730252B00F0C280252BC0F2C480DF
:10BDA000782B00F3C180582BC0F2BE80583B202B6B
:10BDB00000F2BA8001A252F823F000BFABBE01002E
:10BDC00029BF010029BF010029BF010029BF0100CF
:10BDD00029BF010029BF010029BF010029BF0100BF
:10BDE00029BF010029BF010041BE010063BE01005F
:10BDF00029BF010029BF010029BF010029BF01009F
:10BE000063BE010029BF010029BF010029BF010055
:10BE100029BF010029BF010029BF0100EBBE0100BD
:10BE200029BF010029BF0100CFBE010029BF0100C9
:10BE300087BE010029BF010029BF0100ABBE010080
:10BE4000039B1B68191D039A11601B680C930C9BC4
:10BE50008DF81F309DF81F3019460598FFF736FD05
:10BE600063E0039B1B68191D039A11601B680C9308
:10BE70000A9B0193099B00930B9B0A220C9905983E
:10BE8000FFF744FE51E0039B1B68191D039A1160E4
:10BE90001B680C930C990A9B0193099B00930B9BC5
:10BEA0000A220598FFF79AFD3FE0039B1B68191DC6
:10BEB000039A11601B680C930C990A9B0193099BD0
:10BEC00000930B9B10220598FFF788FD2DE0039B44
:10BED0001B68191D039A11601B6808930A9B099A35
:10BEE00008990598FFF718FD1FE0039B1B68191DB3
:10BEF000039A11601B680C9330210598FFF7E6FC4C
:10BF000078210598FFF7E2FC0C99002301930823A0
:10BF10000093082310220598FFF760FD05E0252116
:10BF20000598FFF7D3FC00E000BF049B01330493A6
:10BF300005E09DF8373019460598FFF7C7FC049BCC
:10BF40001B78002B7FF479AE00E000BF059B1B7BC4
:10BF5000002B04D00598FFF789FC00E000BF0FB06C
:10BF60005DF804FB00B583B001900198FFF7F4FB86
:10BF70000346184603B05DF804FB00B58BB0019092
:10BF80000091019B1B8A043B0793009A079B134473
:10BF9000DA1C079BB2FBF3F38DF81B300198FFF717
:10BFA00006FC0590059B002B01D1002338E0059B82
:10BFB00000221A71059B01225A71079B9AB2059BB8
:10BFC000DA80059B09939DF81B30013B0493099B84
:10BFD000019A1A60002308931DE00198FFF7E7FB20
:10BFE0000390039B002B0ED0059B5B790133DAB2E3
:10BFF000059B5A71099B039A1A60039B019A1A6068
:10C00000039B099304E0059800F00EF8002307E075
:10C01000089B01330893089A049B9A42DDD3059B41
:10C0200018460BB05DF804FB00B58BB00190019B86
:10C030000793079B5B798DF81B30019B08939DF854
:10C040001B30013B05930023099305E0089B1B6807
:10C050000893099B01330993099A059B9A42F5D3EA
:10C06000089B1B680493019B0893002309930BE032
:10C07000089B1B68039308990498FFF7D6FB039B62
:10C080000893099B013309939DF81B30099A9A4242
:10C09000EED300BF00BF0BB05DF804FB00B585B068
:10C0A0000190019B0393039B043301211846FFF782
:10C0B000EDFA00BF05B05DF804FB00B587B0019054
:10C0C000019B0593059B043301211846FFF7F5FA00
:10C0D0000346039303AB0493049B1B78002B02D10C
:10C0E0000198FFF7A1FF00BF07B05DF804FB00B5A2
:10C0F00091B00390029101920093039B0993039BDB
:10C100000F93099BDB881A46099B5B7902FB03F3BB
:10C11000043B0893099BDB880793009B1A1D079B30
:10C12000B2FBF3F30E93009B0433079AB3FBF2F2D6
:10C13000079901FB02F29B1A0D93019B1A68009B61
:10C140001344089A9A4203D2089A009BD31A01E03A
:10C15000019B1B680C93019B0C9A1A6005E00F9BD6
:10C160001B680F930E9B013B0E930E9B002BF6D189
:10C1700000230B93079A0D9BD31A0A930A9A0C9BE0
:10C18000934228BF13460A932AE0029A0B9B13445A
:10C1900006930F9A0D9B1344043305939DF8483082
:10C1A000002B05D00A9A0599069809F050FC04E086
:10C1B0000A9A0699059809F04AFC00230D930F9BF3
:10C1C0001B680F930C9A0A9BD31A0C930B9A0A9B29
:10C1D00013440B93079A0C9B934228BF13460A9370
:10C1E0000C9B002BD1D100BF00BF11B05DF804FB48
:10C1F00000B589B00590049103920293039B0793C5
:10C2000007AA00230093029B04990598FFF76FFF8C
:10C2100000BF09B05DF804FB00B589B0059004913A
:10C2200003920293039B079307AA01230093029BA7
:10C2300004990598FFF75BFF00BF09B05DF804FBA8
:10C2400082B00190019B00221A60BFF35F8F00BF94
:10C2500000BF02B07047000008B5064B00221A70FC
:10C260000548FFF7EDFF0549054800F028F80023D1
:10C27000184608BD582B0020542B0020D45E020025
:10C280005C2B002082B00190019B9B6800229A6089
:10C29000019B9B6800221A61019B9B6800225A61E6
:10C2A000019B9B680022DA60019B9B6800225A6018
:10C2B000019B9B6800221A6000BF02B0704782B0E9
:10C2C00001900091019B009A1A60019B1B681A68FB
:10C2D000019B5A60019B5A68019B1B685B689A42EC
:10C2E00002D1019B00225A6000BF02B0704782B0A9
:10C2F0000190019B5B68002B14D0019B5B681A4680
:10C30000019B1B689B6813441A46019B5A60019B62
:10C310005A68019B1B685B689A4204D1019B00220A
:10C320005A6000E000BF02B07047000000B585B061
:10C330000190019800F00EF80390039B002B01D0B0
:10C34000039B00E0024B184605B05DF804FB00BFFC
:10C35000E05E020086B00190164B0593164B0493E5
:10C360001FE0049A059BD31ADB10DA0F13445B100D
:10C37000DB00059A13440393039B1B680293029A04
:10C38000019B9A4202D9039B04930AE0029A019B03
:10C390009A4203D2039B0833059302E0039B5B6838
:10C3A00004E0059A049B9A42DBD30023184606B0AA
:10C3B000704700BFE06202000864020082B0019092
:10C3C000019B03F00303002B0CBF01230023DBB20E
:10C3D000184602B07047000000B585B001900023F8
:10C3E00003930EE00B4A039B52F82330002B05D039
:10C3F000084A039B52F8233001989847039B013366
:10C400000393039B032BEDD900BF00BF05B05DF87C
:10C4100004FB00BF702B002082B001900091019BB3
:10C420001B78013B052B61D801A252F823F000BF15
:10C4300049C4010051C4010077C40100A9C401002E
:10C44000C9C40100E5C40100009B00221A704EE03F
:10C45000009B01221A70019B1A89009B9A81019B03
:10C460009A88009BDA81019BDA68009B9A60009BA6
:10C4700000221A743BE0009B02221A70019B1A8969
:10C48000009B9A81019B9A88009BDA81019BDA6864
:10C49000009B9A60019B9B7D062B0CBF0123002310
:10C4A000DAB2009B1A7422E0009B03221A70019BEF
:10C4B000DA88009B9A81019B1A89009BDA81019B93
:10C4C000DA68009B9A6012E0009B04221A70019BBC
:10C4D000DA88009B9A81009B0022DA81009B00226F
:10C4E0009A6004E0009B05221A7000E000BF00BFC4
:10C4F00002B0704784B001900091019B0393039AAE
:10C50000009B9A4206D2039B1B68B3F1FF3F01D008
:10C51000012300E0002303F00103DBB2184604B05E
:10C52000704782B00190019B5B8803339B00019AA6
:10C530001344184602B0704700B583B001900091D3
:10C540000198FFF7EEFF0246009B934201D20223BF
:10C5500011E0019B9B884FF6FF72934208D0019B2C
:10C560001B88002B04D0019B9B68B3F1FF3F01D1D6
:10C57000012300E00023184603B05DF804FB00002F
:10C5800000B583B00190019B002B13D00D4BDB68ED
:10C590001A46019B93420DD30A4B1B691A46019B15
:10C5A000934207D80198FFF709FF0346002B01D0FB
:10C5B000012300E0002303F00103DBB2184603B0BF
:10C5C0005DF804FBA023002084B00190009148F2A4
:10C5D000096303930023ADF80A3027E0BDF80A2071
:10C5E000164913469B0013449B000B4404331B68FD
:10C5F000009A9A4215D9BDF80A20104913469B00AB
:10C6000013449B000B4404331B6803F58053009ACA
:10C610009A4206D200230393019BBDF80A201A8098
:10C6200008E0BDF80A300133ADF80A30BDF80A3031
:10C63000012BD3D9039B184604B07047902B0020E0
:10C6400082B001900091009B9B7D022B09D9019B38
:10C650001A89009BDB8813449BB203339AB2019B77
:10C660001A81019B5A89009BDB88D31A9BB2033B3A
:10C670009AB2019B5A8100BF02B0704700B583B0E7
:10C68000074B1B681946002300930823054A0648F8
:10C6900000F0E0FE0346184603B05DF804FB00BF5F
:10C6A000B82B002008640200A023002000B585B04C
:10C6B00003900399002300930823044A044800F0E0
:10C6C000C9FE0346184605B05DF804FB106402007D
:10C6D000A023002000B585B003460091ADF80630D8
:10C6E000BDF80620244913469B0013449B000B44CD
:10C6F00004331B6803F580530293009B1B6803936C
:10C70000039B002B04D00398FFF70BFF039026E058
:10C71000BDF80620184913469B0013449B000B44A8
:10C7200004331B680833039319E002990398FFF759
:10C7300003FF0346022B10D0022B10DC002B02D08B
:10C74000012B05D00BE0009B039A1A6001230EE039
:10C750000398FFF7E6FE039001E0002307E002994B
:10C760000398FFF7C7FE0346002BDED100231846CF
:10C7700005B05DF804FB00BF902B002000B585B02C
:10C7800001900091019B5B681846FFF7F9FE034694
:10C79000002B19D0019B1A89244B1B899A4213D173
:10C7A000019B1A68019B5B689B689A420CD1019BB4
:10C7B0005B6819460098FFF707FF0346002B0CBF84
:10C7C00001230023DBB22CE0009B00221A8023E02F
:10C7D0000023029310E0029B0393039B9A68019B42
:10C7E0001B689A4208D1029A019B5A600F4B1A8922
:10C7F000019B1A81012314E0009B1B8802AA1146A9
:10C800001846FFF767FF0346002BE4D1009B1B8807
:10C8100001339AB2009B1A80009B1B88012BD7D949
:10C820000023184605B05DF804FB00BFC02B0020B4
:10C8300000B587B00390029101920093324B1B78B0
:10C84000DBB283F00103DBB2002B02D048F20163BC
:10C8500055E0019B002B02D0009B002B49D148F2F0
:10C8600004634CE0009B9B881946284A0B469B00BA
:10C870000B449B0013441B78002B33D124E0009B16
:10C880001B680593039B002B06D0059B9A88039B8E
:10C890001B889A4200D017E0029B002B06D0059B14
:10C8A0001A88029B1B889A4200D00DE0059B9A686B
:10C8B000019B1A60009B1A68019B5A60144B1A89ED
:10C8C000019B1A8100231AE0009B9B88009A114665
:10C8D0001846FFF7FFFE0346002BD0D1009B002235
:10C8E0001A6000E000BF009B9B8801339AB2009B56
:10C8F0009A80009B9B88012BB4D948F209631846A3
:10C9000007B05DF804FB00BF642B0020902B0020D3
:10C91000C02B002000B583B00190054B019918464B
:10C92000FEF7E3FD0346184603B05DF804FB00BFC5
:10C93000802B002000B583B00190044B019918466C
:10C94000FEF7ECFD00BF03B05DF804FB802B002078
:10C9500008B501210548FEF7B0FE0346002B14BFC1
:10C9600001230023DBB2184608BD00BF6C2B00205A
:10C9700000B587B003900291039B02229A75029939
:10C98000039B1A1D002300930423074800F062FD57
:10C990000590059B002B01D1002301E048F20D63B7
:10C9A000184607B05DF804FBA023002000B587B04F
:10C9B00003900291039B1B69002B01D0032200E02E
:10C9C0000122039B9A75029B08331946039B03F1CE
:10C9D0000C02002300930423074800F03BFD059060
:10C9E000059B002B01D1002301E048F20D6318469E
:10C9F00007B05DF804FB00BFA023002000B587B09E
:10CA000003900291039B1B78032B01D1052200E0C8
:10CA10000622039B9A75029B04331946039B03F17C
:10CA20000802002300930423074800F013FD05903B
:10CA3000059B002B01D1002301E048F20D6318464D
:10CA400007B05DF804FB00BFA023002000B587B04D
:10CA500003900B46ADF80A3003990023009304239A
:10CA60000D4A0E4800F0F6FC0590059B002B02D005
:10CA700048F20D630BE0BDF80A20094913469B00FC
:10CA800013449B000B44103301221A7000231846F4
:10CA900007B05DF804FB00BF18640200A02300206B
:10CAA000902B002000B589B0019002AB00221A60E3
:10CAB0005A609A60019BDB6802930DF1160202AB8B
:10CAC00011461846FFF75AFE0346002B12D0039B6F
:10CAD0000693069B9A88019BDA80069B1A88019B25
:10CAE0001A81039BBDF8162011461846FFF7AEFFCA
:10CAF000079002E048F209630793079B184609B0C4
:10CB00005DF804FB00B587B00190019B981D02AA57
:10CB10000D4B0021FFF78CFE0590059B002B08D1E3
:10CB2000039B094A928811461846FFF78FFF05902C
:10CB300004E008220021044808F0B2FF059B1846D3
:10CB400007B05DF804FB00BFD02B002000B587B014
:10CB500003900291039B01229A75029B0C331846A5
:10CB6000039B1A69039BDB889B000021009101460F
:10CB7000074800F06FFC0590059B002B01D10023B6
:10CB800001E048F20D63184607B05DF804FB00BFF2
:10CB9000A023002082B0184B1B8901339AB2164B98
:10CBA0001A81154B00225A80134B00221A7300235E
:10CBB000ADF8063018E0BDF80620104913469B007A
:10CBC00013449B000B441A78BDF80630002A0CBFB2
:10CBD00001220022D1B2084A13440A469A72BDF8D3
:10CBE00006300133ADF80630BDF80630012BE2D92E
:10CBF00000BF00BF02B07047C02B0020902B002068
:10CC000084B0019000238DF80F300023ADF80C3074
:10CC100031E0BDF80C301C4A13449B7A002B25D020
:10CC2000BDF80C30184A134400229A72BDF80C204B
:10CC3000164913469B0013449B000B440C331B689E
:10CC4000002B13D1BDF80C20104913469B00134450
:10CC50009B000B4410331B78002B07D0019BBDF8C1
:10CC60000C201A8001238DF80F3008E0BDF80C303D
:10CC70000133ADF80C30BDF80C30012BC9D99DF84B
:10CC80000F30184604B07047C02B0020902B0020B6
:10CC900008B5084B05221A70074B02229A80064BF2
:10CCA0001B68194600230122044800F0B5FC034626
:10CCB000184608BDC02B0020B82B0020A023002060
:10CCC00000B583B0164B5B88ADF80230BDF802208A
:10CCD000144913469B0013449B000B440C331B6800
:10CCE000002B14D10E4B04221A70BDF802200D49FE
:10CCF00013469B0013449B000B4404331B681946E6
:10CD000000230122084800F087FC019002E0FFF7B1
:10CD1000BFFF0190019B184603B05DF804FB00BF04
:10CD2000C02B0020902B0020A023002000B587B04E
:10CD3000104B5B680593104B1A680F4B9B889B0048
:10CD400013440493059B5B880333ADF80E30094B05
:10CD500003221A700499074B5A68BDF80E309B00E5
:10CD600000200090054800F075FB0346184607B008
:10CD70005DF804FBC02B0020B82B0020A02300206E
:10CD800000B583B00A4B5B880A491846FFF7A2FC3E
:10CD90000346002B03D0FFF7C9FF019002E0FFF725
:10CDA0008FFF0190019B184603B05DF804FB00BFA4
:10CDB000C02B0020C42B002008B50A4B06221A7095
:10CDC000084B5B881946084A0B469B000B449B00A6
:10CDD000134404331B681846FFF768FC03461846E3
:10CDE00008BD00BFC02B0020902B002008B5054BCC
:10CDF00007221A70034B00225A60FFF73FFC0346DC
:10CE0000184608BDC02B002008B50D48FFF7F8FEF6
:10CE1000034683F00103DBB2002B0BD0094B002249
:10CE20001A70084B00225A80064B00225A6041F6C5
:10CE30001D5302E0FFF7A4FF0346184608BD00BFDC
:10CE4000C22B0020C02B002082B0094B5B680193ED
:10CE5000019B5B880333ADF80230064B9A88BDF81E
:10CE6000023013449AB2034B9A8000BF02B070475D
:10CE7000C02B0020B82B002082B01E4B1B680193F2
:10CE80001D4B5B8819461D4A0B469B000B449B00BB
:10CE9000134404331B68174A1360174B5B88194609
:10CEA000164A0B469B000B449B0013440433019A23
:10CEB0001A60114B5B8819460E4B98880F4A0B4637
:10CEC0009B000B449B001344083302461A80094B15
:10CED00002229A80084B5B881946084A0B469B0041
:10CEE0000B449B001344103300221A7000BF02B0A1
:10CEF000704700BFB82B0020C02B0020902B0020D3
:10CF000008B51A4B1B78072B2CD801A252F823F036
:10CF100031CF010065CF010065CF01003DCF010099
:10CF200049CF010055CF010055CF01005DCF010071
:10CF3000FFF730FE0D4B01221A7014E0FFF784FF5B
:10CF40000A4B02221A700EE0FFF796FF074B0622EB
:10CF50001A7008E0054B07221A7004E0034B012207
:10CF60001A7000E000BF00BF08BD00BFC02B00204A
:10CF700000B587B00190009148F20E630593019BC4
:10CF8000002B05D0624B00225A604FF40643BAE0F2
:10CF9000009B1B79032B00F2A98001A252F823F019
:10CFA000B1CF0100BFCF01004DD001006DD0010015
:10CFB000009B01221A71FFF761FB059099E00023A5
:10CFC0008DF813300023ADF810302BE0BDF81020A1
:10CFD000504913469B0013449B000B441B78022BC3
:10CFE0001BD1BDF810204B4913469B0013449B00F6
:10CFF0000B4400221A7001238DF81330BDF8102065
:10D00000444913469B0013449B000B4404331B68A4
:10D010001846FFF74BFB059008E0BDF810300133D0
:10D02000ADF81030BDF81030012BCFD99DF813307A
:10D0300083F00103DBB2002B5AD0354B01221A706A
:10D04000334B00225A6041F61D535CE0009B0022E6
:10D050001A71314B02229A802F4B1B68194600230C
:10D0600001222E4800F0D8FA059042E0009B0022F1
:10D070001A712B4B5B88ADF80E30274B1B6802935F
:10D08000BDF80E20234913469B0013449B000B441C
:10D0900004331B68204A1360BDF80E201D49134657
:10D0A0009B0013449B000B440433029A1A60BDF8A2
:10D0B0000E20194B9888174913469B0013449B0078
:10D0C0000B44083302461A80134B02229A80BDF8A3
:10D0D0000E20104913469B0013449B000B44002272
:10D0E0001A700298FFF7E2FA059002E000BF00E034
:10D0F00000BF059B002B05D0054B00225A6048F26B
:10D100000D6300E00023184607B05DF804FB00BF84
:10D11000642B0020902B0020B82B0020A02300209F
:10D12000C02B002000B587B001900091009B9B8A26
:10D130001A4613469B0013449B003B4A1344049336
:10D14000019B002B06D000990498FFF779FA4FF461
:10D15000064364E0049B5A68049B1B899B001344AC
:10D160000393009B9B7D062B4DD801A252F823F020
:10D17000B5D10100D9D10100C1D10100CDD101004B
:10D180008DD10100E5D10100FFD10100274B002224
:10D190005A60009B9B69254A136025492348FFF785
:10D1A000EDFA034683F00103DBB2002B02D048F214
:10D1B000096334E003990098FFF7DAFB059026E055
:10D1C00003990098FFF7F2FB059020E0039900987F
:10D1D000FFF7BCFC05901AE003990098FFF70EFCDE
:10D1E000059014E0009B06229A75104B5B68104A6C
:10D1F000128811461846FFF729FC059007E041F612
:10D200001D53059303E048F20E63059300BF059B91
:10D21000002B03D000990498FFF712FA059B1846DB
:10D2200007B05DF804FB00BF902B0020D82B002036
:10D23000E42B002000B585B001900091019B002BEC
:10D2400002D04FF4064329E0009B1B79022B1BD030
:10D25000022B1DDC002B02D0012B08D018E0009B14
:10D2600002221A710098FFF71DFC039015E0009848
:10D27000FFF748FC0390039B48F2096293420BD1ED
:10D2800041F61D53039307E041F61D53039304E059
:10D2900048F20E63039300E000BF039B184605B0FD
:10D2A0005DF804FB00B585B00190019B002B02D016
:10D2B0004FF406433DE0214B1B7B002B03D01F4B5B
:10D2C00000221A7301E0FFF71BFE1C4B1B78013B89
:10D2D000062B29D801A252F823F000BFF9D2010091
:10D2E00001D3010009D3010011D3010029D30100AA
:10D2F00019D3010021D30100FFF786FD039017E049
:10D30000FFF73EFD039013E0FFF710FD03900FE0E1
:10D31000FFF7D6FC03900BE0FFF74EFD039007E00C
:10D32000FFF764FD039003E048F20E63039300BF30
:10D33000039B184605B05DF804FB00BFC02B00201E
:10D3400000B589B001903B4B1B68002B05D13A48D2
:10D35000FFF7E0FA0346374A1360364B1B681B7829
:10D36000013B052B2BD801A252F823F085D30100F5
:10D3700095D3010095D30100A5D30100A5D30100E9
:10D38000B5D301002B4B1B6819460198FFF7F0FD40
:10D39000019018E0274B1B6819460198FFF7C2FE61
:10D3A000019010E0234B1B6819460198FFF742FFDC
:10D3B000019008E00198FFF775FF019003E048F243
:10D3C0000E63019300BF019B002B2BD003AB002207
:10D3D0001A605A609A60DA601A61019B41F61D5228
:10D3E000934201D0019B00E000230493114B1B6882
:10D3F00003AA11461846FFF70FF803AB1846FEF7CD
:10D40000EBFF0C4B00221A60002301930A48FFF740
:10D4100091FAFFF79DFA034683F00103DBB2002B7C
:10D4200002D190E700BF00E000BF00BF09B05DF887
:10D4300004FB00BFE82B0020EC2B002000B583B0DC
:10D440000190019B5B681846FFF77AFF00BF03B0AD
:10D450005DF804FB10B586B0059004910392029329
:10D46000059B002B10D1604A604BD31ADB081B04CC
:10D4700043F001005E4A5F490E2300930B465E496C
:10D48000FCF721FC0E23ABE0039B002B10D1564A86
:10D49000564BD31ADB081B0443F00100574A554989
:10D4A0000E2300930B465449FCF70DFC0E2397E026
:10D4B000059B1B68002B10D14B4A4C4BD31ADB0841
:10D4C0001B0443F001004E4A4A49082300930B46CF
:10D4D0004949FCF7F8FB082382E0029B002B10D19E
:10D4E000414A424BD31ADB081B0443F00100454A72
:10D4F0004049092300930B463F49FCF7E4FB09230D
:10D500006EE0059B5B685A68029BB3FBF2F101FB7E
:10D5100002F29B1A002B10D0334A344BD31ADB088B
:10D520001B0443F00100384A3249092300930B469B
:10D530003149FCF7C8FB092352E0049800F01EF9BA
:10D540000346002B10D1284A284BD31ADB081B04B2
:10D5500043F001002D4A2749102300930B4626492A
:10D56000FCF7B1FB10233BE0039B184600F006F9E3
:10D570000346002B10D11C4A1C4BD31ADB081B049A
:10D5800043F00100224A1B49102300930B461A491D
:10D59000FCF799FB102323E0029A0499059800F008
:10D5A000D3F80346002B10D10F4A104BD31ADB08D7
:10D5B0001B0443F00100174A0E49102300930B4649
:10D5C0000D49FCF780FB10230AE0059B1B68DC6813
:10D5D000089B0093029B039A04990598A047034671
:10D5E000184606B010BD00BFA05C0200405C0200FF
:10D5F0002C640200D065020034640200C0640200A2
:10D60000686402007C640200C8640200F4640200E2
:10D610000C6502003065020010B586B005900491DB
:10D6200003920293059B002B10D13E4A3E4BD31A26
:10D63000DB081B0443F001003C4A3D490E230093E4
:10D640000B463C49FCF73FFB0E2368E0059B1B683B
:10D65000002B10D1334A344BD31ADB081B0443F0A0
:10D660000100354A3249082300930B463149FCF743
:10D670002AFB082353E0039B002B10D1294A2A4B95
:10D68000D31ADB081B0443F001002C4A2849092364
:10D6900000930B462749FCF716FB09233FE004994A
:10D6A000059800F078F80346002B10D11D4A1E4B58
:10D6B000D31ADB081B0443F00100214A1C49102344
:10D6C00000930B461B49FCF7FEFA102327E0059B4D
:10D6D0005B681B68039A02FB03F31A4604990598DA
:10D6E00000F032F80346002B10D10E4A0E4BD31A2D
:10D6F000DB081B0443F00100124A0D49102300937C
:10D700000B460C49FCF7DFFA102308E0059B1B6869
:10D710001C69029B039A04990598A0470346184682
:10D7200006B010BDA05C0200405C02002C64020048
:10D73000E465020034640200686402007C64020054
:10D74000586502008065020084B003900291019246
:10D75000039BDB68029A9A4209D3029A019B134405
:10D760005A1E039B1B699A4201D8012300E0002343
:10D7700003F00103DBB2184604B0704782B0019099
:10D78000019B03F00303002B0CBF01230023DBB23A
:10D79000184602B0704782B001900091019B5B680F
:10D7A0001B685A1E009B1340002B0CBF0123002353
:10D7B000DBB2184602B0704729DF704700BF184639
:10D7C00028DF704700BF184600B589B0019000916E
:10D7D000019B1B689B68002B35D002AB00221A60AE
:10D7E0005A609A60DA601A615A61009B0393019B48
:10D7F0009B680793019B1B79002B02D0012B0DD056
:10D800001AE001238DF80830019B1B690493019BEA
:10D81000DB680593019B5B6906930DE002238DF89D
:10D820000830019BDB684FF4805202FB03F3049342
:10D83000019B5B69069300BF019B1B689B6802AA62
:10D840001046984700E000BF09B05DF804FB00B542
:10D8500087B00190019B5A69019B9B69D31AB3F56C
:10D86000805F28BF4FF4805305930422059BB3FBD0
:10D87000F2F3012B38BF01230593019B1A69019B29
:10D880009B6913440493019BDB681A46019B9B69C7
:10D8900013440393059A03990498FFF78DFF0346F9
:10D8A000184607B05DF804FB00B583B00190019BFA
:10D8B000DA68019B1B6913441846FFF781FF034692
:10D8C000184603B05DF804FB08B5034B034918463E
:10D8D000FDF724FE00BF08BDF02B0020182C00200F
:10D8E00008B5084B08491846FDF7FFFD0346074AEF
:10D8F0001360064B1B68002B14BF01230023DBB20F
:10D90000184608BDF02B0020182C0020142C0020F5
:10D9100000B583B02A4B1B7A002B0BD1FFF7E0FF39
:10D92000034683F00103DBB2002B03D0244B00221B
:10D930005A6042E0224B02221A72224B1B681B796A
:10D94000002B02D0012B07D00DE01E4B1B681846A0
:10D95000FFF77DFF019009E01A4B1B681846FFF79F
:10D96000A3FF019002E00323019300BF019B002B62
:10D9700003D0019B112B0CD00FE0114B1B7C83F0CB
:10D980000103DBB2002B17D00021022000F06EF85B
:10D9900012E00B4B01221A720FE00A4B1B680321A5
:10D9A0001846FFF711FF064B00221A72044B0022A3
:10D9B0005A60FFF789FF00E000BF03B05DF804FB89
:10D9C000002C0020142C002084B001901B4B00225E
:10D9D000DA60019B1B79002B02D0012B19D028E0C3
:10D9E000019B5A69019B9B69D31AB3F5805F28BFDD
:10D9F0004FF480530393019B9A69039B1A44019B44
:10DA00009A61019B9A69019B5B699A420ED101233D
:10DA100010E0019B1B695A1C019B1A61019B1A694A
:10DA2000019B5B699A4203D1012303E000BF00E040
:10DA300000BF0023184604B0704700BF002C002030
:10DA400082B00190084BDB680133074AD360064B74
:10DA5000DB68082B04D9044B0022DA60012300E0C4
:10DA60000023184602B07047002C002000B585B096
:10DA700001900091019B022B02D0019B032B48D106
:10DA8000274B1B7A022B05D0022B35DC002B42D012
:10DA9000012B31E000238DF80F30019B022B03D0C6
:10DAA000019B032B09D011E01E4B1B681846FFF7A2
:10DAB0008BFF03468DF80F3008E01A4B1B681846A1
:10DAC000FFF7BEFF03468DF80F3000BF9DF80F3003
:10DAD000002B10D0124B00221A72124B1A68019BB5
:10DAE000022B01D1002300E00D2319461046FFF759
:10DAF0006BFEFFF7E9FE00BF094B5B7C83F001037F
:10DB0000DBB2002B02D0FFF703FF05E006F030FA8E
:10DB100002E000BF00E000BF05B05DF804FB00BFFD
:10DB2000002C0020142C002082B0034600918DF8B8
:10DB30000730064B01225A74044B1B7A002B0CBF92
:10DB400001230023DBB2184602B07047002C0020EE
:10DB500000B583B0034600918DF807309DF807307B
:10DB6000012B03D09DF80730032B0DD1084B002269
:10DB70005A749DF80730012B0CBF01230023DAB241
:10DB8000034B1A74FFF7C4FE00BF03B05DF804FB3B
:10DB9000002C0020BFF34F8F00BF064BDB6803F45F
:10DBA000E0620449044B1343CB60BFF34F8F00BFC7
:10DBB00000BFFDE700ED00E00400FA0582B00A4B6B
:10DBC0001B680193094B1B680093019B0E2B06D128
:10DBD000009B002B01D1012302E0012300E0002380
:10DBE000184602B0704700BF300100103401001029
:10DBF00082B01B4B1B6801931A4B1B680093019B5F
:10DC0000082B1FD1009B052B1AD801A252F823F034
:10DC100029DC01002DDC010031DC010035DC0100D4
:10DC200039DC01003DDC0100012316E0012314E092
:10DC3000012312E0012310E001230EE001230CE098
:10DC400001230AE0019B0E2B06D1009B002B01D182
:10DC5000012302E0012300E00023184602B07047D0
:10DC6000300100103401001082B01B4B1B6801937F
:10DC70001A4B1B680093019B082B1FD1009B052B9F
:10DC80001AD801A252F823F0A1DC0100A5DC0100A2
:10DC9000A9DC0100ADDC0100B1DC0100B5DC010054
:10DCA000012316E0012314E0012312E0012310E018
:10DCB00001230EE001230CE001230AE0019B0E2B5F
:10DCC00006D1009B002B01D1012302E0012300E0DB
:10DCD0000023184602B070473001001034010010D4
:10DCE00082B0164B1B680193154B1B680093019B78
:10DCF000082B1FD1009B052B1AD801A252F823F044
:10DD000019DD01001DDD010021DD010025DD01001F
:10DD100029DD01002DDD010001230CE000230AE0D4
:10DD2000002308E0002306E0002304E0002302E0D3
:10DD3000002300E00023184602B0704730010010B5
:10DD40003401001082B0164B1B680193154B1B6801
:10DD50000093019B082B1FD1009B052B1AD801A211
:10DD600052F823F07DDD010081DD010085DD010039
:10DD700089DD01008DDD010091DD010001230CE052
:10DD800000230AE0002308E0002306E0002304E06B
:10DD9000002302E0002300E00023184602B0704791
:10DDA000300100103401001082B0164B1B68019343
:10DDB000154B1B680093019B082B1FD1009B052B63
:10DDC0001AD801A252F823F0E1DD0100E5DD0100DF
:10DDD000E9DD0100EDDD0100F1DD0100F5DD01000F
:10DDE00001230CE000230AE0002308E0002306E002
:10DDF000002304E0002302E0002300E00023184693
:10DE000002B07047300100103401001082B0164B90
:10DE10001B680193154B1B680093019B082B1FD1B6
:10DE2000009B052B1AD801A252F823F045DE010011
:10DE300049DE01004DDE010051DE010055DE01002A
:10DE400059DE010001230CE000230AE0002308E072
:10DE5000002306E0002304E0002302E0002300E0AA
:10DE60000023184602B07047300100103401001042
:10DE700082B01B4B1B6801931A4B1B680093019BDC
:10DE8000082B1FD1009B052B1AD801A252F823F0B2
:10DE9000A9DE0100ADDE0100B1DE0100B5DE01004A
:10DEA000B9DE0100BDDE0100012316E0012314E00C
:10DEB000012312E0012310E001230EE001230CE016
:10DEC00001230AE0019B0E2B06D1009B002B01D100
:10DED000012302E0012300E00023184602B070474E
:10DEE000300100103401001082B00A4B1B6801930E
:10DEF000094B1B680093019B0E2B06D1009B002B46
:10DF000001D1012302E0012300E00023184602B002
:10DF1000704700BF300100103401001082B0164B72
:10DF20001B680193154B1B680093019B082B1FD1A5
:10DF3000009B052B1AD801A252F823F055DF0100EF
:10DF400059DF01005DDF010061DF010065DF0100D5
:10DF500069DF010000230CE000230AE0002308E051
:10DF6000002306E0012304E0012302E0012300E096
:10DF70000023184602B07047300100103401001031
:10DF800008B5FFF7CBFF0346002B07D04FF0102357
:10DF90004FF08042D3F80832C2F8583500BF08BDB0
:10DFA00000BF044BD3F80034002BFAD000BF00BFF1
:10DFB000704700BF00E0014000B583B00190054A02
:10DFC000019BC2F80435FFF7EBFF00BF03B05DF81B
:10DFD00004FB00BF00E00140024B034A1A6000BF8F
:10DFE000704700BFF82300200090D00308B5FFF76A
:10DFF000E5FD0346002B06D08C4B1B685B0B8C4A5F
:10E0000003F007031360FFF7F3FD0346002B0ED068
:10E010004FF080430022C3F80C214FF080430022D0
:10E02000C3F810214FF080430022C3F83825FFF7D2
:10E030001BFE0346002B76D04FF080537D4AD3F869
:10E040000434C2F820354FF080537A4AD3F80834AC
:10E05000C2F824354FF08053764AD3F80C34C2F816
:10E0600028354FF08053734AD3F81034C2F82C355A
:10E070004FF080536F4AD3F81434C2F830354FF064
:10E0800080536C4AD3F81834C2F834354FF08053BB
:10E09000684AD3F81C34C2F840354FF08053654AC3
:10E0A000D3F82034C2F844354FF08053614AD3F896
:10E0B0002434C2F848354FF080535E4AD3F82834F0
:10E0C000C2F84C354FF080535A4AD3F82C34C2F87A
:10E0D00050354FF08053574AD3F83034C2F8543596
:10E0E0004FF08053534AD3F83434C2F860354FF0C0
:10E0F0008053504AD3F83834C2F864354FF0805317
:10E100004C4AD3F83C34C2F868354FF08053494A42
:10E11000D3F84034C2F86C354FF08053454AD3F8F9
:10E120004434C2F87035FFF7DBFD0346002B02D004
:10E13000414B424A1A60FFF705FE0346002B03D00D
:10E140003F4BFB22C3F81825FFF72EFE0346002B9A
:10E150000AD03C4B1B6823F00F023B4B1B6803F0BB
:10E160000F03384913430B60FFF750FE0346002BA3
:10E1700003D0364B4FF400721A60FFF779FE034666
:10E18000002B0DD04FF08043D3F8003403F001038F
:10E19000002B05D04FF080436FF00102C3F800243C
:10E1A000FFF7A2FE0346002B05D0264B1B68254A2D
:10E1B00043F00F031360FFF7E3FE4FF01023D3F893
:10E1C0000032002B05DB4FF01023D3F80432002B74
:10E1D00015DA0120FFF7F0FE4FF010231222C3F8EA
:10E1E0000022FFF7DDFE4FF010231222C3F80422B5
:10E1F000FFF7D6FE0020FFF7DFFEFFF7CBFC144B46
:10E200001B6803F00103002B0CD00120FFF7D4FEA4
:10E210000F4B00221A60FFF7C3FE0020FFF7CCFE71
:10E22000FFF7B8FCFFF7D8FE00BF08BD440200109E
:10E230003C05004000C000408C560040488103006F
:10E2400000F00040E40E00405802001040960240EA
:10E250000C12001082B003468DF807309DF907308C
:10E26000002B13DB9DF8073003F01F0209499DF9CD
:10E2700007305B09012000FA02F2203341F8232025
:10E28000BFF34F8F00BFBFF36F8F00BF00BF02B05F
:10E29000704700BF00E100E0044BD3F80034002BCE
:10E2A00014BF01230023DBB2184670470000014071
:10E2B00008B5FFF7F1FF034683F00103DBB2002B43
:10E2C00004D000F041FA024B00229A7000BF08BD52
:10E2D0001C2C002000B583B000230193184B1B7841
:10E2E000002B02D0852301931CE0154B00229A607D
:10E2F000134B00225A60124B00221A61104B00226D
:10E30000DA60104800F0FEF9019005F04DFE03467A
:10E3100083F00103DBB2002B01D000F00DFA084BB3
:10E3200001221A70FFF7B8FF0346002B02D0044BFE
:10E3300001229A70019B184603B05DF804FB00BFF0
:10E340001C2C0020F5E3010084B00190019B1B68A8
:10E350000393039B002B03D0039B1A68019B1A6055
:10E36000039B184604B0704700B583B000238DF8B6
:10E3700007300DF107031846FDF764F8094BDB6819
:10E38000013B084AD360074BDB68002B01D1FFF744
:10E390008FFF9DF807301846FDF75EF800BF03B009
:10E3A0005DF804FB1C2C002000B585B003468DF8F9
:10E3B00007309DF80730002B02D10C4B039301E08E
:10E3C0000B4B03930398FFF7BFFF0290029B002BB8
:10E3D00006D0029B5B689DF8072010469847F1E73E
:10E3E00000BF00BF05B05DF804FB00BF242C002077
:10E3F0002C2C002000B583B003468DF807309DF823
:10E400000730002B05D10A4B01225A700020FFF77C
:10E41000CBFF9DF80730012B05D1054B01229A70E7
:10E420000120FFF7C1FF00BF03B05DF804FB00BF90
:10E430001C2C002000B583B001900091019B002BA3
:10E4400005D1054B01225A700020FFF7ADFF00BF38
:10E4500003B05DF804FB00BF1C2C002000B585B0A4
:10E46000034600918DF807309DF80730032B29D023
:10E47000032B2CDC002B02D0012B04D027E0002042
:10E48000FFF7E8FE24E000238DF80F300DF10F03B5
:10E490001846FCF7D7FF104B1B7883F00103DBB263
:10E4A000002B01D0FFF716FF0B4BDB6801330A4A44
:10E4B000D360094B01229A709DF80F301846FCF783
:10E4C000CBFF05E000F038F9FFF74EFF00E000BF9A
:10E4D00000BF05B05DF804FB1C2C002082B0034691
:10E4E0008DF807309DF90730002B0CDB9DF80730C5
:10E4F00003F01F0205499DF907305B09012000FA6E
:10E5000002F241F8232000BF02B0704700E100E0B2
:10E5100082B0034600918DF807309DF90730002B3B
:10E520000ADB009BDAB20C499DF907305201D2B2E6
:10E530000B4483F800230BE0009BDAB207499DF8F7
:10E54000073003F00F03043B5201D2B20B441A769A
:10E5500000BF02B0704700BF00E100E000ED00E046
:10E5600082B00190019B1B0B5BB2184602B0704752
:10E5700000B583B003460A468DF8073013468DF880
:10E5800006309DF806209DF9073011461846FFF722
:10E59000BFFF00BF03B05DF804FB00B583B00346C6
:10E5A0008DF807309DF907301846FFF797FF00BF39
:10E5B00003B05DF804FB000082B003468DF807301D
:10E5C0000F4A9DF90730002B00DA1F335B115BB255
:10E5D00052F823209DF90730594203F01F0301F040
:10E5E0001F0158BF4B425BB222FA03F303F0010351
:10E5F000002B14BF01230023DBB2184602B0704782
:10E6000000E100E082B001904FF08042019BC2F82F
:10E61000083300BF02B0704782B003468DF8073060
:10E620009DF8073003F1804301221A6000BF02B059
:10E63000704784B00346ADF80630BDF8063003F1EC
:10E64000804300221A60BDF8063003F180431B6846
:10E650000393039B00BF04B0704782B00346ADF83C
:10E660000630BDF8063003F180431B68002B14BF51
:10E6700001230023DBB2184602B0704782B001903C
:10E680004FF08042019BC2F8183500BF02B07047BE
:10E690004FF08043D3F818341B0C03F00103002B18
:10E6A00014BF01230023DBB21846704700B583B0C6
:10E6B00006238DF807304FF08040FFF751FF0346E7
:10E6C0001846FFF779FF034683F00103DBB2002B06
:10E6D00013D04FF08040FFF743FF03461A469DF8E2
:10E6E000073019461046FFF743FF4FF08040FFF711
:10E6F00037FF03461846FFF750FF00BF03B05DF831
:10E7000004FB000084B0019000230393094B1B79A4
:10E71000002B02D08523039308E0064B00225A7198
:10E72000044A019B1360034B01221A71039B184694
:10E7300004B07047302C002008B5FFF7B7FF002069
:10E74000FFF79CFF00BF08BD08B50220FFF75AFF86
:10E750004FF48270FFF76DFF0C20FFF75DFF00BFE5
:10E76000FFF796FF0346002BFAD100BF00BF08BD9C
:10E7700008B54FF48070FFF770FF0346002B0AD0F6
:10E780004FF48070FFF755FF0120FFF73BFF1F4B51
:10E790001B68002098474FF48270FFF75EFF034626
:10E7A000002B0AD04FF48270FFF743FF0220FFF7DF
:10E7B00029FF164B1B68012098474FF48870FFF71C
:10E7C0004CFF0346002B0AD04FF48870FFF731FF4F
:10E7D0001020FFF717FF0D4B1B68022098474FF4DE
:10E7E0008670FFF73AFF0346002B0DD04FF486707A
:10E7F000FFF71FFF0820FFF705FF044B00225A71A7
:10E80000024B1B680320984700BF08BD302C002036
:10E8100082B003468DF807309DF90730002B0CDBE2
:10E820009DF8073003F01F0205499DF907305B0989
:10E83000012000FA02F241F8232000BF02B0704725
:10E8400000E100E082B0034600918DF807309DF9A9
:10E850000730002B0ADB009BDAB20C499DF9073028
:10E860005201D2B20B4483F800230BE0009BDAB2D2
:10E8700007499DF8073003F00F03043B5201D2B261
:10E880000B441A7600BF02B0704700BF00E100E001
:10E8900000ED00E082B00190019B1B0B5BB21846BB
:10E8A00002B0704700B583B003460A468DF80730C2
:10E8B00013468DF806309DF806209DF90730114665
:10E8C0001846FFF7BFFF00BF03B05DF804FB00B5BB
:10E8D00083B003468DF807309DF907301846FFF7DF
:10E8E00097FF00BF03B05DF804FB00B583B003469B
:10E8F000ADF80630BDF80630184600F026F803469D
:10E900001B68012B0CBF01230023DBB2184603B0A8
:10E910005DF804FB00B585B00346ADF80630BDF8E0
:10E920000630184600F011F803461A46002313601B
:10E93000BDF80630184600F008F803461B6803933C
:10E94000039B00BF05B05DF804FB82B00346ADF841
:10E950000630BDF8063003F1804303F5C043184686
:10E9600002B0704782B00190034A019BC2F80433A1
:10E9700000BF02B0704700BF0060004082B001904D
:10E98000034BD3F80423019B1340184602B0704791
:10E990000060004082B00190084A019B03F5A27319
:10E9A00052F82330054943F00102019B03F5A2739D
:10E9B00041F8232000BF02B0704700BF0060004054
:10E9C00084B00390029113468DF80730144A039BDC
:10E9D00003F5A27352F82330114923F4473323F48B
:10E9E0004073039A02F5A27241F822300C4A039B4D
:10E9F00003F5A27352F82320029B1B0203F4F85183
:10EA00009DF807301B0403F440330B4304491A43B9
:10EA1000039B03F5A27341F8232000BF04B07047A5
:10EA20000060004082B00190054A019B03F5A2738B
:10EA300052F823301B0A03F01F03184602B0704738
:10EA40000060004082B00190064A019B03F5A2736A
:10EA500052F823301B0C03F00303DBB2184602B05C
:10EA6000704700BF0060004082B001904FF0A043AB
:10EA7000184602B0704700B585B0019008461146AF
:10EA80001A4603468DF803300B468DF802301346C4
:10EA90008DF8013001AB1846FFF7E6FF03909DF8B3
:10EAA00003209DF802305B001A439DF801309B0063
:10EAB0001A439DF818301B0242EA03019DF81C30EE
:10EAC0001B04019A1943039B02F5E07243F82210DC
:10EAD00000BF05B05DF804FB00B585B003900B46A0
