:020000021000EC
:10900000006000201992010001920100039201000A
:109010000592010007920100099201000000000082
:109020000000000000000000000000000B920100A2
:109030000D920100000000000F920100119201004A
:1090400069C7010013920100D5CC01000DDE0100BB
:10905000B9D1010000000000D1CB010009CE010010
:109060001392010013920100139201001392010068
:109070001392010013920100139201001392010058
:109080007DDE0100D5EB0100139201001392010077
:1090900015EC010013920100A535020013920100A6
:1090A0001392010013920100000000000000000074
:1090B0001392010013920100000000000000000064
:1090C00000000000000000000000000000000000A0
:1090D0000000000000000000000000000000000090
:1090E0000000000000000000000000000000000080
:1090F0000000000000000000000000000000000070
:10910000000000000000000000000000000000005F
:10911000000000000000000000000000000000004F
:10912000000000000000000000000000000000003F
:10913000000000000000000000000000000000002F
:10914000000000000000000000000000000000001F
:10915000000000000000000000000000000000000F
:1091600000000000000000000000000000000000FF
:1091700000000000000000000000000000000000EF
:1091800000000000000000000000000000000000DF
:1091900000000000000000000000000000000000CF
:1091A00000000000000000000000000000000000BF
:1091B00000000000000000000000000000000000AF
:1091C000000000000000000000000000000000009F
:1091D000000000000000000000000000000000008F
:1091E000000000000000000000000000000000007F
:1091F000000000000000000000000000000000006F
:10920000FEE7FEE7FEE7FEE7FEE7FEE7FEE7FEE736
:10921000FEE7FEE700F002B8FFF7FCBF0B484FF097
:109220000701884385460A48804700F019B8094875
:1092300009490A4A884207D0521A05D003780130FA
:109240000B700131013AF9D1704700000060002035
:10925000B1A501003C3A0200A0240020B424002063
:109260003A493B480A1A02D0072291438D463949B0
:1092700039480A1A06D00722914381F3098802224D
:1092800082F3148835483649364A00F041F83648AA
:109290003649374A00F03CF836483749374A00F03B
:1092A00037F837483749384A00F032F837483849F4
:1092B000384A00F02DF838483849394A00F028F883
:1092C00038483949394A00F023F8394839490022E9
:1092D00000F036F838483949002200F031F83848B3
:1092E0003849091A0AF090FA374A90472548264922
:1092F000884205D00268043003B4904703BCF7E706
:1093000000208646EC4600200021304A9047FEE7C8
:10931000884214D0521A12D003460B43134303243D
:10932000234206D1036804300B600431043AF9D1BA
:109330007047037801300B700131013AF9D1704761
:10934000884202D002700130FAE7704700600020C6
:10935000005800200060002000600020904F0200B4
:10936000B424002038250020D0930100D0930100C0
:1093700010390200904F0200B4240020B4240020D1
:10938000503A0200503A0200503A0200503A0200AD
:10939000503A0200503A0200503A0200503A02009D
:1093A0008D4F02001450020038250020382500207F
:1093B00038250020F4370020F4370020F43700204F
:1093C000F4370020F43F00202F9201006194010047
:1093D00000B585B00190019B002B0AD0074B43F0EC
:1093E00001030393019B9B010293039B02989847FF
:1093F00000E000BF05B05DF804FB00BF103B0200B9
:1094000000B583B00190019B002B0AD04FF47A7015
:10941000FFF7DEFF019B013B0193019B002BF5D180
:1094200000E000BF03B05DF804FB000000B583B0AE
:109430004FF40041002008F0D5F90190019B009302
:10944000009B002B04D0054A4C21009804F076FDC7
:1094500008F066F900BF03B05DF804FB503A020063
:1094600000B583B0FFF7E2FF224A234BD31ADB0893
:109470001B0443F003032149184608F071FC08F06F
:10948000F9FC0346002BFAD100F012FE00F01EFC9E
:1094900000F072FC034683F00103DBB2002B10D016
:1094A000144A154BD31ADB081B0443F00303144979
:1094B000184608F055FC08F0DDFC0346002BFAD1F5
:1094C000FEE700BF08F0D6FC0346002BFAD100F0FF
:1094D0006FFC00230193019800F074FC42F21070BD
:1094E000FFF78EFF019B0A330193019800F06AFC9D
:1094F000F4E700BFDC390200A4390200B43A0200EC
:10950000D83A020084B001900B468DF80330134620
:109510008DF8023000230393019B032B3CD89DF868
:109520000230012B0BD19DF80330012B04D1019B9C
:10953000DBB20E33DBB200E000238DF802309DF881
:109540000330022B0FD0022B23DC002B16D0012B73
:109550001FD11449019A13465B0013440B449DF834
:1095600002201A701AE00F49019A13465B00134457
:109570000B4401339DF802201A700FE00949019A4B
:1095800013465B0013440B4402339DF802201A700B
:1095900004E00723039301E007230393039B18468A
:1095A00004B070473C25002000B583B001220021A3
:1095B0000020FFF7A7FF0190019B002B04D0019B27
:1095C000072B01D0019B1CE0072202210120FFF79D
:1095D00099FF0190019B002B04D0019B072B01D028
:1095E000019B0EE0042202210020FFF78BFF019077
:1095F000019B002B04D0019B072B01D0019B00E0B5
:109600000023184603B05DF804FB00B583B00122C7
:1096100002210020FFF776FF0190019B002B04D070
:10962000019B072B01D0019B1CE007220221012096
:10963000FFF768FF0190019B002B04D0019B072BD3
:1096400001D0019B0EE00A2200210020FFF75AFF03
:109650000190019B002B04D0019B072B01D0019BA3
:1096600000E00023184603B05DF804FB00B585B0A8
:1096700001900091019B1B88102B02D0112B18D058
:109680002FE01A4B1B68002B0DD1FFF78DFF0390C5
:10969000039B002B07D0164B1B68002B03D0144BE9
:1096A0001B6803989847114B1B6801330F4A1360DE
:1096B00017E00E4B1B68013B0C4A13600B4B1B68F9
:1096C000002B0DD1FFF7A1FF0390039B002B07D0C8
:1096D000074B1B68002B03D0054B1B68039898476A
:1096E00000BF00BF05B05DF804FB00BF4C250020A3
:1096F0004825002000B587B001900091019B03939D
:1097000003238DF80830019B5B6902AA1046984735
:1097100000BF07B05DF804FB00B587B00190009171
:10972000019B039302238DF80830019B5B6902AA19
:109730001046984700BF07B05DF804FB00B589B03C
:1097400001900091009B0633079303AB1022002188
:1097500018460AF0ADF8019B0493079B1A88019BF9
:109760001B899A421CD1079B5B89022B18D1079B4E
:109770000C33184602F009F80346002B03D00023EF
:109780008DF80C3002E001238DF80C30019B5B69F1
:10979000002B1FD0019B5B6903AA1046984719E074
:1097A000079B1A88019B9B899A4213D1019B5B6995
:1097B000002B0FD004238DF80C30079B0C3305933E
:1097C000079B5B89ADF81830019B5B6903AA1046C3
:1097D0009847FFE700BF09B05DF804FB00B585B00E
:1097E00001900091009B0393039B002B1CD0019BD5
:1097F000002B19D0019B1B88502B10D0502B15DC4F
:10980000102B02D0112B05D010E001990398FFF71F
:1098100071FF0CE001990398FFF77EFF07E00199C3
:109820000398FFF78BFF02E000BF00E000BF05B028
:109830005DF804FB76DF704700BF184677DF70479E
:1098400000BF18467FDF704700BF18468FDF7047A4
:1098500000BF1846B1DF704700BF1846064B1B78A3
:10986000DAB2064B1B78DBB29A420CBF012300230D
:10987000DBB21846704700BFA82B0020A92B0020A0
:1098800000B585B04BE02D4B1B78DBB219462C4A56
:10989000DC2301FB03F313441B88ADF80630274B90
:1098A0001B78DBB21A46DC2302FB03F3244A134481
:1098B000991C244B1B880DF10602234802F021FB62
:1098C0000390039B002B11D11C4B1B78DBB201339F
:1098D000DAB21E4BA3FB021399080B465B000B4444
:1098E0005B00D31ADAB2154B1A7018E0039B132BE6
:1098F0001ED0039B082B1BD0039B052B18D0039B6A
:109900000C2B15D0039B072B12D0039B0293029BB9
:10991000002B04D00E4A4F21029804F00FFBFFF7F2
:109920009DFF034683F00103DBB2002BABD100E0C7
:1099300000BF00BF05B05DF804FB00BFA92B0020ED
:1099400080260020D8240020BC240020ABAAAAAA8C
:10995000183B020030B591B003900291039B1B8825
:10996000103B472B00F28F8101A252F823F000BF79
:10997000919A0100119B01000B9C0100679B010063
:10998000879C0100879C0100879C0100879C010047
:10999000879C0100879C0100879C0100879C010037
:1099A000879C0100879C0100879C0100879C010027
:1099B000879C0100319B0100879C0100879C01006E
:1099C000879C0100879C0100879C0100879C010007
:1099D000879C0100879C0100879C0100879C0100F7
:1099E000879C0100879C0100879C0100879C0100E7
:1099F000879C0100879C0100879C0100879C0100D7
:109A0000879C0100879C0100879C0100879C0100C6
:109A1000879C0100879C0100879C0100B99B010085
:109A2000879C0100879C0100879C0100879C0100A6
:109A3000879C0100879C0100879C0100879C010096
:109A4000879C0100879C0100879C0100879C010086
:109A5000879C0100879C0100879C0100879C010076
:109A6000879C0100879C0100879C0100879C010066
:109A7000879C0100879C0100919B0100879C01004D
:109A8000879C0100879C0100DF9B0100059C010071
:109A9000844A854BD31ADB081B0443F00303834934
:109AA000184608F05DF9039B9A88814B1A80804B19
:109AB0001B8819467F4802F00FF80F900F9B089300
:109AC000089B002B05D07C4A4FF4B371089804F032
:109AD00035FA774B1B88042219460320FFF7AEFEA8
:109AE0000F900F9B0793079B002B05D0724A40F203
:109AF0006911079804F022FA704B1B88ADF81830F2
:109B00006B4B1B8806AA11461846FFF79FFEC5E05F
:109B1000644A654BD31ADB081B0443F0030368490E
:109B2000184608F01DF9624B4FF6FF721A80B5E037
:109B300000238DF8143000238DF81530039B9B888B
:109B400005AA11461846FFF781FE0F900F9B0B9355
:109B50000B9B002B00F09980574A4FF4C3710B9870
:109B600004F0ECF991E0524B188800230022852183
:109B7000FFF768FE0F900F9B0A930A9B002B00F0E3
:109B800086804D4A4FF4C6710A9804F0D7F97EE0FA
:109B9000474B1888002300220021FFF75BFE0F903F
:109BA0000F9B0D930D9B002B73D0434A4FF4C9714B
:109BB0000D9804F0C3F96CE0039B9B8813211846B1
:109BC000FFF738FE0F900F9B0C930C9B002B62D07D
:109BD000394A40F299110C9804F0B0F95BE0039B0C
:109BE0009B8813211846FFF725FE0F900F9B0E93BD
:109BF0000E9B002B51D0304A4FF4D0710E9804F0D8
:109C00009DF94AE0FFF73CFE48E0039B08330993C7
:109C1000244A254BD31ADB081B0443F00300099B9D
:109C20005B881A4613465B019B1A9B001344254A26
:109C300082FB03125211DB17D31A1C46099B5B8867
:109C40001A4613465B019B1A9B0013441D4A82FB74
:109C500003125111DA178A1A642101FB02F29A1ACF
:109C60001546099B9B881946099BDB881A461346B3
:109C70009B0013445B00019300912B46224612493E
:109C800008F0B7F80AE000BF08E000BF06E000BF38
:109C900004E000BF02E000BF00E000BF00BF11B061
:109CA00030BD00BFDC390200A4390200803C020054
:109CB000D824002064250020183B0200C83C020084
:109CC0008C3C02001F85EB519C3C020000B583B028
:109CD00001AA02230121482000F00AF99DF804306E
:109CE0001BB21B021AB29DF805301BB213431BB204
:109CF000ADF80630BDF806304FF6FF72934205D03E
:109D0000BDF8063003F48043002B12D1154A164BE0
:109D1000D31ADB081B0443F00303BDF806201349E4
:109D2000184608F02BF808F0A5F80346002BFAD1E6
:109D300014E00F4B01221A700A4A0B4BD31ADB08AE
:109D40001B0443F00303BDF806200A49184608F037
:109D500015F808F08FF80346002BFAD103B05DF830
:109D600004FB00BFDC390200A4390200E83C020019
:109D7000AA2B0020183D0200014B1B7818467047A3
:109D8000AA2B002000B583B001AA0223002148209D
:109D900000F0AEF89DF804301BB21B021AB29DF819
:109DA00005301BB213431BB2184603B05DF804FB29
:109DB00008B50349002009F03FF900BF08BD00BF06
:109DC0004C3D020000B58BB00390FFF7DBFF03466C
:109DD000ADF82230BDF9223042F2107202FB03F3DB
:109DE000002B00DA7F33DB110793079B184A82FBB5
:109DF00003121213DB17D31A0693079B144A82FB34
:109E000003121113DA178A1A42F2107101FB02F2DF
:109E10009B1A0993099B002B02DA099B5B42099369
:109E2000079B002B04DA069B002B01D1094B00E0B5
:109E3000094B0593099B0193069B0093059B039A8D
:109E40000649002009F0F8F800BF0BB05DF804FBEC
:109E5000AD8BDB68643D0200683D02006C3D020092
:109E600000B583B00190019B0433184603F0D0FB8A
:109E700000BF03B05DF804FB00B589B00590039204
:109E80001A460B468DF8133013468DF81230002316
:109E90000793059B181D9DF812209DF813109DF83F
:109EA000283000931346039A03F0D0FE0790079BD7
:109EB000184609B05DF804FB00B587B00390019225
:109EC0001A460B468DF80B3013468DF80A300023E6
:109ED0000593039B181D9DF80A309DF80B10019AFD
:109EE00003F0DCFE0590059B184607B05DF804FB07
:109EF00000B589B002921A4603468DF80F300B4622
:109F00008DF80E3013468DF80D30244B00221A7058
:109F10009DF80E308DF8103004AA9DF80F10012323
:109F2000009301231E48FFF7A7FF0790079B0693A6
:109F3000069B002B04D01B4A4021069803F0FEFF2D
:109F400000BF164B1B78DBB283F00103DBB2002BA2
:109F5000F7D1124B00221A709DF80D309DF80F10AA
:109F6000029A0F48FFF7A8FF0790079B0593059BF0
:109F7000002B04D00B4A4621059803F0DFFF00BFF9
:109F8000064B1B78DBB283F00103DBB2002BF7D169
:109F900000BF00BF09B05DF804FB00BF38250020FA
:109FA0007C3D0200AC3D020000B585B001900091FF
:109FB000019B1B78022B40D0022B4FDC002B02D0E0
:109FC000012B29D04AE0019B1B79012B0CD1304B8E
:109FD0001B781AB22E4B5B781BB21B021BB21343C9
:109FE0001BB2ADF80E304AE0019B1B79002B46D026
:109FF000019B1B79022B42D0019B1B79032B3ED185
:10A00000244A254BD31ADB081B0443F003032349DE
:10A01000184607F0A5FE32E01E4A1F4BD31ADB0894
:10A020001B0443F003031E49184607F099FE07F08E
:10A0300021FF0346002BFAD122E0164A164BD31A11
:10A04000DB081B0443F003031649184607F088FE9B
:10A0500007F010FF0346002BFAD111E00D4A0E4B1A
:10A06000D31ADB081B0443F003030F49184607F01B
:10A0700077FE07F0FFFE0346002BFAD100E000BF99
:10A080000A4B01221A7000BF05B05DF804FB00BF47
:10A09000AC2B0020DC390200A4390200243E02006F
:10A0A0002C3E02003C3E0200483E020038250020C3
:10A0B00000B587B001AB00221A605A609A60DA607E
:10A0C0001B2301931A2302934FF0CC7303930223B3
:10A0D0008DF8103001238DF8113001A90023184AA2
:10A0E000184802F0C3F90590059B002B10D0164AC2
:10A0F000164BD31ADB081B0443F00303144918461C
:10A1000007F02EFE07F0B6FE0346002BFAD112E050
:10A110000D4A0E4BD31ADB081B0443F003030D4911
:10A12000184607F01DFE07F0A5FE0346002BFAD1E6
:10A130000448FFF795FE00BF07B05DF804FB00BFC1
:10A14000A99F01007C3D0200DC390200A439020015
:10A150005C3E0200843E0200BFF34F8F00BF064BFF
:10A16000DB6803F4E0620449044B1343CB60BFF3A4
:10A170004F8F00BF00BFFDE700ED00E00400FA05CF
:10A1800082B00A4B1B680193094B1B680093019B2B
:10A190000E2B06D1009B002B01D1012302E00123ED
:10A1A00000E00023184602B0704700BF30010010E5
:10A1B0003401001082B01B4B1B6801931A4B1B68C3
:10A1C0000093019B082B1FD1009B052B1AD801A2DD
:10A1D00052F823F0EDA10100F1A10100F5A1010069
:10A1E000F9A10100FDA1010001A20100012316E077
:10A1F000012314E0012312E0012310E001230EE00B
:10A2000001230CE001230AE0019B0E2B06D1009BE9
:10A21000002B01D1012302E0012300E000231846B6
:10A2200002B07047300100103401001082B01B4BA7
:10A230001B6801931A4B1B680093019B082B1FD1CD
:10A24000009B052B1AD801A252F823F065A2010049
:10A2500069A201006DA2010071A2010075A20100B6
:10A2600079A20100012316E0012314E0012312E08A
:10A27000012310E001230EE001230CE001230AE09A
:10A28000019B0E2B06D1009B002B01D1012302E084
:10A29000012300E00023184602B07047300100108F
:10A2A0003401001082B0164B1B680193154B1B68DC
:10A2B0000093019B082B1FD1009B052B1AD801A2EC
:10A2C00052F823F0DDA20100E1A20100E5A20100A5
:10A2D000E9A20100EDA20100F1A2010001230CE0BE
:10A2E00000230AE0002308E0002306E0002304E046
:10A2F000002302E0002300E00023184602B070476C
:10A30000300100103401001082B0164B1B6801931D
:10A31000154B1B680093019B082B1FD1009B052B3D
:10A320001AD801A252F823F041A3010045A301006D
:10A3300049A301004DA3010051A3010055A3010051
:10A3400001230CE000230AE0002308E0002306E0DC
:10A35000002304E0002302E0002300E0002318466D
:10A3600002B07047300100103401001082B0164B6B
:10A370001B680193154B1B680093019B082B1FD191
:10A38000009B052B1AD801A252F823F0A5A30100C7
:10A39000A9A30100ADA30100B1A30100B5A3010071
:10A3A000B9A3010001230CE000230AE0002308E028
:10A3B000002306E0002304E0002302E0002300E085
:10A3C0000023184602B0704730010010340100101D
:10A3D00082B0164B1B680193154B1B680093019BC1
:10A3E000082B1FD1009B052B1AD801A252F823F08D
:10A3F00009A401000DA4010011A4010015A401008D
:10A4000019A401001DA4010001230CE000230AE0AF
:10A41000002308E0002306E0002304E0002302E01C
:10A42000002300E00023184602B0704730010010FE
:10A430003401001082B01B4B1B6801931A4B1B6840
:10A440000093019B082B1FD1009B052B1AD801A25A
:10A4500052F823F06DA4010071A4010075A401005D
:10A4600079A401007DA4010081A40100012316E06C
:10A47000012314E0012312E0012310E001230EE088
:10A4800001230CE001230AE0019B0E2B06D1009B67
:10A49000002B01D1012302E0012300E00023184634
:10A4A00002B07047300100103401001082B00A4B36
:10A4B0001B680193094B1B680093019B0E2B06D16F
:10A4C000009B002B01D1012302E0012300E00023C7
:10A4D000184602B0704700BF300100103401001070
:10A4E00082B0164B1B680193154B1B680093019BB0
:10A4F000082B1FD1009B052B1AD801A252F823F07C
:10A5000019A501001DA5010021A5010025A5010037
:10A5100029A501002DA5010000230CE000230AE07D
:10A52000002308E0002306E0012304E0012302E009
:10A53000012300E00023184602B0704730010010EC
:10A540003401001008B5FFF7CBFF0346002B07D0FE
:10A550004FF010234FF08042D3F80832C2F858353C
:10A5600000BF08BD00BF044BD3F80034002BFAD065
:10A5700000BF00BF704700BF00E0014000B583B0DE
:10A580000190054A019BC2F80435FFF7EBFF00BFBD
:10A5900003B05DF804FB00BF00E00140024B034A3A
:10A5A0001A6000BF704700BFDC2400200090D00379
:10A5B00008B5FFF7E5FD0346002B06D08C4B1B6862
:10A5C0005B0B8C4A03F007031360FFF7F3FD0346B0
:10A5D000002B0ED04FF080430022C3F80C214FF027
:10A5E00080430022C3F810214FF080430022C3F8BB
:10A5F0003825FFF71BFE0346002B76D04FF0805323
:10A600007D4AD3F80434C2F820354FF080537A4A9B
:10A61000D3F80834C2F824354FF08053764AD3F883
:10A620000C34C2F828354FF08053734AD3F81034F5
:10A63000C2F82C354FF080536F4AD3F81434C2F867
:10A6400030354FF080536C4AD3F81834C2F83435A3
:10A650004FF08053684AD3F81C34C2F840354FF0AD
:10A660008053654AD3F82034C2F844354FF0805304
:10A67000614AD3F82434C2F848354FF080535E4A1B
:10A68000D3F82834C2F84C354FF080535A4AD3F8E7
:10A690002C34C2F850354FF08053574AD3F8303439
:10A6A000C2F854354FF08053534AD3F83434C2F8CB
:10A6B00060354FF08053504AD3F83834C2F86435CF
:10A6C0004FF080534C4AD3F83C34C2F868354FF011
:10A6D0008053494AD3F84034C2F86C354FF0805368
:10A6E000454AD3F84434C2F87035FFF7DBFD034622
:10A6F000002B02D0414B424A1A60FFF705FE034689
:10A70000002B03D03F4BFB22C3F81825FFF72EFE8A
:10A710000346002B0AD03C4B1B6823F00F023B4B37
:10A720001B6803F00F03384913430B60FFF750FE1B
:10A730000346002B03D0364B4FF400721A60FFF72C
:10A7400079FE0346002B0DD04FF08043D3F8003440
:10A7500003F00103002B05D04FF080436FF001029E
:10A76000C3F80024FFF7A2FE0346002B05D0264BBA
:10A770001B68254A43F00F031360FFF7E3FE4FF019
:10A780001023D3F80032002B05DB4FF01023D3F851
:10A790000432002B15DA0120FFF7F0FE4FF01023F2
:10A7A0001222C3F80022FFF7DDFE4FF01023122221
:10A7B000C3F80422FFF7D6FE0020FFF7DFFEFFF705
:10A7C000CBFC144B1B6803F00103002B0CD00120C1
:10A7D000FFF7D4FE0F4B00221A60FFF7C3FE0020E4
:10A7E000FFF7CCFEFFF7B8FCFFF7D8FE00BF08BDAF
:10A7F000440200103C05004000C000408C56004060
:10A800004881030000F00040E40E004058020010B0
:10A81000409602400C12001086B0039001921A4636
:10A820000B46ADF80A3013468DF80930039B002B18
:10A8300002D0019B002B01D100235BE00023ADF887
:10A8400016300CE0BDF81630039A13441B781A46F4
:10A85000BDF8163013449BB20133ADF81630BDF885
:10A8600016305A1CBDF80A309A420FDA019B1B8839
:10A87000BDF816209A42E5D3BDF816300133039A8D
:10A8800013441B789DF809209A42DBD1BDF81620AD
:10A89000BDF80A309A4201D300232BE0BDF81630F0
:10A8A0000233ADF81430BDF81630039A13441B7808
:10A8B000002B07D0BDF81630039A13441B78013BD8
:10A8C0009BB200E00023ADF81230BDF81230002B2F
:10A8D00008D0BDF81420BDF812301A44BDF80A3073
:10A8E0009A4201DD002305E0019BBDF814201A8087
:10A8F000BDF81230184606B0704700B585B001901B
:10A900000B46ADF8023013468DF801300023ADF848
:10A910000C309DF8013003AABDF802100198FFF732
:10A920007BFF0346ADF80E30BDF80E30002B01D191
:10A93000002304E0BDF80C301A46019B134418466E
:10A9400005B05DF804FB72DF704700BF184673DF87
:10A95000704700BF184682B00190019B93F8F43015
:10A96000184602B0704784B00190002303930AE0B8
:10A97000019A039B13441B78002B01D0012306E0AE
:10A98000039B01330393039B052BF1D90023184646
:10A9900004B0704782B003468DF807309DF8073049
:10A9A0005A1C074B83FB02135910D317C91A0B46C5
:10A9B0009B000B44D11ACBB2184602B0704700BFBF
:10A9C0006766666682B001900091009BDB7B012B7D
:10A9D00004D1009B9A88019BA3F8E82000BF02B035
:10A9E000704700B585B001900091019B002283F86B
:10A9F000F220009B9A88019BB3F8E8309A4216D166
:10AA0000019B1B7983F00103DBB2002B0FD00121E6
:10AA1000019800F08FF90390039B002B07D0019B56
:10AA20009B6B002B03D0019B9B6B0398984700BF47
:10AA300005B05DF804FB00B585B001900091009B66
:10AA40001B88262B1ED1009B1B7A012B03D0009B59
:10AA50001B7A022B17D1019B9B781846FFF79AFFB0
:10AA600003461946019800F065F90390039B002BFB
:10AA700009D0019B9B6B002B05D0019B9B6B03981E
:10AA8000984700E000BF05B05DF804FB00B585B055
:10AA900001900B468DF80330019BEB331846FFF70E
:10AAA00062FF03468DF80F309DF80330013B032B06
:10AAB00032D801A252F823F0C9AA0100EDAA010080
:10AAC00001AB01000DAB0100019B9B79002B0DD068
:10AAD000019B93F8243083F00103DBB2002B05D0F7
:10AAE0009DF80F30002B01D0012316E0019BDB798C
:10AAF000002B05D09DF80F30002B01D002230CE075
:10AB0000019B1B7A002B01D0032306E0019B5B7A9B
:10AB1000002B01D0042300E00023184605B05DF8A7
:10AB200004FB00BF82B001900091019B012283F8D9
:10AB30003120019B0022C3F8E420019B03F1EA02CB
:10AB4000009B5A60009B00229A60009B02221A70B0
:10AB5000009B80229A810023184602B0704782B081
:10AB600001900091019B022283F83120009B032277
:10AB70001A70019B1B699AB2009B9A81019B00226B
:10AB8000C3F8E420019B03F1EA02009B5A60019B99
:10AB9000DA68009B9A600023184602B0704700B53F
:10ABA00083B00190019B5B79002B0FD0019B93F840
:10ABB000F23083F00103DBB2002B07D00198FFF7DE
:10ABC000CAFE0346002B01D0012300E0002303F05E
:10ABD0000103DBB2184603B05DF804FB00B585B095
:10ABE00001900B468DF80330019BD3F8D400019BF4
:10ABF000B3F8D83001221946FFF77FFE0390039B7C
:10AC0000002B03D0039B9DF803201A70019B03F1D6
:10AC10005400019B03F1D401019B3C331A46FFF71A
:10AC200092FE0346184605B05DF804FB00B585B0FA
:10AC300001900091019B5A69009B9A60019B9B695E
:10AC40009AB2009B9A81019B012283F83C200198D3
:10AC5000FFF7A5FF0346002B13D0009B02221A75B5
:10AC600004210198FFF7BAFF0390039B0293029B14
:10AC7000002B01D0029B0FE0019B052283F83120BD
:10AC800003E0019B032283F83120019B03F1D402EE
:10AC9000019BC3F8E4200023184605B05DF804FBCF
:10ACA00000B585B001900091019BDA69009B9A6024
:10ACB000019B1B6A9AB2009B9A81019B012283F837
:10ACC0003C200198FFF76BFF0346002B13D0009B3D
:10ACD00002221A7504210198FFF780FF0390039B5D
:10ACE0000293029B002B01D0029B0FE0019B0622E6
:10ACF00083F8312003E0019B042283F83120019B7B
:10AD000003F1D402019BC3F8E4200023184605B0E8
:10AD10005DF804FB82B00190019B1B68012B03D0FE
:10AD2000019B1B68022B01D1012300E00023184680
:10AD300002B0704700B585B001900B468DF8033026
:10AD4000019B1B7883F00103DBB2002B01D00823A9
:10AD500009E1019B9DF803209A70019BEA330722C9
:10AD60000021184608F0A4FD019B9B79002B03D01D
:10AD7000019B9B78012B0FD0019BDB79002B03D02B
:10AD8000019B9B78012B07D0019BDB79002B14D012
:10AD9000019B9B78022B10D1019B5B6B002B08D091
:10ADA000019B012283F8F120019B5B6B08209847EF
:10ADB00003E0019B002283F8F1209DF8033019463F
:10ADC0000198FFF763FE03461A46019B9A70019BA8
:10ADD0005B6B002B20D0019B9B78032B03D0019B46
:10ADE0009B78042B18D1019B5B79002B14D0019B1D
:10ADF00093F8F23083F00103DBB2002B0CD0019BFF
:10AE0000002283F8F420019B012283F8F320019BA8
:10AE10005B6B0720984703E0019B002283F8F32037
:10AE2000019B3C3318220021184608F041FD019B8C
:10AE3000012283F83C20019B2C331846FFF76AFF60
:10AE40000346002B06D0019BDB6ADAB2019B83F834
:10AE5000512003E0019B012283F85120019B93F8CC
:10AE60002430002B12D0019B28331846FFF752FFE5
:10AE70000346002B06D0019B9B6ADAB2019B83F844
:10AE8000522003E0019B012283F85220019B002203
:10AE900083F85020019B9B78042B32D801A252F8F2
:10AEA00023F000BFF9AE0100B9AE0100C9AE010048
:10AEB000D9AE0100E9AE0100019B3C33194601986F
:10AEC000FFF730FE03901DE0019B3C3319460198CB
:10AED000FFF745FE039015E0019B3C3319460198AE
:10AEE000FFF7A4FE03900DE0019B3C331946019847
:10AEF000FFF7D6FE039005E0019B002283F8312086
:10AF000000E000BF019B9B78002B20D0019B03F148
:10AF10005400019BD3F8E410019B3C331A46FFF721
:10AF200012FD0390039B002B01D0039B1BE0019BB0
:10AF300093F85420019B93F8303019461046FFF7E0
:10AF400006FD0390039B002B01D0039B0BE0019BAC
:10AF50005B6B002B06D0019B5B6B019A92F8312052
:10AF6000104698470023184605B05DF804FB00BF63
:10AF700000B585B001900091009B0393019B1B8855
:10AF8000262B10D0262B13DC102B02D0112B05D032
:10AF90000EE001990398FFF715FD0AE00199039867
:10AFA000FFF71FFD05E001990398FFF744FD00E05E
:10AFB00000BF00BF05B05DF804FB000084B003468D
:10AFC000ADF806300023039316E00F49039A1346A9
:10AFD0009B0013449B000B441B88BDF806209A423B
:10AFE00007D1039A13469B0013449B00064A13445F
:10AFF00006E0039B01330393039B002BE5D0002362
:10B00000184604B0704700BFB02B002082B00190FA
:10B010000B46ADF80230019BBDF802201A80019B5F
:10B0200000221A72019B054903F10A020B4603CB69
:10B030001060516000BF02B0704700BFE02B0020DD
:10B0400082B00190019B4FF6FF721A8000BF02B0E0
:10B05000704788B00390029111461A460B46ADF82E
:10B0600006301346ADF80430039B9B881A46BDF8A2
:10B07000063013440793039B9B881946039B9B88C8
:10B08000BDF80620934228BF13469BB2CB1A069305
:10B09000039BDB881A46BDF8043013440593039BD9
:10B0A000DB881946039BDB88BDF80420934228BF48
:10B0B00013469BB2CB1A0493029B5A88039B1B88AE
:10B0C0009A4205D3029B5A88039B5B889A4201D916
:10B0D00000231CE0029B9B881A46069B934205D8DE
:10B0E000029B9B881A46079B934201D200230EE0E5
:10B0F000029BDB881A46049B934205D8029BDB889F
:10B100001A46059B934201D2002300E00123184612
:10B1100008B0704700B583B00190064B9B69002BC7
:10B1200003D0044B9B690198984700BF03B05DF8BA
:10B1300004FB00BFC42B002000B587B0034600917C
:10B14000ADF80630009B5B7A002B1AD1009B1B7A6E
:10B15000002B03D1164B5B68059302E0144B9B68F0
:10B160000593009B5B68BDF806200599184603F01F
:10B1700057FD0490049B002B16D00498FFF7CAFFDC
:10B1800012E0009B00221A72094B5B69002B0BD066
:10B1900001238DF80C30BDF80630ADF80E30044BAD
:10B1A0005B6903AA1046984700BF07B05DF804FB2F
:10B1B000C42B002000B585B00190019BDB7B8DF88E
:10B1C0000F30019B9B88ADF80C309DF80F30012BA0
:10B1D0002CD14FF6FF70FFF7F1FE0290029B002B7F
:10B1E00003D10420FFF796FF21E0BDF80C3019468B
:10B1F0000298FFF70BFF029B03F10A00019B03F18A
:10B2000010014FF6FF7340F2F312FFF722FF0346DF
:10B210001A46029B5A72074BDB89002B07D1BDF8F7
:10B220000C3002991846FFF787FF00E000BF05B019
:10B230005DF804FBC42B002000B587B00190019B92
:10B240009B88ADF81630BDF816301846FFF7B6FEED
:10B250000490049B002B0ED0049B5B68184603F0FF
:10B2600015FD0390039B002B02D00398FFF752FFBC
:10B270000498FFF7E5FE00BF07B05DF804FB00008F
:10B2800000B587B00190019B06330593059B1A8892
:10B29000194BDB899A422BD1059B5B89022B27D165
:10B2A000019B9B88ADF81230BDF812301846FFF7AD
:10B2B00085FE0390039B002B1AD0059B0C33184688
:10B2C00000F063FA0346002B06D0BDF81230039954
:10B2D0001846FFF731FF0BE0039B5B68184603F04D
:10B2E000D5FC0290029B002B02D00298FFF712FFC0
:10B2F00000BF07B05DF804FBC42B002000B585B08B
:10B300000190019B9B88ADF80E30BDF80E301846B9
:10B31000FFF754FE0290029B002B15D0029B03F115
:10B320000A00019B03F108014FF6FF7340F2F3128C
:10B33000FFF78FFE03461A46029B5A72BDF80E3085
:10B3400002991846FFF7F8FE00BF05B05DF804FB50
:10B3500000B583B001900091019B1B88502B12D047
:10B36000502B18DC122B12D0122B14DC102B02D015
:10B37000112B04D00FE00198FFF71CFF0CE001989F
:10B38000FFF75AFF08E00198FFF77AFF04E0019801
:10B39000FFF7B4FF00E000BF00BF03B05DF804FB9F
:10B3A00030B58FB00190009100230293009B002BD9
:10B3B0001AD000230D9314E06B460D99184604F043
:10B3C000F8FD0346002B09D0029B5A1C02920D9AED
:10B3D00092B25B0038336B4423F82C2C0D9B013365
:10B3E0000D930D9B132BE7D9019B1D4602AC0FCC8F
:10B3F0000FC50FCC0FC594E8070085E8070001983A
:10B400000FB030BD00B583B00346ADF80630BDF8CF
:10B410000630132B01D900230CE0BDF80630194685
:10B42000064804F095FDBDF806301946044804F0BE
:10B430008FFD0123184603B05DF804FBF02B0020BC
:10B44000EC2B002000B585B00346ADF80630002394
:10B4500003930DE0039B9B00094A13440433BDF89A
:10B4600006201146184604F08BFD039B013303931D
:10B47000039B1D2BEED900BF00BF05B05DF804FB98
:10B48000E82B002000B583B00346ADF80630BDF8C8
:10B4900006301946034804F073FD00BF03B05DF8A1
:10B4A00004FB00BFF02B002030B59BB0184B9B680D
:10B4B000DB431893164B5A6818AB1146184604F034
:10B4C000D4FD189A6B4611461846FFF769FF0DAC7C
:10B4D0006D460FCD0FC40FCD0FC495E8070084E86B
:10B4E0000700002319930BE0199B5B0068336B4442
:10B4F00033F8303C1846FFF7A5FF199B0133199329
:10B500000D9B199A9A42EFD300BF00BF1BB030BD0C
:10B51000E82B002000B583B001900B46ADF8023057
:10B5200013468DF801309DF80130002B06D0BDF890
:10B5300002301946019804F00BFD05E0BDF8023019
:10B540001946019804F01CFD00BF03B05DF804FB30
:10B5500000B585B001900091019B9B88ADF80E303D
:10B56000019B1B88103B0A2B7BD801A252F823F0C9
:10B570009DB50100C3B5010063B6010063B60100CB
:10B5800063B6010063B6010063B6010063B6010053
:10B5900063B601002DB60100CFB50100FFF784FFAF
:10B5A000BDF80E301846FFF72DFF034683F0010368
:10B5B000DBB2002B52D02D4AF021042002F0BEFC59
:10B5C0004CE0BDF80E301846FFF75CFF49E0019BE8
:10B5D0001B7AC3F30313DBB28DF80D309DF80D30E9
:10B5E000032B8CBF01230023DAB2BDF80E301946BD
:10B5F0001F48FFF78FFF9DF80D30022B8CBF0123F2
:10B600000023DAB2BDF80E3019461A48FFF782FF60
:10B610009DF80D30012B8CBF01230023DAB2BDF859
:10B620000E3019461448FFF775FF1AE0019B1B7A8C
:10B63000002B15D1019B5B7AC3F3C003DBB2002B57
:10B6400014BF012300238DF80C309DF80C20BDF8A9
:10B650000E3019460648FFF75DFF01E000BF00E02D
:10B6600000BF00BF05B05DF804FB00BF1C3F020037
:10B67000002C0020FC2B0020F82B002000B583B00C
:10B680000346ADF80630BDF80630132B01D9002370
:10B6900006E0BDF806301946034804F08AFC03466C
:10B6A000184603B05DF804FBEC2B002000B583B016
:10B6B0000346ADF80630BDF806301846FFF7DEFF4A
:10B6C0000346002B02D0BDF8063000E014231846D4
:10B6D00003B05DF804FB00B587B003900B46019200
:10B6E000ADF80A30019B002B01D10E2338E0019BFD
:10B6F00000221A60039B002B01D10E2330E0039B34
:10B700001B68002B01D10E232AE0039BDB8803F08A
:10B7100003039BB2002B01D0072321E0BDF80A30C0
:10B720001846FFF7C3FF03468DF817309DF8173012
:10B73000142B01D1052313E0039B1B799DF81720DF
:10B740009A4201D304230BE0039B1B689DF817204A
:10B750000399C98801FB02F21A44019B1A60002375
:10B76000184607B05DF804FB82B00190019B1B787E
:10B770001AB2019B01331B781BB21B021BB213438D
:10B780001BB29BB2184602B0704700B585B001905D
:10B790000198FFF7E9FF0346ADF80E30BDF80E3013
:10B7A00003F00103002B14BF01230023DBB2184672
:10B7B00005B05DF804FBA5DF704700BF1846B5DF94
:10B7C000704700BF184682B00190019BF7221A8093
:10B7D000019B17225A80019B00221A71019B0022B3
:10B7E0005A7100BF02B0704784B001900091009B75
:10B7F0009B88ADF80E30BDF80E2013465B00134455
:10B800005B00019A134406330293009BDB7B012B00
:10B8100004D1019B1A88029B1A8000E000BF00BF80
:10B8200004B0704700B583B001900091009B9B88E5
:10B830001A4613465B0013445B00019A1344063317
:10B840001846FFF7C0FF00BF03B05DF804FB00B56A
:10B8500087B001900091009B9B88ADF81630009B4B
:10B860005B89ADF81430BDF8162013465B00134415
:10B870005B00019A134406330493049B1B88BDF8B4
:10B880001420934228BF13469AB2049B5A80049B0B
:10B890005B88172B38BF17239AB2049B5A80019BF1
:10B8A000DB68002B15D0049B5B79002B11D040F690
:10B8B0007723ADF80830BDF81630ADF80A30049B98
:10B8C0005B88ADF80C30019BDB6802AA1146019839
:10B8D0009847049B00225A71049B00221A7100BFF2
:10B8E00007B05DF804FB000010B588B0019000912E
:10B8F000009B9B88ADF81A30009BDB88ADF81830B0
:10B90000BDF81A2013465B0013445B00019A1344F0
:10B9100006330593BDF81830172B38BF1723ADF841
:10B920001830059B1B88BDF81820934228BF13468A
:10B930009AB2059B5A80059B00221A71059B1A88B2
:10B94000BDF81A3011461846FFF739FF0790079BDC
:10B95000002B0FD0164A174BD31ADB081B0443F0F9
:10B960000104079805F066FD03461A461249204671
:10B9700006F004FA059B5B79002B16D1019BDB686E
:10B98000002B13D040F67723ADF80C30BDF81A30F9
:10B99000ADF80E30059B5B88ADF81030019BDB687D
:10B9A00003AA11460198984700E000BF08B010BDF7
:10B9B000FC390200A4390200883F020010B586B0AD
:10B9C00001900091009B0593019B9B88ADF812307C
:10B9D000BDF81230002B6ED1019B1B88552B19D05E
:10B9E000552B1CDC3A2B10D03A2B18DC102B02D034
:10B9F000112B05D013E001990598FFF7F5FE0FE034
:10BA000001990598FFF70EFF0AE001990598FFF7E5
:10BA10001EFF05E001990598FFF766FF00E000BFF3
:10BA2000BDF81220059913465B0013445B000B44DC
:10BA30000A331B78002B3FD0BDF81220059913461E
:10BA40005B0013445B000B4406331A88BDF81230C8
:10BA500011461846FFF7AFFE0390039B002B16D14B
:10BA6000BDF81220059913465B0013445B000B449C
:10BA70000A3300221A70BDF81220059913465B00A4
:10BA800013445B000B440B3301221A7014E0039B38
:10BA9000112B11D0094A0A4BD31ADB081B0443F0BF
:10BAA0000104039805F0C6FC03461A4605492046E2
:10BAB00006F064F900E000BF06B010BDFC390200DA
:10BAC000A4390200B83F0200B0DF704700BF18463B
:10BAD00066DF704700BF184682B001900B46ADF894
:10BAE0000230019B002B01D10E230AE0019B1B7841
:10BAF000DE2B01D0082304E0019BBDF802205A8010
:10BB00000023184602B0704700B585B00190019B34
:10BB10001B7A002B18D0019B5B8800211846FFF789
:10BB2000D7FF0390039B002B03D1019B00221A72C5
:10BB30000AE0039B112B03D1019B01221A7203E03F
:10BB4000019B5B680398984700BF05B05DF804FB54
:10BB500000B583B001900091009B1B79012B0BD1A4
:10BB6000009B1A88019B5B889A4205D1019B0122A8
:10BB70001A720198FFF7C8FF00BF03B05DF804FB1D
:10BB800082B00190009100BF02B0704700B589B04B
:10BB900001900091009B1A88019B5B889A4236D1E4
:10BBA000009B02330793079B1B78022B31D1079B25
:10BBB0001B7A042B07D0079B1B7A062B03D0079B0D
:10BBC0001B7A052B27D102AB00221A605A609A60BB
:10BBD000DA6002238DF808304FF4C073ADF80C30F2
:10BBE000079B1B7A052B02D10023ADF80C30009B7C
:10BBF0001B8802AA11461846FFF766FF0690069BAF
:10BC0000002B09D0019B5B680698984704E000BFB1
:10BC100002E000BF00E000BF09B05DF804FB00B522
:10BC200085B001900091009B002B43D0019B002B1D
:10BC300040D0009B0393039B1B78DE2B3AD1019BE2
:10BC40009A88039B5B889A4202D10398FFF75CFFB6
:10BC5000019B1B88512B18D0512B28DC112B1BD09A
:10BC6000112B24DC012B02D0022B07D01FE0019BFB
:10BC7000043319460398FFF76BFF1BE0019B043365
:10BC800019460398FFF77CFF14E0019B0433194623
:10BC90000398FFF77BFF0DE0019B9A88039B5B886D
:10BCA0009A4206D1039B4FF6FF725A8001E000BF13
:10BCB00000E000BF05B05DF804FBADDF704700BFDA
:10BCC0001846AEDF704700BF184600B58FB0019030
:10BCD000009100230393019B5869009B9B8803AA52
:10BCE0001946FFF7F8FC0D9005AB08220021184615
:10BCF00007F0DEFD04AB06930223ADF814300023F9
:10BD0000ADF81630009B9888019B1B8905AA19463F
:10BD1000FFF7D3FF0D900D9B002B26D1019B9B6954
:10BD2000002B22D0069B1846FFF72FFD0346002B61
:10BD30001BD0039B002B02D0039B01221A7007AB80
:10BD400018220021184607F0B3FD02238DF81C309D
:10BD5000019B0893009B9B88ADF82430039B0A93BA
:10BD6000019B9B6907AA1046984700BF0FB05DF87A
:10BD700004FB00B58DB001900091009B06330B933E
:10BD8000019B5869009B9B8803AA1946FFF7A3FCF7
:10BD90000A9004AB18220021184607F089FD019B88
:10BDA0000593009B9B88ADF81830039B07930B9B72
:10BDB0001A88019B1B899A4225D10B9B5B89022B18
:10BDC00021D1039B002B38D00B9B0C331846FFF777
:10BDD000DCFC0346002B06D0039B01221A700223D1
:10BDE0008DF8103005E0039B00221A7003238DF8B4
:10BDF0001030019B9B69002B1FD0019B9B6904AAFB
:10BE00001046984719E00B9B1A88019B9B899A4220
:10BE100014D1019B9B69002B10D000238DF81030AA
:10BE20000B9B0C3308930B9B5B89ADF82430019B73
:10BE30009B6904AA1046984700E000BF00BF0DB000
:10BE40005DF804FB00B58BB001900091019B58692F
:10BE5000009B9B8802AA1946FFF73DFC0990099BAD
:10BE6000002B1ED1029B1B78002B1BD0019B9B69D2
:10BE7000002B17D003AB18220021184607F018FD3D
:10BE800001238DF80C30019B0493009B9B88ADF837
:10BE90001430029B0693019B9B6903AA10469847A6
:10BEA00000E000BF0BB05DF804FB00B585B0019069
:10BEB0000091009B002B1ED0019B002B1BD0009BF0
:10BEC0000393019B1B88572B10D0572B15DC102B8D
:10BED00002D0502B05D010E001990398FFF7F5FE32
:10BEE0000CE001990398FFF744FF07E001990398DC
:10BEF000FFF7A8FF02E000BF00E000BF05B05DF85B
:10BF000004FB00B58DB0039002910192ADF80230B0
:10BF1000039B002B01D10E2342E0039B5B6905AA22
:10BF2000BDF802101846FFF7D6FB0B900B9B0A9347
:10BF30000A9B002B01D00A9B32E0BDF802304FF67D
:10BF4000FF72934202D0059B002B01D1052327E00D
:10BF5000059B1B7883F00103DBB2002B01D0082383
:10BF60001EE0019B1B88F42B01D9072318E006ABC8
:10BF700010220021184607F09BFC039B9B88ADF81C
:10BF80001830029B0993019B089301238DF81A3006
:10BF900006AABDF8023011461846FFF792FE034686
:10BFA00018460DB05DF804FB82B003468DF80730EB
:10BFB0009DF90730002B13DB9DF8073003F01F02BB
:10BFC00009499DF907305B09012000FA02F220338C
:10BFD00041F82320BFF34F8F00BFBFF36F8F00BF27
:10BFE00000BF02B0704700BF00E100E0044BD3F88F
:10BFF0000034002B14BF01230023DBB21846704726
:10C000000000014008B5FFF7F1FF034683F001038C
:10C01000DBB2002B04D000F093FB024B00229A709D
:10C0200000BF08BD642C002000B583B0002301933D
:10C03000184B1B78002B02D0852301931CE0154B75
:10C0400000229A60134B00225A60124B00221A61A0
:10C05000104B0022DA60104800F050FB019007F00E
:10C0600067FA034683F00103DBB2002B01D000F036
:10C070005FFB084B01221A70FFF7B8FF0346002B45
:10C0800002D0044B01229A70019B184603B05DF860
:10C0900004FB00BF642C002049C1010084B0019062
:10C0A000019B1B680393039B002B03D0039B1A681F
:10C0B000019B1A60039B184604B0704700B583B01B
:10C0C00000238DF807300DF10703184602F074FEC7
:10C0D000094BDB68013B084AD360074BDB68002B48
:10C0E00001D1FFF78FFF9DF80730184602F06EFE72
:10C0F00000BF03B05DF804FB642C002000B585B0E0
:10C1000003468DF807309DF80730002B02D10C4B09
:10C11000039301E00B4B03930398FFF7BFFF0290DB
:10C12000029B002B06D0029B5B689DF807201046FF
:10C130009847F1E700BF00BF05B05DF804FB00BF02
:10C140006C2C0020742C002000B583B003468DF8C1
:10C1500007309DF80730002B05D10A4B01225A7099
:10C160000020FFF7CBFF9DF80730012B05D1054BD1
:10C1700001229A700120FFF7C1FF00BF03B05DF8F4
:10C1800004FB00BF642C002000B583B00190009137
:10C19000019B002B05D1054B01225A700020FFF7AF
:10C1A000ADFF00BF03B05DF804FB00BF642C0020AE
:10C1B00000B585B0034600918DF807309DF8073033
:10C1C000032B29D0032B2CDC002B02D0012B04D015
:10C1D00027E00020FFF7E8FE24E000238DF80F3071
:10C1E0000DF10F03184602F0E7FD104B1B7883F0AA
:10C1F0000103DBB2002B01D0FFF716FF0B4BDB680E
:10C2000001330A4AD360094B01229A709DF80F301E
:10C21000184602F0DBFD05E000F08AFAFFF74EFF5A
:10C2200000E000BF00BF05B05DF804FB642C0020F7
:10C2300000B585B00190019B002B0AD0074B43F05D
:10C2400001030393019B9B010293039B0298984770
:10C2500000E000BF05B05DF804FB00BF1040020025
:10C2600082B001904FF0A043184602B0704700B56D
:10C2700085B0019001AB1846FFF7F2FF0390019BD8
:10C28000012202FA03F31946039800F035F800BFC3
:10C2900005B05DF804FB00B585B0019001AB184610
:10C2A000FFF7DEFF0390019B012202FA03F3194618
:10C2B000039800F02BF800BF05B05DF804FB00B553
:10C2C00085B0019001AB1846FFF7CAFF03900398B1
:10C2D00000F00AF80246019B22FA03F303F001037F
:10C2E000184605B05DF804FB82B00190019BD3F8BD
:10C2F0001035184602B0704782B001900091019B42
:10C30000009AC3F8082500BF02B0704782B00190C0
:10C310000091019B009AC3F80C2500BF02B0704742
:10C3200000B585B001904FF0A042019B1B6803F55A
:10C33000E07340F20C6142F823104FF0A042019BE1
:10C340005B6803F5E07340F20C6142F82310019B37
:10C350001B681846FFF78BFF019B5B681846FFF7C9
:10C3600086FF4FF0A042019B1B6803F5E07340F28B
:10C370000D6142F823104FF0A042019B5B6803F56A
:10C38000E07340F20D6142F823100420FFF750FFE4
:10C39000002303931EE0019B5B681846FFF78FFFA5
:10C3A0000346002B03D0039B002B17D124E0019BF5
:10C3B0001B681846FFF76FFF0420FFF739FF019B4A
:10C3C0001B681846FFF753FF0420FFF731FF039B5C
:10C3D00001330393039B082BDDDD00E000BF019BCD
:10C3E0005B681846FFF757FF0420FFF721FF019B0A
:10C3F0005B681846FFF73BFF05B05DF804FB0000E3
:10C4000000B589B001900091009B0793019B1B78B8
:10C410008DF80C30019B1B798DF81030019B5B79F6
:10C420008DF81130019B9B68DBB28DF81230019BB7
:10C43000DB68DBB28DF81330019B1B690593019B10
:10C440005B690693074A079B52F823300649079A0F
:10C4500051F8221003AA1046984700BF09B05DF8B2
:10C4600004FB00BF782C00207C2C002000B587B096
:10C470000390029101920093039B1B78059312494C
:10C48000059B019A41F823201049059B009A41F829
:10C490002320029B5B7B002B02D00298FFF740FF1A
:10C4A00000230493039B181D019B002B01D0084A15
:10C4B00000E00022059B029901F014F80490049B0F
:10C4C000184607B05DF804FB782C00207C2C002077
:10C4D00001C4010082B003468DF807309DF9073092
:10C4E000002B0CDB9DF8073003F01F0205499DF976
:10C4F00007305B09012000FA02F241F8232000BF57
:10C5000002B0704700E100E082B0034600918DF870
:10C5100007309DF90730002B0ADB009BDAB20C498B
:10C520009DF907305201D2B20B4483F800230BE08F
:10C53000009BDAB207499DF8073003F00F03043B74
:10C540005201D2B20B441A7600BF02B0704700BF4E
:10C5500000E100E000ED00E082B00190019B1B0BC8
:10C560005BB2184602B0704700B583B003460A4676
:10C570008DF8073013468DF806309DF806209DF99A
:10C58000073011461846FFF7BFFF00BF03B05DF844
:10C5900004FB00B583B003468DF807309DF90730E2
:10C5A0001846FFF797FF00BF03B05DF804FB0000DB
:10C5B00082B003468DF807300F4A9DF90730002BF3
:10C5C00000DA1F335B115BB252F823209DF907306C
:10C5D000594203F01F0301F01F0158BF4B425BB2E9
:10C5E00022FA03F303F00103002B14BF01230023FD
:10C5F000DBB2184602B0704700E100E082B0019063
:10C600004FF08042019BC2F8083300BF02B0704770
:10C6100082B003468DF807309DF8073003F1804360
:10C6200001221A6000BF02B0704784B00346ADF823
:10C630000630BDF8063003F1804300221A60BDF8D1
:10C64000063003F180431B680393039B00BF04B0D3
:10C65000704782B00346ADF80630BDF8063003F1EE
:10C6600080431B68002B14BF01230023DBB2184654
:10C6700002B0704782B001904FF08042019BC2F837
:10C68000183500BF02B070474FF08043D3F818341C
:10C690001B0C03F00103002B14BF01230023DBB2AA
:10C6A0001846704700B583B006238DF807304FF069
:10C6B0008040FFF751FF03461846FFF779FF034616
:10C6C00083F00103DBB2002B13D04FF08040FFF763
:10C6D00043FF03461A469DF8073019461046FFF7F8
:10C6E00043FF4FF08040FFF737FF03461846FFF740
:10C6F00050FF00BF03B05DF804FB000084B0019060
:10C7000000230393094B1B79002B02D0852303934D
:10C7100008E0064B00225A71044A019B1360034B48
:10C7200001221A71039B184604B07047802C002028
:10C7300008B5FFF7B7FF0020FFF79CFF00BF08BD5B
:10C7400008B50220FFF75AFF4FF48270FFF76DFF24
:10C750000C20FFF75DFF00BFFFF796FF0346002B9D
:10C76000FAD100BF00BF08BD08B54FF48070FFF7D5
:10C7700070FF0346002B0AD04FF48070FFF755FF7F
:10C780000120FFF73BFF1F4B1B68002098474FF429
:10C790008270FFF75EFF0346002B0AD04FF48270D1
:10C7A000FFF743FF0220FFF729FF164B1B6801200C
:10C7B00098474FF48870FFF74CFF0346002B0AD0D0
:10C7C0004FF48870FFF731FF1020FFF717FF0D4B74
:10C7D0001B68022098474FF48670FFF73AFF034624
:10C7E000002B0DD04FF48670FFF71FFF0820FFF7D6
:10C7F00005FF044B00225A71024B1B680320984727
:10C8000000BF08BD802C002000B583B00346ADF802
:10C810000630BDF80630184600F026F803461B68BF
:10C82000012B0CBF01230023DBB2184603B05DF8D7
:10C8300004FB00B585B00346ADF80630BDF8063000
:10C84000184600F011F803461A4600231360BDF89D
:10C850000630184600F008F803461B680393039B54
:10C8600000BF05B05DF804FB82B00346ADF80630AA
:10C87000BDF8063003F1804303F5C043184602B00B
:10C880007047000082B00190034BD3F80423019B52
:10C890001340184602B070470060004082B001901B
:10C8A000054A019B03F5A27352F823301B0A03F0DB
:10C8B0001F03184602B070470060004082B001902C
:10C8C000064A019B03F5A27352F823301B0C03F0B8
:10C8D0000303DBB2184602B0704700BF006000409F
:10C8E00082B001904FF0A043184602B0704700B5E7
:10C8F00085B001900B468DF8033001AB1846FFF769
:10C90000EFFF0390019A039B02F5E07253F8223087
:10C91000019A23F44031039B02F5E07243F82210A0
:10C92000019A039B02F5E07253F822109DF8033040
:10C930001B04019A1943039B02F5E07243F822108D
:10C9400000BF05B05DF804FB00B585B0019001ABF8
:10C950001846FFF7C5FF0390019A039B02F5E072AA
:10C9600053F822301B0C03F00303DBB2184605B06A
:10C970005DF804FB86B00390029101924FF0A04352
:10C980000493039B059319E0059B9B0018336B44AC
:10C9900053F8083CD3F82025019B1A60059B9B00A7
:10C9A00018336B4453F8083C019A1268C3F82025E9
:10C9B000019B04330193059B01330593039A029B6A
:10C9C0001344059A9A42DFD300BF00BF06B07047F8
:10C9D00000B585B0019001AB1846FFF781FF0390C9
:10C9E000019B012202FA03F31A46039BC3F8202598
:10C9F00000BF05B05DF804FB84B001900091009B7E
:10CA00000393019BDB080293019B03F0070301934F
:10CA10000122019B02FA03F30399029A0A44127855
:10CA20001340184604B0704782B00190044A019B3D
:10CA30001344303393F90030184602B0704700BFFA
:10CA4000882C002082B00190034A019B52F82330C9
:10CA5000184602B0704700BF882C002084B00190B7
:10CA6000074A019B1344503393F900308DF80F307F
:10CA70009DF80F3023F0C003184604B0704700BF84
:10CA8000882C002084B00190074A019B1344503346
:10CA900093F900308DF80F309DF80F309B09DBB211
:10CAA000184604B0704700BF882C002000B585B040
:10CAB0000190019A01210020FFF75CFF00230393FE
:10CAC0000BE0039B9B00019A13441B68002B01D0D1
:10CAD000012306E0039B01330393039B002BF0D05B
:10CAE0000023184605B05DF804FB000000B587B0D0
:10CAF0000190002305935BE0344A059B13445033B7
:10CB000093F90030B3F1FF3F4ED00598FFF7A6FF31
:10CB1000049001990498FFF76FFF0346002B44D05F
:10CB20000598FFF7AFFF03468DF80F300498FFF725
:10CB30000BFF03468DF80E309DF80E30022B01D10D
:10CB4000032300E002238DF80D309DF80D301946C7
:10CB50000498FFF7CCFE0498FFF73AFF0498FFF71C
:10CB600063FF03461846FFF76DFF0290029B002B00
:10CB70001BD09DF80F30032B0FD09DF80E30022BE9
:10CB800003D19DF80F30012B07D09DF80E30032BF9
:10CB90000BD19DF80F30022B07D19DF80F20029B7F
:10CBA00011460498984700E000BF059B01330593A8
:10CBB000059B032BA0D90198FFF778FF0346002BB4
:10CBC00097D100BF00BF07B05DF804FB882C0020A0
:10CBD00000B589B000230693002300934FF48073BF
:10CBE000ADF81230012307930023059321E0BDF82F
:10CBF00012301846FFF708FE0346002B0ED00798A8
:10CC0000FFF740FE0346002B08D0BDF8123018464F
:10CC1000FFF70FFE069A079B13430693079B5B00E3
:10CC20000793BDF812300433ADF81230059B013381
:10CC30000593059B072BDAD94FF4BE70FFF7E4FD8F
:10CC40000346002B0DD04FF4BE70FFF7F2FD069B9C
:10CC500043F0004306936B461A4601210020FFF77C
:10CC600089FE069BDBB2002B29D00123079300230A
:10CC7000059321E0079A069B1340002B16D00598D8
:10CC8000FFF70CFE03900598FFF718FE03468DF89A
:10CC90000B300598FFF7D6FE0190019B002B05D0C5
:10CCA0009DF80B20019B114603989847079B5B005A
:10CCB0000793059B01330593059B072BDAD9069B48
:10CCC000002B03DA6B461846FFF710FF00BF09B0D0
:10CCD0005DF804FB08B5024B1B68984708BD00BF10
:10CCE000E42C002082B00190019B044A934201D1C0
:10CCF000034B00E00023184602B0704700200040BC
:10CD0000E42C002000B587B0019000910198FFF756
:10CD1000E9FF0490049B002B25D000238DF81730E9
:10CD200000238DF80B300DF10B03184602F044F888
:10CD3000049B1B79002B03D001238DF8173005E0ED
:10CD4000049B009A1A60049B01221A719DF80B3013
:10CD5000184602F03BF89DF81730002B03D0112342
:10CD60000393039B02E000230393039B184607B041
:10CD70005DF804FB82B003468DF807309DF807305C
:10CD800003F1804303F5E04301221A6000BF02B0C3
:10CD9000704782B00346ADF80630BDF8063003F1A7
:10CDA000804303F5E0431B68002B14BF01230023DD
:10CDB000DBB2184602B0704784B00346ADF80630C7
:10CDC000BDF8063003F1804303F5E04300221A600A
:10CDD000BDF8063003F1804303F5E0431B6803937D
:10CDE000039B00BF04B0704782B001900091054AD8
:10CDF000019BC2F82C36034A009BC2F8303600BFB4
:10CE000002B070470070004000B58FB04FF48270E0
:10CE1000FFF7BFFF0346002B46D04FF48270FFF7A9
:10CE2000CBFF8E4B93F82E3083F00103DBB2002B47
:10CE300004D18A4B93F82F30002B35D000238DF886
:10CE40001C30864B5B680893844B1B899BB2ADF802
:10CE50002430824BDB68002B03D1804B00221A74F4
:10CE600019E07E4B1A8B7D4B5A837C4BDB687B4AE7
:10CE700053607A4B1A8B794B1A81784B0022DA6017
:10CE8000764B93F82E3083F00103DBB2002B02D0F7
:10CE90000020FFF76FFF714B1B6807AA10469847E9
:10CEA0006E4B002283F82F206C4B93F82E30002B12
:10CEB0005ED04FF48070FFF76CFF0346002B57D015
:10CEC0004FF48070FFF778FF644B5B8B634A92F8F6
:10CED0002D2093421BD9614B5B8B604A92F82D2029
:10CEE0009B1A9AB25D4B5A835C4B5A685B4B1B8909
:10CEF0009BB21946594B5B8BCB1A5B001344574AC4
:10CF000092F82D2011461846FFF76EFF29E0534B8B
:10CF10005B8B524A92F82D20934214D14F4BDB6821
:10CF2000002B10D04D4B012283F82F204B4B0022B9
:10CF30005A834A4BDB68494A92F82D20114618461D
:10CF4000FFF752FF0DE0454B5B8B444A92F82D20D2
:10CF5000934206D1414B012283F82F203F4B002200
:10CF60005A834FF48270FFF727FF0420FFF702FF78
:10CF70004FF48870FFF70DFF0346002B0ED04FF4DF
:10CF80008870FFF719FF354B00221A7402238DF8C1
:10CF90001030324B1B6804AA104698474FF48A7031
:10CFA000FFF7F7FE0346002B07D04FF48A70FFF718
:10CFB00003FF2A4B00221A744CE0284B5B690D9347
:10CFC00045E00D9B0A930A9B002B01D1202303E02F
:10CFD0000A9BB3FA83F3DBB20C934FF000420C9B35
:10CFE00022FA03F3DB430D9A13400D930C9B9BB283
:10CFF00046339BB29B00ADF82E30BDF82E3018465C
:10D00000FFF7C7FE0346002B21D0BDF82E3018468F
:10D01000FFF7D2FE01238DF80430BDF82E30A3F5C2
:10D020008C73DB08DBB28DF80830BDF82E30A3F529
:10D030008C7303F00403002B0CBF01230023DBB22D
:10D040008DF80930054B1B6801AA104698470D9BC7
:10D05000002BB6D100BF0FB05DF804FBEC2C002014
:10D0600084B001900B46ADF80230BDF80230019A51
:10D07000134400221A60BDF80230019A13441B6861
:10D080000393039B00BF04B0704782B001900B462E
:10D09000ADF80230BDF80230019A13441B68002B32
:10D0A00014BF01230023DBB2184602B0704782B0E0
:10D0B00001904FF0A043184602B0704700B585B00C
:10D0C000019001AB1846FFF7F2FF0390019B01228C
:10D0D00002FA03F31946039800F018F800BF05B0F0
:10D0E0005DF804FB00B585B0019001AB1846FFF771
:10D0F000DEFF0390019B012202FA03F31946039815
:10D1000000F00EF800BF05B05DF804FB82B001909E
:10D110000091019B009AC3F8082500BF02B0704738
:10D1200082B001900091019B009AC3F80C2500BFCA
:10D1300002B0704700B583B00190019BDB7FFF2BED
:10D140000ED0019B9B7F002B05D0019BDB7F1846F7
:10D15000FFF7C8FF04E0019BDB7F1846FFF7AEFF37
:10D16000019B00225A77019B00221A72019B1B68C7
:10D17000019A02F10800019A52681146984700BFCF
:10D1800003B05DF804FB00B583B0019000914FF44B
:10D190008C710198FFF779FF0346002B07D04FF4FD
:10D1A0008C710198FFF75CFF0098FFF7C3FF00BF89
:10D1B00003B05DF804FB000008B503494FF04020C0
:10D1C000FFF7E1FF00BF08BD1C2D002082B0034621
:10D1D0008DF807309DF90730002B0CDB9DF80730E8
:10D1E00003F01F0205499DF907305B09012000FA91
:10D1F00002F241F8232000BF02B0704700E100E0D6
:10D2000082B0034600918DF807309DF90730002B5E
:10D210000ADB009BDAB20C499DF907305201D2B209
:10D220000B4483F800230BE0009BDAB207499DF81A
:10D23000073003F00F03043B5201D2B20B441A76BD
:10D2400000BF02B0704700BF00E100E000ED00E069
:10D2500082B00190019B1B0B5BB2184602B0704775
:10D2600000B583B003460A468DF8073013468DF8A3
:10D2700006309DF806209DF9073011461846FFF745
:10D28000BFFF00BF03B05DF804FB00B583B00346E9
:10D290008DF807309DF907301846FFF797FF00BF5C
:10D2A00003B05DF804FB82B001900B468DF80330AB
:10D2B0009DF80330019A134401221A6000BF02B0A6
:10D2C000704784B001900B46ADF80230BDF80230D3
:10D2D000019A134400221A60BDF80230019A1344E7
:10D2E0001B680393039B00BF04B0704782B001909A
:10D2F0000B46ADF80230BDF80230019A13441B68AA
:10D30000002B14BF01230023DBB2184602B0704784
:10D3100082B001900091019B009AC3F8042300BFE2
:10D3200002B0704782B001900091019B009AC3F84F
:10D33000082300BF02B0704782B00190019B052214
:10D34000C3F8002500BF02B0704782B00190019B76
:10D350000022C3F8002500BF02B0704784B00390DC
:10D3600002910192039B029AC3F80825039B019A3C
:10D37000C3F80C2500BF04B0704782B00190009143
:10D38000019B009AC3F8242500BF02B0704784B007
:10D390000190019BD3F8C4340393019B039AC3F813
:10D3A000C424039B184604B0704782B001900B461A
:10D3B0008DF803309DF80320019BC3F8882500BF3A
:10D3C00002B0704782B00190019BD3F81835DBB2F0
:10D3D000184602B0704782B001900B468DF80330BA
:10D3E0009DF80320019BC3F81C2500BF02B07047C5
:10D3F00082B001900091019B009AC3F8002200BF07
:10D4000002B0704782B001904FF0A043184602B0BE
:10D41000704700B585B00190084611461A4603468C
:10D420008DF803300B468DF8023013468DF801302D
:10D4300001AB1846FFF7E6FF03909DF803209DF827
:10D4400002305B001A439DF801309B001A439DF89F
:10D4500018301B0242EA03019DF81C301B04019A9C
:10D460001943039B02F5E07243F8221000BF05B098
:10D470005DF804FB84B0019003230393019B03F048
:10D480000103002B02D04FF402430393019B03F0EE
:10D490000203002B02D048F201230393019B03F007
:10D4A0000403002B02D048F202230393039B184687
:10D4B00004B0704700B583B001900091009B5A6B97
:10D4C000009B9B6A9A4207D00198FFF73EFF0198A4
:10D4D000FFF732FF002300E00123184603B05DF898
:10D4E00004FB000000B58BB00590049103920293F9
:10D4F000059B1B791A4613461B019B1A9B00424A47
:10D5000013440793079B93F82E30002B03D0082376
:10D510000993099B74E0059B1A68059B1B791946C2
:10D520003A4B53F8213019461046FFF7EBFB034600
:10D53000002B03D011230993099B61E0079B039AF9
:10D540001A60079B029A5A60079B00229A60079B09
:10D55000002283F82D20079B002283F83120079BAF
:10D56000002283F83020049B5A7B079B83F83820E5
:10D57000049B1868002301930623009303230022D1
:10D580000021FFF746FF049B586800230193062300
:10D590000093032300220021FFF73BFF059B1B683C
:10D5A0000893049B1968049B5B681A460898FFF768
:10D5B000D5FE049B9B6819460898FFF7DEFE079B83
:10D5C0001B68002B15D0059B1B681846FFF740FE13
:10D5D00003461A46049B1B7B19461046FFF740FE84
:10D5E000059B1B681846FFF733FE03461846FFF7F6
:10D5F0004CFE079B012283F82E2000230993099BF0
:10D6000018460BB05DF804FB402D0020404002009E
:10D6100000B585B00190019B1B791A4613461B018A
:10D620009B1A9B00084A13440393019B1B680293B7
:10D630000298FFF781FE039B022283F82E2000BF91
:10D6400005B05DF804FB00BF402D002000B583B09D
:10D6500001900091009B5A6B009B9B6A9A420AD2F0
:10D66000009B5A6A009B5B6B13441B781946019818
:10D67000FFF7B1FE1EE0009B93F82C30002B05D085
:10D680001C210198FFF70FFE002314E0009B1B6A8A
:10D6900003F04003002B09D01C210198FFF703FE83
:10D6A000009B012283F82D20002304E0142101981F
:10D6B000FFF7F9FD0123184603B05DF804FB10B530
:10D6C00082B001900091009B5A6B009B9B6A9A422A
:10D6D00044D2009B5A6A009B5B6BD4180198FFF7F9
:10D6E00071FE03462370009B5B6B5A1C009B5A63C0
:10D6F000009B5A6B009B9B6A013B9A420AD1009B9C
:10D700001B6A03F04003002B04D102210198FFF7AC
:10D710006FFE1FE0009B5A6B009B9B6A9A4207D1E9
:10D72000009B1B6A03F04003002B01D1012316E08C
:10D73000009B5A6B009B9B6A9A420BD1009B1B6A11
:10D7400003F04003002B05D0009B022283F82D201C
:10D75000002304E020210198FFF7A5FD01231846CE
:10D7600002B010BD00B585B00190009100238DF886
:10D770000F304FF482710198FFF7B8FD0346002B7C
:10D7800007D04FF482710198FFF79BFD01238DF8BC
:10D790000F30009B93F82F30002B0FD04FF4927175
:10D7A0000198FFF78EFD4FF48E710198FFF789FD08
:10D7B0004FF484710198FFF784FD78E04FF4927183
:10D7C0000198FFF793FD0346002B0DD04FF49271A3
:10D7D0000198FFF776FD14210198FFF764FD009B87
:10D7E000012283F82F2062E04FF48E710198FFF739
:10D7F0007DFD0346002B2BD04FF48E710198FFF76F
:10D8000060FD009B5B6B5A1C009B5A634FF4927146
:10D810000198FFF76BFD0346002B0DD04FF492717A
:10D820000198FFF74EFD14210198FFF73CFD009B86
:10D83000012283F82F203AE000990198FFF706FFB4
:10D84000034683F00103DBB2002B30D0002354E009
:10D850004FF484710198FFF749FD0346002B26D051
:10D860004FF484710198FFF72CFD4FF492710198E9
:10D87000FFF73CFD0346002B0DD04FF49271019849
:10D88000FFF71FFD14210198FFF70DFD009B0122FA
:10D8900083F82F200BE000990198FFF710FF034653
:10D8A00083F00103DBB2002B01D0002325E09DF8BB
:10D8B0000F30002B20D0009B002283F82D20009BEE
:10D8C00093F82F3083F00103DBB2002B12D00099C4
:10D8D0000198FFF7EFFD0346002B14BF012300233F
:10D8E000DBB283F00103DBB203F00103DAB2009B89
:10D8F00083F82F20002300E00123184605B05DF8CF
:10D9000004FB000000B587B001900091002305934F
:10D91000384B03934FF482710198FFF7D2FC4FF418
:10D9200092710198FFF7CDFC4FF48E710198FFF7CB
:10D93000C8FC4FF484710198FFF7C3FC00210198E3
:10D94000FFF756FD009B00225A63009B002283F8DC
:10D950002F2020210198FFF7A6FC009B93F82D3083
:10D96000012B03D008210198FFF79DFC0099019835
:10D97000FFF76CFE009B1B68002B0DD0009B40F254
:10D9800086229A60009B9B6819460198FFF7C0FCAD
:10D990002AE0039B013B0393039B002B06DD0099C8
:10D9A0000198FFF7DFFE0346002BF2D1009B93F8AE
:10D9B0002F30002B0DD00198FFF7E9FC0490049B59
:10D9C000002B04D00498FFF755FD059001E00323D8
:10D9D0000593039B002B07DC0198FFF7B6FC019829
:10D9E000FFF7AAFC03230593059B184607B05DF8D3
:10D9F00004FB00BFA086010000B587B00190009134
:10DA0000002305933D4B03934FF482710198FFF778
:10DA100058FC4FF492710198FFF753FC4FF48E714C
:10DA20000198FFF74EFC4FF484710198FFF749FC11
:10DA3000009B00225A63009B002283F82F20009B4A
:10DA40009B6A012B0AD1009B1B6A03F04003002B49
:10DA500004D102210198FFF7CBFC03E001210198DA
:10DA6000FFF7C6FC20210198FFF71DFC009B93F8EF
:10DA70002D30022B03D000210198FFF714FC009BEE
:10DA80001B68002B0DD0009B40F286229A60009B01
:10DA90009B6819460198FFF73BFC2AE0039B013B7A
:10DAA0000393039B002B06DD00990198FFF75AFEB4
:10DAB0000346002BF2D1009B93F82F30002B0DD0A2
:10DAC0000198FFF764FC0490049B002B04D0049899
:10DAD000FFF7D0FC059001E003230593039B002B87
:10DAE00007DC0198FFF731FC0198FFF725FC0323C1
:10DAF0000593059B184607B05DF804FBA08601005E
:10DB000030B587B0039002910192009300230593F2
:10DB1000029B93F82D30012B05D1019B1B78012B23
:10DB200001D108236DE0029B93F82D30022B05D123
:10DB3000019B1B78012B01D0082362E03249039836
:10DB4000FFF7F0FB029B93F83030DBB2002B09D0DB
:10DB5000029B9B6819460398FFF7DAFB1123059394
:10DB6000059B4EE0009B03F00403002B0CBF012338
:10DB70000023DAB2029B83F83020029B009A1A62DB
:10DB8000029B019A03F10C0415460FCD0FC42B68BC
:10DB90002360019B5A68029B9A62019BDA68029B90
:10DBA0005A62019B5B7819460398FFF7FEFB019BC5
:10DBB0001B78012B17D0019B1B78002B04D1009BF5
:10DBC00003F02003002B01D0012300E0002303F029
:10DBD0000103DAB2029B83F82C2002990398FFF725
:10DBE00091FE059004E002990398FFF705FF059068
:10DBF000029B1B68002B03D1029B002283F830207C
:10DC0000059B184607B030BD8642040000B587B0BA
:10DC100003900291019200230593039B1B791A46FE
:10DC200013461B019B1A9B00074A13440493039B52
:10DC30001868019B029A0499FFF762FF0590059B03
:10DC4000184607B05DF804FB402D002000B58BB0EE
:10DC50000390019200930B468DF80B3000238DF852
:10DC600014309DF80B308DF81530009B069300237F
:10DC70000793019B0893002309939DF83030002BF4
:10DC800001D0202200E0002205AB19460398FFF7DF
:10DC9000BDFF034618460BB05DF804FB00B58BB022
:10DCA0000390019200930B468DF80B3001238DF801
:10DCB00014309DF80B308DF81530009B069300232F
:10DCC0000793019B08930023099305AB0022194693
:10DCD0000398FFF79BFF034618460BB05DF804FB63
:10DCE00030B58BB00190009100990198FFF73AFD93
:10DCF0000346002B40F08680009B93F82F3083F082
:10DD00000103DBB2002B33D0009B1B7B022B03D023
:10DD1000009B1B7B032B2BD1009B5A6A009B9B69AA
:10DD20009A4225D1009BDA69009B5A62009B5A698E
:10DD3000009B9A62009B1B6A03F02003002B14BF18
:10DD400001230023DAB2009B83F82C20009B0022E1
:10DD500083F82D20009B1B7B032B04D10099019895
:10DD6000FFF7D0FD4FE000990198FFF745FE4AE02C
:10DD7000009B04AC03F10C050FCD0FC42B6823608E
:10DD8000009B93F82F30002B22D00198FFF7FFFA69
:10DD90000990099B03F00203002B03D001238DF8A7
:10DDA0000C3018E0099B03F00403002B03D002237E
:10DDB0008DF80C300FE0099B03F00103002B03D01A
:10DDC00003238DF80C3006E004238DF80C3002E0BC
:10DDD00000238DF80C30009B002283F83020009B3C
:10DDE0001B6A03F00403002B04D0009B93F82F3030
:10DDF000002B08D0009B1B68009A516803AA1046AC
:10DE0000984700E000BF0BB030BD000008B50349E3
:10DE10000348FFF765FF00BF08BD00BF402D00208D
:10DE20000030004084B00346ADF80630BDF806303F
:10DE300003F1804303F5803300221A60BDF80630F9
:10DE400003F1804303F580331B680393039B00BFFA
:10DE500004B0704782B00346ADF80630BDF8063016
:10DE600003F1804303F580331B68002B14BF0123AB
:10DE70000023DBB2184602B07047000008B54FF42B
:10DE80008070FFF7E7FF0346002B06D0044B1B68AA
:10DE900098474FF48070FFF7C5FF00BF08BD00BF73
:10DEA0007C2D002086B003900291019201238DF811
:10DEB00017309DF81730204A039B13601E4A029BBF
:10DEC00053601D4A019B9360039B44F201029342FD
:10DED00012D0039B44F20202934220D1019B164AC6
:10DEE000D360154BDB681B68134A9361124BDB68E8
:10DEF0005B68114AD36112E0019B0F4A13610E4B1C
:10DF00001B699B680C4A53610B4B1B691B680A4ACF
:10DF10009361094B1B695B68074AD36100BF72B606
:10DF200000BF00BF9DF81730DBB2002BFAD162B6FC
:10DF300000BF00BF06B07047802D002000B583B041
:10DF400002900091019244F2010071466A4600F08D
:10DF500003F803B000BD00BF30B58BB00790069149
:10DF6000059272B600BF04F0C7F903F083FF0346C1
:10DF7000002BFAD1079B44F2020293422FD0079B59
:10DF800044F20202934269D8079B44F20102934291
:10DF900037D0079B44F2010293425FD8079B012BC5
:10DFA00005D0079B41F2010293420CD056E0394A5A
:10DFB000394BD31ADB081B0443F0010337491846D9
:10DFC00003F0CEFE57E0334A334BD31ADB081B0471
:10DFD00043F001033249184603F0C2FE4BE0059BB3
:10DFE00009932C4A2C4BD31ADB081B0443F0010085
:10DFF000099B5B681A46099B1B682A4903F0CFFE00
:10E0000039E0059B0893234A234BD31ADB081B04F2
:10E0100043F00104089B9D68089B9B68184603F029
:10E0200009FA03461846089B5B681946089B1B685B
:10E03000069A02920193009103462A461A49204605
:10E0400003F0EFFE134A144BD31ADB081B0443F012
:10E0500001031649184603F083FE0CE00D4A0E4BEF
:10E06000D31ADB081B0443F00103069A1049184633
:10E0700003F084FE00BF0F4B1B6803F00103002B6D
:10E0800000D000BE059A06990798FFF70BFF00BF66
:10E090000BB030BDDC390200A4390200544002004C
:10E0A0007440020098400200B4400200DC400200CC
:10E0B000F0400200F0ED00E082B003468DF807303A
:10E0C0009DF807309AB2064B1B889A4204D29DF8FD
:10E0D00007300133DBB200E00023184602B070477E
:10E0E000AC2D002000B583B00B4B1B788DF80730AA
:10E0F0000A4B1B78DBB21846FFF7DEFF03461A46D1
:10E100009DF8073093420CBF01230023DBB2184671
:10E1100003B05DF804FB00BFA82D0020A92D00204E
:10E1200000B587B003900B460192ADF80A30374B2B
:10E130001B88BDF80A209A4260D84FF6FF73ADF8ED
:10E14000123000238DF811300DF11103184600F044
:10E1500033FEFFF7C7FF0346002B0ED12C4B1B7875
:10E16000DBB2ADF812302A4B1B78DBB21846FFF752
:10E17000A3FF03461A46264B1A709DF81130184625
:10E1800000F024FEBDF812304FF6FF72934232D0F9
:10E19000204B1A68BDF81230DB001344019A1A6054
:10E1A000039B002B1CD0BDF80A30002B18D01A4B53
:10E1B0001B68BDF812201549098801FB02F21344BF
:10E1C000BDF80A200399184605F040FB114B1A6868
:10E1D000BDF81230DB001344BDF80A209A8007E036
:10E1E0000C4B1A68BDF81230DB00134400229A80F1
:10E1F0000023059304E00423059301E0092305931C
:10E20000059B184607B05DF804FB00BFAA2D00204F
:10E21000A92D0020A02D0020A42D002082B00346AF
:10E220008DF807309DF90730002B0CDB9DF8073087
:10E2300003F01F0205499DF907305B09012000FA30
:10E2400002F241F8232000BF02B0704700E100E075
:10E2500082B003468DF807309DF90730002B13DBA1
:10E260009DF8073003F01F0209499DF907305B094B
:10E27000012000FA02F2203341F82320BFF34F8F30
:10E2800000BFBFF36F8F00BF00BF02B0704700BF79
:10E2900000E100E082B003468DF807309DF90730B9
:10E2A000002B0DDB9DF8073003F01F0206499DF996
:10E2B00007305B09012000FA02F2403341F82320C5
:10E2C00000BF02B0704700BF00E100E082B003462B
:10E2D0008DF807309DF90730002B0DDB9DF80730D6
:10E2E00003F01F0206499DF907305B09012000FA7F
:10E2F00002F2603341F8232000BF02B0704700BF34
:10E3000000E100E000B585B00190019B002B0AD030
:10E31000074B43F001030393019B9B010293039B73
:10E320000298984700E000BF05B05DF804FB00BF0D
:10E330001041020008B50D4B4FF48032C3F844235E
:10E340000A4B4FF48032C3F804231120FFF7BEFFBD
:10E350001120FFF763FF054B01221A602F20FFF702
:10E36000D1FF034B01221A7000BF08BD001001400D
:10E37000CE2E002008B51120FFF76AFF0E4B4FF498
:10E380008032C3F848230C4B4FF48032C3F8082383
:10E39000094B01225A602F20FFF7B4FF064B0122E0
:10E3A0009A60064B00221A602F20FFF7ABFF044B48
:10E3B00000221A7000BF08BD00100140C02E0020CE
:10E3C000CE2E0020024BD3F804351846704700BF0C
:10E3D0000010014082B001900091019A009BD31A75
:10E3E00023F07F43184602B07047000082B00190CE
:10E3F000034A019BC2F8403500BF02B0704700BF1E
:10E400000010014086B00190284B1B68002B03D1FF
:10E41000264A019B136045E0019B1A68234B1B6849
:10E420001B689A4210D8214B1B681968019B1A6817
:10E430001E4B1B688A1A1A601C4B1A68019BDA6112
:10E440001A4A019B13602DE0019B1B680393174B35
:10E450001B680593154B1B68049309E0049B1B681C
:10E46000039AD31A0393049B0593049BDB690493DB
:10E47000049B002B04D0049B1B68039A9A42EDD89E
:10E48000049B002B05D0049B1A68039BD21A049BA3
:10E490001A60019B039A1A60019B049ADA61059B3A
:10E4A000019ADA6100BF06B0704700BFBC2E0020A1
:10E4B00000B587B001902A4B1B680393284B1B685B
:10E4C0000593059B049308E0049A019B9A4208D0A7
:10E4D000049B0593049BDB690493049B002BF3D1FD
:10E4E00000E000BF049B002B01D1002333E0059A1C
:10E4F000049B9A4214D11A4B1B68DB69184A1360BB
:10E50000174B1B68002B0BD1164B01229A60164B40
:10E5100000221A60154B01221A702F20FFF7F2FE1D
:10E52000049B1B680293049BDA69059BDA61059BD7
:10E53000DB690493049B002B05D0049B1A68029BA3
:10E540001A44049B1A60064B1B68039A9A4214BF34
:10E5500001230023DBB2184607B05DF804FB00BFBF
:10E56000BC2E002000100140C02E0020CF2E002025
:10E5700008B51120FFF78EFE00BF08BD08B51420B6
:10E58000FFF788FE00BF08BD00B583B00190019B76
:10E590005B69019A92691046984700BF03B05DF825
:10E5A00004FB000000B585B02B4B1B68002B4ED040
:10E5B00000230193FFF706FF0246284B1B6819460C
:10E5C0001046FFF707FF0290234B1B6803931DE0E3
:10E5D000039B1B68029A9A421CD3039B1B68029AF6
:10E5E000D31A0293039B1B68019A13440193039B64
:10E5F0000093039BDB690393009B1B7C002B05D0DE
:10E60000009B00221A740098FFF7BEFF039B002BAB
:10E61000DED100E000BF124B1A78124B1B789A42F1
:10E620000CD1104B1B780133DAB20E4B1A700D4B24
:10E630001B78022B02D10B4B00221A70094B1B785E
:10E640001946094A019B42F82130FFF797FF00BFA6
:10E6500005B05DF804FB00BFBC2E0020C02E0020DA
:10E66000CC2E0020CD2E0020C42E002082B00190A0
:10E67000184B1A78184B1B789A4223D0154B1B78ED
:10E680000133DAB2134B1A70124B1B78022B02D1F2
:10E69000104B00221A700F4B1B781A460F4B53F881
:10E6A0002220019B1A60019B1A680D4B1B681344C2
:10E6B0000B4A13600A4B1B6823F07F43084A136020
:10E6C000012303E0019B00221A600023184602B0D8
:10E6D000704700BFCC2E0020CD2E0020C42E00207D
:10E6E000C02E002088B0039002910192002307936E
:10E6F00038E0204B1B680693069B1B68039A9A42DE
:10E7000006D2069B1A68039BD21A069B1A602EE05B
:10E71000069B1B68039AD31A0393069B1B68079AF0
:10E7200013440793069B00221A60124B1B68059343
:10E73000069BDB690F4A1360069BDB68002B11D038
:10E74000029A079B134423F07F42069B5A60069B64
:10E75000DA68069B9A60019B1A68069BDA61019B46
:10E76000059A1A60034B1B68002BC2D100BF00BF83
:10E7700008B07047BC2E002000B589B0019000237E
:10E780008DF81F30664B1B680593AAE0019B002B98
:10E7900005D0019B0693069BDB69019361E0614B09
:10E7A0001B781A4613465B001344DB005D4A134492
:10E7B000043304935B4B1B780133DAB2594B1A7064
:10E7C000584B1A78574B9B789A4202D1554B0022EE
:10E7D0001A70049B5B680693049B1B78032B1ED066
:10E7E000032B7EDC012B1FD0022B7AD1049B5B68AC
:10E7F0001846FFF75DFE0346002B02D001238DF87B
:10E800001F30069B00221A746BE0454B1B68039374
:10E81000039B00221A74039BDB69414A1360404B3F
:10E820001B68002BF1D15CE000BF069B1B7C002B1A
:10E8300000D056E0049B9A68069B5A60049BDA68F5
:10E84000069B9A60049B1A69069BDA60049B5A69CE
:10E85000069B9A61344B1B78002B02D0069B00224A
:10E860005A60069B5A68314B1B68D31A23F07F43CA
:10E870002F4A93420ED8069B5B682C4A12681146B9
:10E880001846FFF7A7FD0246069B9B681A44069BA5
:10E890001A6017E0254B1A68069B5B6819461046FC
:10E8A000FFF798FD0290069B9B68029A9A4206D257
:10E8B000069B9A68029BD21A069B1A6002E0069B8E
:10E8C00000221A60069B00225A60069B00229A6072
:10E8D000069B01221A74069B0022DA610698FFF754
:10E8E00091FD019B002B7FF451AF0E4B1A780D4B1D
:10E8F0005B789A427FF44AAF9DF81F30002B04D119
:10E90000074B1B68059A9A4201D0012300E00023BF
:10E9100003F00103DBB2184609B05DF804FB00BF49
:10E92000BC2E0020B02D0020CF2E0020C02E0020B5
:10E93000FEFF7F0010B588B00190274B1B68002BAD
:10E9400044D0254B1B681B680793FFF73BFD0690DF
:10E95000224B1B68059305990698FFF73BFD03467C
:10E96000033304931E4B1B7883F00103DBB2002BAF
:10E9700001D0FFF7DFFC049A079B934238BF134690
:10E98000059A13440593059B23F07F43059305984F
:10E99000FFF72CFDFFF716FD039006990398FFF78C
:10E9A00019FD0346DC1C06990598FFF713FD034685
:10E9B0009C420DD9FFF706FD03461846FFF716FDEA
:10E9C0002F20FFF79FFCFFF7D3FD01E0FFF7D2FCFC
:10E9D00000BF08B010BD00BFBC2E0020C02E00201C
:10E9E000CE2E002000B587B00023019300238DF8C0
:10E9F0001730194B1B680493184B1B6803936B4625
:10EA00001846FFF733FE03468DF80B309DF80B30A8
:10EA1000002B08D0009B01AA04991846FFF762FE5C
:10EA200001238DF81730019B1846FFF7A5FE03461A
:10EA3000002B02D001238DF817309DF81730002BE2
:10EA400002D00398FFF776FF054B00221A7000BF33
:10EA500007B05DF804FB00BFC02E0020BC2E0020D4
:10EA6000CF2E002082B003468DF80730034A9DF870
:10EA70000730537000BF02B0704700BFB02D0020B8
:10EA800084B00190144B5B7801338DF80F30124B3A
:10EA90009B789DF80F209A4202D100238DF80F3009
:10EAA0000D4B1B789DF80F209A4201D100230FE0F7
:10EAB000019B9DF80F201A70074B5B781A4613468E
:10EAC0005B001344DB00044A134404330293029BAB
:10EAD000184604B0704700BFB02D002000B589B0C3
