:020000022000DC
:106000000000012019620200016202000362020026
:10601000056202000762020009620200000000003F
:106020000000000000000000000000000B62020001
:106030000D620200000000000F6202001162020007
:10604000A5B3020013620200D9BC02001362020071
:10605000136202001362020009B7020005C00200C9
:106060001362020035CC02001362020013620200C8
:106070001362020013620200136202001362020044
:106080001362020065D8020013620200136202006C
:10609000A5D8020013620200490403001362020043
:1060A0001362020013620200136202001362020014
:1060B00013620200136202000000000000000000F2
:1060C000136202001362020013620200B5BC0200F8
:1060D000136202001362020013620200000000005B
:1060E00000000000000000000000000000000000B0
:1060F00000000000000000000000000000000000A0
:10610000000000000000000000000000000000008F
:10611000000000000000000000000000000000007F
:10612000000000000000000000000000000000006F
:10613000000000000000000000000000000000005F
:10614000000000000000000000000000000000004F
:10615000000000000000000000000000000000003F
:10616000000000000000000000000000000000002F
:10617000000000000000000000000000000000001F
:10618000000000000000000000000000000000000F
:1061900000000000000000000000000000000000FF
:1061A00000000000000000000000000000000000EF
:1061B00000000000000000000000000000000000DF
:1061C00000000000000000000000000000000000CF
:1061D00000000000000000000000000000000000BF
:1061E00000000000000000000000000000000000AF
:1061F000000000000000000000000000000000009F
:10620000FEE7FEE7FEE7FEE7FEE7FEE7FEE7FEE766
:10621000FEE7FEE7704700BF1048804710484FF088
:106220000701884385460F4880470F48016841F4BD
:1062300070010160BFF34F8FBFF36F8F00F01CB888
:106240000A480B490B4A884207D0521A05D00378F6
:1062500001300B700131013AF9D17047156202002B
:1062600000000120057A020088ED00E0180C030010
:10627000A82A0020A82A00203A493B480A1A02D03E
:10628000072291438D46394939480A1A06D0072218
:10629000914381F30988022282F3148835483649F4
:1062A000364A00F041F836483649374A00F03CF8A3
:1062B00036483749374A00F037F837483749384ABF
:1062C00000F032F837483849384A00F02DF838489D
:1062D0003849394A00F028F838483949394A00F035
:1062E00023F839483949002200F036F8384839494E
:1062F000002200F031F838483849091A0AF06EFBDC
:10630000374A904725482649884205D0026804301C
:1063100003B4904703BCF7E700208646EC46002014
:106320000021304A9047FEE7884214D0521A12D01A
:1063300003460B4313430324234206D1036804306E
:106340000B600431043AF9D17047037801300B70C7
:106350000131013AF9D17047884202D00270013010
:10636000FAE770470000012000E000200000012053
:106370000000012054280300A82A00202C2B002014
:10638000E8630200E8630200140B030054280300D2
:10639000A82A0020A82A0020180C0300180C0300CB
:1063A000180C0300180C0300180C0300180C030051
:1063B000180C0300180C030051280300D828030010
:1063C0002C2B00202C2B00202C2B002048390020C7
:1063D0004839002048390020483900204859002019
:0863E00041620200E9640200C1
:1063E8003FDF704700BF184641DF704700BF1846BF
:1063F80000B583B04FF40041002008F0B7FD0190CC
:10640800019B0093009B002B04D0054A472100986C
:1064180006F066FC08F040FD00BF03B05DF804FB21
:10642800180C030000B583B008F030FB0190019B05
:106438000093009B002B04D0044A5321009806F0D7
:106448004FFC00BF03B05DF804FB00BF180C03004D
:1064580000B583B007F028FA0190019B0093009BD8
:10646800002B04D0044A6721009806F039FC00BFCD
:1064780003B05DF804FB00BF180C030082B0019064
:106488000B46ADF8023000BF02B0704700B585B0CA
:1064980003468DF807309DF807308DF80F309DF8CA
:1064A8000F30042B17D801A252F823F0DF64020042
:1064B800C9640200CF640200DF640200D5640200F0
:1064C80000F048F808E000F04BF805E000F05CF850
:1064D8000346032B00E000BF00BF05B05DF804FBD6
:1064E80000B583B0FFF784FFFFF7B2FFFFF79AFF0D
:1064F8001249134800F0AEFB0120FFF771FF01902D
:10650800019B002B04D00F4A9321019806F0E8FB69
:1065180001F0CCF901F0CAF801F03EF90A4A0B4B38
:10652800D31ADB081B0443F003030949184608F093
:10653800FDFF00F0AFFFFFF757FFFCE7956402008F
:1065480085640200180C0300C80B0300980B0300B5
:10655800900C030008B5012000F008F800BF08BD42
:1065680008B5002000F002F800BF08BD82B003465D
:106578008DF80730034A9DF80730137000BF02B04A
:10658800704700BF2C2B0020014B1B781846704722
:106598002C2B002084B001900B468DF80330134655
:1065A8008DF8023000230393019B032B3CD89DF800
:1065B8000230012B0BD19DF80330012B04D1019B34
:1065C800DBB20E33DBB200E000238DF802309DF819
:1065D8000330022B0FD0022B23DC002B16D0012B0B
:1065E8001FD11449019A13465B0013440B449DF8CC
:1065F80002201A701AE00F49019A13465B001344EF
:106608000B4401339DF802201A700FE00949019AE2
:1066180013465B0013440B4402339DF802201A70A2
:1066280004E00723039301E007230393039B184621
:1066380004B07047302B002000B583B00122002140
:106648000020FFF7A7FF0190019B002B04D0019BBE
:10665800072B01D0019B1CE0072202210120FFF734
:1066680099FF0190019B002B04D0019B072B01D0BF
:10667800019B0EE0042202210020FFF78BFF01900E
:10668800019B002B04D0019B072B01D0019B00E04C
:106698000023184603B05DF804FB00B583B001225F
:1066A80002210020FFF776FF0190019B002B04D008
:1066B800019B072B01D0019B1CE00722022101202E
:1066C800FFF768FF0190019B002B04D0019B072B6B
:1066D80001D0019B0EE00A2200210020FFF75AFF9B
:1066E8000190019B002B04D0019B072B01D0019B3B
:1066F80000E00023184603B05DF804FB00B585B040
:1067080001900091019B1B88102B02D0112B18D0EF
:106718002FE01A4B1B68002B0DD1FFF78DFF03905C
:10672800039B002B07D0164B1B68002B03D0144B80
:106738001B6803989847114B1B6801330F4A136075
:1067480017E00E4B1B68013B0C4A13600B4B1B6890
:10675800002B0DD1FFF7A1FF0390039B002B07D05F
:10676800074B1B68002B03D0054B1B680398984701
:1067780000BF00BF05B05DF804FB00BF402B002040
:106788003C2B0020A8DF704700BF1846AEDF7047DB
:1067980000BF184662DF704700BF184600B587B0D3
:1067A80001900091019B039303238DF80830019B0E
:1067B8005B6902AA1046984700BF07B05DF804FB62
:1067C80000B587B001900091019B039302238DF8D7
:1067D8000830019B5B6902AA1046984700BF07B0C2
:1067E8005DF804FB00B589B001900091009B063369
:1067F800079303AB1022002118460AF057F9019BB2
:106808000493079B1A88019B1B899A421CD1079BFA
:106818005B89022B18D1079B0C33184603F0F4FA56
:106828000346002B03D000238DF80C3002E001232F
:106838008DF80C30019B5B69002B1FD0019B5B69B5
:1068480003AA1046984719E0079B1A88019B9B8961
:106858009A4213D1019B5B69002B0FD004238DF85A
:106868000C30079B0C330593079B5B89ADF81830F8
:10687800019B5B6903AA10469847FFE700BF09B070
:106888005DF804FB00B585B001900091009B03936F
:10689800039B002B1CD0019B002B19D0019B1B884C
:1068A800502B10D0502B15DC102B02D0112B05D0FB
:1068B80010E001990398FFF771FF0CE00199039824
:1068C800FFF77EFF07E001990398FFF78BFF02E0CF
:1068D80000BF00E000BF05B05DF804FB10B592B042
:1068E80001900091019B002B02D0009B002B01D14D
:1068F8000E2394E04B4B0AAC0FCB84E80F00009BAF
:106908001A68019B5A61019A0AAB11461846FFF7AB
:1069180041FF1190119B1093109B002B01D0109BED
:106928007DE0019B1B788DF83A304FF4A053ADF809
:106938003830019B9A1C0EAB19460120FFF722FF45
:106948001190119B0F930F9B002B01D00F9B66E0BA
:1069580002AB2022002118460AF0A8F841F20243AF
:10696800ADF80830019B1B788DF80A306423ADF828
:106978000C300123ADF80E3001238DF814309DF84A
:10698800153043F008038DF815309DF8153043F0A5
:1069980004038DF8153001238DF8193001238DF883
:1069A8001A30019B5888019B03F10C0202AB19466F
:1069B80003F0B2FA1190119B002B01D0119B2EE02D
:1069C80002AB2022002118460AF070F841F2014378
:1069D800ADF80830019B1B788DF80A306423ADF8B8
:1069E8000C300123ADF80E3001238DF814309DF8DA
:1069F800153043F010038DF8153001238DF8193048
:106A080001238DF81A3001238DF81B30019B58881B
:106A1800019B1A1D02AB194603F07EFA034618467D
:106A280012B010BDA00C030000B58BB0039002910A
:106A38000192ADF8023000230993039B002B01D18A
:106A48000E2330E0099B002B01D0099B2BE0BDF8F9
:106A580002304FF6FF72934224D005AB102200217A
:106A680018460AF023F8039B9B88ADF81430029B64
:106A78000893019B079301238DF8163005AABDF8EA
:106A8800023011461846FFF781FE0990084A094B63
:106A9800D31ADB081B0443F00303099A0649184676
:106AA80008F052FD099B18460BB05DF804FB00BFC7
:106AB800C80B0300980B0300B00C030076DF704787
:106AC80000BF184677DF704700BF18467ADF704767
:106AD80000BF18467CDF704700BF18467FDF70474D
:106AE80000BF18468FDF704700BF1846B1DF7047F8
:106AF80000BF184600B585B001900B46ADF80230CE
:106B0800114B1B880DF102020199104804F01CF981
:106B18000390039B082B0FD0039B132B0CD0039BD4
:106B2800052B09D0039B0293029B002B04D0084A33
:106B38002821029806F0D4F8039B132BE0D000BF5D
:106B480000BF05B05DF804FBCC2A0020B02A002065
:106B5800D00C03002DE9F04786B000AF034639603A
:106B6800FB711346BB716B469A46BB795E1C731E5C
:106B78007B6132460023904699464FF000024FF061
:106B880000034FEAC90343EA58734FEAC802324682
:106B9800002314461D464FF000024FF00003EB009F
:106BA80043EA5473E20033460733DB08DB00ADEBFE
:106BB800030D6B4600333B613B69FA791A703B69F8
:106BC8000133BA793968184609F03EFFB3B27B81C0
:106BD8000C4B1B8807F10A0239690B48FFF724FFA1
:106BE800F8600A4A0A4BD31ADB081B0443F0030374
:106BF8000849184608F09AFCD54600BF1837BD4624
:106C0800BDE8F087CC2A0020C02D0020C80B030067
:106C1800980B03005C0D030000B583B0FFF7B4FCCC
:106C280003468DF807309DF80730002B02D0012B62
:106C380006D00BE0002200210120FFF78BFF05E0C2
:106C4800002200210220FFF785FF00BF00BF03B02C
:106C58005DF804FB00B583B001900091434A444BB2
:106C6800D31ADB081B0443F003034249184608F013
:106C78005DFC08F0B7FC0346002BFAD13E4A019BA5
:106C880013603E4A009B136000F028FB374A384BDC
:106C9800D31ADB081B0443F003033949184608F0EC
:106CA80045FC08F09FFC0346002BFAD100F088F859
:106CB8002E4A2F4BD31ADB081B0443F00303314938
:106CC800184608F033FC08F08DFC0346002BFAD177
:106CD80000F072FB254A264BD31ADB081B0443F04D
:106CE80003032949184608F021FC08F07BFC0346F9
:106CF800002BFAD100F0D4F81C4A1D4BD31ADB083C
:106D08001B0443F003032149184608F00FFC08F060
:106D180069FC0346002BFAD100F07AFB134A144BA6
:106D2800D31ADB081B0443F003031949184608F07B
:106D3800FDFB08F057FC0346002BFAD100F060F980
:106D48000A4A0B4BD31ADB081B0443F0030311490F
:106D5800184608F0EBFB08F045FC0346002BFAD177
:106D680000BF00BF03B05DF804FB00BFC80B030001
:106D7800980B0300680D0300D82D0020DC2D00209F
:106D8800880D0300A00D0300BC0D0300D00D030007
:106D9800E80D0300040E030000B583B0034600911C
:106DA800ADF80630BDF80630009A1946034805F0DC
:106DB80097FF00BF03B05DF804FB00BFEFBEADDE78
:106DC80000B587B09DF80030012262F303038DF807
:106DD80000309DF80030012262F307138DF800306F
:106DE8006B460C221A491846FFF774FE0590059B5E
:106DF8000493049B002B04D0164A7621049805F0CE
:106E08006FFF01AB08220021184609F04FFE10233E
:106E1800ADF804303C23ADF806300023ADF8083057
:106E28004FF4C873ADF80A3001AB1846FFF74EFEB1
:106E38000590059B0393039B002B04D0054A8021F2
:106E4800039805F04DFF00BF07B05DF804FB00BFD5
:106E5800280E0300D00C030000B583B00190044A4B
:106E68008621019805F03CFF00BF03B05DF804FBE4
:106E7800D00C030000B583B00190019B1B78002B58
:106E880007D1064B1B68019A1069019A928A11462C
:106E9800984700BF03B05DF804FB00BFD82D002061
:106EA80000B589B000230093374B00936B46194611
:106EB800364803F067FC0790079B0693069B002B58
:106EC80004D0334A9D21069805F00AFF03AB04223B
:106ED8000021184609F0EAFD2E4B039303AB19462F
:106EE8002D4803F08BFE0790079B0593059B002B0D
:106EF80004D0274AA421059805F0F2FE01AB082228
:106F08000021184609F0D2FD244B01939DF8093061
:106F1800012262F303038DF809309DF8093001223C
:106F280062F307138DF809309DF80A30012262F3E5
:106F380003038DF80A309DF80A30012262F3071323
:106F48008DF80A309DF80B30012262F303038DF8A7
:106F58000B309DF80B30012262F307138DF80B30CC
:106F680001AB19460E48FFF7B9FC0790079B04933D
:106F7800049B002B04D0064AB421049805F0B0FE07
:106F880000BF09B05DF804FB616E02005C2B0020B5
:106F9800D00C03007D6E0200B02A0020D1740200DC
:106FA800C02D002000B585B00190019B1B78002BF7
:106FB80010D10A4B1B883B211846FFF77FFD039031
:106FC800039B0293029B002B04D0054ABF21029821
:106FD80005F086FE00BF05B05DF804FBCC2A002052
:106FE800D00C030000B583B00190044AC621019873
:106FF80005F076FE00BF03B05DF804FBD00C03007B
:1070080000B58BB001AB1C220021184609F04EFDDB
:10701800002301934FF4203302934FF4702303931A
:1070280003238DF810300023ADF8123000238DF8BB
:1070380014300B4B06930B4B079301AB184602F029
:107048007DFB0990099B0893089B002B04D0064AF6
:10705800DB21089805F044FE00BF0BB05DF804FB87
:10706800AD6F0200ED6F0200D00C030000B585B0D3
:1070780003468DF807309DF80730002B01D0032B0D
:107088000FE00321094802F0C9F80390039B02931B
:10709800029B002B04D0064AF521029805F020FE39
:1070A80000BF00BF05B05DF804FB00BF682B0020DF
:1070B800D00C030000B58DB001900091019B1B8896
:1070C800562B00F0D880562B00F3E880522B00F0A6
:1070D800AB80522B00F3E280212B2DDC102BC0F269
:1070E800DD80103B112B00F2D98001A252F823F069
:1070F80049710200B5710200A5720200097202000E
:10710800A5720200A5720200A5720200A572020013
:10711800A5720200A5720200A5720200A572020003
:10712800A5720200A5720200A5720200A5720200F3
:10713800A5720200D57102003B2B00F08980ADE0FA
:107148005F4A604BD31ADB081B0443F003035E4914
:10715800184608F0EBF9019B9A885C4B1A805B4B48
:107168001B8819465A4803F02FFB0B900B9B05937D
:10717800059B002B05D0574A4FF48471059805F0FC
:10718800AFFD524B1B88042219460320FFF79AFCD7
:107198000B900B9B0493049B002B00F081804D4ABD
:1071A8004FF48671049805F09BFD79E0444A454BFD
:1071B800D31ADB081B0443F003034749184608F0B9
:1071C800B5F9424B4FF6FF721A8074E000238DF830
:1071D8000C3000238DF80D30019B9B8803AA1146C3
:1071E8001846FFF77FFC0B900B9B0793079B002B20
:1071F80058D0384A4FF49071079805F071FD51E066
:10720800324B1888002300228521FFF767FC0B907A
:107218000B9B0693069B002B46D02E4A4FF4937186
:10722800069805F05DFD3FE0284B188800230022F2
:107238000021FFF75BFC0B900B9B0993099B002B2C
:1072480034D0244A4FF49671099805F049FD2DE091
:10725800019B9B8813211846FFF730FC0B900B9B72
:107268000893089B002B23D01A4A40F23311089840
:1072780005F036FD1CE0019B9B8813211846FFF79B
:107288001DFC0B900B9B0A930A9B002B12D0114AF2
:107298004FF49D710A9805F023FD0BE000BF0AE04A
:1072A80000BF08E000BF06E000BF04E000BF02E046
:1072B80000BF00E000BF00BF0DB05DF804FB00BFD9
:1072C800C80B0300980B0300380E0300CC2A0020DB
:1072D8005C2B0020D00C0300440E030000B587B0DF
:1072E80009F02CF80590059B0493049B002B05D00E
:1072F800164A40F24911049805F0F2FC0023019364
:1073080001AB1946012009F0D1F80590059B0393BC
:10731800039B002B05D00D4A40F24F11039805F04E
:10732800DFFC01AB184609F0DFF90590059B0293D5
:10733800029B002B05D0054A40F25311029805F034
:10734800CFFC00BF07B05DF804FB00BFD00C030002
:1073580000B583B001900091009B5A88114B1B889F
:107368009A421AD1009B1B8840F67722934214D187
:10737800009B9B88033B9AB20B4B1A800B4A0C4B21
:10738800D31ADB081B0443F00300074B1B881A467B
:10739800054B1B88074908F0E8F800BF03B05DF803
:1073A80004FB00BFCC2A0020CE2A0020C80B030013
:1073B800980B0300540E030000B585B0114912481C
:1073C80003F0E0F80390039B0293029B002B05D087
:1073D8000E4A4FF4B671029805F082FCF7210A486C
:1073E80003F0FBF80390039B0193019B002B05D04E
:1073F800064A40F26F11019805F072FC00BF05B013
:107408005DF804FB59730200482B0020D00C0300E0
:1074180000B5AFB001ABAC220021184609F046FB1D
:1074280002238DF8043000238DF8063005238DF8EB
:1074380007300123ADF85030124B159301238DF816
:1074480080304023239344F2506324930E4B2A93B5
:1074580001AB19460D4801F0FCFD2D902D9B2C9396
:107468002C9B002B05D00A4A4FF4C3712C9805F0C9
:1074780037FC0121054801F0DFFD00BF2FB05DF8A2
:1074880004FB00BFD02A002075700200682B002082
:10749800D00C030000B583B00321094801F0BEFEFB
:1074A8000190019B0093009B002B05D0054A4FF4E7
:1074B800C771009805F014FC00BF03B05DF804FB29
:1074C800682B0020D00C030000B583B00190019B0D
:1074D8001B78042B17D801A252F823F0F974020084
:1074E8000F7502000F7502000F750200FF7402008D
:1074F800FFF792FB08E0064B1B68019A9268127826
:107508001046984700E000BF00BF03B05DF804FBD9
:10751800DC2D002000B583B001900091019B002B69
:1075280001D1054B01930099019804F08BFE0346A5
:10753800184603B05DF804FB880F030082B0019081
:107548000B46ADF80230BDF80230019A13441846D4
:1075580002B0704782B00190019BD3F81035DBB2BE
:10756800184602B0704782B00190019B9BB250331D
:107578009BB29B009BB2184602B070472DE9F04FB2
:1075880087B001908DF803109DF8031005910199BB
:1075980000200E460746304639464FF0000A4FF0A5
:1075A800000B4FEA411B4BEAD06B4FEA401A50469A
:1075B8005946821B61EB07034FF000004FF00001B2
:1075C800990041EA9271900002460B4612EB0608B8
:1075D80043EB07094FF000024FF000034FEAC913CD
:1075E80043EA58634FEAC8129046994642464B46CA
:1075F8000599C1F12006A1F1200022FA01F403FA4D
:1076080006F6344323FA00F0044323FA01F5CDE9E2
:107618000245DDE90223012B04D305494FF42F70FD
:10762800FFF7BAFB029B184607B0BDE8F08F00BF12
:10763800700E030010B582B001900091019B5B7938
:107648001A46009B934204D3094940F27510FFF78C
:10765800A3FB019B1C680098FFF785FF03461946AA
:107668002046FFF76BFF0346184602B010BD00BF67
:10767800A00E030000B583B001900091019B1B6828
:107688001846FFF767FF034619460098FFF776FF8D
:107698000346184603B05DF804FB82B00346009128
:1076A800ADF8063000BF02B07047000000B58DB0DD
:1076B80003F0EAFC0B900B9B0A930A9B002B04D067
:1076C800314A17210A9805F00BFB00238DF8083082
:1076D80000238DF8093000238DF80A3006238DF831
:1076E8000B300023039303238DF80A3002AB274A9B
:1076F8001946274805F0BAF80B900B9B0993099B8C
:10770800002B04D0204A1C21099805F0E9FA4FF40F
:107718007A711F48FFF7AEFF0890002300930123FA
:10772800089A00211A4805F00AFA194805F0A0F944
:1077380000211748FFF77EFF079004F085FE0690AA
:10774800144804F0EBF90B900B9B0593059B002B59
:1077580004D00D4A2D21059805F0C2FA0D4B1B786F
:10776800069A0799184604F033FA0B900B9B04937A
:10777800049B002B04D0044A3221049805F0B0FA87
:1077880000BF0DB05DF804FBDC0E0300A376020019
:10779800800F0300E82D002000B583B0094B1B784B
:1077A800184604F04EFA0190019B0093009B002BB1
:1077B80004D0054A3A21009805F092FA00BF03B0B8
:1077C8005DF804FBE82D0020DC0E030000B589B04D
:1077D8000190019B1B78002B57D1019B5B6802210C
:1077E800184604F043FE0690069B0593059B002B64
:1077F80004D0284A4521059805F072FA264A274BF5
:10780800D31ADB081B0443F00303254A12782549E1
:10781800184607F099FE002307932DE0019B5A684C
:10782800079B5B001344B3F90030ADF812301C4BD2
:107838001B788DF80C30BDF812301B0A9BB2DBB2F6
:107848008DF80D30BDF81230DBB28DF80E3003AB79
:1078580003211846FFF74EF90F4A104BD31ADB08DD
:107868001B0443F00303BDF812200F49184607F024
:107878006BFE079B01330793079B012BCEDD084B5B
:107888001B780133DAB2064B1A7000BF09B05DF8F5
:1078980004FB00BFDC0E0300C80B0300980B0300B9
:1078A800E92D0020640F03007C0F030000B58BB0A6
:1078B80001238DF8133003238DF8103000238DF841
:1078C800113006238DF8123004AB38491846FFF7FB
:1078D80021FE0990099B0893089B002B04D0344A89
:1078E8007121089805F0FCF900238DF8073004236E
:1078F8008DF8063005238DF8083000238DF80930FF
:1079080002238DF80B3000238DF80C3000238DF8FE
:10791800043000238DF8053000238DF80730042348
:107928008DF8063005238DF8083000238DF80930CE
:1079380003238DF80B3000238DF80C3000238DF8CD
:10794800043000238DF8053001AB1946002004F0FF
:10795800E9FC0990099B0793079B002B04D0144A64
:107968009521079805F0BCF90221124804F07EFD24
:107978000990099B0693069B002B04D00C4A98217A
:10798800069805F0ADF902210B4804F06FFD099047
:10799800099B0593059B002B04D0054A9B2105985C
:1079A80005F09EF900BF0BB05DF804FBD577020027
:1079B800DC0E0300E02D0020E42D0020BFF34F8FE4
:1079C80000BF074BDB6803F4E0620549054B13432E
:1079D800CB60BFF34F8F00BF00BF00BFFCE700BF05
:1079E80000ED00E00400FA05024B034A1A6000BFEC
:1079F800704700BFD42A00200090D00308B500F0DB
:107A080097F90346002B06D0B74B1B681B0AB74AE9
:107A180003F01F03136000F0B7F90346002B02D0F0
:107A2800B34BB44A1A6000F0CBF90346002B06D0DA
:107A3800B14B1B685B0BB14A03F00703136000F0FE
:107A4800EBF90346002B05D0AD4BDB68AC4A23F0BD
:107A58008073D36000F0FCF90346002B0ED04FF082
:107A680080430022C3F80C214FF080430022C3F862
:107A780010214FF080430022C3F8382500F014FA93
:107A88000346002B02D09F4B03221A6000F028FA0D
:107A98000346002B0BD09C4B05221A609B4B0122FE
:107AA8001A609B4B00221A609A4B3F221A6000F022
:107AB80033FA0346002B76D04FF08053964AD3F81A
:107AC8000434C2F820354FF08053934AD3F8083471
:107AD800C2F824354FF080538F4AD3F80C34C2F8DB
:107AE80028354FF080538C4AD3F81034C2F82C351F
:107AF8004FF08053884AD3F81434C2F830354FF029
:107B08008053854AD3F81834C2F834354FF080537F
:107B1800814AD3F81C34C2F840354FF080537E4A6E
:107B2800D3F82034C2F844354FF080537A4AD3F85A
:107B38002434C2F848354FF08053774AD3F82834B4
:107B4800C2F84C354FF08053734AD3F82C34C2F83E
:107B580050354FF08053704AD3F83034C2F854355A
:107B68004FF080536C4AD3F83434C2F860354FF084
:107B78008053694AD3F83834C2F864354FF08053DB
:107B8800654AD3F83C34C2F868354FF08053624AEE
:107B9800D3F84034C2F86C354FF080535E4AD3F8BE
:107BA8004434C2F8703500F0D3F90346002B05D0F1
:107BB8005A4B1B685A4A03F04F03136000F0F4F95C
:107BC8000346002B0DD04FF08043D3F8003403F068
:107BD8000103002B05D04FF080436FF00102C3F87A
:107BE800002400F00DFA0346002B05D04D4B1B680E
:107BF8004C4A43F4806313604B4BD3F888304A4AAD
:107C080043F47003C2F88830BFF34F8F00BFBFF34F
:107C18006F8F00BF4FF01023D3F80C3203F001032D
:107C2800012B25D1414B0122C3F8042500BF3F4B4E
:107C3800D3F80034002BFAD04FF01023D3F80C32CD
:107C48004FF0102223F00103C2F80C3200BF374B6B
:107C5800D3F80034002BFAD0344B0022C3F80425A3
:107C680000BF324BD3F80034002BFAD0FFF7A6FE42
:107C78004FF01023D3F80032002B05DB4FF0102310
:107C8800D3F80432002B2BDA284B0122C3F8042541
:107C980000BF264BD3F80034002BFAD04FF0102346
:107CA8001522C3F8002200BF204BD3F80034002B64
:107CB800FAD04FF010231522C3F8042200BF1B4B43
:107CC800D3F80034002BFAD0184B0022C3F804254F
:107CD80000BF164BD3F80034002BFAD0FFF76EFE26
:107CE800FFF782FE00BF08BD2403001040350140A5
:107CF80074C007400DF0ADBA440200103C050040C6
:107D0800F0ED00E0A0050040105600408856004005
:107D1800185600401456004000C000405802001099
:107D2800E40E00403C17004000ED00E000E0014098
:107D3800124B1B68DBB2062B1DD1114B1B6803F0DD
:107D48000F03002B17D10F4B1B6803F0F003302BE8
:107D580001D1012310E00B4B1B6803F0F003402B0B
:107D680001D1012308E0074B1B6803F0F003502BF7
:107D780001D1012300E0002318467047E00F00F00E
:107D8800E40F00F0E80F00F00A4B1B68DBB2062B8B
:107D98000DD1094B1B6803F00F03002B07D1074BCC
:107DA8001B6803F0F003302B01D1012300E000230E
:107DB80018467047E00F00F0E40F00F0E80F00F0FD
:107DC800124B1B68DBB2062B1DD1114B1B6803F04D
:107DD8000F03002B17D10F4B1B6803F0F003302B58
:107DE80001D1012310E00B4B1B6803F0F003402B7B
:107DF80001D1012308E0074B1B6803F0F003502B67
:107E080001D1012300E0002318467047E00F00F07D
:107E1800E40F00F0E80F00F00A4B1B68DBB2062BFA
:107E28000DD1094B1B6803F00F03002B07D1074B3B
:107E38001B6803F0F003302B01D1012300E000237D
:107E480018467047E00F00F0E40F00F0E80F00F06C
:107E5800124B1B68DBB2062B1DD1114B1B6803F0BC
:107E68000F03002B17D10F4B1B6803F0F003302BC7
:107E780001D1012310E00B4B1B6803F0F003402BEA
:107E880001D1012308E0074B1B6803F0F003502BD6
:107E980001D1012300E0002318467047E00F00F0ED
:107EA800E40F00F0E80F00F00A4B1B68DBB2062B6A
:107EB8000DD1094B1B6803F00F03002B07D1074BAB
:107EC8001B6803F0F003302B01D1012300E00023ED
:107ED80018467047E00F00F0E40F00F0E80F00F0DC
:107EE8000A4B1B68DBB2062B0DD1094B1B6803F04C
:107EF8000F03002B07D1074B1B6803F0F003302B4F
:107F080001D1012300E0002318467047E00F00F07C
:107F1800E40F00F0E80F00F00A4B1B68DBB2062BF9
:107F28000DD1094B1B6803F00F03002B07D1074B3A
:107F38001B6803F0F003502B01D1012300E000235C
:107F480018467047E00F00F0E40F00F0E80F00F06B
:107F5800124B1B68DBB2062B1DD1114B1B6803F0BB
:107F68000F03002B17D10F4B1B6803F0F003302BC6
:107F780001D1012310E00B4B1B6803F0F003402BE9
:107F880001D1012308E0074B1B6803F0F003502BD5
:107F980001D1012300E0002318467047E00F00F0EC
:107FA800E40F00F0E80F00F0124B1B68DBB2062B61
:107FB8001DD1114B1B6803F00F03002B17D10F4B7A
:107FC8001B6803F0F003302B01D1012310E00B4BA9
:107FD8001B6803F0F003402B01D1012308E0074B95
:107FE8001B6803F0F003502B01D1012300E00023AC
:107FF80018467047E00F00F0E40F00F0E80F00F0BB
:10800800064B1B68062B05D1054B1B68062B01D1B7
:10801800012300E000231846704700BF300100101C
:10802800340100106DDF704700BF184679DF7047D4
:1080380000BF18467DDF704700BF184664DF7047F1
:1080480000BF184682B003460091ADF80630BDF86F
:108058000630DAB2009B1A70BDF806301B0A9AB2D5
:10806800009B0133D2B21A700223184602B070473F
:1080780000B589B0039002911346ADF80630029B13
:108088001B8803F10902BDF806309A4201D90C2376
:1080980053E004AB1846FFF7C5FF0790079B06930C
:1080A800069B002B01D0069B47E0029B1B881A46C3
:1080B800039B134408221A70029B1B8801339AB24F
:1080C800029B1A80029B1B881A46039B13441B229F
:1080D8001A70029B1B8801339AB2029B1A80029B7A
:1080E8001B881A46039B981804AB013306221946CD
:1080F80008F0AAFC029B1B8806339AB2029B1A80DE
:108108009DF8103023F00103DBB2002B07D1029B4E
:108118001B881A46039B134400221A7006E0029B30
:108128001B881A46039B134401221A70029B1B8862
:1081380001339AB2029B1A800023184609B05DF8F1
:1081480004FB00B589B0039002910192ADF80230AA
:10815800039B1B78012B05D1039B5B78002B01D176
:10816800072391E0019B1B889A1CBDF802309A42B4
:108178000ED8039B1B78012B0CD1019B1B881A4638
:10818800039B5B7813449A1CBDF802309A4201D9CC
:108198000C2379E0019B1B88BDF80220D31A9BB2FF
:1081A800023BADF81C30BDF81C30ADF81230019B15
:1081B8001B880233029A13440DF112021146184625
:1081C800FFF738FF0690069B0593059B002B01D00F
:1081D800059B59E0039B1B78022B06D0039B5B7819
:1081E8001A46BDF812309A4209D3BDF81230BDF8CC
:1081F8001C209A4203D309238DF81F3016E0082368
:108208008DF81F30039B1B78012B0BD1039B5B78E8
:108218001A46BDF81C30934204D3039B5B78ADF833
:10822800123003E0BDF81C30ADF81230BDF8123042
:10823800FE2B01D90C2327E0BDF81230DAB2019BDE
:108248001B881946029B0B440132D2B21A70019B5B
:108258001B8801339AB2019B1A80019B1B881A461E
:10826800029B13449DF81F201A70019B1B88013341
:108278009AB2019B1A80019B1A88BDF812301344E8
:108288009AB2019B1A800023184609B05DF804FBD6
:1082980000B589B0039002911346ADF80630029BF1
:1082A8001B881A1DBDF806309A4201D90C233AE002
:1082B8000DF116031846FFF7B9FE0790079B0693C2
:1082C800069B002B01D0069B2DE0029B1B881A46BB
:1082D800039B134403221A70029B1B8801339AB232
:1082E800029B1A80029B1B881A46039B134419227F
:1082F8001A70029B1B8801339AB2029B1A80BDF840
:108308001620029B1B881946039B0B4419461046EE
:10831800FFF798FE03461A46029B1B8813449AB23D
:10832800029B1A800023184609B05DF804FB84B04C
:10833800029101921A4603468DF80F301346ADF8A4
:108348000C30019B1B88DA1CBDF80C309A4201D90D
:108358000C2328E0019B1B881A46029B1344022227
:108368001A70019B1B8801339AB2019B1A80019BEA
:108378001B881A46029B134401221A70019B1B8812
:1083880001339AB2019B1A80019B1B881A46029BF3
:1083980013449DF80F201A70019B1B8801339AB271
:1083A800019B1A800023184604B0704784B00291DC
:1083B80001921A4603468DF80F301346ADF80C307B
:1083C800019B1B88DA1CBDF80C309A4201D90C239A
:1083D80028E0019B1B881A46029B134402221A704C
:1083E800019B1B8801339AB2019B1A80019B1B8851
:1083F8001A46029B13440A221A70019B1B880133F8
:108408009AB2019B1A80019B1B881A46029B13444F
:108418009DF80F201A70019B1B8801339AB2019BAB
:108428001A800023184604B0704700B58FB0039037
:1084380001930B468DF80B3013468DF80A30002354
:108448008DF83330109B1B88ADF8303000230D9326
:1084580070E0039B5A680D9B9B001A4405AB10689B
:1084680018600DF11B0105AB00221846FFF7E6FD69
:108478000A900A9B0993099B002B01D0099B7BE07A
:108488009DF81B309DF80A209A4250D19DF8333050
:10849800002B01D0002300E002238DF82330109B2D
:1084A8001B881A469DF81B301A449DF823301A443D
:1084B800BDF844309A4201DD0C235DE09DF833306D
:1084C80083F00103DBB2002B16D0109B1B8801330D
:1084D8009AB2109B1A80109B1B881A46019B134462
:1084E8009DF80B201A70109B1B8801339AB2109BC1
:1084F8001A8001238DF83330109B1B881A46019B84
:108508001A440DF11B0105AB1846FFF797FD0A90B9
:108518000A9B0793079B002B01D0079B2CE0109B1D
:108528001B889DF81B2013449AB2109B1A800D9B40
:1085380001330D93039B1B881A460D9B934288DBDE
:108548009DF83330002B16D0109B1A88BDF83030B8
:10855800D31A9BB2013BADF82E30BDF82E30FF2B5D
:1085680001D90C2308E0BDF83030019A1344BDF856
:108578002E20D2B21A70002318460FB05DF804FB03
:1085880000B58BB0059003930B468DF81330134656
:108598008DF812309DF81310BDF8343001930C9B00
:1085A8000093039B02220598FFF73FFF0990099B60
:1085B8000893089B002B01D0089B14E09DF812102B
:1085C800BDF8343001930C9B0093039B102205984F
:1085D800FFF72BFF0990099B0793079B002B01D0FE
:1085E800079B00E0002318460BB05DF804FB82B03F
:1085F8000190019B1B88052B0AD9019B1B88B3F5A9
:10860800486F07D9019B1B884FF6FF72934201D030
:10861800072325E0019B5B88052B0AD9019B5B8812
:10862800B3F5486F07D9019B5B884FF6FF729342F9
:1086380001D0072314E0019B1B884FF6FF72934279
:108648000DD0019B5B884FF6FF72934207D0019BC8
:108658001A88019B5B889A4201D9072300E000230E
:10866800184602B0704700B587B003900291019296
:10867800ADF80230019B1B889A1DBDF802309A4262
:1086880001D90C234BE00398FFF7B1FF0590059B38
:108698000493049B002B01D0049B40E0019B1B88A2
:1086A8001A46029B134405221A70019B1B8801334A
:1086B8009AB2019B1A80019B1B881A46029B13449D
:1086C80012221A70019B1B8801339AB2019B1A80EF
:1086D800039B1A88019B1B881946029B0B44194669
:1086E8001046FFF7AFFC03461A46019B1B8813444C
:1086F8009AB2019B1A80039B5A88019B1B881946D2
:10870800029B0B4419461046FFF79CFC03461A4689
:10871800019B1B8813449AB2019B1A8000231846B8
:1087280007B05DF804FB00B587B003900291019291
:10873800ADF80230039B9B8802330593019B1B888D
:108748001A46059B13449A1CBDF802309A4201D977
:108758000C2353E0059BFE2B01D90C234EE0059B0F
:10876800DAB2019B1B881946029B0B440132D2B234
:108778001A70019B1B8801339AB2019B1A80019BD6
:108788001B881A46029B1344FF221A70019B1B8800
:1087980001339AB2019B1A80039B1A88019B1B889C
:1087A8001946029B0B4419461046FFF74BFC03463B
:1087B8001A46019B1B8813449AB2019B1A80039B9B
:1087C8009B88002B19D0039B9B68002B01D10723A2
:1087D80014E0019B1B881A46029B9818039B996812
:1087E800039B9B881A4608F02FF9019B1A88039B64
:1087F8009B8813449AB2019B1A800023184607B03D
:108808005DF804FB00B589B0039002910192ADF8C0
:108818000230039B9B6A002B01D1072371E00023E0
:108828008DF81F3065E0039B996A9DF81F20134659
:108838005B0013449B000B440693069B9B88023302
:108848000593059BFE2B01D90C235AE0059BDAB250
:10885800019B1B881946029B0B440132D2B21A7045
:10886800019B1B8801339AB2019B1A80019B1B88CC
:108878001A46029B134416221A70019B1B88013367
:108888009AB2019B1A80069B1A88019B1B8819467D
:10889800029B0B4419461046FFF7D4FB03461A46C1
:1088A800019B1B8813449AB2019B1A80069B9B88E4
:1088B800002B19D0069B9B68002B01D1072320E0D1
:1088C800019B1B881A46029B9818069B9968069B71
:1088D8009B881A4608F0B8F8019B1A88069B9B8863
:1088E80013449AB2019B1A809DF81F3001338DF80A
:1088F8001F30039B93F82C309DF81F209A4292D387
:108908000023184609B05DF804FB00B595B0059042
:108918000491039200231393039B1B88ADF84A30FC
:10892800039B00221A80059B93F82D30002B0ED054
:10893800BDF84A301A4603990498FFF799FB13903B
:10894800139B1193119B002B01D0119BD8E0059B21
:108958009B78002B0ED0BDF84A301A46039904982C
:10896800FFF796FC1390139B1093109B002B01D0DC
:10897800109BC5E0059BDB78002B10D0059BDB78AE
:1089880058B2BDF84A30039A0499FFF7D0FC139007
:10899800139B0F930F9B002B01D00F9BB0E0059BFF
:1089A8005B68002B11D0059B5B6893F90000BDF84C
:1089B8004A30039A0499FFF7F9FC1390139B0E931E
:1089C8000E9B002B01D00E9B9AE0059B1B89002B68
:1089D80014D0059B03F10800BDF84A300193039BAE
:1089E8000093049B06220221FFF7CAFD1390139BF4
:1089F8000D930D9B002B01D00D9B81E0059B1B8ADD
:108A0800002B14D0059B03F11000BDF84A300193E8
:108A1800039B0093049B07220321FFF7B1FD1390EA
:108A2800139B0C930C9B002B01D00C9B68E0059BBF
:108A38001B8B002B14D0059B03F11800BDF84A309E
:108A48000193039B0093049B15221421FFF798FDC3
:108A58001390139B0B930B9B002B01D00B9B4FE0A8
:108A6800059B1B6A002B0FD0059B186ABDF84A307E
:108A7800039A0499FFF7F7FD1390139B0A930A9B37
:108A8800002B01D00A9B3BE0059B5B6A002B0FD0B3
:108A9800059B586ABDF84A30039A0499FFF743FECC
:108AA8001390139B0993099B002B01D0099B27E086
:108AB800059B93F82C30002B0ED0BDF84A30039A52
:108AC80004990598FFF79EFE1390139B0893089B43
:108AD800002B01D0089B13E0059B1B78002B0ED0C0
:108AE800BDF84A30039A04990598FFF72AFB1390BA
:108AF800139B0793079B002B01D0079B00E0139B58
:108B0800184615B05DF804FB86B0039001921A462A
:108B18000B46ADF80A3013468DF80930039B002B3D
:108B280002D0019B002B01D100233BE00023ADF8CC
:108B380016300CE0BDF81630039A13441B781A4619
:108B4800BDF8163013449BB20133ADF81630019BC3
:108B58001B88BDF816209A4209D3BDF81630013398
:108B6800039A13441B789DF809209A4205D0BDF852
:108B78001620BDF80A309A42DCD3BDF81620BDF89D
:108B88000A309A4201D300230CE0BDF816300233B4
:108B98009AB2019B1A80BDF81630039A13441B78C9
:108BA800013B9BB2184606B0704700B585B00190EE
:108BB8000B46ADF8023013468DF801300023ADF8AE
:108BC8000C309DF8013003AABDF802100198FFF798
:108BD8009BFF0346ADF80E30BDF80E30002B01D1D7
:108BE800002304E0BDF80C301A46019B13441846D4
:108BF80005B05DF804FB72DF704700BF184673DFED
:108C0800704700BF184682B00190019B93F8543218
:108C1800184602B0704784B00190002303930AE01D
:108C2800019A039B13441B78002B01D0012306E013
:108C3800039B01330393039B052BF1D900231846AB
:108C480004B0704782B003468DF807309DF80730AE
:108C58005A1C074B83FB02135910D317C91A0B462A
:108C68009B000B44D11ACBB2184602B0704700BF24
:108C78006766666682B001900091009BDB7B012BE2
:108C880004D1009B9A88019BA3F8482200BF02B038
:108C9800704700B585B001900091019B002283F8D0
:108CA8005222009B9A88019BB3F848329A4216D107
:108CB800019B1B7983F00103DBB2002B0FD001214C
:108CC800019800F0ABFA0390039B002B07D0019B9F
:108CD8009B6B002B03D0019B9B6B0398984700BFAD
:108CE80005B05DF804FB00B585B001900091009BCC
:108CF8001B88262B1ED1009B1B7A012B03D0009BBF
:108D08001B7A022B17D1019B9B781846FFF79AFF15
:108D180003461946019800F081FA0390039B002B43
:108D280009D0019B9B6B002B05D0019B9B6B039883
:108D3800984700E000BF05B05DF804FB00B585B0BA
:108D480001900B468DF80330019B03F24B23184624
:108D5800FFF761FF03468DF80F309DF80330013BA4
:108D6800032B33D801A252F823F000BF858D0200EF
:108D7800A98D0200BD8D0200C98D0200019B9B795F
:108D8800002B0DD0019B93F8243083F00103DBB254
:108D9800002B05D09DF80F30002B01D0012316E0E1
:108DA800019BDB79002B05D09DF80F30002B01D0FB
:108DB80002230CE0019B1B7A002B01D0032306E061
:108DC800019B5B7A002B01D0042300E000231846A6
:108DD80005B05DF804FB00BF82B001900091019BD3
:108DE800012283F83120019B0022C3F84422019B11
:108DF80003F24A22009B5A60009B00229A60009B63
:108E080002221A70009B80229A810023184602B021
:108E1800704782B001900091019B022283F83120B3
:108E2800019B93F82430002B03D0009B07221A7073
:108E380002E0009B03221A70019B1B699AB2009BF7
:108E48009A81019B0022C3F84422019B03F24A2223
:108E5800009B5A60019BDA68009B9A6000231846C1
:108E680002B0704700B583B00190019B5B79002B7D
:108E78000FD0019B93F8523283F00103DBB2002B31
:108E880007D00198FFF7BFFE0346002B01D001234E
:108E980000E0002303F00103DBB2184603B05DF8DD
:108EA80004FB00B585B001900B468DF80330019B9B
:108EB800D3F83402019BB3F8383201221946FFF780
:108EC80074FE0390039B002B03D0039B9DF80320A3
:108ED8001A70019B03F15400019B03F50D71019B6E
:108EE8003C331A46FFF787FE0346184605B05DF87F
:108EF80004FB00B585B001900091019B5A69009B65
:108F08009A60019B9B699AB2009B9A81019B93F896
:108F18002430002B04D0019B062283F83C2003E078
:108F2800019B012283F83C200198FFF79BFF034631
:108F3800002B13D0009B02221A7504210198FFF719
:108F4800B0FF0390039B0293029B002B01D0029B6E
:108F58000FE0019B052283F8312003E0019B0322E7
:108F680083F83120019B03F50D72019BC3F844225D
:108F78000023184605B05DF804FB00B585B00190E4
:108F88000091019BDA69009B9A60019B1B6A9AB267
:108F9800009B9A81019B93F82430002B04D0019BFD
:108FA800062283F83C2003E0019B012283F83C2041
:108FB8000198FFF757FF0346002B13D0009B0222AE
:108FC8001A7504210198FFF76CFF0390039B029325
:108FD800029B002B01D0029B0FE0019B062283F825
:108FE800312003E0019B042283F83120019B03F523
:108FF8000D72019BC3F844220023184605B05DF8A2
:1090080004FB82B00190019B9B78002B06D0019B4A
:1090180093F82030002B01D000230AE0019B9B6AC3
:10902800042B03D0019B5B6A042B01D1002300E0D1
:109038000123184602B0704782B001900B468DF8A4
:109048000330019B9DF8032083F8302000BF02B055
:10905800704730B587B001900091009B002B02D07B
:10906800019B002B01D10E23C4E0009B78331846E6
:10907800FFF7C7FF034683F00103DBB2002B01D0E3
:109088000723B7E0019B00229A70019A009B141DE8
:1090980003F178050FCD0FC40FCD0FC495E8070075
:1090A80084E80700019B002283F83020009BD3F856
:1090B800A420019B5A63009BD3F8A820019B9A63C4
:1090C800019B4FF6FF72A3F84822019B03F50D722E
:1090D800019BC3F84422019B03F24A230722002183
:1090E800184607F0E3FC019B1B7883F00103DBB211
:1090F800002B03D0019BFF2283F85420019B03F12E
:109108005502019BC3F83422019B93F82430002BAD
:1091180004D0019BEE22A3F8382203E0019B1F2212
:10912800A3F838220098019B03F15501019B03F530
:109138000E731A46FFF7E9FB0590059B0493049B01
:10914800002B01D0049B55E0019B03F24312019BC5
:10915800C3F83C22019B93F82430002B04D0019BD8
:10916800EE22A3F8402203E0019B1F22A3F840222D
:10917800009B03F13C00019BD3F83C12019B03F5D3
:1091880010731A46FFF7C1FB0590059B0393039BD9
:10919800002B01D0039B2DE0019B012283F8512075
:1091A800019B9B699AB2019BA3F84820019B01226D
:1091B80083F83C20019B00221A64019B002283F85B
:1091C8005020019B5A69019B5A64019B03F154008A
:1091D800019B3C331A460021FFF70DFD0590059BC6
:1091E8000293029B002B01D0029B03E0019B01220A
:1091F8001A70059B184607B030BD82B00190019BDC
:109208001B68012B03D0019B1B68022B01D1012392
:1092180000E00023184602B07047000000B585B092
:1092280001900B468DF80330019B1B7883F00103F6
:10923800DBB2002B01D0082309E1019B9DF8032034
:109248009A70019B03F24A2307220021184607F06F
:109258002DFC019B9B79002B03D0019B9B78012B54
:109268000FD0019BDB79002B03D0019B9B78012B4E
:1092780007D0019BDB79002B14D0019B9B78022B34
:1092880010D1019B5B6B002B08D0019B012283F856
:109298005122019B5B6B0820984703E0019B002249
:1092A80083F851229DF8033019460198FFF746FDCF
:1092B80003461A46019B9A70019B5B6B002B20D0DA
:1092C800019B9B78032B03D0019B9B78042B18D11F
:1092D800019B5B79002B14D0019B93F8523283F0E9
:1092E8000103DBB2002B0CD0019B002283F854222F
:1092F800019B012283F85322019B5B6B072098474F
:1093080003E0019B002283F85322019B3C3318227F
:109318000021184607F0CAFB019B012283F83C2074
:10932800019B2C331846FFF768FF0346002B06D035
:10933800019BDB6ADAB2019B83F8512003E0019BB1
:10934800012283F85120019B93F82430002B12D07E
:10935800019B2C331846FFF750FF0346002B06D01D
:10936800019B9B6ADAB2019B83F8522003E0019BC0
:10937800012283F85220019B002283F85020019B90
:109388009B78042B31D801A252F823F0E99302000C
:10939800A9930200B9930200C9930200D99302006D
:1093A800019B3C3319460198FFF716FD03901DE019
:1093B800019B3C3319460198FFF72BFD039015E0FC
:1093C800019B3C3319460198FFF793FD03900DE08C
:1093D800019B3C3319460198FFF7CFFD039005E048
:1093E800019B002283F8312000E000BF019B9B789D
:1093F800002B20D0019B03F15400019BD3F84412A9
:10940800019B3C331A46FFF7F6FB0390039B002BA6
:1094180001D0039B1BE0019B93F85420019B93F818
:10942800303019461046FFF7EAFB0390039B002BE8
:1094380001D0039B0BE0019B5B6B002B06D0019BCB
:109448005B6B019A92F83120104698470023184622
:1094580005B05DF804FB00BF00B585B00190009130
:10946800009B0393019B1B88262B10D0262B13DC13
:10947800102B02D0112B05D00EE001990398FFF7AD
:10948800F9FB0AE001990398FFF703FC05E001994D
:109498000398FFF728FC00E000BF00BF05B05DF8A7
:1094A80004FB82B00190009100BF02B0704775DFE5
:1094B800704700BF184676DF704700BF18467ADF4E
:1094C800704700BF18467BDF704700BF1846000092
:1094D80084B00346ADF806300023039316E00F4925
:1094E800039A13469B0013449B000B441B88BDF84A
:1094F80006209A4207D1039A13469B0013449B0007
:10950800064A134406E0039B01330393039B002B95
:10951800E5D00023184604B0704700BF0C2E002089
:1095280082B001900B46ADF80230019BBDF80220D5
:109538001A80019B00221A72019B054903F10A0255
:109548000B4603CB1060516000BF02B0704700BFEC
:109558003C2E002082B00190019B4FF6FF721A80CA
:1095680000BF02B0704788B00390029111461A46B6
:109578000B46ADF806301346ADF80430039B9B88C4
:109588001A46BDF8063013440793039B9B88194677
:10959800039B9B88BDF80620934228BF13469BB2C5
:1095A800CB1A0693039BDB881A46BDF80430134494
:1095B8000593039BDB881946039BDB88BDF80420D1
:1095C800934228BF13469BB2CB1A0493029B5A8836
:1095D800039B1B889A4205D3029B5A88039B5B888E
:1095E8009A4201D900231CE0029B9B881A46069BDD
:1095F800934205D8029B9B881A46079B934201D247
:1096080000230EE0029BDB881A46049B934205D890
:10961800029BDB881A46059B934201D2002300E097
:109628000123184608B0704700B583B00190064B77
:109638009B69002B03D0044B9B690198984700BF96
:1096480003B05DF804FB00BF202E002000B585B0F4
:1096580003460091ADF80630BDF80630009918466B
:10966800FFF725FF0390039B002B05D0039B112BCD
:1096780002D00398FFF7D8FF039B002B0CBF0123F0
:109688000023DBB2184605B05DF804FB00B589B0CD
:109698000190019B0793079B9BB21846FFF718FFA1
:1096A8000690069B002B42D0069B1A7A224B1B7B06
:1096B8009A4215D2079B9AB2069B0A33194610465E
:1096C800FFF7C4FF03468DF813309DF81330002BC5
:1096D8002DD0069B1B7A0133DAB2069B1A7226E05C
:1096E800069B00221A72144B1B7C002B0FD0079B81
:1096F8009BB23B211846FFF7DEFE0590059B002B29
:1097080005D0059B082B02D00598FFF78DFF0A4B63
:109718005B69002B0BD000238DF80C30079B9BB2A4
:10972800ADF80E30044B5B6903AA1046984700BF9A
:1097380009B05DF804FB00BF202E002030B587B0CB
:109748000190019B002B01D10E2353E02B4A019B72
:1097580014461D460FCD0FC495E8070084E807009E
:10976800264B274A1A60019B1B68002B11D0019BCE
:109778001B681846FFF7A3FE0490049B002B01D03A
:10978800049B37E0019B1A681D4B1068516803C39E
:1097980008E01B48FFF797FE0490049B002B01D0BC
:1097A800049B27E00023059320E0059A13469B00BD
:1097B80013449B00134A134403930398FFF7CAFE0C
:1097C800059B5B01104A1A44039B5A60039B0433B0
:1097D8000E4A0021184604F09BF80490049B002BC5
:1097E80001D0032306E0059B01330593059B002B5D
:1097F800DBD00023184607B030BD00BF202E002064
:109808003C2E00200C2E0020EC2D00209596020006
:1098180000B587B003460091ADF80630009B5B7A2F
:10982800002B1AD1009B1B7A002B03D1164B5B68C7
:10983800059302E0144B9B680593009B5B68BDF899
:1098480006200599184604F093F80490049B002B11
:1098580016D00498FFF7E8FE12E0009B00221A7267
:10986800094B5B69002B0BD001238DF80C30BDF838
:109878000630ADF80E30044B5B6903AA10469847D2
:1098880000BF07B05DF804FB202E002000B585B0AE
:109898000190019BDB7B8DF80F30019B9B88ADF815
:1098A8000C309DF80F30012B2CD14FF6FF70FFF7CD
:1098B8000FFE0290029B002B03D10420FFF7B4FE99
:1098C80021E0BDF80C3019460298FFF729FE029BEB
:1098D80003F10A00019B03F110014FF6FF7340F2F8
:1098E800F312FFF740FE03461A46029B5A72074BD3
:1098F800DB89002B07D1BDF80C3002991846FFF719
:1099080087FF00E000BF05B05DF804FB202E0020B3
:1099180000B587B00190019B9B88ADF81630BDF863
:1099280016301846FFF7D4FD0490049B002B0ED088
:10993800049B5B68184604F04DF80390039B002BCA
:1099480002D00398FFF770FE0498FFF703FE00BFEC
:1099580007B05DF804FB000000B587B00190019BDB
:1099680006330593059B1A88194BDB899A422BD13C
:10997800059B5B89022B27D1019B9B88ADF8123090
:10998800BDF812301846FFF7A3FD0390039B002B88
:109998001AD0059B0C33184600F036FA0346002B04
:1099A80006D0BDF8123003991846FFF731FF0BE0D7
:1099B800039B5B68184604F00DF80290029B002B8D
:1099C80002D00298FFF730FE00BF07B05DF804FB35
:1099D800202E002000B585B00190019B9B88ADF832
:1099E8000E30BDF80E301846FFF772FD0290029B4C
:1099F800002B15D0029B03F10A00019B03F108011B
:109A08004FF6FF7340F2F312FFF7ADFD03461A4617
:109A1800029B5A72BDF80E3002991846FFF7F8FEFD
:109A280000BF05B05DF804FB00B583B0019000915C
:109A3800019B1B88502B12D0502B18DC122B12D0F4
:109A4800122B14DC102B02D0112B04D00FE001983C
:109A5800FFF71CFF0CE00198FFF75AFF08E0019898
:109A6800FFF77AFF04E00198FFF7B4FF00E000BFBA
:109A780000BF03B05DF804FB30B58FB001900091D2
:109A880000230293009B002B1AD000230D9314E0AF
:109A98006B460D99184604F0B1F80346002B09D01F
:109AA800029B5A1C02920D9A92B25B0038336B44A7
:109AB80023F82C2C0D9B01330D930D9B132BE7D909
:109AC800019B1D4602AC0FCC0FC50FCC0FC594E807
:109AD800070085E8070001980FB030BD00B583B0D6
:109AE8000346ADF80630BDF80630132B01D9002324
:109AF8000CE0BDF806301946064804F04EF8BDF8EB
:109B080006301946044804F048F80123184603B003
:109B18005DF804FB4C2E0020482E002000B585B0CF
:109B28000346ADF80630002303930DE0039B9B002A
:109B3800094A13440433BDF806201146184604F0B8
:109B480044F8039B01330393039B1C2BEED900BFFE
:109B580000BF05B05DF804FB442E002000B583B0BB
:109B68000346ADF80630BDF806301946034804F040
:109B78002CF800BF03B05DF804FB00BF4C2E00209A
:109B880030B59BB0184B9B68DB431893164B5A684B
:109B980018AB1146184604F090F8189A6B4611460F
:109BA8001846FFF769FF0DAC6D460FCD0FC40FCDFA
:109BB8000FC495E8070084E80700002319930BE019
:109BC800199B5B0068336B4433F8303C1846FFF749
:109BD800A5FF199B013319930D9B199A9A42EFD34C
:109BE80000BF00BF1BB030BD442E002000B585B0BB
:109BF80001900091019B9B88ADF80E30019B1B885A
:109C08001A2B2AD01A2B68DC102B02D0112B1ED04D
:109C180063E0FFF7B5FFBDF80E301846FFF75EFFAB
:109C2800034683F00103DBB2002B05D02D4AE32164
:109C3800042003F055F84FE0019BDB7B012B4BD050
:109C4800BDF80E301946284803F0A7FF44E0BDF8D8
:109C58000E301846FFF782FF3FE0019B1B7AC3F3E3
:109C68000313DBB2012B8CBF012300238DF80D30C9
:109C7800019B1B7AC3F30313DBB2022B8CBF0123B6
:109C880000238DF80C309DF80D30002B17D0BDF84F
:109C98000E301946154803F080FF9DF80C30002B54
:109CA80006D0BDF80E301946114803F076FF14E0CF
:109CB800BDF80E3019460E4803F087FF0DE0BDF8D9
:109CC8000E301946094803F080FFBDF80E301946DA
:109CD800074803F07AFF00E000BF00BF05B05DF859
:109CE80004FB00BF8C0F0300502E0020542E0020D0
:109CF800582E002000B583B00346ADF80630BDF8F5
:109D08000630132B01D9002306E0BDF806301946AA
:109D1800034803F073FF0346184603B05DF804FBDD
:109D2800482E002000B583B00346ADF80630BDF8D4
:109D380006301846FFF7DEFF0346002B02D0BDF8B9
:109D4800063000E01423184603B05DF804FB00B5A4
:109D580087B003900B460192ADF80A30019B002BA7
:109D680001D10E2338E0019B00221A60039B002BCF
:109D780001D10E2330E0039B1B68002B01D10E2379
:109D88002AE0039BDB8803F003039BB2002B01D07E
:109D9800072321E0BDF80A301846FFF7C3FF034642
:109DA8008DF817309DF81730142B01D1052313E0D7
:109DB800039B1B799DF817209A4201D304230BE0DB
:109DC800039B1B689DF817200399C98801FB02F2C1
:109DD8001A44019B1A600023184607B05DF804FB7B
:109DE80082B00190019B1B781AB2019B01331B784A
:109DF8001B021BB213431BB29BB2184602B070473A
:109E0800AADF704700BF184600B585B001900198D9
:109E1800FFF7E6FF0346ADF80E30BDF80E3003F04D
:109E28000103002B14BF01230023DBB2184605B041
:109E38005DF804FB82B0034600918DF80730009A64
:109E480013786FF303031370009A13786FF30713F3
:109E580013709DF80730052B5BD801A252F823F048
:109E6800819E0200979E0200B19E0200CB9E0200D6
:109E7800E59E0200FF9E0200009A13786FF3030329
:109E88001370009A13786FF30713137040E0009A69
:109E98001378012161F303031370009A13780121E9
:109EA80061F30713137033E0009A1378012161F30B
:109EB80003031370009A1378022161F307131370D8
:109EC80026E0009A1378012161F303031370009AC6
:109ED8001378032161F30713137019E0009A1378BC
:109EE800022161F303031370009A1378012161F3CF
:109EF800071313700CE0009A1378022161F303032F
:109F08001370009A1378022161F30713137000BFCE
:109F180000BF00BF02B0704700B595B0034602917C
:109F28000192ADF80E30029B9B78002B03D10123E0
:109F38008DF81E3003E0029B9B788DF81E30029B43
:109F48001B88ADF81C3006AB03220021184606F02A
:109F5800ADFD029B5B7C06AA11461846FFF76AFF17
:109F6800029B9A7C06AB013319461046FFF762FF45
:109F7800029BDA7B9DF81A3062F3C3038DF81A301E
:109F8800029B1A7C9DF81A3062F304138DF81A307C
:109F9800029B1A7B9DF81A3062F300038DF81A3081
:109FA800029B1B7D002B01D0022200E001229DF8BC
:109FB8001A3062F342038DF81A300DAB1C220021CF
:109FC800184606F073FD029B5B7B03F01003DBB2BF
:109FD800002B06D1029B5B7B03F02003DBB2002B36
:109FE80024D004AB03220021184606F05FFD029B33
:109FF800DA7C04AB013319461046FFF71BFF9DF8C6
:10A008001030012262F303038DF810309DF81030F0
:10A01800012262F307138DF810309DF812300122E7
:10A0280062F342038DF8123004AB1293029B5B7B00
:10A038008DF83430029B9B7B8DF8353008AB1422A9
:10A048000021184606F032FD07AB089306AB0993CA
:10A05800029B9B88ADF82C30029B9B68002B06D096
:10A06800029BDB88ADF82830029B9B680C93029B0F
:10A078009B69002B4FD005AB03220021184606F040
:10A0880015FD029B9B691B88ADF83C30029B9B69C0
:10A098005B88ADF83E30029B9B695B680E9305AB0D
:10A0A8001193029B9B691B7B05AA11461846FFF773
:10A0B800C1FE029B9B695A7B05AB013319461046CA
:10A0C800FFF7B8FE029B9B699A7A9DF8163062F3F7
:10A0D800C3038DF81630029B9B69DA7A9DF8163017
:10A0E80062F304138DF81630029B9B691A7A9DF867
:10A0F800163062F300038DF81630029B9B699B7B38
:10A10800002B01D0022200E001229DF8163062F3F4
:10A1180042038DF81630029BDB69002B02D0029BAC
:10A12800DB69109308AA0DA9BDF80E00019BFFF783
:10A1380067FE0346184615B05DF804FB90DF7047CC
:10A1480000BF1846A5DF704700BF1846B5DF704747
:10A1580000BF184682B00190019BF7221A80019B2C
:10A1680017225A80019B00221A71019B00225A7102
:10A17800019BFB229A71019B1B22DA7100BF02B07E
:10A188007047000030B589B003460A46ADF806307E
:10A198001346ADF80430BDF80430ADF81430BDF8FE
:10A1A8000430ADF816300023ADF818300023ADF8B0
:10A1B8001A3003AB00221A609A8003AA05A9BDF8D9
:10A1C80006301846FFF7BAFF0790079B002B39D0D7
:10A1D8001E4A1F4BD31ADB081B0443F00104BDF8C9
:10A1E8000650079804F0E2FC03462A46194920461F
:10A1F80005F0BBF9BDF80C30002B03D1BDF80E30CB
:10A20800002B0ED0114A124BD31ADB081B0443F063
:10A218000100BDF80C301A46BDF80E300E4905F0A5
:10A22800A4F9BDF81030002B0CD0084A084BD31AFB
:10A23800DB081B0443F00103BDF81020074918464A
:10A2480005F082F9079B184609B030BDE00B030002
:10A25800980B030008100300541003009410030027
:10A2680010B586B001900091009B9B88ADF80E3028
:10A27800BDF80E30DB00019A134406330593019BA9
:10A288001A79059B9A71009BDB7B012B02D0022B6C
:10A2980005D009E0019B1A88059B1A8004E0019B00
:10A2A8005A88059B1A8000BF059B1A88059B5B8806
:10A2B8009A4226D9059B1A88BDF80E3011461846D1
:10A2C800FFF740FF0490049B002B03D1059B01225C
:10A2D8005A7116E0049B112B03D1059B01221A71B8
:10A2E8000FE0114A114BD31ADB081B0443F0010499
:10A2F800049804F05BFC03461A460D49204605F015
:10A3080023F9059B9A79059BDB799A4208D9059B25
:10A318009B791A46BDF80E3011461846FFF732FFF2
:10A3280000BF06B010BD00BFE00B0300980B030090
:10A33800EC10030000B583B001900091009B9B884E
:10A34800DB00019A134406331846FFF703FF00BFEA
:10A3580003B05DF804FB00B587B001900091009B45
:10A368009B88ADF81630009B5B89ADF81430BDF8BA
:10A378001630DB00019A134406330493049B1B88B0
:10A38800BDF81420934228BF13469AB2049B5A8002
:10A39800049B5B88172B38BF17239AB2049B5A80FB
:10A3A800019B1B69002B15D0049B5B79002B11D0F6
:10A3B80040F67723ADF80830BDF81630ADF80A300E
:10A3C800049B5B88ADF80C30019B1B6902AA1146FF
:10A3D80001989847049B00225A71049B00221A7125
:10A3E80000BF07B05DF804FB10B588B0019000917C
:10A3F800009B9B88ADF81A30009BDB88ADF81830BD
:10A40800BDF81A30DB00019A134406330593BDF8F2
:10A418001830172B38BF1723ADF81830059B1B8849
:10A42800BDF81820934228BF13469AB2059B5A805C
:10A43800059B00221A71059B1A88BDF81A3011462F
:10A448001846FFF783FE0790079B002B0FD0174A8B
:10A45800174BD31ADB081B0443F00104079804F0D8
:10A46800A5FB03461A461349204605F06DF8059BDF
:10A478005B79002B16D1019B1B69002B13D040F68A
:10A488007723ADF80C30BDF81A30ADF80E30059BC7
:10A498005B88ADF81030019B1B6903AA114601982F
:10A4A800984700E000BF08B010BD00BFE00B0300F4
:10A4B800980B03002011030030B591B00190009172
:10A4C800009B04AC1D1D0FCD0FC40FCD0FC495E824
:10A4D800070084E80700BDF81030ADF83E30BDF83D
:10A4E8001420BDF83E30D1B2019ADB0013440A466D
:10A4F8005A73019B1B69002B19D002AB00221A600A
:10A508009A804DF67A23ADF80830BDF83E30ADF8A4
:10A518000A30BDF83E30019ADB0013445B7B8DF8AE
:10A528000C30019B1B6902AA11460198984700BF8D
:10A5380011B030BD00B587B001900091009B043385
:10A548000593059B1B88DB00019A1344063304938B
:10A55800059B9B888DF80F30049B9B799DF80F20F5
:10A56800934228BF13468DF80E30059B1B889DF833
:10A578000E2092B211461846FFF704FE00BF07B03E
:10A588005DF804FB00B585B001900091019B002B9C
:10A5980001D10E231DE0019B009A1A61019BF7224D
:10A5A8001A80019BF7225A80019BFB221A71002313
:10A5B80003930AE0039BDB00019A13440633184611
:10A5C800FFF7C8FD039B01330393039B002BF1D0D6
:10A5D8000023184605B05DF804FB82B001900B46D5
:10A5E800ADF80230019B002B01D10E230EE0BDF81F
:10A5F8000230162B03D9BDF80230F72B01D90723F7
:10A6080004E0019BBDF802201A800023184602B01E
:10A618007047000010B586B001900091009B05932B
:10A62800019B9B88ADF81230BDF81230002B40F02A
:10A638009880019B1B88552B48D0552B55DC242B23
:10A6480032DC102B51DB103B142B4ED801A252F8F0
:10A6580023F000BFB7A60200C1A60200F3A60200BD
:10A66800F3A60200F3A60200F3A60200F3A6020076
:10A67800F3A60200F3A60200F3A60200F3A6020066
:10A68800F3A60200F3A60200F3A60200F3A6020056
:10A69800F3A60200F3A60200F3A60200F3A6020046
:10A6A800E9A60200DFA602003A2B0AD01DE00199B4
:10A6B8000598FFF7D5FD19E001990598FFF73AFECF
:10A6C80014E001990598FFF746FE0FE001990598F7
:10A6D800FFF78AFE0AE001990598FFF7EDFE05E00D
:10A6E80001990598FFF726FF00E000BFBDF812307A
:10A6F800059ADB0013449B7A002B33D0BDF8123047
:10A70800059ADB001344DA88BDF812301146184662
:10A71800FFF718FD0390039B002B0ED1BDF81230F4
:10A72800059ADB00134400229A72BDF81230059A8C
:10A73800DB0013440122DA7214E0039B112B11D0C1
:10A74800094A0A4BD31ADB081B0443F00104039897
:10A7580004F02CFA03461A460549204604F0F4FE94
:10A7680000E000BF06B010BDE00B0300980B03002B
:10A77800EC100300B0DF704700BF184666DF704773
:10A7880000BF184682B001900091019B002B01D1B7
:10A798000E2316E0009B002B01D10E2311E0019B34
:10A7A8001B78DE2B01D108230BE0009B1A68019B64
:10A7B8005A60019BDE221A70019B4FF6FF725A8085
:10A7C8000023184602B0704782B001900B46ADF8DE
:10A7D8000230019B002B01D10E230AE0019B1B785C
:10A7E800DE2B01D0082304E0019BBDF802205A802B
:10A7F8000023184602B0704700B585B00190019B50
:10A808001B7A002B18D0019B5B8800211846FFF7A4
:10A81800B5FF0390039B002B03D1019B00221A7202
:10A828000AE0039B112B03D1019B01221A7203E05A
:10A83800019B5B680398984700BF05B05DF804FB6F
:10A8480000B583B001900091009B1B79012B0BD1BF
:10A85800009B1A88019B5B889A4205D1019B0122C3
:10A868001A720198FFF7C8FF00BF03B05DF804FB38
:10A8780082B00190009100BF02B0704700B589B066
:10A8880001900091009B1A88019B5B889A4236D1FF
:10A89800009B02330793079B1B78022B31D1079B40
:10A8A8001B7A042B07D0079B1B7A062B03D0079B28
:10A8B8001B7A052B27D102AB00221A605A609A60D6
:10A8C800DA6002238DF808304FF4C073ADF80C300D
:10A8D800079B1B7A052B02D10023ADF80C30009B97
:10A8E8001B8802AA11461846FFF744FF0690069BEC
:10A8F800002B09D0019B5B680698984704E000BFCD
:10A9080002E000BF00E000BF09B05DF804FB00B53D
:10A9180085B001900091009B002B43D0019B002B38
:10A9280040D0009B0393039B1B78DE2B3AD1019BFD
:10A938009A88039B5B889A4202D10398FFF75CFFD1
:10A94800019B1B88512B18D0512B28DC112B1BD0B5
:10A95800112B24DC012B02D0022B07D01FE0019B16
:10A96800043319460398FFF76BFF1BE0019B043380
:10A9780019460398FFF77CFF14E0019B043319463E
:10A988000398FFF77BFF0DE0019B9A88039B5B8888
:10A998009A4206D1039B4FF6FF725A8001E000BF2E
:10A9A80000E000BF05B05DF804FBA8DF704700BFFA
:10A9B8001846ADDF704700BF1846AEDF704700BFCE
:10A9C800184662DF704700BF184600B58FB0019087
:10A9D800009100230393019B5869009B9B8803AA5D
:10A9E8001946FFF7B4F90D9005AB08220021184667
:10A9F80006F05CF804AB06930223ADF8143000238C
:10AA0800ADF81630009B9888019B1B8A05AA194649
:10AA1800FFF7CFFF0D900D9B002B26D1019B9B6963
:10AA2800002B22D0069B1846FFF7EEF90346002BB1
:10AA38001BD0039B002B02D0039B01221A7007AB8B
:10AA480018220021184606F031F802238DF81C3030
:10AA5800019B0893009B9B88ADF82430039B0A93C5
:10AA6800019B9B6907AA1046984700BF0FB05DF885
:10AA780004FB00B58DB001900091009B06330B9349
:10AA8800019B5869009B9B8803AA1946FFF75FF949
:10AA98000A9004AB18220021184606F007F8019B1B
:10AAA8000593009B9B88ADF81830039B07930B9B7D
:10AAB8001A88019B1B899A4225D10B9B5B89022B23
:10AAC80021D1039B002B38D00B9B0C331846FFF782
:10AAD8009BF90346002B06D0039B01221A70022320
:10AAE8008DF8103005E0039B00221A7003238DF8BF
:10AAF8001030019B9B69002B1FD0019B9B6904AA06
:10AB08001046984719E00B9B1A88019B9B899A422B
:10AB180014D1019B9B69002B10D000238DF81030B5
:10AB28000B9B0C3308930B9B5B89ADF82430019B7E
:10AB38009B6904AA1046984700E000BF00BF0DB00B
:10AB48005DF804FB00B58BB001900091019B58693A
:10AB5800009B9B8802AA1946FFF7F9F80990099B00
:10AB6800002B1AD1029B1B78002B17D003AB18229D
:10AB78000021184605F09AFF01238DF80C30019B3F
:10AB88000493009B9B88ADF81430029B0693019BAD
:10AB98009B6903AA1046984700E000BF0BB05DF818
:10ABA80004FB00B585B001900091009B002B1ED0DE
:10ABB800019B002B1BD0009B0393019B1B88572BE9
:10ABC80010D0572B15DC102B02D0502B05D010E0DD
:10ABD80001990398FFF7F9FE0CE001990398FFF734
:10ABE80048FF07E001990398FFF7ACFF02E000BFB8
:10ABF80000E000BF05B05DF804FB000010B592B09E
:10AC0800019000914F4B0AAC0FCB84E80F00019BD9
:10AC1800002B01D10E2391E0009B002B01D10E23C4
:10AC28008CE0009B1A68019B9A61019A0AAB114655
:10AC38001846FFF7C6FE1190119B1093109B002B2E
:10AC480001D0109B7AE0019B1B788DF83A300123E4
:10AC5800ADF83830019B9A1C0EAB19460120FFF75E
:10AC6800A4FE1190119B0F930F9B002B01D00F9BFB
:10AC780064E002AB20220021184605F017FF0223EA
:10AC8800ADF80830019B1B788DF80A30F423ADF835
:10AC98000C300123ADF80E3001238DF814309DF8E7
:10ACA800153043F008038DF815309DF8153043F042
:10ACB80004038DF8153001238DF8193001238DF820
:10ACC8001A30019B5888019B03F10C0202AB19460C
:10ACD800FFF722F91190119B002B01D0119B2DE059
:10ACE80002AB20220021184605F0E0FE0323ADF850
:10ACF8000830019B1B788DF80A30F423ADF80C302E
:10AD08000123ADF80E3001238DF814309DF815306D
:10AD180043F010038DF8153001238DF81930012305
:10AD28008DF81A3001238DF81B30019B5888019B40
:10AD38001A1D02AB1946FFF7EFF80346184612B082
:10AD480010BD00BF5811030000B58DB003900291EB
:10AD58000192ADF80230039B002B01D10E2342E093
:10AD6800039B5B6905AABDF802101846FEF7EFFFC2
:10AD78000B900B9B0A930A9B002B01D00A9B32E095
:10AD8800BDF802304FF6FF72934202D0059B002BAC
:10AD980001D1052327E0059B1B7883F00103DBB273
:10ADA800002B01D008231EE0019B1B88F42B01D93E
:10ADB800072318E006AB10220021184605F076FE9E
:10ADC800039B9B88ADF81830029B0993019B08935D
:10ADD80001238DF81A3006AABDF80230114618462C
:10ADE800FFF7EBFD034618460DB05DF804FB0000C5
:10ADF80082B003468DF807309DF8073003F01F0234
:10AE080006499DF907305B09012000FA02F2203358
:10AE180041F8232000BF02B0704700BF00E100E006
:10AE280008B505F0DFFA034683F00103DBB2002B17
:10AE380003D105497920FBF7AFFF00F095FA034BE2
:10AE480000229A7000BF08BD70110300BC2E0020BC
:10AE580000B583B000230193144B1B78002B02D05C
:10AE6800852301931CE0114B00229A600F4B0022AE
:10AE78005A600E4B00221A610C4B0022DA600C4813
:10AE880000F036FA019005F0ADFA034683F00103AD
:10AE9800DBB2002B01D000F053FA044B01221A70E8
:10AEA800019B184603B05DF804FB00BFBC2E0020D0
:10AEB80091AF020084B00190019B1B680393039B30
:10AEC800002B03D0039B1A68019B1A60039B18464A
:10AED80004B0704700B583B0164B1B78002B04D123
:10AEE80015494FF48570FBF757FF124BDB68002BB1
:10AEF80004D1114940F20B10FBF74EFF00238DF8E7
:10AF080007300DF10703184602F0FAFD094BDB681C
:10AF1800013B084AD360074BDB68002B01D1FFF7E0
:10AF28007FFF9DF80730184602F000FE00BF03B00F
:10AF38005DF804FBBC2E00207011030000B585B03D
:10AF480003468DF807309DF80730002B02D10C4BD3
:10AF5800039301E00B4B03930398FFF7ABFF0290B9
:10AF6800029B002B06D0029B5B689DF807201046C9
:10AF78009847F1E700BF00BF05B05DF804FB00BFCC
:10AF8800C42E0020CC2E002000B583B003468DF8D7
:10AF980007309DF80730002B05D10A4B01225A7063
:10AFA8000020FFF7CBFF9DF80730012B05D1054B9B
:10AFB80001229A700120FFF7C1FF00BF03B05DF8BE
:10AFC80004FB00BFBC2E002000B583B001900091A7
:10AFD800019B002B05D1054B01225A700020FFF779
:10AFE800ADFF00BF03B05DF804FB00BFBC2E00201E
:10AFF80000B585B0034600918DF807309DF80730FD
:10B00800032B29D0032B35DC002B02D0012B04D0D5
:10B0180030E00020FFF7ECFE2DE000238DF80F3024
:10B028000DF10F03184602F06BFD154B1B7883F0EA
:10B038000103DBB2002B01D0FFF70AFF104BDB68DE
:10B0480001330F4AD3600E4B01229A709DF80F30DE
:10B05800184602F06BFD0EE0094B1B78002B04D15B
:10B06800084940F24520FBF797FE00F069F9FFF721
:10B0780031FF00E000BF00BF05B05DF804FB00BF72
:10B08800BC2E002070110300054B1B78002B04D147
:10B09800034B01221A70002300E0852318467047ED
:10B0A800D02E002082B003468DF807309DF8073077
:10B0B80003F01F0205499DF907305B09012000FADA
:10B0C80002F241F8232000BF02B0704700E100E01F
:10B0D80082B0034600918DF807309DF90730002BA8
:10B0E8000CDA009BDAB20C499DF8073003F00F0325
:10B0F800043B5201D2B20B441A7609E0009BDAB243
:10B1080006499DF907305201D2B20B4483F8002357
:10B1180000BF02B0704700BF00ED00E000E100E0B2
:10B1280082B00190019B1B0B5BB2184602B07047BE
:10B1380000B583B003460A468DF8073013468DF8EC
:10B1480006309DF80630012B03D99DF80630032BF5
:10B158000BD99DF80630042B03D99DF80630072B30
:10B1680003D908496B20FBF717FE9DF806209DF9C7
:10B17800073011461846FFF7ABFF00BF03B05DF874
:10B1880004FB00BFE011030000B583B003468DF84F
:10B1980007309DF907301846FFF784FF00BF03B05A
:10B1A8005DF804FB82B003468DF807300F4A9DF91D
:10B1B8000730002B00DA1F335B115BB252F82320F3
:10B1C8009DF90730594203F01F0301F01F0158BFD2
:10B1D8004B425BB222FA03F303F00103002B14BFC6
:10B1E80001230023DBB2184602B0704700E100E0FB
:10B1F80082B001904FF08042019BC2F8083300BF33
:10B2080002B0704782B003468DF807309DF80730CA
:10B2180003F1804301221A6000BF02B0704784B076
:10B228000346ADF80630BDF8063003F1804300222E
:10B238001A60BDF8063003F180431B680393039B33
:10B2480000BF04B0704782B00346ADF80630BDF8C1
:10B25800063003F180431B68002B14BF0123002331
:10B26800DBB2184602B0704782B001904FF08042BE
:10B27800019BC2F8183500BF02B070474FF08043F9
:10B28800D3F818341B0C03F00103002B14BF01235F
:10B298000023DBB21846704700B583B006238DF84B
:10B2A80007304FF08040FFF73BFF03461846FFF793
:10B2B80079FF034683F00103DBB2002B13D04FF074
:10B2C8008040FFF72DFF03461A469DF807301946C0
:10B2D8001046FFF72DFF4FF08040FFF721FF034690
:10B2E8001846FFF751FF00BF03B05DF804FB0000EC
:10B2F80000B585B00190019B002B03D10E49A02019
:10B30800FBF74AFD002303930C4B1B79002B02D05B
:10B31800852303930BE0094B00229A71074A019B8E
:10B328001360064B01221A71044B00225A71039BC9
:10B33800184605B05DF804FB18120300D42E00204F
:10B3480008B5074B1B79002B03D10649B920FBF739
:10B3580023FDFFF7A1FF0020FFF786FF00BF08BD10
:10B36800D42E00201812030008B50A4B1B79002BB5
:10B3780003D10949F320FBF70FFD0C20FFF742FF2B
:10B3880000BFFFF77BFF0346002BFAD100BF00BFC9
:10B3980008BD00BFD42E00201812030008B54FF4D2
:10B3A8008070FFF750FF0346002B14D04FF48070D5
:10B3B800FFF735FF0120FFF71BFF264B5B7983F072
:10B3C8000103DBB2002B06D0224B01225A71214B1C
:10B3D8001B68002098474FF48270FFF734FF03463C
:10B3E800002B0AD04FF48270FFF719FF0220FFF7F5
:10B3F800FFFE184B1B68012098474FF48870FFF731
:10B4080022FF0346002B0AD04FF48870FFF707FF8E
:10B418001020FFF7EDFE0F4B1B68022098474FF4F2
:10B428008670FFF710FF0346002B10D00A4B00224E
:10B438001A604FF48670FFF7F2FE0820FFF7D8FE77
:10B44800044B00229A71034B1B680320984700BFE6
:10B4580008BD00BFD42E0020340C004000B583B0D6
:10B468000346ADF80630BDF80630184600F026F859
:10B4780003461B68012B0CBF01230023DBB21846CF
:10B4880003B05DF804FB00B585B00346ADF806309F
:10B49800BDF80630184600F011F803461A46002396
:10B4A8001360BDF80630184600F008F803461B681C
:10B4B8000393039B00BF05B05DF804FB82B003460D
:10B4C800ADF80630BDF8063003F1804303F5C043FC
:10B4D800184602B07047000082B00190034BD3F8C1
:10B4E8000423019B1340184602B0704700600040D7
:10B4F80082B00190054A019B03F5A27352F82330EC
:10B508001B0A03F01F03184602B070470060004092
:10B5180082B00190064A019B03F5A27352F82330CA
:10B528001B0C03F00303DBB2184602B0704700BFE0
:10B538000060004000B583B00190019B1B681F2B81
:10B5480004D905494FF4F370FBF726FC4FF0A043EC
:10B55800184603B05DF804FBB412030000B585B0CB
:10B5680001900B468DF8033001AB1846FFF7E2FF58
:10B578000390019A039B02F5E07253F82230019A76
:10B5880023F44031039B02F5E07243F82210019A3C
:10B59800039B02F5E07253F822109DF803301B0458
:10B5A800019A1943039B02F5E07243F8221000BF89
:10B5B80005B05DF804FB00B585B0019001AB1846F5
:10B5C800FFF7B8FF0390019A039B02F5E07253F866
:10B5D80022301B0C03F00303DBB2184605B05DF8FC
:10B5E80004FB82B00190019BD3F81035184602B0D5
:10B5F8007047000000B587B00390029101924FF0A8
:10B60800A0430493039A029B1344012B04D91249C3
:10B6180040F21630FBF7C0FB039B059311E0059B36
:10B628009B0018336B4453F8083C1846FFF7D9FFC2
:10B638000246019B1A60019B04330193059B013369
:10B648000593039A029B1344059A9A42E7D300BFD5
:10B6580000BF07B05DF804FBB412030084B001908A
:10B668000091009B0393019BDB080293019B03F06D
:10B67800070301930122019B02FA03F30399029A3B
:10B688000A4412781340184604B0704784B00190F9
:10B698000091009B0393019BDB080293019B03F03D
:10B6A80007030193039A029B13441B785AB20121A2
:10B6B800019B01FA03F35BB2134359B2039A029B4D
:10B6C8001344CAB21A7000BF04B0704782B0019028
:10B6D800044A019B1344303393F90030184602B0F2
:10B6E800704700BFDC2E002082B00190034A019B06
:10B6F80052F82330184602B0704700BFDC2E0020F5
:10B7080000B595B000231093002303934FF4807382
:10B71800ADF83A300123129300230F9321E0BDF8CE
:10B728003A301846FFF79AFE0346002B0ED01298BF
:10B73800FFF7D2FE0346002B08D0BDF83A30184672
:10B74800FFF7A1FE109A129B13431093129B5B0004
:10B758001293BDF83A300433ADF83A300F9B0133F9
:10B768000F930F9B072BDAD94FF4BE70FFF776FEC5
:10B778000346002B0DD04FF4BE70FFF784FE109BDC
:10B7880043F00043109303AB1A4601210020FFF752
:10B7980031FF109BDBB2002B29D001231293002329
:10B7A8000F9321E0129A109B1340002B16D00F988C
:10B7B800FFF79EFE0D900F98FFF7AAFE03468DF83F
:10B7C80033300F98FFF790FF0B900B9B002B05D0A1
:10B7D8009DF833200B9B11460D989847129B5B00F0
:10B7E80012930F9B01330F930F9B072BDAD9109BF2
:10B7F800002B80F2EE8000238DF84F300023029357
:10B80800002311930AE0119B9B0050336B444FF0C7
:10B81800FF3243F84C2C119B01331193119B002BE1
:10B82800F1D000238DF84F3000230F9378E06B4A56
:10B838000F9B1344503393F900308DF82B309DF84B
:10B848002B3023F0C0030993644A0F9B13445033F1
:10B8580093F90030B3F1FF3F5FD001AB1946099867
:10B86800FFF7FCFE0346002B57D09DF82B309B09B1
:10B878008DF823300998FFF729FF03461846FFF78C
:10B8880033FF0790079B002B03D19DF82330032B30
:10B8980043D19DF82330032B04D102AB19460998F4
:10B8A800FFF7F4FE0998FFF786FE03468DF81B3074
:10B8B80003AB19460998FFF7D1FE0590059B002BAD
:10B8C80003D09DF81B30022B06D0059B002B24D1FA
:10B8D8009DF81B30032B20D19DF82330032B13D167
:10B8E8009DF81B30022B01D1032300E002238DF8C1
:10B8F80013309DF8133019460998FFF72FFE9DF86D
:10B908004F3001338DF84F30079B002B05D09DF841
:10B918002320079B1146099898470F9B01330F93E3
:10B928000F9B032B83D99DF84F30002B4CD001235C
:10B938008DF84E306B461A4601210020FFF75AFE5B
:10B948000023119314E0119B9B0050336B4453F870
:10B95800502C119B9B0050336B4453F8443C9A4243
:10B9680003D000238DF84E3005E0119B013311936D
:10B97800119B002BE7D09DF84E30002B03D00023FD
:10B988008DF84F3020E0002311931AE0119B9B00A3
:10B9980050336B4453F8502C119B9B0050336B442D
:10B9A80043F8442C119B9B0050336B4453F8482CAC
:10B9B800119B9B0050336B4443F84C2C119B013373
:10B9C8001193119B002BE1D09DF84F30002B7FF491
:10B9D80028AF00BF15B05DF804FB00BFDC2E0020C7
:10B9E80082B003468DF807309DF80730044A0121DC
:10B9F80001FA03F3C2F8043500BF02B0704700BF74
:10BA080000F0014084B00346029101928DF80F3096
:10BA180008499DF80F30A233029A41F83320054AAD
:10BA28009DF80F30A233DB001344019A5A6000BF1F
:10BA380004B0704700F0014082B003468DF807302B
:10BA48009DF80730012202FA03F3184602B0704746
:10BA580000B583B003468DF807309DF807301846C7
:10BA6800FFF7EAFF0346C3F31003002B14BF0123BB
:10BA78000023DBB2184603B05DF804FB82B00190E6
:10BA8800019BB3F5003F34BF01230023DBB2184606
:10BA980002B0704700B583B003468DF807309DF8B3
:10BAA80007301846FFF7C8FF03461846FFF7E6FFBA
:10BAB8000346184603B05DF804FB000000B583B0E8
:10BAC80003468DF807309DF807301846FFF7B4FF96
