:020000021000EC
:1090000000600020759301005D9301005F930100F3
:10901000619301006393010065930100000000006B
:109020000000000000000000000000006793010045
:1090300069930100000000006B9301006D93010033
:1090400065BA01006F930100C1BE010095C2010025
:1090500059C301000000000049BD0100DDC6010048
:109060006F9301006F9301006F9301006F930100F4
:109070006F9301006F9301006F9301006F930100E4
:1090800099C60100219F01006F9301006F930100B9
:10909000BD9F01006F93010075E001006F93010017
:1090A0006F9301006F9301000000000000000000BA
:1090B0006F9301006F9301000000000000000000AA
:1090C00000000000000000000000000000000000A0
:1090D0000000000000000000000000000000000090
:1090E0000000000000000000000000000000000080
:1090F0000000000000000000000000000000000070
:10910000000000000000000000000000000000005F
:10911000000000000000000000000000000000004F
:10912000000000000000000000000000000000003F
:10913000000000000000000000000000000000002F
:10914000000000000000000000000000000000001F
:10915000000000000000000000000000000000000F
:1091600000000000000000000000000000000000FF
:1091700000000000000000000000000000000000EF
:1091800000000000000000000000000000000000DF
:1091900000000000000000000000000000000000CF
:1091A00000000000000000000000000000000000BF
:1091B00000000000000000000000000000000000AF
:1091C000000000000000000000000000000000009F
:1091D000000000000000000000000000000000008F
:1091E000000000000000000000000000000000007F
:1091F000000000000000000000000000000000006F
:10920000354936480A1A02D0072291438D4634491F
:1092100034480A1A06D00722914381F309880222B2
:1092200082F3148830483149314A00F044F831481B
:109230003149324A00F03FF831483249324A00F0B1
:109240003AF832483249334A00F035F83248334967
:10925000334A00F030F833483349344A00F02BF8F1
:1092600033483449344A00F026F83448344900225F
:1092700000F02CF833483449002200F027F8334836
:109280003349091A082902DB002202604160314A91
:1092900090471F481F49884205D00268043003B434
:1092A000904703BCF7E700208646EC4600200021EB
:1092B000294A9047FEE7884207D0521A05D0037822
:1092C00001300B700131013AF9D17047884202D068
:1092D00002700130FAE7704700600020005800205B
:1092E0000060002000600020D80602001425002045
:1092F00060250020C0930100C093010046F10100E9
:10930000D8060200142500201425002088F2010050
:1093100088F2010088F2010088F2010088F2010061
:1093200088F2010088F2010088F20100D6060200EE
:109330002407020060250020602500206025002011
:10934000D0330020D0330020D0330020D033002091
:10935000D03B00208B93010051C90100FEE7FEE7DE
:10936000FEE7FEE7FEE7FEE7FEE7FEE7FEE7FEE7D5
:10937000704700BF0C4880470C484FF007018843F6
:1093800085460B488047FFF73BBF0A480A490B4A0E
:10939000884207D0521A05D0037801300B70013192
:1093A000013AF9D17047000071930100006000207C
:1093B0004DB7010074F201000025002014250020A3
:1093C0007047000007B5044B0093044A402300F0A7
:1093D00032F803B05DF804FBE19301006125002041
:1093E0002DE9F84388461446B2B10F4B0F4E0325C2
:1093F000002743F00109224608EB0701002003F093
:1094000073FB0744241A48B933782BB14FF47A40E0
:10941000C847013D02D13570BDE8F88301233370A0
:10942000002CE8D1F8E700BF90F201006025002091
:10943000704703F089BBF0B595B01D461646084647
:109440000C4601F043FB1A9B0D93CDE908650025FE
:109450002B46082205A920460A958DF82C500C951C
:1094600001F050FB079B0293069B03939DF8143079
:109470008DF8115003F00302012A1DD1BDF814200C
:10948000059DC3F3C203C2F383168DF81030B200FA
:1094900008230EA9204601F035FBC5F3952508AB3E
:1094A0000093324602AB0EA9284600F06FFB20461F
:1094B00001F010FB15B0F0BD022AF8D1BDF816502E
:1094C000C3F3C203C5F389158DF810300827082DA2
:1094D0002E4628BF08263B4632460EA9204601F0FC
:1094E00011FBAD1B08AB02AA31460EA8374400F0B1
:1094F000B1FB002DEBD1DAE708B5FFF79AFF04487E
:10950000042100F0B3FA034B01225A7108BD00BFD9
:1095100064F20100142500200378024613F00400D1
:1095200006D003F00300012803D0022809D001204F
:1095300070470B6812880233C2F3831213440B6026
:1095400070470B685288023303EB92130B60EEE70F
:109550002DE9F04FDFF830A187B00F460023044615
:10956000861C0DF1070015468DF8073000F01CFF32
:10957000DAF800103960DAE90132134401335B1A7A
:109580000AF21C470AF583690AF21448B3421CD355
:109590000020002D73D004F00F039B0143F005035E
:1095A00063F30F00DAF80020DAF8083013400333D1
:1095B00032444AF823009DF80700CAF8002000F062
:1095C00017FF012007B0BDE8F08F0121384600F0F9
:1095D000ABFF484600F0C0FF404600F0BDFFDAF8A0
:1095E0000400DAF808B0029000EA0B0003300AEB3E
:1095F000800002A9FFF790FF029B50BB0BEA030219
:109600000AEB820203F1020CD2680392013303EAEF
:109610000B0B0AEB8B0B02F00302012ADBF80C1098
:10962000CDF808C023D0022A16D08346404600F069
:1096300096FF10B1029BCAF804305946384600F034
:1096400073FFDAE901231344DAF8002001339B1A8F
:109650009CE70BEA0300C9E7BDF80E30C3F389139A
:1096600003334FEA114B0CEB93030293DEE7BDF893
:109670000C30C3F383134FEA114B6344F5E7A405A1
:1096800044F006008EE700BF742600200B4B0C4808
:10969000FF2210B59A600022C3F81824C3E9002203
:1096A000C3F81424012283F8202401F0C8F90446E9
:1096B00010B9044801F046FA204610BD7426002077
:1096C000D0F10100CCF2010030B50A4C71B10A4A68
:1096D0000A49121BD20800239A4201D1002030BD52
:1096E00031F82350854202D00133F5E7034654F8A0
:1096F0003300F4E7E4F1010064F2010014250020D6
:10970000094B013903EBC000032909D8DFE801F058
:109710000A020406042070470079704740797047B8
:109720000020704702207047E4F10100034BD3E9A9
:109730000030C31A58425841704700BF74260020B9
:109740002DE9F04387B0FFF7F1FF0646002840F00F
:10975000FE80804CC4F81804BFF34F8F6368A5687F
:1097600002932B40033304EB830002A9FFF7D4FEDE
:10977000029B18B1D4F81824002A62D005EA03022B
:10978000991C013304EB82022B4004EB8303D26863
:10979000DB68049302F00303022B0392029163D16E
:1097A000BDF80E306C48C3F38917502FB84628BF58
:1097B0004FF0500808F1080168F38F13C1F3090155
:1097C000ADF80E3001F053F90646002800F0AA80EB
:1097D00001F07CF90023082203A9304601F088F942
:1097E000029925EA01020132B8EB820F4FEA8203A7
:1097F00033D95FFA88F863B32940DDB2A8EB0508D6
:1098000003315FFA88F9A846544D04EB810108231F
:109810004246304601F06CF93DB108F10803DBB275
:109820004A462946304601F063F9029B033703EBB1
:1098300097070297D4F81834002B4BD1D4F8105462
:109840005BE022689A428CD86260304607B0BDE87F
:10985000F08342491D469946D9E729400331082340
:10986000424604EB8101DDE7012B5BD1BDF80C30F2
:109870003948C3F38311062928BF062161F38913F0
:10988000023101F00F018900ADF80C3001F0EFF862
:109890000646002846D001F019F90023082203A942
:1098A000304601F025F90027BDF80C20C2F38312E1
:1098B000BB00974203F10803BCD202994A1C29401D
:1098C0000331029204EB81010422304601F010F9C9
:1098D0000137E9E7304601F0FDF8FFF727FF80F098
:1098E0000106F6B2B1E7EB685B7923B12B6831462C
:1098F0001B6828469847EB681D68002DF3D1304659
:1099000001F0E8F80DF107008DF8075000F04CFD6C
:10991000D4F818340BB9029B63609DF8070000F07F
:1099200067FDDAE7D4F8104454B90D4B0D480E49E1
:10993000C01AC008000440F0020000F063F8CCE751
:10994000236820469B689847E3681C68ECE700267C
:109950007BE700BF74260020D0F1010080260020A4
:10996000E4F101001CF20100B4F201002DE9F74F0F
:10997000224E04460F46924601A901221846D6F807
:1099800008909B46FFF7E4FD20B3019D4FF00008CF
:10999000AA1CD84508EB020126D11948002100F085
:1099A00094FD80F31000000440EA1440E4006B1CB6
:1099B00004F0380403EA090305EA090544F0010448
:1099C00006EB8303033544EA881444EA8724D8600D
:1099D00046F8254096F820341BB1FFF7B1FE002869
:1099E000FBD103B0BDE8F08F09EA010106EB81016C
:1099F0005AF82830CB6008F10108CAE77426002025
:109A0000902A002000231A46FFF7B0BF07B50123B4
:109A1000019201AAFFF7AAFF03B05DF804FB07B5A6
:109A2000CDE9002302236A46FFF7A0FF03B05DF8EB
:109A300004FB1FB5CDE90123069B039301AA032371
:109A4000FFF794FF05B05DF804FB7FB5CDE9012376
:109A5000089B0393099B04930A9B059301AA052382
:109A6000FFF784FF07B05DF804FB000030B50F4C32
:109A7000D4F8102403460020114631B9D968087182
:109A80004AB9C4F810340A6030BDC9680D798542FE
:109A900006D00968F1E7D26814680C601360F3E738
:109AA00001300A28E8D14FF0FF30EDE7742600209E
:109AB00038B5084B0125D3F8104483F8205404B975
:109AC00038BDE3685D71236820465B689847E368AA
:109AD0001C68F4E774260020C38873B504460D465D
:109AE00033B1144A00921449144A284600F09AFDF2
:109AF000217A05291CD0637A4BB1A088FFF700FEBC
:109B00000F4B104953F82020284600F08BFD227A95
:109B10000D4BA08853F822600021FFF7D5FD0B49BB
:109B200003463246284602B0BDE8704000F07ABDD8
:109B300002B070BDF8F20100E0F20100D8F20100BD
:109B40006CF30100FDF2010090F3010000F301004D
:109B500010B5037A052B0C460FD0437A23B1084A7F
:109B60000849204600F05EFD0749204600F05AFDF6
:109B70002046BDE8104000F04ABD002AF8D0F3E7C7
:109B8000F8F20100FDF20100F90202002DE9F043B4
:109B900085B01F460C9D002395F80C902B7306464C
:109BA0000C46904629463846FFF796FFB8F1060F57
:109BB00009D8DFE808F00412181F283340003146A6
:109BC000284600F02FFD002229463846FFF7C0FF47
:109BD00085F80C9005B0BDE8F08322683146284630
:109BE00000F020FDEFE7D4E900233146284600F0DD
:109BF00019FDE8E7A36800933146D4E9002328461D
:109C000000F010FDDFE7E3680193A368009331469D
:109C1000D4E90023284600F005FDD4E72369029328
:109C2000E3680193A36800933146D4E900232846F2
:109C300000F0F8FCC7E76369039323690293E368C4
:109C40000193A36800933146D4E90023284600F02D
:109C5000E9FCB8E708292DE9F74F80460E4617467C
:109C60001C463CD800251B7B2573214610460193DA
:109C7000FFF732FFDFF880A0DFF880B0AE4231D9C5
:109C800018F805205946204600F0CCFC0135082D77
:109C9000F4D11B49DFF86CA0DFF86CB0204600F06F
:109CA000C1FC4FF000094E4521D918F809507E2D0E
:109CB00003D8284605F094F900B92E252A465946BE
:109CC000204600F0AFFC09F10109B9F1080FEAD113
:109CD000012221463846FFF73BFF019B237303B067
:109CE000BDE8F08F5146204600F09CFCCEE751467F
:109CF000204600F097FCE6E710F301000AF30100AC
:109D000014F3010012F3010016F3010082B00123E5
:109D10008DF807309DF80730114B1860596044F2F8
:109D2000010188429A6012D044F20201884206D1B1
:109D3000DA60DA6812889A61DA685268DA6172B6B3
:109D40009DF80730002BFBD162B602B070471A6154
:109D50001A6992685A611A6912689A611A69ECE77D
:109D6000302B002000B583B002900091019244F2A4
:109D7000010071466A4600F003F803B000BD000020
:109D80002DE9FF4106460F46154672B6FFF790FED5
:109D9000FFF7D6FC0028FBD1244B254CE41AE4083D
:109DA00044F2010324049E4244F001042BD00BD85A
:109DB000012E14D041F201039E4222D01D493A46A1
:109DC0002046FFF723FE0EE044F202039E42F5D147
:109DD0002B886A6818492046FFF721FE03E01749DF
:109DE0002046FFF70FFE164BD3F8F030DB0700D507
:109DF00000BE2A463946304604B0BDE8F041FFF7C0
:109E000085BF1049ECE7D5F80880404600F0D8FE41
:109E10002A68029701926A680B49009203464246FB
:109E20002046FFF712FE0949DAE700BFE4F101001E
:109E30001CF2010037F40100E3F30100A4F3010078
:109E400000ED00E0C1F30100FDF3010023F4010087
:109E5000094B5A7899780132D2B2914208BF002258
:109E6000197891421FBF02705878182202FB003007
:109E700014BF043000207047502B002073B50546F6
:109E800000240DF107000E468DF8074000F08CFA13
:109E90000DF10600FFF7DCFF90B10670094B9DF84D
:109EA000062045605A709DF8070000F0A1FA24B919
:109EB000054B4FF48012C3F80021204602B070BD5C
:109EC0000424F0E7502B002000E100E0024B4FF4A7
:109ED0003C6043F00103184750F4010038B50C4BC7
:109EE0000C4C4FF40032C3F8802001254FF480332E
:109EF000C4F84833C4F808336560FFF7E7FF064B42
:109F0000A56000241C60FFF7E1FF044B1C7038BD06
:109F100000E100E0001001406C2C00205D2C0020CE
:109F2000F8B51F4B1F491B680025C1F84051C1F807
:109F30004451C1F84851C1F84C51C1F80051C1F821
:109F400004514BB3D1F8044517490968641A24F049
:109F50007F442F461A68A24209D8A41A15441A7CD5
:109F6000DE691AB1D3E905201F749047AEB90F4AD4
:109F70000F4B11781B788B4205D10133DBB2022BDA
:109F800008BF0023137012780A4B43F822500A4B83
:109F90004FF48012C3F80021F8BD3346DAE700BF62
:109FA000702C0020001001406C2C0020692C002037
:109FB000682C0020602C002000E100E02DE9F04F2B
:109FC000A14AA24913780978A14D994285B03CD0A5
:109FD0000133DBB2022B08BF002313709D491278B6
:109FE0009D4B0F6853F822003B1823F07F4300225B
:109FF0000B602B6816461446944613B942B12B6089
:10A0000006E0196881420ED902B12B60091A196065
:10A0100001272B68DFF844A201934FF00008BEB976
:10A02000DFF83CB260E0401A0C44D968D3F81CE079
:10A03000C3F800C031B13A1922F07F42C3E90121CF
:10A04000DE611E4673460122D7E700263746E0E769
:10A050003446F6697F4B60681B68DFF808C2A16868
:10A06000C21A22F07F42624500F2A6800A442260B2
:10A07000012222742A680023C4E90133E361002A23
:10A0800040F0A3802C60CAE79BF802105A1CD2B2A1
:10A0900091428BF8002004BF00228BF80020182288
:10A0A00002FB03B32A6819799C68022975D0032939
:10A0B0007FD0012918D1207CB0B9D3E90312A26066
:10A0C0005A69E2609A69684BA2611A78002A18BF3F
:10A0D00001466160BEE78C4200F094808946C96900
:10A0E0000029F8D1002323749BF800309BF801204D
:10A0F0009A42C9D12B68B8F1000F04D1019A9A4253
:10A1000001D1002F43D0002B79D0D3F800A0534DBC
:10A11000504BD5F804751C68DFF850813E1B98F849
:10A12000003026F07F4603369BB94FF48033C5F8E4
:10A130004433C5F804334E4B4FF400324FF001095D
:10A14000C3F880211A60C5F80090FFF7BFFE88F8B9
:10A150000090B2452CBF5444A41924F07F44C5F8A4
:10A160004045D5F80435DB1B23F07F43E41B033364
:10A1700024F07F44A3420AD9D5F80435C5F8403508
:10A18000FFF7A4FE3A4B4FF40032C3F80021364BE0
:10A1900000221A7005B0BDE8F08F114691469FE786
:10A1A0001174D2690123002AFAD1002B9CD02A60B5
:10A1B0009AE700231946F6E71B1A23F07F438B42E8
:10A1C00034BFCB1A0023236052E7216813689942F9
:10A1D00013D85B1A1360E26154E7091AD8691A466A
:10A1E00038B1034618688842F7D3401A18601846F9
:10A1F00013462160E061DC6111E71346F2E7FFF7E7
:10A200006DFEC4E74C4511D1D3692B6073B9DFF8FB
:10A2100044E00120CDE90212CAF80800CEF800306F
:10A22000114B1870FFF752FEDDE902120B68C96985
:10A23000C9F81C1011B1086803440B602B689342E5
:10A2400018BF4FF001084DE7682C0020692C002052
:10A25000702C00206C2C0020602C0020001001408D
:10A26000502B0020FEFF7F005C2C00205D2C002086
:10A2700000E100E008B5FFF731FE104B00200B2293
:10A2800018809A700E4B18600E4B18700E4B187099
:10A290000E4B4FF48012C021C3F8802183F81413B1
:10A2A0001A6002F18042A2F56F22C2F8080583F815
:10A2B0001113074BD2F804251A6008BD502B00205B
:10A2C000702C0020682C0020692C002000E100E0A8
:10A2D0006C2C0020074B9B784BB132B128B103683E
:10A2E000187C20B959745A617047072070470820BC
:10A2F000704700BF502B00202DE9F743DFF87C802A
:10A3000098F8023005460E461746ABB3A0B30429B1
:10A3100030D9436983B3437C0024012B0DF107003E
:10A320000CBF8946A1468DF8074000F03DF80DF1BD
:10A330000600FFF78DFDD8B101230370104B456077
:10A34000D3F80435C0E90497C0E902369DF8063019
:10A3500088F801309DF8070000F04AF824B9094B4D
:10A360004FF48012C3F80021204603B0BDE8F0830B
:10A370000424EFE70724F7E70824F5E7502B002033
:10A380000010014000E100E0064A92783AB130B195
:10A39000426922B1002202740221FFF76FBD08203A
:10A3A000704700BF502B002070B5EFF3108672B6D7
:10A3B0000C4A946801239CB993600B4B0B4DD3F866
:10A3C000801029401160C3F88050D3F88410516088
:10A3D0004FF0FF32C3F88420047006B962B670BD36
:10A3E0000370FAE7742C002000E100E0FC06FFBDDA
:10A3F000084B9A6810B55AB150B9EFF3108172B694
:10A40000054A1C6814605C685460986001B962B6C3
:10A4100010BD00BF742C002000E100E037B550E80B
:10A42000023F1FFAA3F5C488A54202BFBFF32F8FD6
:10A4300000220DE0C48925448489A54228BF2D1B34
:10A44000C3EA054540E80254002CE8D14FF0010270
:10A450008DF803200193019A0A609DF8031001F022
:10A46000FF0321B1006800EB124003B030BD184675
:10A47000FBE70A884B889A4209D150E8022FC2EACA
:10A48000224240E80223002BF7D101207047002030
:10A49000704701F01F024B090121914000EB83003E
:10A4A00000F01EB801F01F0301229A404B0900EB97
:10A4B0008300D14300F02CB84B0901F01F0150F884
:10A4C0002300C84000F00100704710B5034653E870
:10A4D000000F0A4643E8002494F0000FF7D110BDA6
:10A4E00010B5034653E8002F42EA010043E8000498
:10A4F00094F0000FF6D110BD10B5034653E8000FDD
:10A5000000EA010243E8002494F0000FF6D110BDE8
:10A5100010B5034653E8002F02EA010043E80004A7
:10A5200094F0000FF6D110BD10B5034653E8002F8C
:10A5300002EB010043E8000494F0000FF6D110BDD7
:10A5400010B5034653E8002FA2EB010043E80004D6
:10A5500094F0000FF6D110BD0121FFF7C1BF00211B
:10A56000FFF7CABF10B590B1D0E9012301689B1A6B
:10A57000DBB20A60013BDBB2FF2B026802D1002094
:10A58000107110BD11684C1C14600B70F2E70E20A6
:10A59000F7E737B5054600240DF107008DF80740B1
:10A5A000FFF702FF2A686B68116899420ED9481EAE
:10A5B000106011F8013CEC68298A01FB0344AB6888
:10A5C00011791B1ADBB2994238BF13719DF807004D
:10A5D000FFF70EFF204603B030BD37B50546002318
:10A5E0000DF107000C468DF80730FFF7DDFE2A68F5
:10A5F0001368591C1160E968641A298AB4FBF1F4E4
:10A600001C709DF80700FFF7F3FE03B030BD8268B1
:10A6100010B504462AB143690168006998470023D0
:10A62000A36010BD0EB403B5039921B104AB01AA18
:10A63000019300F077F802B05DF804EB03B07047C7
:10A640000A2938B504460D4602D10D21FFF7F8FF5F
:10A65000A3682268591CA160D554D4E901329A42FA
:10A6600004D32046BDE83840FFF7D1BF38BD000015
:10A670002DE9F84F9846DDE90A43154682460F4614
:10A680000A464FF00109AA420FD2C14538BFC14660
:10A6900013F0010B01D16CB900240126B8F1010FB0
:10A6A0001BD908F1FF386E43F8E709F10109B2FB45
:10A6B000F5F2E8E79B070ED5B8F1000F0CBF302686
:10A6C0002026A145E9D2013C31465046FFF7B8FFAC
:10A6D000002CF6D1E0E72026F3E7B7FBF6F39D4226
:10A6E000E1D9DFF83C80B7FBF6F3504618F80310C9
:10A6F00006FB1377FFF7A4FF3346AB42B6FBF5F634
:10A70000F1D2BBF1000F02D00CB1A14501D3BDE8DD
:10A71000F88F20215046013CFFF792FFF4E700BF7D
:10A7200056F401002DE9F74F0546174688460029E3
:10A7300000F03E8118F8011B49B92B7B002B00F07B
:10A740003781284603B0BDE8F04FFFF760BF2529E9
:10A7500040F0B780002698F800302D2B424608F1D3
:10A76000010823D0302B24D02B2B25D000242A2BDA
:10A7700002F1010123D13B681A1D1B683A601C4499
:10A780000A4613782E2B26D101324FF0000A1046CC
:10A7900010F8011BA1F1300CBCF1090F1DD80A23E0
:10A7A00003FB0A13A3F1300A0246F0E746F0010664
:10A7B000D1E746F00206CEE746F00406CBE711F8F3
:10A7C000013CA3F130000928DBD80A2202FB043443
:10A7D000303C0A46CBE74FF0000A12F8011B01F0AB
:10A7E000FB0068289046F8D0782909D86F290CD842
:10A7F000632962D022D8252963D0582900F08880A7
:10A8000098F80030002B95D197E770390829F7D8D0
:10A8100001A353F821F000BF8BA9010001A801009A
:10A8200001A8010021A9010001A80100FFA8010061
:10A8300001A8010001A8010011A90100642901D0AB
:10A840006929DDD13A68D2F80090111D89EAE972D0
:10A850003960A2EBE9724FF0010B092A35DCD345D0
:10A8600038BFD3462CB1B9F1000F01DB720700D518
:10A87000013CB30702D5BAF1000F03D0F00701D4B1
:10A880004CBB0024B9F1000F2DDAC9F100092D21CC
:10A890002846FFF7D5FE06F00302022A04D1BAF1DA
:10A8A000000F01D11CBB0024CDE9004653460A220B
:10A8B00049462846FFF7DCFEA2E73B681A1D1978D7
:10A8C0003A602846FFF7BCFE9AE70A230BF1010B1A
:10A8D000B2FBF3F2C1E7A345D4D220212846013CC4
:10A8E000FFF7AEFECCE77107D5D52B21D0E7A34506
:10A8F000DAD230212846013CFFF7A2FED2E73968C0
:10A90000CDE900460A1D3A6053460A220968D0E79D
:10A9100039680A1D3A60CDE9004653461022F5E732
:10A920003B681A1D3A6016F00106D3F8009024D156
:10A93000B9F1000F03D0484604F0D5FB0646B442F7
:10A940001DD809F1FF3919F8011F00293FF458AF4C
:10A950002846FFF775FEF6E728460136FFF770FE3A
:10A9600019F806100029F7D1A642BFF449AF2021FB
:10A970002846013CFFF764FEF6E70026F0E72021B9
:10A980002846013CFFF75CFED9E73B681A1D3A6098
:10A99000302128461C68FFF753FE78212846FFF730
:10A9A0004FFE00220823CDE900322146102280E725
:10A9B00003B0BDE8F08F00BF2DE9F84FB0F806A056
:10A9C0004579D2F800B09DF828900AFB05F5043DC2
:10A9D00088460BEB0301A94203F1040488BFA5EBF1
:10A9E000030BB4FBFAF607460AFB1644C2F800B0A4
:10A9F0004EB9AAEB04055D4528BF5D46BBF1000FCB
:10AA000004D1BDE8F88F3F68013EF1E7043408EB5C
:10AA100006003C442A46B9F1000F0DD02146ABEBAD
:10AA2000050B04F0E2FADA452E443F6855464FF034
:10AA3000000428BF5D46E1E701462046EFE7FFF747
:10AA400091BDF8B546790146721E05460023934232
:10AA50002D6803D30024A64202D8F8BD0133F6E7DF
:10AA60000F682846FFF7B9FD01343946F3E72DE9B1
:10AA7000F843068ACD1C0746FFF78BFD043E35449C
:10AA80000446B5FBF6F5F0B14FF48073EDB2838068
:10AA9000C680013D076081464FF00008A84512D2EC
:10AAA0003846FFF776FD064648B163790133637196
:10AAB00008F10108C9F8000007608146EEE720466A
:10AAC000FFF7BFFF34462046BDE8F883012104307C
:10AAD000FFF72ABD10B5012104460430FFF730FD11
:10AAE000C0B220B92046BDE81040FFF7AABF10BD94
:10AAF0001FB503920022009203AAFFF75DFF05B085
:10AB00005DF804FB1FB503920122009203AAFFF730
:10AB100053FF05B05DF804FB064B10B500241C7014
:10AB2000054B1C60BFF35F8F0449054800F013F824
:10AB3000204610BD882C00208C2C002070F40100D1
:10AB4000802C0020836800225A60C3E904229A60A6
:10AB5000DA601A6070470B684A684360934208BF26
:10AB60000023016008BF43607047436843B1026837
:10AB7000916852680B449342436004BF00234360D2
:10AB80007047000010B50D49A1F59472914201D8AB
:10AB900000200FE08C1AE30F03EBE4035B1002EBE1
:10ABA000C30452F83330834205D802D204F10802BC
:10ABB000ECE7606810BD2146E8E700BF74F90100CA
:10ABC00008B5FFF7DFFF024B002808BF184608BD95
:10ABD00036F8010070B5064E0546002456F8043BD1
:10ABE0000BB1284698470134042CF7D170BD00BF43
:10ABF0009C2C00204388033300EB8303994209D344
:10AC000082884FF6FF739A4206D00088B0FA80F02F
:10AC10004009704702207047012070470B4A0C49D9
:10AC20005388142000FB0311CB6833B90420496812
:10AC300010700122074800F033BC07490523137048
:10AC400002238B80012209680023F3E7B42C002043
:10AC5000CC2C002000250020082D002007B5002363
:10AC600005490093054A09680548082300F07EFB62
:10AC700003B05DF804FB00BF082D002080F901003F
:10AC80000025002007B5002301460093034A04482D
:10AC9000082300F06BFB03B05DF804FB78F90100BA
:10ACA0000025002013B500230C4600930146084AF6
:10ACB0000848042300F05AFB38B9074B142101FB64
:10ACC000043101230B7402B010BD0E20FBE700BF5E
:10ACD00074F9010000250020CC2C002037B50A486B
:10ACE0000A4B42689C881968538803250333057012
:10ACF0009BB2002000909B0001EB8401044800F00F
:10AD000035FB03B030BD00BFB42C0020082D00205F
:10AD10000025002038B5144B14220D4602FB0033E9
:10AD20005C682B6804F58051A3B15C88033403EBA5
:10AD300084048C4215D22368013312D02046FFF7D9
:10AD400059FF012808D002280BD00028F1D12C602F
:10AD5000012038BD0834ECE76388033304EB830437
:10AD6000E7E70020F5E700BFCC2C0020426873B570
:10AD700004460D4662B3234BD9688A4228D31B6927
:10AD80009A4225D812F0030322D11F49008909896C
:10AD900088421DD120689168884219D11B484168BA
:10ADA0008A4203D901F580518A420DD381698A42D2
:10ADB0000CD901F580518A4208D201222A80B3FAC7
:10ADC00083F0400902B070BD1A46F7E70A23F6E7A0
:10ADD00000262E800196288801A9FFF79BFF30B935
:10ADE0002B8801339BB2012B2B80F3D9EAE7019B1F
:10ADF000226899689142EED16360034B1B892381DD
:10AE0000E0E700BF00250020B42C0020CC2C00205F
:10AE10002DE9F8431C461C4B1B7806460F46154689
:10AE20006BB372B36CB3DFF864804FF01409A3887E
:10AE3000012B01D90A2020E009FB03F318F80330A5
:10AE40002BB9A0882146FFF765FF20B92060A388B1
:10AE50000133A380EBE723681EB1998832889142C1
:10AE6000EFD11FB119883A889142EAD19A68C5E9B1
:10AE70000023074B1B892B810020BDE8F8830220AB
:10AE8000FBE70520F9E700BFAC2C0020CC2C00200C
:10AE9000B42C002008B5074B5888191DFFF73AFF5E
:10AEA00018B1BDE80840FFF719BFBDE80840FFF73B
:10AEB000B5BE00BFB42C00202DE9F0479E4FDFF84F
:10AEC0007C8288B006463B6823B99D484146FFF71F
:10AED000A5FA38603D6829784B1E052B07D8DFE8B6
:10AEE00013F01F0076007600060106015C010F24B6
:10AEF0001422002103A804F0A1F841F61D539C423E
:10AF000008BF00243B6804941A78023A042A00F22D
:10AF1000F981DFE812F0DA01E601080210021702F7
:10AF200026B1884B00225A600124E1E72B79032BDC
:10AF30001CD8DFE803F014022934834A1378022B6B
:10AF400019D0137D022B4FF0010316D114214B436E
:10AF5000D1180020D0544868FFF794FE03E0012385
:10AF60002B71FFF77BFE002800F0BC80754B0022A0
:10AF70005A600E24BCE70023E8E7724A13700023EE
:10AF8000536041F61D54B3E7704971480023022213
:10AF90002B718A800968012200F082FAE3E76B4C8A
:10AFA00000262E712068FFF76DFE6A4B66495B88AC
:10AFB000256814225343CA18CE54D2F804C05560F1
:10AFC000A58815810222C4F800C0A280CBE7B5F89D
:10AFD00014A0AA7DDFF87091AEB1022AEB8806D9E1
:10AFE000142101FB0A91DA1C088902440A81142207
:10AFF00002FB0A99C3F57F43B9F80A20FD331344D5
:10B00000A9F80A3090E7142303FB0A9318895C68B7
:10B0100004EB8004062A68D8DFE802F0274D3543A8
:10B020001D59040041F61D54AA7DEB88022A06D959
:10B03000142101FB0A91DA1C088902440A811422B6
:10B0400002FB0A99C3F57F43B9F80A20FD33134484
:10B05000A9F80A304CE74048404900234360AB69F7
:10B060000360FFF783FE002859D00223AB7500234D
:10B0700000930423EA182146354800F077F90028A8
:10B0800030D00E24D0E72B69002B14BF03230123FB
:10B09000AB750023009305F10C02042304F10801B1
:10B0A000EAE70123AB750022EB8800922A699B0036
:10B0B00004F10C01E0E703290CBF05230623AB755F
:10B0C00000230093042305F10802E118D4E70623C6
:10B0D000AB75224B1988204B5868FFF7E3FD0446F7
:10B0E0000028A1D108B0BDE8F0870F249CE7002E0E
:10B0F0007FF41AAF2B79012B32D0022B3FF441AFF2
:10B10000002B7FF4F4AE02232B710DF10A01EB68E2
:10B11000039303A8CDE90466FFF728FE08B90A24C3
:10B12000E6E60498BDF80A108388EB8003882B813B
:10B13000FFF7B8FD044626E0C82C0020C42C0020F0
:10B14000F42C0020AC2C0020CC2C0020082D00205A
:10B1500000250020B42C0020902C0020102D002071
:10B16000DFF8E89103AA4B463146A81DFFF750FED1
:10B17000044660B9B9F804100498FFF793FD04463B
:10B180000A2C3FF4FEAE002C7FF4B2AEAAE70822F0
:10B190003146484603F052FFF2E7002E7FF4C4AE7A
:10B1A0006B4B1A7BB2B11E731A78013A062A3FF62E
:10B1B0009EAE01A151F822F05FB2010085B20100FC
:10B1C000A3B20100A9B20100EFAE0100AFB20100CD
:10B1D000C1B201001A78072AE6D801A151F822F07D
:10B1E00001B20100A9B10100A9B1010027B201001B
:10B1F0003BB201005BB201005BB2010023B201006F
:10B200001A89544901321A8100225A801A730A7825
:10B21000B2FA82F252099A720A7DB2FA82F25209A5
:10B22000DA72012207E04C4958688A884088033264
:10B2300002448A8002221A70B6E75C88454A464971
:10B24000142505FB04220868546850608888108122
:10B2500002228A800C600622EDE70722EBE79A7A49
:10B2600032B9DA7A8AB900221A705A805A6088E6AE
:10B27000384900229A72CA68002AF2D1097C002952
:10B28000EFD05A80FFF706FE54E70022DA72314A07
:10B29000116A0029E7D192F82420002AE3D0012284
:10B2A000EFE7FFF71BFD45E7FFF7B8FC42E75A88D9
:10B2B000284B142101FB02335868FFF7E3FC39E700
:10B2C00000225A60FFF7CAFC34E701228DF80C20F7
:10B2D0001A89ADF818209A88DB68ADF81A20059312
:10B2E00010E002228DF80C201A89ADF818209A88F7
:10B2F000ADF81A20DA689B7D05929A1F534253419C
:10B300008DF81C3003A8FFF765FC00264146134862
:10B310003E60FFF7AEF812480121FFF711F900284F
:10B320007FF4D1ADDEE603228DF80C20DA88ADF88B
:10B3300018201A89D0E704228DF80C20DB88ADF89C
:10B340001830DFE705238DF80C30DBE7142D0020E3
:10B35000B42C0020CC2C0020082D0020F42C002040
:10B36000042D00204068FFF7A7BD00002DE9F7433A
:10B37000DDF8288088B93E4B3E483F4AC01AC008D5
:10B380000E243E4B009400043D4940F00100FEF7BE
:10B3900050FB204603B0BDE8F0834AB9344B354832
:10B3A000384AC01AC0080E24344B00940004EBE75E
:10B3B000D0F800E0BEF1000F09D12D4B2D48324AE4
:10B3C000C01AC00808242D4B00940004DCE74BB9D8
:10B3D000274B28482D4AC01AC0080924274B00943F
:10B3E0000004D1E74768D7F80490B3FBF9F709FBED
:10B3F00017374FB11E4B1F48254AC01AC0080924F1
:10B400001E4B00940004BFE78F0709D0184B194862
:10B41000204AC01AC0081024184B00940004B3E757
:10B4200012F0030F09D0124B12481B4AC01AC00871
:10B430001024124B00940004A6E7C768B9420DD34C
:10B4400005694C1E1C44AC4208D8CDF82880DEF8B3
:10B450000C40A44603B0BDE8F0436047044B0548E8
:10B460000E4AC01AC0081024044B009400048BE755
:10B47000E4F101003CF2010088F9010031FB010018
:10B480008DF901000AFA0100B6F90100C9F90100BD
:10B4900010FA01003AFA010052FA010075FA0100AF
:10B4A000F7B580B92A4B2B482B4AC01AC0080E2486
:10B4B0002A4B009400042A4940F00100FEF7B9FA33
:10B4C000204603B0F0BDD0F800C0BCF1000F09D198
:10B4D0001F4B2048234AC01AC00808241F4B009461
:10B4E0000004E8E74AB91A4B1A481F4AC01AC008B4
:10B4F00009241A4B00940004DDE74768D7F800E000
:10B500000EF1FF370F4209D0114B1248174AC01AEB
:10B51000C0081024114B00940004CCE7C768B9425E
:10B520000CD305694C1E0EFB0244AC4206D8DCF875
:10B530001040A44603B0BDE8F0406047044B054806
:10B540000B4AC01AC0081024044B00940004B2E750
:10B55000E4F101003CF2010088F901001EFB01004A
:10B560008DF90100B6F90100C9F901009CFA01004A
:10B57000C2FA010029DF704728DF704770B5036801
:10B580009E6886B004460D466EB1142200216846BE
:10B5900003F054FDA3680593237901952BB1012B8A
:10B5A0000DD06846B04706B070BD01238DF800305D
:10B5B00023690293E368039363690493F1E7022329
:10B5C0008DF80030E3681B030293F5E7034B187A0C
:10B5D0000122B0FA80F05A74400970472C2D0020E7
:10B5E00038B5234D234C2B7A3BB923492348FEF72A
:10B5F00015FF206008B9686038BD022324682B72EB
:10B60000237973B1012B24D020460321FFF7B6FF25
:10B6100000232B726B6018491848BDE83840FEF7CC
:10B6200028BFD4E90523D21AB2F5805FD4E903100C
:10B6300028BF4FF480529208012A38BF01221944D2
:10B640001844FFF797FF50B11128DDD101232B7269
:10B65000D2E7D4E903031844FFF78EFFF3E72B7C0E
:10B66000002BC9D1BDE83840022000F009B800BF66
:10B670002C2D0020442D0020402D00201C2D0020CA
:10B6800038B5234C237A002B41D0022B09D1032853
:10B6900030D0204B00221B68E2601A793AB1012AAF
:10B6A00022D0637C7BBBBDE83840FFF799BFD3E96C
:10B6B00005128D1AB5F5805F94BF521902F58052BC
:10B6C0009A619142EDD102284FF0000308BF19465C
:10B6D0002372104B18BF0D211868FFF74FFF0E495A
:10B6E0000E48FEF7C6FEDCE71A6901321A615B6993
:10B6F0009A42E7E7E3680133082B01D8E360D0E71B
:10B700000023E360DFE7BDE8384002F089BC38BDC4
:10B710002C2D0020442D0020402D00201C2D002029
:10B72000831E012B01D8FFF7ABBF704700F0FD036C
:10B73000012B08D1044B00225A74421E5042504142
:10B740001874FFF74DBF70472C2D00204FF0805329
:10B750004FF08041D3F84422C2F34232C1F83C2575
:10B760000022C1F80C21C1F81021C1F83825554A32
:10B77000D3F80404C2F82005D3F80804C2F824055D
:10B78000D3F80C04C2F82805D3F81004C2F82C052D
:10B79000D3F81404C2F83005D3F81804C2F83405FD
:10B7A000D3F81C04C2F84005D3F82004C2F84405BD
:10B7B000D3F82404C2F84805D3F82804C2F84C058D
:10B7C000D3F82C04C2F85005D3F83004C2F854055D
:10B7D000D3F83404C2F86005D3F83804C2F864051D
:10B7E000D3F83C04C2F86805D3F84004C2F86C05ED
:10B7F000D3F84404C2F87005D3F83021082A11D1D7
:10B80000D3F8342172B9304AFB20C2F81805D1F8B8
:10B81000E42ED3F8583222F00F0203F00F03134343
:10B82000C1F8E43E4FF08053D3F858224FF08043E4
:10B8300002F04F02C3F8E42ED3F80024D20744BF2D
:10B840006FF00102C3F800244FF01023D3F8002258
:10B85000002A03DBD3F80432002B2EDA1B4B012223
:10B86000C3F80425D3F80024002AFBD04FF010229F
:10B870001221C2F80012D3F80024002AFBD04FF0A6
:10B8800010231222C3F80422104BD3F80024002AFC
:10B89000FBD00022C3F80425D3F80024002AFBD0F3
:10B8A000BFF34F8F0A490B4BCA6802F4E06213439F
:10B8B000CB60BFF34F8F00BFFDE7074B074A1A600D
:10B8C000704700BF00C0004000F0004000E00140B1
:10B8D00000ED00E00400FA051C2500200090D003D4
:10B8E00038B5074C051E04F1080318BF1C46236831
:10B8F0002BB11A6822605B6828469847F7E738BD85
:10B90000502D002020B9054B01225A70FFF7E8BFE7
:10B91000012802D1014A9070F8E77047482D0020B5
:10B9200020B9034B01225A70FFF7DABF704700BFFE
:10B93000482D002038B50B4C237883B90A48636042
:10B94000A3602361E36000F063F8054602F078FB32
:10B9500008B900F06BF801232370284638BD85250F
:10B96000FBE700BF482D002005B9010037B50B4C9F
:10B9700000230DF107008DF80730FEF715FDE36891
:10B98000013BE360E56815B900F062F8A5709DF829
:10B990000700FEF72DFD03B030BD00BF482D00208D
:10B9A000012813B508D003281CD018B9114B012267
:10B9B000C3F8802002B010BD0F4C00230DF107002A
:10B9C0008DF80730FEF7F0FC23780BB9FFF7B2FFD4
:10B9D000E3689DF807000133E3600123A370FEF7DD
:10B9E00007FDE7E700F022F802B0BDE81040FFF7DE
:10B9F000BDBF00BF00E100E0482D002000F1804005
:10BA0000002382B0036003680193019B02B070477A
:10BA1000054B0246187920B91A60012258711A7133
:10BA200070478520704700BF5C2D0020074B1A68C7
:10BA3000D2075FBFC02283F8002301221A604FF0B3
:10BA400080430022C3F81825704700BF00E100E0E2
:10BA50004FF080430122DA60D3F81824D203FBD4DC
:10BA6000704700004FF0804210B5D2F8003153B15A
:10BA70004FF48070FFF7C2FF0123C2F808331C4B5C
:10BA800000201B6898474FF08042D2F8043153B130
:10BA90004FF48270FFF7B2FF0223C2F80833144B51
:10BAA00001201B6898474FF08042D2F8103153B103
:10BAB0004FF48870FFF7A2FF1023C2F808330C4B35
:10BAC00002201B6898474FF08042D2F80C3173B1C6
:10BAD0004FF48670FFF792FF0823C2F80833044B37
:10BAE00000225A71BDE810401B680320184710BDA2
:10BAF0005C2D002000F1804000F5C040002382B0A2
:10BB0000036003680193019B02B07047800000F15D
:10BB1000A040D0F8002722F44032C0F80027D0F827
:10BB2000003743EA0143C0F800377047C2080123D9
:10BB300000F0070003FA00F08B5C1843885470474C
:10BB4000054B4FF0FF32072843F8202084BFC01870
:10BB500080F84820704700BF642D002010B5174CB6
:10BB600094F8583043BB04F130032021FF220139FF
:10BB700011F0FF0103F8012BF9D1C8B20131FFF731
:10BB8000DFFF0C29F9D104220D48002103F056FAF9
:10BB90000C4BC02283F8062340221A604FF4BE707B
:10BBA000FFF7A8FF084B4FF00042C3F8042301231E
:10BBB00084F85830002010BD0820FCE7642D0020D8
:10BBC000B82D002000E100E0006000402DE9F041C8
:10BBD000DFF8E08008EB0003054693F93030002BD6
:10BBE0000F4664DA8B78C3F34003002B0BBF0824A5
:10BBF00000240C2108218C4202D10420BDE8F081F0
:10BC000058F8240001303DD108EB050166B248F830
:10BC1000242081F830601BB908EB040383F84850F6
:10BC2000BB785A070ED4D9072ED5AB0003F1A04339
:10BC3000D3F8002722F00202C3F800271E49284645
:10BC4000FFF774FFBB783A7813F0020325D0A40005
:10BC500004F1804404F5C0442D02D4F8103523F4D7
:10BC6000473323F44073C4F810351204D4F8103568
:10BC700005F4F85502F4403215431D43C4F810553D
:10BC80000020BBE70134B6E77A7805F5E0734FF0A2
:10BC9000A041920041F82320D0E7083E48FA86F6FA
:10BCA00096F8505045EA821286F85020E8E70820BE
:10BCB000A4E700BF642D0020B82D002038B5204C2B
:10BCC000251895F93020072A18DD083A44FA82F43D
:10BCD00094F850309B09032B0BD14FF0A043D3F8BD
:10BCE0001015C14001F001010231BDE83840FFF7F5
:10BCF0000DBF012B0CBF02210321F6E7D3B2072BA6
:10BD00001DD8930003F1804303F5C043D3F8100519
:10BD100040F00100C3F8100502F1400040B280007D
:10BD200080B2FFF7E7FE51B195F9303054F8233077
:10BD30002BB1012303FA02F2024BC3F8042338BDEE
:10BD4000642D0020006000402DE9F04F87B00024F2
:10BD5000584D03944FF48072012102F1804303F5A2
:10BD6000C04390B21B68012B06D1D5F804330B42B7
:10BD700002D0FFF7BFFE0C430432B2F5907F4FEACA
:10BD80004101EAD14B4BD3F87C31012B0AD14FF45E
:10BD9000BE70FFF7AFFE4FF0A04344F00044D3F86D
:10BDA00010350393E3B2D3B1434F0025012634424B
:10BDB00010D0AB0003F1804303F5C043D3F8100566
:10BDC000D3F8101557F8253023B1C1F30141C0F362
:10BDD000042098470135082D4FEA4606E7D1002C8C
:10BDE00060DA00224FF0FF33CDE90423DFF8C8808A
:10BDF000DFF8C89000273E4619F9014B631C46D076
:10BE0000C4F3C2030122E5B204F03F0A04F00704C0
:10BE100002FA04F406AA134413F8042C224236D082
:10BE200008EB0A02AD0992F9302058F822B0BBF1B4
:10BE3000000F08D1032D2AD104A950460193FFF722
:10BE400075FE019B01E0032DF6D00AF5E0714FF07D
:10BE5000A04213F80C3C52F821102342C1F30141D7
:10BE600005D0022913D1032D0BD1294604E0032963
:10BE70000DD1032D05D102215046FFF747FE0136B3
:10BE8000F6B2BBF1000F02D029465046D847013721
:10BE9000042FB1D136B14FF0A043039AD3F8103537
:10BEA000934202D107B0BDE8F08F0393049B059342
:10BEB0009EE700BF00600040642D0020B42D0020EC
:10BEC000014B1B68184700BFC02D00200E4B984245
:10BED00037B50C4602D0002003B030BD00230DF171
:10BEE00007008DF80730FEF75FFA084B1D7915B98A
:10BEF00001221C601A719DF80700FEF779FA002DE7
:10BF0000E9D01120E8E700BF00200040C02D00204C
:10BF10007FB503788DF804304368029383688DF809
:10BF20000C30C36804930369064A8DF81430064B3D
:10BF300001A853F8213052F82110984707B05DF856
:10BF400004FB00BFC82D0020D02D0020F0B5054611
:10BF5000174615F804CB124A42F82C70114A42F8E1
:10BF60002C30114B0C460FCB85B06E4686E80F0087
:10BF70002368009323798DF8053063798DF80630B6
:10BF8000A3680293002FA389084AADF80C3008BFBC
:10BF90003A4663463146284600F008FA05B0F0BD3F
:10BFA000D02D0020C82D00205CFB010011BF010036
:10BFB0000023435082B043580193019B02B0704765
:10BFC0002DE9F0470E78089F9DF824A004460D4601
:10BFD0009846002E5BD1D0F82431D2F800903BB1C6
:10BFE0004FF49271FFF7E4FF012363612B7014E0BB
:10BFF000D0F81C313BB34FF48E71FFF7D9FFD0F866
:10C000002431002BECD113689F4212D918F8033069
:10C01000C0F81C35136801331360B94535D1D4F825
:10C02000043193B34FF482712046FFF7C1FF00261D
:10C0300004E00123BAF1000F03D0C3613046BDE82C
:10C04000F0874361E9E7D0F80831002BE5D04FF4E1
:10C050008471FFF7ADFFD0F82431002BC0D11368F5
:10C060009F42DAD9D0F8181508F803101368013385
:10C0700013607A1E934205D10223C0F800320123D7
:10C080002362CAE79F42FAD1C7E70126D6E74FF4F9
:10C090009271FFF78DFF4FF48E71FFF789FF4FF418
:10C0A0008471FFF785FFBAE72DE9FF470C46054687
:10C0B0001F4620463B4B03934FF482719DF830801E
:10C0C000FFF776FF4FF49271FFF772FF4FF48E7116
:10C0D000FFF76EFF4FF48471FFF76AFF0023C4F887
:10C0E00000326B6385F82E3001232362A36016466D
:10C0F0006A6B97421DD9B35CC4F81C356B6B013376
:10C100006B632B68E3B905F1340A05F12E09039B33
:10C11000002B1FDC95F82E3053BB0020039B002B17
:10C1200015DC0023C4F800350523C4F800350320CE
:10C130000DE0B8F1000F01D0E361E2E76361E0E7F1
:10C1400040F28623AB60AB68C4F80433002004B02F
:10C15000BDE8F087CDE9007833465246494620468F
:10C16000FFF72EFF0028D5D0039B013B0393CEE7BA
:10C17000D4F8C434C4F8C434002BCED013F0010F6B
:10C1800014BF4FF40240032048F2012213F0020FC3
:10C1900018BF104613F0040F48F2022318BF1846C8
:10C1A000BCE700BFA08601002DE9FF470C4605460D
:10C1B0001E462046364B03934FF48271FFF7F8FE7C
:10C1C0004FF49271FFF7F4FE4FF48E71FFF7F0FE1B
:10C1D0004FF48471FFF7ECFE0023012ED5F80080A8
:10C1E0006B6385F82E3017464FF0010306BF02221D
:10C1F000C4F80022C4F8003223622360B8F1000FB3
:10C2000015D105F1340A05F12E09039B002B18DC2A
:10C2100095F82E301BBB0020039B002B0EDC002367
:10C22000C4F800350523C4F80035032006E040F2C9
:10C230008623AB60AB68C4F80433002004B0BDE8CB
:10C24000F087CDE900683B46524649462046FFF755
:10C25000B7FE0028DCD0039B013B0393D5E7D4F85D
:10C26000C434C4F8C434002BD5D013F0010F14BF6C
:10C270004FF40240032048F2012213F0020F18BFCE
:10C28000104613F0040F48F2022318BF1846C3E704
:10C29000A0860100F0B52D4C2D4894F82C3089B0C3
:10C2A00004F134020193A36A009304F12E01636A3E
:10C2B000FFF786FEE0B994F82EC0276ABCF1000FA4
:10C2C0001FD1217B8B1E012B1BD8626AA3699A4266
:10C2D00017D1E26963696262C7F340170329A36259
:10C2E00084F82C7006D11A4900972046FFF7DCFE2F
:10C2F00009B0F0BD1649204609B0BDE8F040FFF78F
:10C3000053BF144E0FCE03AD0FC533682B60BCF185
:10C31000000F17D00E4AD2F8C434C2F8C4349907BB
:10C320000CD501238DF80830002384F82F307B07CB
:10C33000DED4D4E9003102A89847D9E75A07F3D5EB
:10C340000223EFE78DF808C0EEE700BFD82D0020EC
:10C3500000300040E42D00204FF0402382B0D3F89D
:10C360001821EAB10022C3F81821D3F8183101933B
:10C37000019B0C4BD97FFF2907D0987F01228A406F
:10C380004FF0A04148B1C1F80C2500225A771A722B
:10C39000D3E90021044802B01047C1F80825F4E7AA
:10C3A00002B07047142E00201C2E00202DE9F74FFC
:10C3B00090F804906A4E01934FF0240A0AFB09FAA0
:10C3C00006EB0A0B90469BF81C2007460C46002AF9
:10C3D00040F0C280056863492846FFF777FD0028D2
:10C3E00040F0BC8046F80A80019BCBF8043094F8FA
:10C3F00000E094F80CC04FF0A042012303FA0EF3C2
:10C40000BCF1010F94BFC2F80C35C2F808350EF527
:10C41000E073012142F823106378FF2B1FBF99407E
:10C42000C2F80C1503F5E0714FF0030A18BF42F88B
:10C4300021A0A27808BF4FF0FF33FF2A1BBF02F5EF
:10C44000E0714FF0A04A4FF0FF314FF0040B16BFE0
:10C45000019201914AF821B0242101FB096686F876
:10C460002020E1783E4AF177FF2917D094F804A004
:10C470004FF0010B0BFA01FB4FF0A046BAF1000F91
:10C4800061D0C6F80CB501F5E0714FF0030B46F82A
:10C4900021B0242101FB092181F81EA0C5F808E57F
:10C4A000C5F80C35019BC5F81035A368C5F82435CF
:10C4B000637B003B18BF0123BCF1020F46D0BCF1E7
:10C4C000030F46D0BCF1010F01D143F00203C5F8C0
:10C4D0005435A379C5F8C035B8F1000F02D0402318
:10C4E000C5F804330723C5F80035B8F1000F20D094
:10C4F0003B68617943F30735002DA8BF05F160441F
:10C50000C3F30733BCBF03F00F06174C4FEA4111CA
:10C51000A8BF04F56144C9B2B4BFA15584F80013A3
:10C5200003F01F03012101FA03F36D090F4941F8DC
:10C530002530242303FB092200235377012313779B
:10C5400003B0BDE8F08FC6F808B59CE743F00403DC
:10C55000BDE743F00603BAE70820F1E71120EFE753
:10C56000142E002059C3010014ED00E000E100E0AA
:10C570002DE9F3410779474E24237B431446F218F3
:10C580000D46517F8646002940F08180F35823B143
:10C5900014F0140F04BF0123537795E80F004FF0F8
:10C5A000240C0CFB076C0CF10C0888E80F009CF8BD
:10C5B0001F20FF2A08D09CF81E10012393404FF043
:10C5C000A042C1B1C2F80835296821B101F0604329
:10C5D000B3F1005F06D1AA6882B102F06043B3F103
:10C5E000005F0BD0242303FB076600237377102022
:10C5F00002B0BDE8F081C2F80C35E5E7DEF80030A6
:10C600006868C3F84415C3F84805E968C3F83425D9
:10C610000022C3F83815C3F81821D3F81821019265
:10C62000019A14F0010218BF0122C3F8502514F03A
:10C63000020218BF0122C3F8402522075CBF012275
:10C640001A6124227A43B258B2B9D3F81821002AC9
:10C65000FBD0242303FB0766F27FFF2A07D0B07FBD
:10C66000012393404FF0A04218B1C2F80C350020CE
:10C67000BEE7C2F80835BBE714F004004FF04002F3
:10C6800002D0C3F80823F2E7C3F80423B0E711206F
:10C69000AEE700BF142E002013B5084CD4F80031CB
:10C6A0004BB1074B1B6898470023C4F80031D4F8FE
:10C6B00000310193019B02B010BD00BF000001409A
:10C6C000382E002000F1804000F5E040002382B0C9
:10C6D000036003680193019B02B07047F0B5524BB1
:10C6E000524CD3F8043185B0002B3DD094F82E2065
:10C6F0004FF48270FFF7E6FF2AB394F82F3013BB94
:10C70000494AD2F80031002B32D04FF48070FFF745
:10C71000D9FF638B94F82D00834250D921891B1ACD
:10C720009BB289B26383CB1A616801EB4303C2F801
:10C730002C36C2F830064FF48270FFF7C3FF3A4B35
:10C7400001225A6014E0636802932389ADF80C302B
:10C75000E36800218DF8041033BB2374236801A81B
:10C760009847002384F82F3094F82E30002BC7D13F
:10C770002D4BD3F810315BB14FF48870FFF7A2FF57
:10C780000023237402238DF8043001A823689847FE
:10C79000254BD3F81431EBB14FF48A70FFF792FFB9
:10C7A0000023237405B0F0BD208B6083636020817B
:10C7B000E160002AD2D11C4B01221A60CEE7BAD127
:10C7C000E368012184F82F1013B100216183AEE7E3
:10C7D0006383B0E766694FF000470125002EE1D082
:10C7E000B6FA86F227FA02F34632920026EA0306E8
:10C7F00002F1804303F5E0431B68002BEED01046A6
:10C80000A2F58C72FFF75EFFD30882F00402C2F338
:10C8100080028DF808308DF8045023688DF80920C7
:10C8200001A89847DAE700BF007000403C2E0020C6
:10C83000032811D8012A0AD101290FD100F10E02D3
:10C84000D2B20D4B00EB40001A5400207047012972
:10C85000F7D0022904D049B1072070470022F8E739
:10C86000054B00EB400018444270EEE7024B00EB32
:10C87000400018448270E8E76C2E002008B50122C1
:10C8800002210020FFF7D4FF08B1072810D10722AA
:10C8900002210120FFF7CCFF08B1072808D10021B1
:10C8A0000A220846FFF7C4FF10B1072808BF00207E
:10C8B00008BD00000388102B10B502D0112B1ED02C
:10C8C00010BD1A4C2168B1B901220846FFF7B0FF2C
:10C8D00008B1072824D1072202210120FFF7A8FF71
:10C8E00008B107281CD1042202210020FFF7A0FF75
:10C8F00008B1072814D1236801332360E0E70B4A0D
:10C900001368013B1360002BDAD1FFF7B7FF002853
:10C91000D6D0074B1B68002BD2D0BDE8104018477B
:10C92000034B1B68002BE6D09847E4E77C2E0020E1
:10C93000782E00203FDF704741DF704770470128A5
:10C9400002D0022802D0704700F03EB800F042B892
:10C9500008B54FF400410020FCF798FE18B1154AC5
:10C960004B21FDF7FFF9FCF7C7FDFDF783FC18B17C
:10C97000104A6B21FDF7F6F9FEF7CEF818B10D4A13
:10C980005721FDF7EFF90C490C4802F07FF901201F
:10C99000FFF7D0FF01F078FE094B0022C3F8042511
:10C9A00001F00CFD01F0D4FD02F0B0FAFFF7C4FF76
:10C9B000FCE700BF7FFB01003FC901003DC901004A
:10C9C00000C0004070470000014B01221A70704700
:10C9D000802E0020014B00221A707047802E00200C
:10C9E000014B1878704700BF802E00200369C26891
:10C9F00093429CBF80681B18013B981A70472DE931
:10CA0000F843D0E902940546A9EB04084068904534
:10CA100020440F46144404D902F0E7FAEC60BDE864
:10CA2000F8834246A4EB090402F0DFFA6868224664
:10CA300007EB0801F0E72DE9F843C568064689468B
:10CA400017464FF000083469B3687068A54228BFE4
:10CA5000E418013C621B5C1BBC4228BF3C4694426C
:10CA600028BF144649462844224602F0BEFAB3685D
:10CA70002544AB4208BF00253F1BA044A144F560FC
:10CA8000E1D14046BDE8F88310B5114C114AA261CE
:10CA90000223C4E90433104BE361A2644FF4007332
:10CAA0000E4A0F492362E26400231022E01DA362B4
:10CAB0006362E362A3656365E365226502F0F1FAF0
:10CAC0000849204602F0EDFA2023A37110BD00BFF3
:10CAD000842E0020D0FB01000C2F0020FC2E002013
:10CAE000D9FB0100DDFB010070B5164B182400FBDB
:10CAF00004451D4404FB00331646DC6A012C0ED0AD
:10CB0000022C18D0E4B92846FFF770FF864204D8FB
:10CB100032462846FFF773FF3446204670BD28464C
:10CB2000FFF764FF8642344628BF04462246284663
:10CB3000FFF765FFF1E72846BDE87040FFF77BBFD0
:10CB40000024EAE7842E0020FFF79EBF6DDF7047C8
:10CB500079DF70477DDF704764DF70472DE9F04F64
:10CB600085B000250E9CBDF83CB0B4F800A0019142
:10CB7000074690461E46A9463A884A450DDC45B10F
:10CB80002388013BA3EB0A039BB2FF2B3AD806F89C
:10CB90000A30002005B0BDE8F08F7A6852F829000D
:10CBA000039000220DF10B0103A8FFF7D5FF002829
:10CBB000F0D19DF80B20424521D12288002D14BFD1
:10CBC0000020022002EB0801014459451ADC3DB95E
:10CBD000013292B2019B2280B3542288013222801A
:10CBE00022880DF10B01324403A8FFF7B5FF00289E
:10CBF000D0D121889DF80B200A442280012509F11B
:10CC00000109B9E70C20C5E72DE9F341089FBDF8FC
:10CC100024801546CDE90078022204461E46FFF71F
:10CC20009DFF50B93346102229462046CDE90878A9
:10CC300002B0BDE8F041FFF791BF02B0BDE8F0815E
:10CC40002DE9F04F00231788138090F82D3085B020
:10CC500006460D46144653B3082F01D80C2027E191
:10CC600002A8FFF773FF002840F0228123880822E2
:10CC7000EA54238801339BB21B222380EA54208884
:10CC8000013080B2208006220DF10901284402F013
:10CC9000ACF923889DF8082006339BB212F0FE02FF
:10CCA00018BF01222380EA54238801332380B378FC
:10CCB000FBB123880433BB42D0D802A8FFF748FF5A
:10CCC000002840F0F58023880322EA5423880133AA
:10CCD0009BB219222380EA542388BDF8082001332F
:10CCE0009BB2E9182380EA54120A4A70238802335F
:10CCF0002380F2789AB12388D91CB942AED8022198
:10CD0000E954238801339BB201212380E95423880D
:10CD10000B449BB22380EA5423880B44238072681F
:10CD2000AAB12388D91CB94298D8022192F90020CF
:10CD3000E954238801339BB20A212380E9542388D4
:10CD400001339BB22380EA54238801332380338943
:10CD5000002B40F0A180338A5BB1CDE900472B4620
:10CD60000722032106F11000FFF74EFF002840F0D4
:10CD70009F80338B5BB1CDE900472B4615221421F0
:10CD800006F11800FFF740FF002840F09180326A5A
:10CD9000002A40F09080D6F82480B8F1000F30D0FF
:10CDA000B8F804302188981C8A1C0244BA423FF625
:10CDB00055AFFE283FF652AF03336B54238801333F
:10CDC0009BB2FF222380EA54238801339BB2238045
:10CDD000B8F80020EA54E918120A4A702088023094
:10CDE00080B22080B8F804205AB1D8F80810002981
:10CDF0006BD0284402F0F9F82388B8F804201344D3
:10CE0000238096F82C30002B40F098803078002852
:10CE10004ED03388012B58D0228802F1020CBC4539
:10CE20003FF61CAF012805D17378023313449F42AB
:10CE3000FFF414AF023FBF1ABFB202A905EB0C000A
:10CE4000ADF80870FFF786FE90BB3178BDF808306A
:10CE5000022900F0B98072789A4202D39F4280F092
:10CE6000B180012940F0B280974293B2C0F0AE8009
:10CE7000ADF808300821BDF80830FE2B3FF6EEAEC5
:10CE800022880133AB542288013292B22280A95405
:10CE90002288134423800BE0CDE900472B4606226D
:10CEA000022106F10800FFF7AFFE00283FF453AF60
:10CEB00005B0BDE8F08FB4F800C00CF10603BB422A
:10CEC0003FF6CCAE1188052901D80720F0E76FF4B2
:10CED000486E01EB0E039BB24FF27D3E7345F4D9D1
:10CEE0005388052BF1D96FF44860181880B270454B
:10CEF000EBD94FF6FF70814201D09942E5D8052366
:10CF000005F80C30238801339BB212212380E954A9
:10CF1000238801339BB223801188E954E818090A59
:10CF20004170238802339BB223805288EA54E91867
:10CF3000120A4A702388023323802CE7B36A002B3D
:10CF4000C3D04FF000084FF00C0A4FF0160BB16A37
:10CF50005FFA88F20AFB02F201EB0209B9F8043029
:10CF6000981CFE283FF67AAE208803332B54238882
:10CF700001339BB2238005F803B0238801339BB2B1
:10CF800023808A5AEA54E918120A4A70208802302B
:10CF900080B22080B9F804205AB1D9F808100029CD
:10CFA00093D0284402F021F82388B9F804201344D0
:10CFB000238096F82C2008F101085FFA88F39A4242
:10CFC000C5D823E7092156E79F42FBD2ADF8087088
:10CFD00050E770B5C0B14AB116880024B44203D3FB
:10CFE00005196D789D4208D0A14201D800200BE0C0
:10CFF000055D01352C44A4B2F0E7A142F6D9A31C8B
:10D000001380005D013880B270BD13B51346002255
:10D01000ADF806200DF106020446FFF7DAFF10B165
:10D02000BDF80600204402B010BD72DF704773DF08
:10D03000704738B5012204460D46B0F89810D0F874
:10D040009400FFF7E2FF00B1057004F13C0204F127
:10D05000940104F15400BDE83840FFF7E6BF80F8C2
:10D0600030107047F8B504460F46002968D00028F4
:10D0700066D091F87A301BB191F89830002B61D1CD
:10D08000D7F8A030042B5DD0D7F89C30042B59D0B2
:10D090004FF0000C84F802C007F178060FCE251D72
:10D0A0000FC50FCE0FC596E8070085E8070084F886
:10D0B00030C0D7F8A4306363D7F8A830A3634FF625
:10D0C000FF7504F19403C4F8A430A4F8A850072213
:10D0D000614604F1AA0001F0B1FF23780BB984F88E
:10D0E0005450224604F155011F25C4F894103846C7
:10D0F00022F8985FFFF7A4FD08BB224604F17401F3
:10D10000C4F89C1007F13C0022F8A05FFFF798FDDF
:10D11000A8B9A369A4F848304FF480730125A4F896
:10D12000503063692064014684F83C50636404F124
:10D130003C0204F15400FFF778FF00B92570F8BDF8
:10D140000E20FCE70720FAE7F8B5067804460D46FE
:10D15000002E00F0FC8000F1AA0781700722002158
:10D16000384601F06BFFE38813B1A378012B04D09C
:10D17000E3794BB1A378022B06D1636BA3B10122F3
:10D1800084F8B1200820984704F1AB0204F1B10102
:10D1900012F8013B5BB99142FAD16A1E032A53D8B7
:10D1A000DFE802F0070D111484F8B130ECE73346E4
:10D1B000F3E7A2791AB194F8242002B95BB9E279B5
:10D1C0000AB1002B42D1237A002B41D1637A002B84
:10D1D0000CBF00250425636BA570002B3AD0033DDE
:10D1E000012D37D86279002A34D094F8B2208ABB56
:10D1F00084F8B420012284F8B3200720984704F172
:10D200003C0518220021284601F018FFE26A01239C
:10D21000511E994284F83C3098BFD3B284F8513003
:10D2200094F8243088BF00261BB1BEB1A36A84F8ED
:10D230005230A278002384F85030042A1DD8DFE849
:10D2400002F06E0F243454000025C4E70225C2E723
:10D250000325C0E7002384F8B330D0E70123E6E7D5
:10D26000C4E91073C4F8A4300223012284F83C30CE
:10D27000802384F83120A4F84830A378002B51D1C2
:10D28000636B002B5FD100205CE0022384F8313017
:10D29000032384F83C302369A4F848300023C4F801
:10D2A000A430E36827646364E7E763696364A369A0
:10D2B000A4F848306379B3B194F8B2309BB994F8CC
:10D2C000B43083B1022384F8503004212046FFF7A4
:10D2D000B0FE0028D1D1052384F8313004F1940345
:10D2E000C4F8A430C9E70323F6E7E3696364236A5B
:10D2F000A4F84830637983B194F8B2306BB994F8EC
:10D30000B43053B1022384F8503004212046FFF793
:10D3100090FE0028B1D10623DEE70423DCE784F881
:10D320003130AAE7D4F8A4102A4604F15400FFF7DC
:10D330007CFE38B994F8301094F85400FFF777FE6B
:10D3400000289DD0F8BD94F8310098479BE708204D
:10D35000F8E70388112B10B50C460AD0262B1FD0F6
:10D36000102B05D1C37B012B02D18388A1F8A830F3
:10D3700010BD0022838881F8B220B1F8A8209A421B
:10D38000F6D10B79002BF3D101212046FFF7DCFE0B
:10D390000028EDD0A36B002BEAD0BDE81040184761
:10D3A000037A013B012BE3D8897805230131B1FBD6
:10D3B000F3F303EB8303C91AC9B2E6E7704775DFDD
:10D3C000704776DF70477ADF70477BDF7047000079
:10D3D000034B1A8882420CBF18460020704700BFDA
:10D3E00028310020024B9B6903B11847704700BFEA
:10D3F0000C31002073B585B22846FFF7E9FF0446DB
:10D4000038B3174E027A337B9A420CD200F10A01EC
:10D410002846FFF7D4FFF0B111281AD002B0BDE8BA
:10D420007040FFF7DFBF00230372337C43B13B2121
:10D430002846FFF7C6FF30F0080301D0FFF7D2FF00
:10D44000736933B100228DF80420ADF8065001A8AD
:10D45000984702B070BD237A01332372F9E700BF09
:10D460000C31002013B50B46497A02460E4871B9BB
:10D47000D0E901101C7A002C18BF01465868FCF74F
:10D480003BFF78B102B0BDE81040FFF7ABBF002111
:10D490001972436933B101218DF80410ADF80620EB
:10D4A00001A8984702B010BD0C3100204B880288BB
:10D4B0009A4212D842889A420FD380888B8840F2D1
:10D4C000F311884294BF021A421A9A4205D80844BE
:10D4D000984234BF002001207047002070470000B0
:10D4E0000388122B70B5014659D004D8102B1ED0DA
:10D4F000112B44D070BD502BFCD12F4BC288DB893F
:10D500009A42F7D1038A022BF4D186883046FFF77E
:10D510005FFF05460028EDD001F1120000F067F929
:10D5200038BB6868FCF730FF0028E3D009E0C37B14
:10D53000012BDFD14FF6FF70FFF74AFF054620B9F8
:10D540000420BDE87040FFF74DBF1C4A8E8806805E
:10D55000002303721368C0F80A305368C0F80E3015
:10D5600010310A30FFF7A2FF134B6872DB89002BE2
:10D57000C0D129463046BDE87040FFF773BF8088B0
:10D58000FFF726FF04460028B4D04068FCF7FCFEF5
:10D5900008B1FFF727FF4FF6FF732380AAE78688BD
:10D5A0003046FFF715FF05460028A3D008310A30A2
:10D5B000FFF77CFF6872DCE70C3100203C31002073
:10D5C000F8B5064648B305460FCD154F3C460FC487
:10D5D00095E8070084E807003068124C3C60B0B161
:10D5E000FFF7F1FEC0B932681368236053686360C7
:10D5F0000D480E4A4FF6FF7303800D4B40F8043F71
:10D600000021FCF767FE002818BF032004E0204635
:10D61000FFF7DBFE0028EBD0F8BD0E20FCE700BFD3
:10D620000C3100203C31002028310020F5D30100CE
:10D630004431002073B50191019C06466CB1002570
:10D640002C46294601A8FCF737FF18B106EB440326
:10D6500001349D800135142DF3D13046346002B081
:10D6600070BD00002DE9F04703888488112B8CB031
:10D6700005463FD01A2B44D0102B1BD1DFF8B080C9
:10D68000D8F80830DB430093D8F804106846FCF75C
:10D690003FFF009901A8FFF7CDFF0DF10809002712
:10D6A000019B9F4209D3132C14D9224AE321042061
:10D6B000FCF758FB0CB0BDE8F08739F802AB002648
:10D6C0000136514608EB8600FCF7ECFE1D2EF7D123
:10D6D0000137E5E718482146FCF7DBFE17482146ED
:10D6E000FCF7D7FEEB7B012BE4D015482146FCF775
:10D6F000D0FEDFE7104821460CB0BDE8F047FCF74C
:10D70000D1BE037A0F481F2B4FEA131521460AD9C1
:10D71000FCF7BFFE022D0C482146EDD00CB0BDE851
:10D72000F047FCF7B6BEFCF7BDFE07482146E3E72D
:10D7300064310020E4FB01006C31002068310020DE
:10D740007031002074310020783100201328014608
:10D7500002D80248FCF7B0BE0020704768310020B4
:10D7600010B50446FFF7F2FF002814BF204614202E
:10D7700010BD70B50546164608460AB90E2070BDA4
:10D7800000231360002DF9D02B68002BF6D0EB8816
:10D7900013F003040ED1FFF7E3FFC0B214280BD03F
:10D7A0002B7983420AD9EA882B6800FB023030606B
:10D7B0002046E4E70720E2E70520E0E70420DEE773
:10D7C000AADF7047002301380B70042806D8DFE871
:10D7D00000F00306080A0C0011230B707047212388
:10D7E000FBE73123F9E71223F7E72223F5E7008867
:10D7F00000F001007047F0B58B7891B0012B0C461A
:10D8000038BF01238DF80E3005460B88ADF80C307B
:10D81000002116466846032201F010FC607C694630
:10D82000FFF7D0FFA07C0DF10101FFF7CBFFE27BFA
:10D83000237B217D43EAC203227C43EA02139DF845
:10D840000220002922F0190203F0190314BF02215B
:10D850000121134361F342031C22002109A88DF822
:10D86000023001F0EBFB637B13F0300F15D002AFF9
:10D8700003220021384601F0E1FBE07C0DF10901B3
:10D88000FFF7A0FF11238DF808309DF80A300E979E
:10D89000012262F342038DF80A30637B8DF8243055
:10D8A0001422A37B8DF82530002104A801F0C6FBCB
:10D8B00003AB0493A388ADF81C30A368CDF814D053
:10D8C0001BB1E288ADF818200893A369002B31D072
:10D8D00001AF03220021384601F0B0FBA3691A888A
:10D8E000ADF82C205A88ADF82E205A680D97187B79
:10D8F0000A923946FFF766FFA3690DF10501587BCF
:10D90000FFF760FFA3699A7A197A41EAC201DA7ACD
:10D910009B7B41EA02119DF80620002B01F01901C2
:10D9200022F0190214BF02230123114363F34201C1
:10D930008DF80610E36903B10C93334604AA09A9D4
:10D940002846FFF73DFF11B0F0BDA5DF7047B5DFFA
:10D95000704758B14FF0F7130360FB230371F723AF
:10D96000C3801723C1608360002070470E2070477A
:10D9700030B1A1F11703E02B04D8018000207047DB
:10D980000E2070470720704713B5034680880C4669
:10D9900090B91A883A2A68D010D8102A3DD0112A96
:10D9A0005ED0A37A43B1E1880020FFF7CEFF0028C4
:10D9B00076D14FF48073638102B010BD552AF0D147
:10D9C000DB88C988A072172B38BF17238B4228BF6A
:10D9D0000B462381FFF7BBFF60B1FDF7F1F8394B30
:10D9E0003949024639481B1ADB081B0443F0010081
:10D9F000FCF70CF8E27A002AD3D1E368002BD0D0F0
:10DA000040F67721ADF802202289ADF80010ADF87C
:10DA10000420694620469847C3E7DB7B012B04BFFF
:10DA20000B88CB80C98823898B42BAD20020FFF7AC
:10DA30008CFF10B90123E372B3E7112802D101234F
:10DA4000A372AEE7FDF7BCF81E4B214902461F4802
:10DA50001B1ADB081B0443F00100FBF7D7FFA0E70C
:10DA6000F723CB8017238B609BE75B89CA8893429F
:10DA700028BF1346172BCA6838BF17230B8162B122
:10DA8000C97A51B140F67721ADF80010ADF8020027
:10DA9000ADF804306946204690470023638180E753
:10DAA000112889D0FDF78CF8064B09490246074832
:10DAB0001B1ADB081B0443F0010002B0BDE8104054
:10DAC000FBF7A4BF34F2010063FC0100E4F10100A4
:10DAD00032FC0100B0DF704766DF704710B50021EF
:10DAE00004464088FFF7F8FF034608B9237210BDCB
:10DAF000112801D10123F9E76368BDE810401847F8
:10DB000060B159B10378DE2B0AD00B684360DE2385
:10DB100003704FF6FF734380002070470E2070475C
:10DB20000820704728B10378DE2B04D14180002003
:10DB300070470E20704708207047F0B5054685B045
:10DB40000C46002942D0002840D00B78DE2B3DD176
:10DB500082884B889A4204D10B7A13B10846FFF7AA
:10DB6000BDFF2B88112B33D0512B0FD0012B2DD182
:10DB70002B7A012B2AD1A9886288914226D120468E
:10DB8000237205B0BDE8F040FFF7A8BFAE886388F8
:10DB9000B3421BD1AF79022F18D1AD7B2B1F022BC3
:10DBA00014D800211022684601F048FA052D18BF4C
:10DBB0004FF4C0736946304618BFADF804308DF895
:10DBC0000070FFF787FF08B16368984705B0F0BDA4
:10DBD0006388AA889A4204BF4FF6FF736380F5E713
:10DBE000A8DF7047ADDF7047AEDF704762DF704778
:10DBF00070B505468AB00C46002962D0002860D076
:10DC00000388502B37D0572B72D0102B59D18188D5
:10DC10006069002601AA0196FFF7ABFD0822314694
:10DC20000DEB020001F00AFA0223218AA888CDF840
:10DC30000CD002AA0293FFF7D5FF002841D1A369B7
:10DC4000002B3ED00398FFF7D2FD002839D0019B6E
:10DC50000BB101221A701822002104A801F0EEF97C
:10DC600002238DF81030AB88ADF81830019B059475
:10DC70000793A36923E08188606902AAFFF779FD11
:10DC80001822002104A801F0D9F9AB882189ADF848
:10DC90001830EB88029A05949942079218D12E8A7F
:10DCA000022E15D16AB105F11200FFF7A0FD029B0B
:10DCB00048B101221A708DF81060A3690BB104A855
:10DCC00098470AB070BD187003238DF81030F4E740
:10DCD000A2899A42F5D1A369002BF2D000228DF8D7
:10DCE000102005F1120208922A8AADF82420E6E7F6
:10DCF0008188606902AAFFF73CFD01460028E0D157
:10DD0000029B1B78002BDCD0182204A801F096F9A6
:10DD100001238DF81030AB88ADF818300594029BC4
:10DD2000A6E70000F0B53A4B8FB002AD04460A46B4
:10DD300003F1100C2F46186859682E4603C60833A5
:10DD400063453546F7D1002C5FD0002A5DD01368BB
:10DD5000A36121463846FFF749FF002853D12246E8
:10DD6000012512F8023B8DF8063001A92846ADF8CE
:10DD70000450FFF735FF002845D10146202206A8B0
:10DD800001F05CF922460223ADF8183012F80C3B82
:10DD90008DF81A30BDF824301E4E6088079623F4A3
:10DDA0004F6323F00F0343F440632B4306A9ADF800
:10DDB00024308DF829508DF82A50FFF71CFD10BB38
:10DDC0000146202206A801F039F922460323ADF8C6
:10DDD000183012F8043B8DF81A30BDF824306088F2
:10DDE000079623F4875323F01F0343F480532B43F8
:10DDF000ADF8243006A940F201138DF82950ADF892
:10DE00002A30FFF7F8FC0FB0F0BD0E20FBE700BF93
:10DE1000A7FC0100F4000100F0B50F4687B01646DC
:10DE20001C46054618B3406901AA1946FFF7A1FC34
:10DE3000D8B94FF6FF739C421BD0019BCBB11B7826
:10DE4000CBB13388F42B18D80146102202A801F078
:10DE5000F5F8AB88ADF8083002A901232046CDE9DA
:10DE600004678DF80A30FFF7BFFE07B0F0BD0E2043
:10DE7000FBE70520F9E70820F7E70720F5E710DFC3
:10DE8000704711DF7047000013B504460949684622
:10DE9000FCF761FE019808B902B010BDD0E900316D
:10DEA0002046984718B16846FCF75FFEF2E711205C
:10DEB000F2E700BF14FD010013B5044607496846A8
:10DEC000FCF749FE019B0BB902B010BD2046D3E917
:10DED000002190476846FCF748FEF3E72CFD01005F
:10DEE000064B9A6822B11A6822F480021A607047C1
:10DEF000034B4FF48002C3F880207047742C00203D
:10DF000000E100E00C4991F816335A09EC23134163
:10DF1000DB0706D5094B9A684AB94FF480030B60BA
:10DF20007047074AA12142F20200FBF71BBF1A68A3
:10DF300042F480021A60704700E100E0742C002077
:10DF4000B7FC0100F7B5194F3C7864BB184E0125AA
:10DF500020463570FFF798FF112821D02046FFF7A3
:10DF6000ABFF144B8DF80340186801900DF10300CE
:10DF7000FCF71AFA104901A8FFF781FF0446B0FA2E
:10DF800080F0400938709DF80300FCF731FA3CB985
:10DF90000A4B34701C70FFF7B5FF2846FFF78CFF63
:10DFA000204603B0F0BD0824FAE700BFDD310020B1
:10DFB000DC3100200DFD0100819D0100DE310020DB
:10DFC000F7B5154F3B781BB3144E01203070FFF7A7
:10DFD0005BFF11284FF000051CD00220FFF76CFFFB
:10DFE0000DF107008DF80750FCF7DEF9FFF749FF48
:10DFF00004469DF807003D70FCF7FAF92CB90320A0
:10E000003470FFF76DFFFFF757FF204603B0F0BDF8
:10E010000824FAE72C46F8E7DD310020DC31002047
:10E02000054B1B7833B1054B1B780BB1FFF7C8BF0D
:10E03000FFF788BF08207047DC310020DD31002069
:10E04000014B1878704700BFDD31002007B5084943
:10E050006846FCF780FD019B13B903B05DF804FB33
:10E06000D3E9002090476846FCF77FFDF3E700BF47
:10E0700020FD0100FFF7EABF60DF704769DF7047EE
:10E0800061DF704730B5154DADF5017D4FF4FA7481
:10E090000DF1020103A8ADF80240FFF7F1FF70B9DE
:10E0A000294601A8FCF757FD029B002BF0D003A8DE
:10E0B000D3E90021904701A8FCF757FDF4E70528B4
:10E0C00008D0074A40F239110DF5017DBDE8304016
:10E0D000FBF748BE0DF5017D30BD00BF0800020012
:10E0E00038FD0100024B1B780BB1FFF7CBBF704727
:10E0F000DF31002030B5054685B00C46002900F020
:10E10000B2805A4B0B600C22002101A800F096FF50
:10E1100001238DF8063022688DF80450062301A9EA
:10E120002020ADF80830FFF7A9FF60B1FCF748FDEB
:10E130004F4B5049024650481B1ADB081B0443F062
:10E140000100FBF763FC0C22002101A800F076FF20
:10E15000012322688DF8053001A94020FFF78EFFCA
:10E1600060B1FCF72DFD424B4449024642481B1A60
:10E17000DB081B0443F00100FBF748FC0C220021E4
:10E1800001A800F05BFFF72322688DF8045001A975
:10E190002320ADF80630FFF771FF60B1FCF710FDEA
:10E1A000334B3749024634481B1ADB081B0443F043
:10E1B0000100FBF72BFC0C22002101A800F03EFF20
:10E1C000012022688DF8040001A9FFF757FF60B114
:10E1D000FCF7F6FC264B2B49024627481B1ADB08A6
:10E1E0001B0443F00100FBF711FC0C22002101A8E5
:10E1F00000F024FF4FF4B0632268019301A9A1202D
:10E20000FFF73CFF60B1FCF7DBFC194B1E490246EF
:10E2100019481B1ADB081B0443F00100FBF7F6FB4F
:10E220000C22002101A800F009FF9DF804302268AB
:10E230006FF3000301A9A0208DF80430FFF71EFF43
:10E24000034668B1FCF7BCFC094B104902460A487A
:10E250001B1ADB081B0443F00100FBF7D7FB00236C
:10E26000184605B030BD0E23FAE700BF0025002098
:10E270004CF201008AFD0100E4F10100D0FD010033
:10E280001CFE010063FE0100AFFE010000FF010063
:10E29000F8B506460768FFF7EFFE3368BB42054650
:10E2A0001DD91948194C1A49241AE408240444F0C9
:10E2B00002042046FBF7A6FB336816493A4620467F
:10E2C000FBF7ADFB4FF080533268D3F80C311249A5
:10E2D0009B0203F100539A1A2046FBF797FB25B9DE
:10E2E0000E4B01221A702846F8BD2846FCF768FC40
:10E2F000064B0B49024604481B1ADB081B0443F07B
:10E300000100FBF783FBEEE7E4F101004CF20100B2
:10E3100053FF010082FF0100B3FF0100DF31002045
:10E32000DDFF01004BDF70471FB50F4C01A8FFF761
:10E33000F9FF70B9214602A8FCF70DFC039B002BE6
:10E34000F4D00198D3E90021904702A8FCF70DFC16
:10E35000F4E7052806D0054A6B2104B0BDE810405B
:10E36000FBF700BD04B010BD7400020014000200F1
:10E3700007B5FDF7F3FB18B10E4A8521FBF7F2FC58
:10E38000032202238DF8052001A90B4A8DF80430E1
:10E390000F208DF80630FDF719FC18B1054A8B21C6
:10E3A000FBF7E0FC01210F20FDF788FC03B05DF8CE
:10E3B00004FB00BF8000020045E601004FF0A043CF
:10E3C00070B508220324C3F80C47C3F808254FF49E
:10E3D0008032C3F84047C3F80C25FFF7C9FFFF217F
:10E3E000204600F08DF93B4D3B4BED1AE5402D04E6
:10E3F0002528064645EA040509D00246374928463D
:10E40000FBF704FBFBF79CF90028FBD170BD012250
:10E410000D21204600F0A8F9314B4FF47A4043F02B
:10E42000010398470021204600F06AF901212046A7
:10E4300000F066F902220D21204600F095F93E22F7
:10E440001121204600F090F900221221204600F010
:10E450008BF911221521204600F086F93F222A214E
:10E46000204600F081F9FF222321204600F07CF9AC
:10E47000FF222421204600F077F9FF223146204672
:10E4800000F072F940220921204600F06DF90222C5
:10E490000A21204600F068F980220221204600F07F
:10E4A00063F912222021204600F05EF993222121F7
:10E4B000204600F059F90D212046042200F054F9BD
:10E4C00008492846FBF79EFAFBF73AF90028FBD1EA
:10E4D0009CE700BF1CF20100E4F10100EB00020028
:10E4E000300202001301020010B50721B0B0032072
:10E4F00000F006F9402802460ED01248124C13498B
:10E50000241AE4082404402344F00300FBF787FAAC
:10E51000FBF716F90028FBD10821C0236A46032027
:10E5200000F054F900211DF8013003F007030DF845
:10E5300001300331C029F6D1684600F00BFB30B042
:10E5400010BD00BFE4F101001CF201003501020022
:10E5500008B501224021032000F006F9014B0122F9
:10E560001A6008BD00C0004070B54021032000F0D3
:10E57000C7F8E8B94121032000F0C2F8294C2A4B22
:10E580002A49E41AE408240444F003040246054638
:10E590002046FBF73BFA01224021032000F0E4F87B
:10E5A0002B2D05D922492046FBF72CFAFEF70AFA53
:10E5B000204B214ED3F8002112B93278032A2ED9EC
:10E5C0000022C3F80021D3F808251748D3F80855CE
:10E5D000144C1A49930548BF6FEA8555A4EB000413
:10E5E00048BF6FEA9555134BE4080122002D4FEA0E
:10E5F00004445A6044F003041A602A46B8BFEA1C77
:10E6000092102046FBF702FABF2D05DD0C4920468B
:10E61000FBF7F8F9FEF7D6F90023337070BD01322D
:10E620003270FBE71CF20100E4F10100620102001C
:10E630008901020000C00040E0310020C901020051
:10E64000F001020008B50021032000F059F803068C
:10E6500012D5FFF749FF00F0AFFAFFF785FF4FF043
:10E66000A042D2F80435D94301F4803103F4803359
:10E67000C2F80815C2F80C3508BD0000014B012294
:10E680001A707047E13100201FB5164B0FCB6C4656
:10E6900084E80F0040F20C53ADF8003008238DF8E9
:10E6A00002304FF08053029302238DF804300E4A5B
:10E6B0000E4800232146FDF749FC18B10C4A1621EB
:10E6C000FBF750FB0B480C4B0C49C01AC008000468
:10E6D00040F00300FBF796F9FBF732F80028FBD176
:10E6E00004B010BDBC0202007DE60100CC020200B5
:10E6F000360202001CF20100E4F101009C0202005B
:10E7000030B54FF0A043154D012487B0844000225E
:10E710002A70C3F80C45FF238DF8013002230393C0
:10E7200001AB8DF8001004930D48CDF808D00323F9
:10E7300002A90593FDF71CFF18B10A4A2D21FBF72A
:10E7400011FB2B783BB14FF0A043C3F808459DF86F
:10E75000060007B030BD20BFF3E700BFE131002065
:10E76000D00202003602020030B5012487B0844096
:10E77000134D4FF0A04000232B70C0F80C458DF8CE
:10E78000062001AA02920322CDE903238DF804108A
:10E790000C488DF805301A4602A90593FDF7E8FEEE
:10E7A00018B1094A4921FBF7DDFA2B782BB14FF05C
:10E7B000A043C3F8084507B030BD20BFF5E700BF50
:10E7C000E1310020D0020200360202002DE9F043C0
:10E7D00087B01C4600AF4FF0A043DFF874800125DE
:10E7E00085401646002288F80020C3F80C55397180
:10E7F00004F1090101F4FC71ADEB010D8023391D19
:10E800007B71B960A31C0221F960DBB21148C7F823
:10E8100010D007F10801E9467B61FDF7A9FE18B1A8
:10E820000D4A6621FBF79EFA98F800306BB14FF065
:10E83000A0432246C3F8085509F10201304600F012
:10E84000D4FB1C37BD46BDE8F08320BFECE700BF1A
:10E85000E1310020D002020036020200AEDF704734
:10E8600030B5054685B00C4651B348B30388112B2B
:10E870000BD0502B0CD0102B22D1019103238DF8FB
:10E8800000306369684698471AE001910223F6E771
:10E8900010220021684600F0D1FBEB882289019408
:10E8A0009A420FD12A8A022A0CD105F11200FEF7F2
:10E8B0009EFF636980F001008DF80000002BE1D11C
:10E8C00005B030BDA2899A42FAD16369002BF7D016
:10E8D00004228DF8002005F1120202922A8AADF876
:10E8E0000C20CFE7F0B50F4685B016461C4605460E
:10E8F00018B34FF6FF739C4221D0102200216846C6
:10E9000000F09CFBAB88ADF800306946012320463F
:10E910008DF80230CDE90267FFF7A0FF094B0A49E5
:10E9200004460A481B1ADB081B04224643F0030076
:10E93000FBF76CF8204605B0F0BD0E24FAE7002482
:10E94000F8E700BF1CF20100DC020200E4F1010064
:10E9500076DF704777DF70477ADF70477CDF70477C
:10E960007FDF70478FDF7047B1DF7047014A8B212F
:10E97000FBF7F8B9FC020200014AC721FBF7F2B924
:10E98000FC0202000388212B13B504464CD007D8A3
:10E99000112B3AD0132B58D0102B11D002B010BD30
:10E9A000522B5FD0562B6AD03B2BF7D18088132196
:10E9B000FFF7CEFF0028F1D0364A4FF49A711FE0DE
:10E9C000354B36483649C01AC008000440F00300F1
:10E9D000FBF718F8A188334C33482180FFF7A2F8E1
:10E9E00020B12C4A40F20911FBF7BCF9218804221E
:10E9F0000320FFF7AFFF0028D0D0264A40F20D11C8
:10EA000002B0BDE81040FBF7ADB9234B23482749BE
:10EA1000C01AC008000440F00300FAF7F3FF214BCE
:10EA20004FF6FF721A80B9E7002380888DF8043012
:10EA300001A98DF80530FFF795FF0028AED0154AE3
:10EA400040F22111FBF78EF9A8E716480023008851
:10EA50001A468521FFF784FF00289FD00D4A40F217
:10EA60002711CDE70F48002300881A461946FFF703
:10EA70007BFF002892D0074A40F22D11C0E7808822
:10EA80001321FFF765FF002888D0024A40F23B11AE
:10EA9000B6E700BFFC020200E4F101001CF2010035
:10EAA0006203020024250020C03300206C03020012
:10EAB000037823B9024B818A1B68006918477047A5
:10EAC000CC33002008B503785BB9064B3B2118888E
:10EAD000FFF73EFF28B1BDE80840034AC021FBF71D
