:020000021000EC
:10900000006000201992010001920100039201000A
:109010000592010007920100099201000000000082
:109020000000000000000000000000000B920100A2
:109030000D920100000000000F920100119201004A
:1090400021F1010013920100B5FD0100E1100200C1
:109050009109020000000000B1FC0100E9FE0100DE
:109060001392010013920100139201001392010068
:109070001392010013920100139201001392010058
:1090800051110200612002001392010013920100AD
:10909000A120020013920100F96202001392010064
:1090A0001392010013920100000000000000000074
:1090B0001392010013920100000000000000000064
:1090C00000000000000000000000000000000000A0
:1090D0000000000000000000000000000000000090
:1090E0000000000000000000000000000000000080
:1090F0000000000000000000000000000000000070
:10910000000000000000000000000000000000005F
:10911000000000000000000000000000000000004F
:10912000000000000000000000000000000000003F
:10913000000000000000000000000000000000002F
:10914000000000000000000000000000000000001F
:10915000000000000000000000000000000000000F
:1091600000000000000000000000000000000000FF
:1091700000000000000000000000000000000000EF
:1091800000000000000000000000000000000000DF
:1091900000000000000000000000000000000000CF
:1091A00000000000000000000000000000000000BF
:1091B00000000000000000000000000000000000AF
:1091C000000000000000000000000000000000009F
:1091D000000000000000000000000000000000008F
:1091E000000000000000000000000000000000007F
:1091F000000000000000000000000000000000006F
:10920000FEE7FEE7FEE7FEE7FEE7FEE7FEE7FEE736
:10921000FEE7FEE700F002B8FFF7FCBF0B484FF097
:109220000701884385460A48804700F019B8094875
:1092300009490A4A884207D0521A05D003780130FA
:109240000B700131013AF9D1704700000060002035
:109250009DBD0100A86A0200A0240020B4240020C3
:1092600039493A480A1A02D0072291438D463849B3
:1092700038480A1A06D00722914381F3098802224E
:1092800082F3148834483549354A00F03EF83548B1
:109290003549364A00F039F835483649364A00F043
:1092A00034F836483649374A00F02FF836483749FF
:1092B000374A00F02AF837483749384A00F025F88D
:1092C00037483849384A00F020F8384838490022F1
:1092D00000F033F837483849002200F02EF83748BC
:1092E0003749091A0DF05EFA364A90472448254955
:1092F000884205D00268043003B4904703BCF7E706
:1093000000200021304A9047FEE7884214D0521ACC
:1093100012D003460B4313430324234206D10368B0
:1093200004300B600431043AF9D1704703780130FE
:109330000B700131013AF9D17047884202D00270B6
:109340000130FAE77047000000600020005800205C
:109350000060002000600020FC840200B424002093
:1093600044250020CC930100CC9301007C690200CD
:10937000FC840200B4240020B4240020BC6A020053
:10938000BC6A0200BC6A0200BC6A0200BC6A02003D
:10939000BC6A0200BC6A0200BC6A0200F9840200D6
:1093A0008C8502004425002044250020442500200F
:1093B000D4390020D4390020D4390020D4390020F9
:0C93C000D44100202F920100AD95010067
:1093CC003FDF704700BF184641DF704700BF1846AB
:1093DC0082B001904FF0A043184602B0704700B520
:1093EC0085B00190084611461A4603468DF80330A5
:1093FC000B468DF8023013468DF8013001AB184640
:10940C00FFF7E6FF03909DF803209DF802305B0008
:10941C001A439DF801309B001A439DF818301B022B
:10942C0042EA03019DF81C301B04019A1943039B6B
:10943C0002F5E07243F8221000BF05B000BD00B584
:10944C0085B0039000230193032300930023012292
:10945C0001210398FFF7C3FF00BF05B000BD00B5A5
:10946C0085B0019001AB1846FFF7B2FF0390019B4A
:10947C00012202FA03F31946039800F003F800BF27
:10948C0005B000BD82B001900091019B009AC3F819
:10949C00082500BF02B0704700B583B0094A0A2105
:1094AC00082007F0C3FF0190019B0093009B002B49
:1094BC0004D0054A4C21009807F0A4FE00BF03B06D
:1094CC0000BD00BF44250020BC6A020000B583B07B
:1094DC004FF4004100200BF0CDFB0190019B009359
:1094EC00009B002B04D0054A5421009807F08AFEFB
:1094FC000BF062FB00BF03B000BD00BFBC6A0200F2
:10950C0000B583B00BF07EF90190019B0093009B9A
:10951C00002B04D0034A6021009807F073FE00BFB3
:10952C0003B000BDBC6A020000B583B008F0B8FD02
:10953C000190019B0093009B002B04D0034A7421E3
:10954C00009807F05FFE00BF03B000BDBC6A0200CC
:10955C0082B001900B46ADF8023000BF02B07047EC
:10956C0000B585B003468DF807309DF807308DF8AF
:10957C000F309DF80F30022B09D0022B09DC002B89
:10958C0009D0012B00D004E000F05CF804E000F0FE
:10959C005FF800BF00E000BF00BF05B000BD0000D9
:1095AC0000B585B0FFF792FFFFF7BEFFFFF774FF22
:1095BC00FFF7A6FF2049214800F0AAFC0120FFF785
:1095CC00FFFE0290029B0193019B002B04D01C4ACE
:1095DC009D21019807F016FE01F04EFF01F0CAF92B
:1095EC0000900023039310E0039B009A13441B7814
:1095FC001846FFF724FF039B009A13441B78184668
:10960C00FFF72DFF039B01330393039B052BEBDD2E
:10961C0001F06EFD01F038FA01F0B2F901F048FCEE
:10962C0001F0B4F801F068FB0BF05AFE07F0C0FF34
:10963C00FFF7CAFEF6E700BF6D9501005D950100CE
:10964C00BC6A020008B5012000F008F800BF08BD94
:10965C0008B5002000F002F800BF08BD82B0034638
:10966C008DF80730034A9DF80730137000BF02B025
:10967C00704700BFF4250020014B1B78184670473B
:10968C00F425002084B001900B468DF8033013466E
:10969C008DF8023000230393019B032B3DD89DF8DA
:1096AC000230012B0CD19DF80330012B05D1019B0D
:1096BC00DBB20E338DF8023002E000238DF802305D
:1096CC009DF80330022B0FD0022B23DC002B16D07D
:1096DC00012B1FD11449019A13465B0013440B4410
:1096EC009DF802201A701AE00F49019A13465B008C
:1096FC0013440B4401339DF802201A700FE00A4901
:10970C00019A13465B0013440B4402339DF802206C
:10971C001A7004E00723039301E007230393039BD0
:10972C00184604B0704700BFF825002000B583B080
:10973C00012200210020FFF7A5FF0190019B002BC7
:10974C0004D0019B072B01D0019B1CE007220221B6
:10975C000120FFF797FF0190019B002B04D0019B88
:10976C00072B01D0019B0EE0042202210020FFF701
:10977C0089FF0190019B002B04D0019B072B01D08A
:10978C00019B00E00023184603B000BD00B583B078
:10979C00012202210020FFF775FF0190019B002B95
:1097AC0004D0019B072B01D0019B1CE00722022156
:1097BC000120FFF767FF0190019B002B04D0019B58
:1097CC00072B01D0019B0EE00A2200210020FFF79D
:1097DC0059FF0190019B002B04D0019B072B01D05A
:1097EC00019B00E00023184603B000BD00B585B016
:1097FC0001900091019B1B88102B02D0112B18D0CB
:10980C002FE0194B1B68002B0DD1FFF78FFF039036
:10981C00039B002B07D0154B1B68002B03D0134B5D
:10982C001B6803989847104B1B6801330E4A136052
:10983C0017E00D4B1B68013B0B4A13600A4B1B686E
:10984C00002B0DD1FFF7A2FF0390039B002B07D039
:10985C00064B1B68002B03D0044B1B6803989847DE
:10986C0000BF00BF05B000BD082600200426002064
:10987C00A8DF704700BF1846AEDF704700BF184620
:10988C0062DF704700BF184600B587B001900091A9
:10989C00019B039303238DF80830019B5B6902AA9B
:1098AC001046984700BF07B000BD00B587B00190C7
:1098BC000091019B039302238DF80830019B5B6997
:1098CC0002AA1046984700BF07B000BD00B589B08A
:1098DC0001900091009B0633079303AB10220021EB
:1098EC0018460CF0ADFF019B0493079B1A88019B53
:1098FC001B899A421CD1079B5B89022B18D1079BB1
:10990C000C33184604F065FA0346002B03D00023F1
:10991C008DF80C3002E001238DF80C30019B5B6953
:10992C00002B1FD0019B5B6903AA1046984719E0D6
:10993C00079B1A88019B9B899A4213D1019B5B69F7
:10994C00002B0FD004238DF80C30079B0C330593A0
:10995C00079B5B89ADF81830019B5B6903AA104625
:10996C009847FFE700BF09B000BD00B585B0019076
:10997C000091009B0393039B002B1CD0019B002B9D
:10998C0019D0019B1B88502B10D0502B15DC102BA1
:10999C0002D0112B05D010E001990398FFF774FF4A
:1099AC000CE001990398FFF780FF07E001990398F9
:1099BC00FFF78CFF02E000BF00E000BF05B000BD68
:1099CC0010B592B001900091019B002B02D0009B2E
:1099DC00002B01D10E2394E04B4B0AAC0FCB84E847
:1099EC000F00009B1A68019B5A61019A0AAB114641
:1099FC001846FFF745FF1190119B1093109B002BFD
:109A0C0001D0109B7DE0019B1B788DF83A304FF410
:109A1C00A053ADF83830019B9A1C0EAB19460120AF
:109A2C00FFF726FF1190119B0F930F9B002B01D07A
:109A3C000F9B66E002AB2022002118460CF000FFC1
:109A4C0041F20243ADF80830019B1B788DF80A30C7
:109A5C000123ADF80C300123ADF80E3000238DF846
:109A6C0014309DF8153043F008038DF815309DF82F
:109A7C00153043F004038DF8153001238DF819309F
:109A8C0001238DF81A30019B5888019B03F10C02BD
:109A9C0002AB194604F024FA1190119B002B01D053
:109AAC00119B2EE002AB2022002118460CF0C8FEC0
:109ABC0041F20143ADF80830019B1B788DF80A3058
:109ACC000123ADF80C300123ADF80E3000238DF8D6
:109ADC0014309DF8153043F010038DF81530012328
:109AEC008DF8193001238DF81A3001238DF81B30B5
:109AFC00019B5888019B1A1D02AB194604F0F0F922
:109B0C000346184612B010BD306B020000B58BB086
:109B1C00039002910192ADF8023000230993039B4C
:109B2C00002B01D10E2324E0099B002B01D0099BB3
:109B3C001FE0BDF802304FF6FF72934218D005AB10
:109B4C001022002118460CF07BFE039B9B88ADF87D
:109B5C001430029B0893019B079301238DF8163058
:109B6C0005AABDF8023011461846FFF785FE09908C
:109B7C00099B18460BB000BD76DF704700BF184636
:109B8C0077DF704700BF18467ADF704700BF184672
:109B9C007CDF704700BF18467FDF704700BF184658
:109BAC008FDF704700BF1846B1DF704700BF184603
:109BBC00064B1B78DAB2064B1B78DBB29A420CBF11
:109BCC0001230023DBB21846704700BF482D00204C
:109BDC00492D00200C4B1B78DBB20133DAB20B4B56
:109BEC00A3FB021399080B465B000B445B00D31AD2
:109BFC00DAB2074B1B78DBB29A420CBF012300236D
:109C0C00DBB21846704700BF482D0020ABAAAAAAA9
:109C1C00492D002000B583B001900B46ADF8023001
:109C2C00FFF7D8FF0346002B10D0204B1B78DBB27C
:109C3C000133DAB21E4BA3FB021399080B465B00EF
:109C4C000B445B00D31ADAB2184B1A70194B1B7801
:109C5C00DBB21946184ADC2301FB03F31344BDF8AD
:109C6C0002201A80134B1B78DBB21A46DC2302FB52
:109C7C0003F3114A13440233BDF80220019918462C
:109C8C000CF0ACFD0B4B1B78DBB20133DAB2084B9A
:109C9C00A3FB021399080B465B000B445B00D31A21
:109CAC00DAB2044B1A7000BF03B000BD492D00207E
:109CBC00ABAAAAAA482D00202028002000B585B008
:109CCC004BE02C4B1B78DBB219462B4ADC2301FBF7
:109CDC0003F313441B88ADF80630264B1B78DBB21C
:109CEC001A46DC2302FB03F3234A1344991C234B2F
:109CFC001B880DF10602224804F0BAFE0390039B68
:109D0C00002B11D11B4B1B78DBB20133DAB21D4B8C
:109D1C00A3FB021399080B465B000B445B00D31AA0
:109D2C00DAB2144B1A7018E0039B132B1ED0039B52
:109D3C00082B1BD0039B052B18D0039B0C2B15D089
:109D4C00039B072B12D0039B0293029B002B04D086
:109D5C000D4A4F21029807F055FAFFF729FF0346E9
:109D6C0083F00103DBB2002BABD100E000BF00BFDE
:109D7C0005B000BD492D002020280020D82400204B
:109D8C00BC240020ABAAAAAA406B020000B585B087
:109D9C0001900B46ADF80230D823ADF80E3040E000
:109DAC00244B1B88BDF80E20D31AADF80C30BDF82F
:109DBC000C20BDF80230934228BF1346ADF80A3090
:109DCC001C4B1B881A461C4B1344BDF80A200199E6
:109DDC0018460CF003FD174B1A88BDF80A301344D3
:109DEC009AB2144B1A80BDF80A30019A13440193AD
:109DFC00BDF80220BDF80A30D31AADF802300D4B75
:109E0C001B88BDF80E209A420BD10C4B1B785A1CA8
:109E1C00D1B20A4A1170BDF80E2007498B5400F0DC
:109E2C000FF8BDF80230002BBAD100BF00BF05B04F
:109E3C0000BD00BF162800203C2700204A2D002022
:109E4C0008B5124B1B884FF6FF72934203D1104B8F
:109E5C0000221A8019E0D9210E48FFF7DBFE0C4BCB
:109E6C0000221A800C4A0D4BD31ADB081B0443F05A
:109E7C000303D9220A4918460BF0BBF90BF030FA50
:109E8C000346002BFAD1FFF719FF08BDD824002098
:109E9C00162800203C270020486A0200106A0200A5
:109EAC00C86B020000B585B003468DF807309DF8ED
:109EBC0007308DF80B300123ADF80830054B1B88AB
:109ECC0002AA0DF10B010448FFF720FE039000BF1E
:109EDC0005B000BDD82400202427002000B583B095
:109EEC00FFF7CAFB03468DF807309DF80730002BAF
:109EFC0002D0012B04D007E00120FFF7D3FF03E0D1
:109F0C000220FFF7CFFF00BF00BF03B000BD000071
:109F1C0000B583B001900091424A434BD31ADB0841
:109F2C001B0443F00303414918460BF055F90BF0A1
:109F3C00D7F90346002BFAD13D4A019B13603D4AE9
:109F4C00009B136000F04CFB364A374BD31ADB08EE
:109F5C001B0443F00303384918460BF03DF90BF092
:109F6C00BFF90346002BFAD100F072F82D4A2E4BA4
:109F7C00D31ADB081B0443F00303304918460BF0DB
:109F8C002BF90BF0ADF90346002BFAD100F092FB44
:109F9C00244A254BD31ADB081B0443F0030328493E
:109FAC0018460BF019F90BF09BF90346002BFAD16C
:109FBC0000F0BAF81B4A1C4BD31ADB081B0443F005
:109FCC000303204918460BF007F90BF089F90346F7
:109FDC00002BFAD100F09AFB124A134BD31ADB0870
:109FEC001B0443F00303184918460BF0F5F80BF06B
:109FFC0077F90346002BFAD100F048F9094A0A4BCD
:10A00C00D31ADB081B0443F00303104918460BF06A
:10A01C00E3F80BF065F90346002BFAD100BF00BF43
:10A02C0003B000BD486A0200106A0200E86B02002F
:10A03C00182800201C280020086C0200206C02004C
:10A04C003C6C0200506C0200686C0200846C0200D4
:10A05C0000B587B09DF80030012262F303038DF840
:10A06C0000309DF80030012262F307138DF80030A8
:10A07C006B460C2219491846FFF78AFD0590059B83
:10A08C000493049B002B04D0154AD421049807F0A8
:10A09C00B9F801AB0822002118460CF0D1FB0623BD
:10A0AC00ADF804300C23ADF806300023ADF80830C1
:10A0BC004FF4C873ADF80A3001AB1846FFF764FDD6
:10A0CC000590059B0393039B002B04D0044ADE21CF
:10A0DC00039807F097F800BF07B000BDA86C02000A
:10A0EC00406B020000B583B00190044AE421019852
:10A0FC0007F088F800BF03B000BD00BF406B020042
:10A10C0000B583B00190019B1B78002B07D1054B48
:10A11C001B68019A1069019A928A1146984700BFF0
:10A12C0003B000BD1828002000B589B000230093AF
:10A13C00384B00936B461946374804F0BBF907902F
:10A14C00079B0693069B002B04D0344AFB210698F0
:10A15C0007F058F803AB0422002118460CF070FBF2
:10A16C002F4B039303AB19462E4804F0DBFB0790EF
:10A17C00079B0593059B002B05D0284A4FF4817152
:10A18C00059807F03FF801AB0822002118460CF0A7
:10A19C0057FB254B01939DF80930012262F3030311
:10A1AC008DF809309DF80930012262F307138DF800
:10A1BC0009309DF80A30012262F303038DF80A304E
:10A1CC009DF80A30012262F307138DF80A309DF8CE
:10A1DC000B30012262F303038DF80B309DF80B302A
:10A1EC00012262F307138DF80B3001AB19460F48AF
:10A1FC00FFF7E6FB0790079B0493049B002B05D00D
:10A20C00064A4FF48971049806F0FCFF00BF09B0B0
:10A21C0000BD00BFF1A0010020260020406B020011
:10A22C000DA10100BC240020CDA701002427002093
:10A23C0000B585B00190019B1B78002B11D10A4B06
:10A24C001B883B211846FFF797FC0390039B029356
:10A25C00029B002B05D0054A40F21D11029806F016
:10A26C00D1FF00BF05B000BDD8240020406B020018
:10A27C0000B583B00190044A4FF49271019806F036
:10A28C00C1FF00BF03B000BD406B020000B58BB036
:10A29C0001AB1C22002118460CF0D2FA00230193CA
:10A2AC004FF4203302934FF47023039303238DF860
:10A2BC0010300023ADF8123000238DF814300B4B06
:10A2CC0006930B4B079301AB184603F009FA099060
:10A2DC00099B0893089B002B05D0064A40F23911C4
:10A2EC00089806F08FFF00BF0BB000BD3DA2010027
:10A2FC007DA20100406B020000B585B003468DF8CD
:10A30C0007309DF80730002B01D0032B10E0032100
:10A31C00094802F062FF0390039B0293029B002BFF
:10A32C0005D0064A40F25311029806F06BFF00BFAD
:10A33C0000BF05B000BD00BF2C260020406B020002
:10A34C0030B591B003900291039B1B88572B00F002
:10A35C00E480572B00F32281562B00F0CB80562B38
:10A36C0000F31C81522B00F09E80522B00F31681BF
:10A37C003B2B00F0AC803B2B00F31081212B62D0E7
:10A38C00212B00F30B81132B78D0132B00F30681B8
:10A39C00122B00F0C580122B00F30081102B02D081
:10A3AC00112B40D0FAE0844A844BD31ADB081B04EF
:10A3BC0043F00303824918460AF00EFF039B9A8868
:10A3CC00804B1A807F4B1B8819467F4804F094F809
:10A3DC000F900F9B0893089B002B05D07B4A4FF4E2
:10A3EC00B371089806F00EFF764B1B8804221946B1
:10A3FC000320FFF7C5FB0F900F9B0793079B002BC8
:10A40C0005D0724A40F26911079806F0FBFE704BBA
:10A41C001B88ADF818306B4B1B8806AA11461846E2
:10A42C00FFF7BEFBC5E0644A644BD31ADB081B0480
:10A43C0043F00303674918460AF0CEFE614B4FF612
:10A44C00FF721A80B5E000238DF8143000238DF8CC
:10A45C001530039B9B8805AA11461846FFF7A0FBF5
:10A46C000F900F9B0B930B9B002B00F09980574A7E
:10A47C004FF4C3710B9806F0C5FE91E0514B188850
:10A48C00002300228521FFF787FB0F900F9B0A9377
:10A49C000A9B002B00F086804C4A4FF4C6710A9838
:10A4AC0006F0B0FE7EE0474B188800230022002106
:10A4BC00FFF77AFB0F900F9B0D930D9B002B73D026
:10A4CC00424A4FF4C9710D9806F09CFE6CE0039B58
:10A4DC009B8813211846FFF74FFB0F900F9B0C9393
:10A4EC000C9B002B62D0394A40F299110C9806F063
:10A4FC0089FE5BE0039B9B8813211846FFF73CFB0E
:10A50C000F900F9B0E930E9B002B51D02F4A4FF4A4
:10A51C00D0710E9806F076FE4AE0FFF7CFFB48E0CC
:10A52C00039B08330993244A244BD31ADB081B04DE
:10A53C0043F00300099B5B881A4613465B019B1A88
:10A54C009B001344244A82FB03125211DB17D31ACB
:10A55C001C46099B5B881A4613465B019B1A9B00A1
:10A56C0013441D4A82FB03125111DA178A1A642113
:10A57C0001FB02F29A1A1546099B9B881946099B06
:10A58C00DB881A4613469B0013445B000193009131
:10A59C002B46224611490AF064FE0AE000BF08E08F
:10A5AC0000BF06E000BF04E000BF02E000BF00E017
:10A5BC0000BF00BF11B030BD486A0200106A020033
:10A5CC00B86C0200D824002020260020406B02002A
:10A5DC00006D0200C46C02001F85EB51D46C0200AC
:10A5EC0000B587B00BF09AFD0590059B0493049B76
:10A5FC00002B05D0154A40F2BF11049806F002FE5C
:10A60C000023019301AB194601200BF0AFFE05901E
:10A61C00059B0393039B002B05D00C4A40F2C511FC
:10A62C00039806F0EFFD01AB18460BF0B7FF059051
:10A63C00059B0293029B002B05D0044A4FF4E97151
:10A64C00029806F0DFFD00BF07B000BD406B0200B2
:10A65C0000B583B001900091009B5A88104B1B8869
:10A66C009A421AD1009B1B8840F67722934214D150
:10A67C00009B9B88033B9AB20A4B1A800A4A0B4BED
:10A68C00D31ADB081B0443F00300064B1B881A4645
:10A69C00044B1B8806490AF0BCFD00BF03B000BD8B
:10A6AC00D8240020DA240020486A0200106A020034
:10A6BC00046D020000B585B01149124803F022FE6A
:10A6CC000390039B0293029B002B05D00E4A40F291
:10A6DC00EB11029806F096FDF7210A4803F03FFEB5
:10A6EC000390039B0193019B002B05D0064A4FF46A
:10A6FC00F771019806F086FD00BF05B000BD00BFE4
:10A70C005DA6010010260020406B020000B5AFB022
:10A71C0001ABAC22002118460CF092F802238DF804
:10A72C00043000238DF8063005238DF80730012303
:10A73C00ADF85030114B159301238DF88030402328
:10A74C00239344F2506324930D4B2A9301AB194687
:10A75C000C4802F06DFC2D902D9B2C932C9B002B08
:10A76C0005D0094A40F205212C9806F04BFD012139
:10A77C00044802F050FC00BF2FB000BDDC240020C8
:10A78C0005A301002C260020406B020000B583B00D
:10A79C000321094802F021FD0190019B0093009BCD
:10A7AC00002B05D0054A40F20D21009806F02AFD39
:10A7BC0000BF03B000BD00BF2C260020406B020080
:10A7CC0000B583B00190019B1B78042B11D0042B96
:10A7DC0017DC032B17D0032B13DC022B15D0022B09
:10A7EC000FDC002B02D0012B11D00AE0FFF776FB17
:10A7FC000EE0094B1B68019A926812781046984734
:10A80C0006E000BF04E000BF02E000BF00E000BFB4
:10A81C0000BF03B000BD00BF1C28002000B585B0F0
:10A82C000190019B002B0AD0064B43F001030393CC
:10A83C00019B9B010293039B0298984700E000BF89
:10A84C0005B000BD1073020082B001904FF0A04320
:10A85C00184602B0704700B585B001900846114605
:10A86C001A4603468DF803300B468DF8023013461A
:10A87C008DF8013001AB1846FFF7E6FF03909DF809
:10A88C0003209DF802305B001A439DF801309B00B9
:10A89C001A439DF818301B0242EA03019DF81C3044
:10A8AC001B04019A1943039B02F5E07243F8221032
:10A8BC0000BF05B000BD00B585B003900023019327
:10A8CC00032300930023012201210398FFF7C3FF08
:10A8DC0000BF05B000BD00B585B0019001AB1846B6
:10A8EC00FFF7B2FF0390019B012202FA03F3194612
:10A8FC00039800F016F800BF05B000BD00B585B098
:10A90C00019001AB1846FFF79FFF0390019B0122BA
:10A91C0002FA03F31946039800F00DF800BF05B0D6
:10A92C0000BD82B001900091019B009AC3F80825EC
:10A93C0000BF02B0704782B001900091019B009A59
:10A94C00C3F80C2500BF02B0704700B583B001906E
:10A95C00019B002B0AD04FF47A70FFF75FFF019B2D
:10A96C00013B0193019B002BF5D100E000BF03B02C
:10A97C0000BD0000014B1846704700BFE0240020CA
:10A98C0000B583B010238DF8063000238DF8073006
:10A99C001DE09DF807301A4AD35C0A21184600F0D6
:10A9AC00B5FD03468DF805309DF80730144AD05C90
:10A9BC009DF805209DF806301343DBB21A460A2198
:10A9CC0000F066FE9DF8073001338DF807309DF8D6
:10A9DC000730052BDDD90B4A0B4BD31ADB081B04B4
:10A9EC0043F00303094918460AF0F6FB0AF078FC19
:10A9FC000346002BFAD100BF00BF03B000BD00BF5F
:10AA0C00E0240020486A0200106A0200206D020057
:10AA1C0008B51020FFF74FFF1020FFF75CFF102048
:10AA2C00FFF76CFF0F20FFF746FF0F20FFF753FFD8
:10AA3C000F20FFF763FF1120FFF73DFF1120FFF7F9
:10AA4C004AFF1120FFF75AFF0B20FFF734FF0B20B2
:10AA5C00FFF741FF0B20FFF751FF1520FFF72BFFEE
:10AA6C001520FFF738FF1520FFF748FF1220FFF7DE
:10AA7C0022FF1220FFF72FFF1220FFF73FFF00F0FD
:10AA8C00C5F800BF08BD000000B583B0FFF7C0FFDC
:10AA9C0000F0D4F80622FF21574800F0A3FD0190E6
:10AAAC00062301220D21544800F03AFE0120FFF745
:10AABC004CFF06220021504800F094FD0622012193
:10AACC004D4800F08FFD062302220D214A4800F06C
:10AADC0027FE062302221021474800F021FE062300
:10AAEC00BF221121444800F01BFE0623182212211C
:10AAFC00414800F015FE0623002213213E4800F0C9
:10AB0C000FFE0623112215213B4800F009FE0623F7
:10AB1C0000222A21384800F003FE062300222B21B4
:10AB2C00354800F0FDFD062384222321324800F035
:10AB3C00F7FD0623842227212F4800F0F1FD062380
:10AB4C00422225212C4800F0EBFD0623422226212F
:10AB5C00294800F0E5FD062342222421264800F076
:10AB6C00DFFD062342222821234800F0D9FD0623CD
:10AB7C0074220921204800F0D3FD062302220A2169
:10AB8C001D4800F0CDFD80220221122000F080FD36
:10AB9C00062321222021184800F0C2FD0623A322FF
:10ABAC002121154800F0BCFD0623CB22222112489E
:10ABBC0000F0B6FD0120FFF7C8FE062304220D218C
:10ABCC000D4800F0ADFD0D4B01221A7000F01EF87F
:10ABDC000B4A0C4BD31ADB081B0443F003030A4942
:10ABEC0018460AF0F9FA0AF07BFB0346002BFAD15F
:10ABFC0000BF00BF03B000BDE02400204B2D00209F
:10AC0C00486A0200106A0200486D020000B583B069
:10AC1C000023019309E0084A019B13441B78184652
:10AC2C00FFF759FE019B01330193019B052BF2DDCC
:10AC3C0000BF00BF03B000BDE024002000B585B00C
:10AC4C0004F05AFE0390039B0293029B002B04D04A
:10AC5C001C4AEE21029806F0D5FA1B4A6B46126884
:10AC6C00114619800233120C1A7003238DF801302F
:10AC7C006B46164A1946012004F0A2FE0390039B72
:10AC8C000193019B002B04D00E4AF421019806F08D
:10AC9C00B9FA0121012004F003FF0D4A0D4BD31A20
:10ACAC00DB081B0443F003030B4918460AF094FA23
:10ACBC000AF016FB0346002BFAD100BF00BF05B00B
:10ACCC0000BD00BF706D0200146E0200E9AC010003
:10ACDC00486A0200106A0200FC6D020082B001900A
:10ACEC000B468DF80330034B01221A7000BF02B0E3
:10ACFC00704700BF4C2D002000B583B00E4B1B7865
:10AD0C00DBB283F00103DBB2002B12D10A4B002221
:10AD1C001A700021122000F0F9FB03468DF8073061
:10AD2C009DF90730002B05DA0621044800F008F8DD
:10AD3C0000E000BF03B000BD4C2D0020E02400203B
:10AD4C0000B585B001900B468DF8033000230393BA
:10AD5C000FE0039B019A13441B78184600F014F87B
:10AD6C00034683F00103DBB2002B08D1039B0133B4
:10AD7C0003939DF80330039A9A42EADB00E000BF8C
:10AD8C0000BF05B000BD000000B599B003468DF8BA
:10AD9C00073000238DF85F300023ADF85C302BE0DA
:10ADAC009DF807300721184600F0B0FB03468DF8DC
:10ADBC005F30BDF85C300133ADF85C30BDF85C3011
:10ADCC00B3F57A7F18D9354A354BD31ADB081B04F7
:10ADDC0043F002039DF80720324918460AF009FA9D
:10ADEC000AF07EFA0346002BFAD12F4B01221A707F
:10ADFC00FFF7C6FD00234EE09DF85F300B2BCFD93B
:10AE0C0024238DF859309DF859300BAA9DF8070072
:10AE1C00082100F0AFFC254B159300238DF85B3017
:10AE2C0000238DF85A3022E09DF85A30159A1344BD
:10AE3C001B78012B16D19DF85B2013465B00134445
:10AE4C0002AAD0189DF85A2013465B0013440BAA93
:10AE5C001344032219460BF0C1FC9DF85B300133FF
:10AE6C008DF85B309DF85A3001338DF85A309DF8CF
:10AE7C005A300B2BD8D99DF85B301A46520013442C
:10AE8C008DF853309DF853309AB202AB11461846E8
:10AE9C00FEF77CFF0123184619B000BD486A02007A
:10AEAC00106A0200186E02004D2D0020047302007F
:10AEBC0010B586B013238DF8123000238DF817309F
:10AECC007D4A7E4BD31ADB081B0443F003037C49F9
:10AEDC0018460AF081F9784A784BD31ADB081B0420
:10AEEC0043F00303774918460AF076F9724A734B1C
:10AEFC00D31ADB081B0443F00303734918460AF00A
:10AF0C006BF90AF0EDF90346002BFAD100238DF80A
:10AF1C0016308DE000238DF815301AE09DF81530B1
:10AF2C006A4AD25C9DF81630694911F833309DF8A5
:10AF3C0015401946104600F0E9FA03461A4604F18A
:10AF4C0018036B4403F80C2C9DF8153001338DF865
:10AF5C0015309DF81530052BE0D901238DF81430F0
:10AF6C0001238DF8133012E09DF8133018336B4425
:10AF7C0013F80C2C9DF80C309A4203D000238DF85A
:10AF8C00143008E09DF8133001338DF813309DF820
:10AF9C001330052BE8D99DF81430002B04D19DF803
:10AFAC00173001338DF81730434A444BD31ADB0862
:10AFBC001B0443F003009DF81630454ADB00134494
:10AFCC005B6819469DF80C301C469DF80D309DF8B9
:10AFDC000E200192009323460A463E490AF041F99D
:10AFEC00354A364BD31ADB081B0443F003009DF89B
:10AFFC000F3019469DF810301C469DF811301A463A
:10B00C009DF81430002B01D0334B00E0334B0193EF
:10B01C00009223460A4632490AF023F90AF060F9F5
:10B02C000346002BFAD19DF8163001338DF81630FB
:10B03C009DF816209DF812309A42FFF46BAF1E4A11
:10B04C001E4BD31ADB081B0443F003031E4918469E
:10B05C000AF0C2F89DF81730002B0CD1164A174B8A
:10B06C00D31ADB081B0443F0030306221D491846C0
:10B07C000AF0BFF80CE0104A104BD31ADB081B0483
:10B08C0043F003039DF81720174918460AF0B1F84E
:10B09C00094A0A4BD31ADB081B0443F00303134978
:10B0AC0018460AF099F80AF01BF90346002BFAD15E
:10B0BC0000BF00BF06B010BD486A0200106A020053
:10B0CC002C6F02005C6F0200A46F0200E0240020D1
:10B0DC0018730200F06F020010700200147002006E
:10B0EC00247002005C70020080700200AC700200E0
:10B0FC0010B588B09D4A04AB92E803001860043385
:10B10C00198000238DF81F30CF238DF81930984A01
:10B11C00984BD31ADB081B0443F0030396491846DB
:10B12C000AF05AF80AF0DCF80346002BFAD1002397
:10B13C008DF81E3012E09DF81E30904AD05C9DF8C0
:10B14C001E3020336B4413F8103C1A46102100F0CB
:10B15C009FFA9DF81E3001338DF81E309DF81E307D
:10B16C00052BE8D90120FFF7F0FB00238DF81D30EB
:10B17C0015E09DF81D30814AD35C9DF81D401021CF
:10B18C00184600F0C3F903461A4604F120036B4439
:10B19C0003F8182C9DF81D3001338DF81D309DF8E7
:10B1AC001D30052BE5D900238DF81C304EE09DF8A1
:10B1BC001C3020336B4413F8102C9DF819301340BD
:10B1CC008DF818309DF81C3020336B4413F8183C64
:10B1DC009DF818209A420CBF01230023DBB28DF896
:10B1EC0017309DF81730002B04D19DF81F30013318
:10B1FC008DF81F305E4A5F4BD31ADB081B0443F0FB
:10B20C0003009DF81C30013319469DF81C30203387
:10B21C006B4413F8103C1C469DF81C3020336B44D7
:10B22C0013F8183C1A469DF81730002B01D0544BDC
:10B23C0000E0544B0193009223460A4652490AF00F
:10B24C0010F89DF81C3001338DF81C309DF81C3023
:10B25C00052BACD900238DF81B3048E09DF81B3032
:10B26C0001338DF81A3039E09DF81B3020336B44D4
:10B27C0013F8182C9DF81A3020336B4413F8183C33
:10B28C009A4226D19DF81B3020336B4413F8183C9E
:10B29C00002B1ED0364A374BD31ADB081B0443F065
:10B2AC0003009DF81B3001331A469DF81A30013308
:10B2BC0019469DF81B3020336B4413F8183C00934F
:10B2CC000B46324909F0B8FF9DF81F3001338DF859
:10B2DC001F309DF81A3001338DF81A309DF81A3052
:10B2EC00052BC1D99DF81B3001338DF81B309DF80F
:10B2FC001B30052BB2D909F0F3FF0346002BFAD112
:10B30C009DF81F30002B0BD1194A1A4BD31ADB08AE
:10B31C001B0443F003031E49184609F05DFF0CE0C3
:10B32C00134A144BD31ADB081B0443F003039DF898
:10B33C001F201849184609F05CFF0D4A0D4BD31A13
:10B34C00DB081B0443F003031349184609F044FFC0
:10B35C0009F0C6FF0346002BFAD106230222102166
:10B36C00064800F0DDF900BF08B010BDFC7102000A
:10B37C00486A0200106A0200DC700200E02400201F
:10B38C0010700200007102000C7102003471020096
:10B39C0080710200AC710200D871020000B58FB050
:10B3AC0003900291009313468DF8073000230D9300
:10B3BC00029B09939DF807300A93009B0B939DF811
:10B3CC0040300C93039B043309A90022184605F066
:10B3DC0073FA0D900D9B18460FB000BD82B0019012
:10B3EC004FF0A043184602B0704700B585B00190ED
:10B3FC0001AB1846FFF7F2FF0390019B012202FA02
:10B40C0003F31946039800F016F800BF05B000BD11
:10B41C0000B585B0019001AB1846FFF7DFFF039034
:10B42C00019B012202FA03F31946039800F00DF870
:10B43C0000BF05B000BD82B001900091019B009A45
:10B44C00C3F8082500BF02B0704782B0019000918C
:10B45C00019B009AC3F80C2500BF02B07047000096
:10B46C0082B001900091034B01221A7000BF02B010
:10B47C00704700BF4E2D002010B586B01C4B01ACA0
:10B48C000FCB84E80F0008238DF8063005238DF8C8
:10B49C0005300C238DF804304FF0804303930023C8
:10B4AC008DF8103002238DF8083001A90023114AC1
:10B4BC00114803F097FC0590059B002B04D00F4A14
:10B4CC001B21059805F09EFE0D4A0E4BD31ADB0886
:10B4DC001B0443F003030C49184609F07DFE09F0E8
:10B4EC00FFFE0346002BFAD100BF00BF06B010BD13
:10B4FC00687402006DB40100B0730200C0730200E6
:10B50C00486A0200106A0200487402002DE9F043F8
:10B51C008BB002AF03460A46FB711346BB716B46F8
:10B52C001E462D4B00221A70FB791846FFF770FF50
:10B53C00BB793B73FF237B730323FB77F97F0B46AC
:10B54C00013BBB61CBB20022984691464FF0000202
:10B55C004FF000034FEAC90343EA58734FEAC8029D
:10B56C00CBB200221C4615464FF000024FF00003F0
:10B57C00EB0043EA5473E2000B460733DB08DB00B5
:10B58C00ADEB030D02AB7B6107F10C01FB7F00936C
:10B59C007B6902221148FFF701FF38613B69002BE0
:10B5AC0006D00F4A3221386905F02CFE00E020BF8E
:10B5BC00094B1B78DBB283F00103DBB2002BF6D115
:10B5CC00FB791846FFF711FF7B699B78B546184647
:10B5DC002437BD46BDE8F0834E2D0020B073020029
:10B5EC00C07302002DE9F04387B000AF78600B46C2
:10B5FC00FB701346BB706B461E460323FB74F97C31
:10B60C000B46013BFB60CBB20022984691464FF0B3
:10B61C0000024FF000034FEAC90343EA58734FEAA4
:10B62C00C802CBB200221C4615464FF000024FF068
:10B63C000003EB0043EA5473E2000B460733DB08CC
:10B64C00DB00ADEB030D6B46BB6000237B6112E0AE
:10B65C007B697A6813441B78FA7811461846FFF711
:10B66C0055FF03461946094A7B6913440A461A706A
:10B67C007B6901337B61BB787A699A42E8DB034BC7
:10B68C00B54618461C37BD46BDE8F083502D00204A
:10B69C0000B587B003468DF80F300B468DF80E3091
:10B6AC0013468DF80D301B4B00221A709DF80F308D
:10B6BC001846FFF7ADFE9DF80E308DF810300023C4
:10B6CC008DF811309DF80D308DF8123004A900233F
:10B6DC000093002303221048FFF760FE0590059BA2
:10B6EC00002B06D00D4A5C21059805F08BFD00E07F
:10B6FC0020BF084B1B78DBB283F00103DBB2002BBD
:10B70C00F6D19DF80F301846FFF76FFE00BF07B05B
:10B71C0000BD00BF4E2D0020B0730200C0730200AC
:10B72C0000B585B00190084611461A4603468DF8BF
:10B73C0003300B468DF8023013468DF80130002390
:10B74C0003930DE0039B019A13441B789DF8022090
:10B75C009DF803101846FFF79BFF039B01330393DF
:10B76C009DF80130039A9A42ECDB00BF00BF05B094
:10B77C0000BD00002DE9F04389B002AF3A601A46D3
:10B78C000346FB710B46BB7113467B716B461E4621
:10B79C002F4B00221A70FB791846FFF739FEBB7944
:10B7AC003B7280237B727B79991C4B1E7B610A4612
:10B7BC000023904699464FF000024FF000034FEAE9
:10B7CC00C90343EA58734FEAC8020A4600231446D9
:10B7DC001D464FF000024FF00003EB0043EA547398
:10B7EC00E2000B460733DB08DB00ADEB030D02ABCD
:10B7FC003B617B790233DBB207F1080100933B69B3
:10B80C0002221448FFF7CAFDF860FB68002B06D033
:10B81C00114A7E21F86805F0F5FC00E020BF0C4BC6
:10B82C001B78DBB283F00103DBB2002BF6D1FB7982
:10B83C001846FFF7DAFD3B6902337A791946386806
:10B84C000AF0CCFFB54600BF1C37BD46BDE8F083FF
:10B85C004E2D0020B0730200C0730200BFF34F8F57
:10B86C0000BF064BDB6803F4E0620449044B13434E
:10B87C00CB60BFF34F8F00BF00BFFDE700ED00E0D2
:10B88C000400FA0582B00A4B1B680193094B1B6834
:10B89C000093019B0E2B06D1009B002B01D10123A1
:10B8AC0002E0012300E00023184602B0704700BFFD
:10B8BC00300100103401001082B0224B1B68019340
:10B8CC00214B1B680093019B082B2CD1009B052B53
:10B8DC0025D0009B052B24D8009B042B1DD0009B4E
:10B8EC00042B1ED8009B032B15D0009B032B18D8C0
:10B8FC00009B022B0DD0009B022B12D8009B002B1F
:10B90C0003D0009B012B02D00BE0012316E0012396
:10B91C0014E0012312E0012310E001230EE00123C7
:10B92C000CE001230AE0019B0E2B06D1009B002B9F
:10B93C0001D1012302E0012300E00023184602B0EC
:10B94C00704700BF300100103401001082B0224B50
:10B95C001B680193214B1B680093019B082B2CD176
:10B96C00009B052B25D0009B052B24D8009B042B7A
:10B97C001DD0009B042B1ED8009B032B15D0009BC5
:10B98C00032B18D8009B022B0DD0009B022B12D836
:10B99C00009B002B03D0009B012B02D00BE001235A
:10B9AC0016E0012314E0012312E0012310E001232F
:10B9BC000EE001230CE001230AE0019B0E2B06D1C3
:10B9CC00009B002B01D1012302E0012300E00023A6
:10B9DC00184602B0704700BF30010010340100104F
:10B9EC0082B01D4B1B6801931C4B1B680093019B81
:10B9FC00082B2CD1009B052B25D0009B052B24D884
:10BA0C00009B042B1DD0009B042B1ED8009B032BEA
:10BA1C0015D0009B032B18D8009B022B0DD0009B3C
:10BA2C00022B12D8009B002B03D0009B012B02D0C1
:10BA3C000BE001230CE000230AE0002308E00023C4
:10BA4C0006E0002304E0002302E0002300E00023D2
:10BA5C00184602B0704700BF3001001034010010CE
:10BA6C0082B01D4B1B6801931C4B1B680093019B00
:10BA7C00082B2CD1009B052B25D0009B052B24D803
:10BA8C00009B042B1DD0009B042B1ED8009B032B6A
:10BA9C0015D0009B032B18D8009B022B0DD0009BBC
:10BAAC00022B12D8009B002B03D0009B012B02D041
:10BABC000BE001230CE000230AE0002308E0002344
:10BACC0006E0002304E0002302E0002300E0002352
:10BADC00184602B0704700BF30010010340100104E
:10BAEC0082B01D4B1B6801931C4B1B680093019B80
:10BAFC00082B2CD1009B052B25D0009B052B24D883
:10BB0C00009B042B1DD0009B042B1ED8009B032BE9
:10BB1C0015D0009B032B18D8009B022B0DD0009B3B
:10BB2C00022B12D8009B002B03D0009B012B02D0C0
:10BB3C000BE001230CE000230AE0002308E00023C3
:10BB4C0006E0002304E0002302E0002300E00023D1
:10BB5C00184602B0704700BF3001001034010010CD
:10BB6C0082B01D4B1B6801931C4B1B680093019BFF
:10BB7C00082B2CD1009B052B25D0009B052B24D802
:10BB8C00009B042B1DD0009B042B1ED8009B032B69
:10BB9C0015D0009B032B18D8009B022B0DD0009BBB
:10BBAC00022B12D8009B002B03D0009B012B02D040
:10BBBC000BE001230CE000230AE0002308E0002343
:10BBCC0006E0002304E0002302E0002300E0002351
:10BBDC00184602B0704700BF30010010340100104D
:10BBEC0082B0224B1B680193214B1B680093019B75
:10BBFC00082B2CD1009B052B25D0009B052B24D882
:10BC0C00009B042B1DD0009B042B1ED8009B032BE8
:10BC1C0015D0009B032B18D8009B022B0DD0009B3A
:10BC2C00022B12D8009B002B03D0009B012B02D0BF
:10BC3C000BE0012316E0012314E0012312E00123A1
:10BC4C0010E001230EE001230CE001230AE0019B2C
:10BC5C000E2B06D1009B002B01D1012302E0012306
:10BC6C0000E00023184602B0704700BF30010010FE
:10BC7C003401001082B00A4B1B680193094B1B68FE
:10BC8C000093019B0E2B06D1009B002B01D10123AD
:10BC9C0002E0012300E00023184602B0704700BF09
:10BCAC00300100103401001082B01D4B1B68019351
:10BCBC001C4B1B680093019B082B2CD1009B052B64
:10BCCC0025D0009B052B24D8009B042B1DD0009B5A
:10BCDC00042B1ED8009B032B15D0009B032B18D8CC
:10BCEC00009B022B0DD0009B022B12D8009B002B2B
:10BCFC0003D0009B012B02D00BE000230CE00023AF
:10BD0C000AE0002308E0002306E0012304E00123FD
:10BD1C0002E0012300E00023184602B0704700BF88
:10BD2C00300100103401001008B5FFF7BDFF0346C9
:10BD3C00002B07D04FF010234FF08042D3F808327D
:10BD4C00C2F8583500BF08BD00BF044BD3F800340F
:10BD5C00002BFAD000BF00BF704700BF00E00140CD
:10BD6C0000B583B00190044A019BC2F80435FFF77B
:10BD7C00EBFF00BF03B000BD00E00140024B034AE3
:10BD8C001A6000BF704700BFE82400200090D00369
:10BD9C0008B5FFF777FD0346002B06D08C4B1B68CC
:10BDAC005B0B8C4A03F007031360FFF785FD03461A
:10BDBC00002B0ED04FF080430022C3F80C214FF023
:10BDCC0080430022C3F810214FF080430022C3F8B7
:10BDDC003825FFF7BBFD0346002B76D04FF0805380
:10BDEC007D4AD3F80434C2F820354FF080537A4A98
:10BDFC00D3F80834C2F824354FF08053764AD3F880
:10BE0C000C34C2F828354FF08053734AD3F81034F1
:10BE1C00C2F82C354FF080536F4AD3F81434C2F863
:10BE2C0030354FF080536C4AD3F81834C2F834359F
:10BE3C004FF08053684AD3F81C34C2F840354FF0A9
:10BE4C008053654AD3F82034C2F844354FF0805300
:10BE5C00614AD3F82434C2F848354FF080535E4A17
:10BE6C00D3F82834C2F84C354FF080535A4AD3F8E3
:10BE7C002C34C2F850354FF08053574AD3F8303435
:10BE8C00C2F854354FF08053534AD3F83434C2F8C7
:10BE9C0060354FF08053504AD3F83834C2F86435CB
:10BEAC004FF080534C4AD3F83C34C2F868354FF00D
:10BEBC008053494AD3F84034C2F86C354FF0805364
:10BECC00454AD3F84434C2F87035FFF789FD034670
:10BEDC00002B02D0414B424A1A60FFF7C1FD0346CA
:10BEEC00002B03D03F4BFB22C3F81825FFF7F8FDBE
:10BEFC000346002B0AD03C4B1B6823F00F023B4B34
:10BF0C001B6803F00F03384913430B60FFF728FE3F
:10BF1C000346002B03D0364B4FF400721A60FFF728
:10BF2C005FFE0346002B0DD04FF08043D3F8003456
:10BF3C0003F00103002B05D04FF080436FF001029A
:10BF4C00C3F80024FFF796FE0346002B05D0264BC2
:10BF5C001B68254A43F00F031360FFF7E5FE4FF013
:10BF6C001023D3F80032002B05DB4FF01023D3F84D
:10BF7C000432002B15DA0120FFF7F2FE4FF01023EC
:10BF8C001222C3F80022FFF7DFFE4FF0102312221B
:10BF9C00C3F80422FFF7D8FE0020FFF7E1FEFFF7FD
:10BFAC005DFC144B1B6803F00103002B0CD001202B
:10BFBC00FFF7D6FE0F4B00221A60FFF7C5FE0020DC
:10BFCC00FFF7CEFEFFF74AFCFFF7D8FE00BF08BD17
:10BFDC00440200103C05004000C000408C5600405C
:10BFEC004881030000F00040E40E004058020010AD
:10BFFC00409602400C1200106DDF704700BF1846CF
:10C00C0079DF704700BF18467DDF704700BF1846C8
:10C01C0064DF704700BF184682B003460091ADF84C
:10C02C000630BDF80630DAB2009B1A70BDF8063047
:10C03C001B0A9AB2009B0133D2B21A700223184623
:10C04C0002B0704700B589B0039002911346ADF869
:10C05C000630029B1B8803F10902BDF806309A4298
:10C06C0001D90C2353E004AB1846FFF7C5FF07902A
:10C07C00079B0693069B002B01D0069B47E0029B77
:10C08C001B881A46039B134408221A70029B1B88B8
:10C09C0001339AB2029B1A80029B1B881A46039B9F
:10C0AC0013441B221A70029B1B8801339AB2029B09
:10C0BC001A80029B1B881A46039B981804AB013309
:10C0CC00062219460AF08AFB029B1B8806339AB299
:10C0DC00029B1A809DF8103023F00103DBB2002B79
:10C0EC0007D1029B1B881A46039B134400221A702B
:10C0FC0006E0029B1B881A46039B134401221A700C
:10C10C00029B1B8801339AB2029B1A8000231846AB
:10C11C0009B000BD00B589B0039002910192ADF851
:10C12C000230039B1B78012B05D1039B5B78002B02
:10C13C0001D1072391E0019B1B889A1CBDF80230AA
:10C14C009A420ED8039B1B78012B0CD1019B1B88A8
:10C15C001A46039B5B7813449A1CBDF802309A4232
:10C16C0001D90C2379E0019B1B88BDF80220D31A5E
:10C17C009BB2023BADF81C30BDF81C30ADF8123050
:10C18C00019B1B880233029A13440DF112021146D3
:10C19C001846FFF739FF0690069B0593059B002B6D
:10C1AC0001D0059B59E0039B1B78022B06D0039B07
:10C1BC005B781A46BDF812309A4209D3BDF812309A
:10C1CC00BDF81C209A4203D309238DF81F3016E0CA
:10C1DC0008238DF81F30039B1B78012B0BD1039B7D
:10C1EC005B781A46BDF81C30934204D3039B5B78F2
:10C1FC00ADF8123003E0BDF81C30ADF81230BDF8CC
:10C20C001230FE2B01D90C2327E0BDF81230DAB224
:10C21C00019B1B881946029B0B440132D2B21A7047
:10C22C00019B1B8801339AB2019B1A80019B1B88CE
:10C23C001A46029B13449DF81F201A70019B1B8801
:10C24C0001339AB2019B1A80019B1A88BDF81230F7
:10C25C0013449AB2019B1A800023184609B000BD02
:10C26C0000B589B0039002911346ADF80630029BDD
:10C27C001B881A1DBDF806309A4201D90C233AE0EE
:10C28C000DF116031846FFF7BBFE0790079B0693AC
:10C29C00069B002B01D0069B2DE0029B1B881A46A7
:10C2AC00039B134403221A70029B1B8801339AB21E
:10C2BC00029B1A80029B1B881A46039B134419226B
:10C2CC001A70029B1B8801339AB2029B1A80BDF82C
:10C2DC001620029B1B881946039B0B4419461046DB
:10C2EC00FFF79AFE03461A46029B1B8813449AB228
:10C2FC00029B1A800023184609B000BD84B002913D
:10C30C0001921A4603468DF80F301346ADF80C30E7
:10C31C00019B1B88DA1CBDF80C309A4201D90C2306
:10C32C0028E0019B1B881A46029B134402221A70B8
:10C33C00019B1B8801339AB2019B1A80019B1B88BD
:10C34C001A46029B134401221A70019B1B8801336D
:10C35C009AB2019B1A80019B1B881A46029B1344BC
:10C36C009DF80F201A70019B1B8801339AB2019B18
:10C37C001A800023184604B0704784B002910192D1
:10C38C001A4603468DF80F301346ADF80C30019B5E
:10C39C001B88DA1CBDF80C309A4201D90C2328E01A
:10C3AC00019B1B881A46029B134402221A70019BA4
:10C3BC001B8801339AB2019B1A80019B1B881A4679
:10C3CC00029B13440A221A70019B1B8801339AB2F8
:10C3DC00019B1A80019B1B881A46029B13449DF8F3
:10C3EC000F201A70019B1B8801339AB2019B1A8093
:10C3FC000023184604B0704700B58DB0039001932C
:10C40C000B468DF80B3013468DF80A3000238DF84F
:10C41C002B300E9B1B88ADF8283000230B9372E059
:10C42C00039B5A680B9B9B001A4404AB1068186062
:10C43C000DF1170104AB00221846FFF7E9FD089037
:10C44C00089B0793079B002B01D0079B7DE09DF871
:10C45C0017309DF80A209A4252D19DF82B30002BB0
:10C46C0003D000238DF82A3002E002238DF82A3005
:10C47C000E9B1B881A469DF817301A449DF82A30DB
:10C48C001A44BDF83C309A4201DD0C235DE09DF866
:10C49C002B3083F00103DBB2002B16D00E9B1B88D4
:10C4AC0001339AB20E9B1A800E9B1B881A46019B75
:10C4BC0013449DF80B201A700E9B1B8801339AB203
:10C4CC000E9B1A8001238DF82B300E9B1B881A466D
:10C4DC00019B1A440DF1170104AB1846FFF798FDA8
:10C4EC000890089B0693069B002B01D0069B2CE022
:10C4FC000E9B1B889DF8172013449AB20E9B1A8032
:10C50C000B9B01330B93039B1B881A460B9B93428B
:10C51C0086DB9DF82B30002B16D00E9B1A88BDF8AD
:10C52C002830D31A9BB2013BADF82630BDF826302B
:10C53C00FF2B01D90C2308E0BDF82830019A1344D5
:10C54C00BDF82620D2B21A70002318460DB000BDDB
:10C55C0000B58BB0059003930B468DF81330134642
:10C56C008DF812309DF81310BDF8343001930C9BEC
:10C57C000093039B02220598FFF73EFF0990099B4D
:10C58C000893089B002B01D0089B14E09DF8121017
:10C59C00BDF8343001930C9B0093039B102205983B
:10C5AC00FFF72AFF0990099B0793079B002B01D0EB
:10C5BC00079B00E0002318460BB000BD82B0019031
:10C5CC00019B1B88052B0AD9019B1B88B3F5486F6F
:10C5DC0007D9019B1B884FF6FF72934201D00723AA
:10C5EC0025E0019B5B88052B0AD9019B5B88B3F581
:10C5FC00486F07D9019B5B884FF6FF72934201D0BD
:10C60C00072314E0019B1B884FF6FF7293420DD059
:10C61C00019B5B884FF6FF72934207D0019B1A88EF
:10C62C00019B5B889A4201D9072300E0002318463E
:10C63C0002B0704700B587B0039002910192ADF83B
:10C64C000230019B1B889A1DBDF802309A4201D919
:10C65C000C234BE00398FFF7B1FF0590059B049367
:10C66C00049B002B01D0049B40E0019B1B881A46C5
:10C67C00029B134405221A70019B1B8801339AB24A
:10C68C00019B1A80019B1B881A46029B13441222A1
:10C69C001A70019B1B8801339AB2019B1A80039B71
:10C6AC001A88019B1B881946029B0B44194610469D
:10C6BC00FFF7B2FC03461A46019B1B8813449AB23F
:10C6CC00019B1A80039B5A88019B1B881946029B6D
:10C6DC000B4419461046FFF79FFC03461A46019B74
:10C6EC001B8813449AB2019B1A800023184607B08A
:10C6FC0000BD00B587B0039002910192ADF80230F5
:10C70C00039B9B8802330593019B1B881A46059B50
:10C71C0013449A1CBDF802309A4201D90C2353E001
:10C72C00059BFE2B01D90C234EE0059BDAB2019B35
:10C73C001B881946029B0B440132D2B21A70019B22
:10C74C001B8801339AB2019B1A80019B1B881A46E5
:10C75C00029B1344FF221A70019B1B8801339AB26F
:10C76C00019B1A80039B1A88019B1B881946029B0C
:10C77C000B4419461046FFF74FFC03461A46019B23
:10C78C001B8813449AB2019B1A80039B9B88002B35
:10C79C0019D0039B9B68002B01D1072314E0019B4C
:10C7AC001B881A46029B9818039B9968039B9B88CD
:10C7BC001A460AF013F8019B1A88039B9B881344B2
:10C7CC009AB2019B1A800023184607B000BD00B531
:10C7DC0089B0039002910192ADF80230039B9B6AE1
:10C7EC00002B01D1072371E000238DF81F3065E089
:10C7FC00039B996A9DF81F2013465B0013449B0012
:10C80C000B440693069B9B8802330593059BFE2BDA
:10C81C0001D90C235AE0059BDAB2019B1B881946FF
:10C82C00029B0B440132D2B21A70019B1B8801335C
:10C83C009AB2019B1A80019B1B881A46029B1344D7
:10C84C0016221A70019B1B8801339AB2019B1A8025
:10C85C00069B1A88019B1B881946029B0B441946A0
:10C86C001046FFF7D9FB03461A46019B1B8813445D
:10C87C009AB2019B1A80069B9B88002B19D0069BB1
:10C88C009B68002B01D1072320E0019B1B881A46D3
:10C89C00029B9818069B9968069B9B881A4609F080
:10C8AC009DFF019B1A88069B9B8813449AB2019B9F
:10C8BC001A809DF81F3001338DF81F30039B93F8BD
:10C8CC002C309DF81F209A4292D30023184609B0B1
:10C8DC0000BD00B595B0059004910392002313930D
:10C8EC00039B1B88ADF84A30039B00221A80059BE2
:10C8FC0093F82D30002B0ED0BDF84A301A46039910
:10C90C000498FFF79FFB1390139B1193119B002B23
:10C91C0001D0119BD8E0059B9B78002B0ED0BDF865
:10C92C004A301A4603990498FFF79AFC1390139B0C
:10C93C001093109B002B01D0109BC5E0059BDB785E
:10C94C00002B10D0059BDB7858B2BDF84A30039A07
:10C95C000499FFF7D3FC1390139B0F930F9B002BA1
:10C96C0001D00F9BB0E0059B5B68002B11D0059BA1
:10C97C005B6893F90000BDF84A30039A0499FFF7FD
:10C98C00FCFC1390139B0E930E9B002B01D00E9B63
:10C99C009AE0059B1B89002B14D0059B03F1080022
:10C9AC00BDF84A300193039B0093049B062202219D
:10C9BC00FFF7CEFD1390139B0D930D9B002B01D015
:10C9CC000D9B81E0059B1B8A002B14D0059B03F16A
:10C9DC001000BDF84A300193039B0093049B07227F
:10C9EC000321FFF7B5FD1390139B0C930C9B002BAD
:10C9FC0001D00C9B68E0059B1B8B002B14D0059B76
:10CA0C0003F11800BDF84A300193039B0093049B7B
:10CA1C0015221421FFF79CFD1390139B0B930B9B7A
:10CA2C00002B01D00B9B4FE0059B1B6A002B0FD0FA
:10CA3C00059B186ABDF84A30039A0499FFF7FAFD72
:10CA4C001390139B0A930A9B002B01D00A9B3BE08B
:10CA5C00059B5B6A002B0FD0059B586ABDF84A30CA
:10CA6C00039A0499FFF745FE1390139B0993099BB6
:10CA7C00002B01D0099B27E0059B93F82C30002B51
:10CA8C000ED0BDF84A30039A04990598FFF79FFE23
:10CA9C001390139B0893089B002B01D0089B13E069
:10CAAC00059B1B78002B0ED0BDF84A30039A0499D5
:10CABC000598FFF72FFB1390139B0793079B002BF5
:10CACC0001D0079B00E0139B184615B000BD86B043
:10CADC00039001921A460B46ADF80A3013468DF8B6
:10CAEC000930039B002B02D0019B002B01D10023AA
:10CAFC005CE00023ADF816300CE0BDF81630039A5C
:10CB0C0013441B781A46BDF8163013449BB20133FC
:10CB1C00ADF81630BDF816305A1CBDF80A309A42E2
:10CB2C000FDA019B1B88BDF816209A42E5D3BDF89D
:10CB3C0016300133039A13441B789DF809209A424E
:10CB4C00DBD1BDF81620BDF80A309A4201D3002380
:10CB5C002CE0BDF816300233ADF81230BDF81630AB
:10CB6C00039A13441B78002B08D0BDF81630039A97
:10CB7C0013441B78013BADF8143002E00023ADF8F0
:10CB8C001430BDF81430002B08D0BDF81220BDF8BD
:10CB9C0014301A44BDF80A309A4201DD002305E036
:10CBAC00019BBDF812201A80BDF81430184606B04F
:10CBBC00704700B585B001900B46ADF802301346B6
:10CBCC008DF801300023ADF80C309DF8013003AA2C
:10CBDC00BDF802100198FFF77AFF0346ADF80E304E
:10CBEC00BDF80E30002B01D1002304E0BDF80C3051
:10CBFC001A46019B1344184605B000BD72DF7047FE
:10CC0C0000BF184673DF704700BF184682B0019012
:10CC1C00019B93F8F430184602B0704784B0019031
:10CC2C00002303930AE0019A039B13441B78002B07
:10CC3C0001D0012306E0039B01330393039B052BD7
:10CC4C00F1D90023184604B07047000082B00346A7
:10CC5C008DF807309DF807305A1C074B83FB0213E5
:10CC6C005910D317C91A0B469B000B44D11ACBB2DF
:10CC7C00184602B0704700BF6766666682B00190C6
:10CC8C000091009BDB7B012B04D1009B9A88019BBC
:10CC9C00A3F8E82000BF02B0704700B585B0019042
:10CCAC000091019B002283F8F220009B9A88019B43
:10CCBC00B3F8E8309A4216D1019B1B7983F001033B
:10CCCC00DBB2002B0FD00121019800F086FA039003
:10CCDC00039B002B07D0019B9B6B002B03D0019B6C
:10CCEC009B6B0398984700BF05B000BD00B585B09D
:10CCFC0001900091009B1B88262B1ED1009B1B7A58
:10CD0C00012B03D0009B1B7A022B17D1019B9B7824
:10CD1C001846FFF79BFF03461946019800F05DFA91
:10CD2C000390039B002B09D0019B9B6B002B05D020
:10CD3C00019B9B6B0398984700E000BF05B000BDBA
:10CD4C0000B585B001900B468DF80330019BEB3399
:10CD5C001846FFF763FF03468DF80F309DF803303C
:10CD6C00042B2CD0042B30DC032B22D0032B2CDCFB
:10CD7C00012B02D0022B12D027E0019B9B79002BB8
:10CD8C000DD0019B93F8243083F00103DBB2002B10
:10CD9C0005D09DF80F30002B01D0012316E0019B2C
:10CDAC00DB79002B05D09DF80F30002B01D002232E
:10CDBC000CE0019B1B7A002B01D0032306E0019BA6
:10CDCC005B7A002B01D0042300E00023184605B049
:10CDDC0000BD82B001900091019B012283F83120AB
:10CDEC00019B0022C3F8E420019B03F1EA02009BA3
:10CDFC005A60009B00229A60009B02221A70009BD2
:10CE0C0080229A810023184602B0704782B00190AC
:10CE1C000091019B022283F83120009B03221A709F
:10CE2C00019B1B699AB2009B9A81019B0022C3F85B
:10CE3C00E420019B03F1EA02009B5A60019BDA6833
:10CE4C00009B9A600023184602B0704700B583B06F
:10CE5C000190019B5B79002B0FD0019B93F8F23072
:10CE6C0083F00103DBB2002B07D00198FFF7CEFE55
:10CE7C000346002B01D0012300E0002303F0010343
:10CE8C00DBB2184603B000BD00B585B001900B466F
:10CE9C008DF80330019BD3F8D400019BB3F8D83044
:10CEAC0001221946FFF785FE0390039B002B03D04C
:10CEBC00039B9DF803201A70019B03F15400019B06
:10CECC0003F1D401019B3C331A46FFF797FE03464E
:10CEDC00184605B000BD00B585B001900091019BCE
:10CEEC005A69009B9A60019B9B699AB2009B9A813C
:10CEFC00019B012283F83C200198FFF7A7FF034612
:10CF0C00002B13D0009B02221A7504210198FFF705
:10CF1C00BBFF0390039B0293029B002B01D0029B4F
:10CF2C000FE0019B052283F8312003E0019B0322D3
:10CF3C0083F83120019B03F1D402019BC3F8E42058
:10CF4C000023184605B000BD00B585B001900091D6
:10CF5C00019BDA69009B9A60019B1B6A9AB2009B49
:10CF6C009A81019B012283F83C200198FFF76EFF08
:10CF7C000346002B13D0009B02221A750421019842
:10CF8C00FFF782FF0390039B0293029B002B01D0BF
:10CF9C00029B0FE0019B062283F8312003E0019BEA
:10CFAC00042283F83120019B03F1D402019BC3F8C6
:10CFBC00E4200023184605B000BD82B00190019B0F
:10CFCC009B78002B06D0019B93F82030002B01D0CE
:10CFDC0000230AE0019B9B6A042B03D0019B5B6A34
:10CFEC00042B01D1002300E00123184602B0704746
:10CFFC0084B00190019B93F82430002B03D01F23A5
:10D00C00ADF80E3002E01F23ADF80E30BDF80E3037
:10D01C00184604B0704782B001900B468DF803306F
:10D02C00019B9DF8032083F8302000BF02B07047AD
:10D03C0030B587B001900091009B002B02D0019B72
:10D04C00002B01D10E23B5E0009B78331846FFF777
:10D05C00B4FF034683F00103DBB2002B01D007239E
:10D06C00A8E0019B00229A70019A009B141D03F109
:10D07C0078050FCD0FC40FCD0FC495E8070084E8D9
:10D08C000700019B002283F83020009BD3F8A420DA
:10D09C00019B5A63009BD3F8A820019B9A63019BC8
:10D0AC004FF6FF72A3F8E820019B03F1D402019B19
:10D0BC00C3F8E420019BEA3307220021184609F04B
:10D0CC00BFFB019B1B7883F00103DBB2002B03D069
:10D0DC00019BFF2283F85420019B03F15502019B15
:10D0EC00C3F8D4200198FFF783FF03461A46019B2F
:10D0FC00A3F8D8200098019B03F15501019BD8336C
:10D10C001A46FFF7E6FB0590059B0493049B002B46
:10D11C0001D0049B4EE0019B03F19302019BC3F8E9
:10D12C00DC200198FFF764FF03461A46019BA3F825
:10D13C00E020009B03F13C00019BD3F8DC10019B29
:10D14C00E0331A46FFF7C5FB0590059B0393039B41
:10D15C00002B01D0039B2DE0019B012283F8512071
:10D16C00019B9B699AB2019BA3F84820019B012269
:10D17C0083F83C20019B00221A64019B002283F857
:10D18C005020019B5A69019B5A64019B03F1540086
:10D19C00019B3C331A460021FFF730FD0590059B9F
:10D1AC000293029B002B01D0029B03E0019B012206
:10D1BC001A70059B184607B030BD82B00190019BD8
:10D1CC001B68012B03D0019B1B68022B01D101238F
:10D1DC0000E00023184602B0704700B585B00190FE
:10D1EC000B468DF80330019B1B7883F00103DBB2F7
:10D1FC00002B01D0082309E1019B9DF803209A70B4
:10D20C00019BEA3307220021184609F019FB019B08
:10D21C009B79002B03D0019B9B78012B0FD0019B9A
:10D22C00DB79002B03D0019B9B78012B07D0019B52
:10D23C00DB79002B14D0019B9B78022B10D1019B26
:10D24C005B6B002B08D0019B012283F8F120019B22
:10D25C005B6B0820984703E0019B002283F8F120C8
:10D26C009DF8033019460198FFF76AFD03461A46EC
:10D27C00019B9A70019B5B6B002B20D0019B9B78D0
:10D28C00032B03D0019B9B78042B18D1019B5B795A
:10D29C00002B14D0019B93F8F23083F00103DBB226
:10D2AC00002B0CD0019B002283F8F420019B01225F
:10D2BC0083F8F320019B5B6B0720984703E0019BED
:10D2CC00002283F8F320019B3C33182200211846DE
:10D2DC0009F0B6FA019B012283F83C20019B2C3308
:10D2EC001846FFF76AFF0346002B06D0019BDB6A4A
:10D2FC00DAB2019B83F8512003E0019B012283F8F1
:10D30C005120019B93F82430002B12D0019B283321
:10D31C001846FFF752FF0346002B06D0019B9B6A71
:10D32C00DAB2019B83F8522003E0019B012283F8BF
:10D33C005220019B002283F85020019B9B78042BE8
:10D34C0025D0042B30DC032B19D0032B2CDC022B27
:10D35C000DD0022B28DC002B21D0012B24D1019BDA
:10D36C003C3319460198FFF734FD03901DE0019BF7
:10D37C003C3319460198FFF749FD039015E0019BDA
:10D38C003C3319460198FFF7A6FD03900DE0019B75
:10D39C003C3319460198FFF7D7FD039005E0019B3C
:10D3AC00002283F8312000E000BF019B9B78002B0A
:10D3BC0020D0019B03F15400019BD3F8E410019B96
:10D3CC003C331A46FFF71AFC0390039B002B01D049
:10D3DC00039B1BE0019B93F85420019B93F8303086
:10D3EC0019461046FFF70EFC0390039B002B01D04F
:10D3FC00039B0BE0019B5B6B002B06D0019B5B6BD3
:10D40C00019A92F83120104698470023184605B02F
:10D41C0000BD00B585B001900091009B0393019B6A
:10D42C001B88262B10D0262B13DC102B02D0112B93
:10D43C0005D00EE001990398FFF720FC0AE0019952
:10D44C000398FFF72AFC05E001990398FFF74EFCBF
:10D45C0000E000BF00BF05B000BD75DF704700BF26
:10D46C00184676DF704700BF18467ADF704700BF5A
:10D47C0018467BDF704700BF1846000084B0034697
:10D48C00ADF806300023039316E00F49039A1346B8
:10D49C009B0013449B000B441B88BDF806209A424A
:10D4AC0007D1039A13469B0013449B00064A13446E
:10D4BC0006E0039B01330393039B002BE5D0002371
:10D4CC00184604B0704700BF782D002082B0019040
:10D4DC000B46ADF80230019BBDF802201A80019B6F
:10D4EC0000221A72019B054903F10A020B4603CB79
:10D4FC001060516000BF02B0704700BFA82D002023
:10D50C0082B00190019B4FF6FF721A8000BF02B0EF
:10D51C00704788B00390029111461A460B46ADF83D
:10D52C0006301346ADF80430039B9B881A46BDF8B1
:10D53C00063013440793039B9B881946039B9B88D7
:10D54C00BDF80620934228BF13469BB2CB1A069314
:10D55C00039BDB881A46BDF8043013440593039BE8
:10D56C00DB881946039BDB88BDF80420934228BF57
:10D57C0013469BB2CB1A0493029B5A88039B1B88BD
:10D58C009A4205D3029B5A88039B5B889A4201D925
:10D59C0000231CE0029B9B881A46069B934205D8ED
:10D5AC00029B9B881A46079B934201D200230EE0F4
:10D5BC00029BDB881A46049B934205D8029BDB88AE
:10D5CC001A46059B934201D2002300E00123184622
:10D5DC0008B0704700B583B00190054B9B69002BD8
:10D5EC0003D0034B9B690198984700BF03B000BD63
:10D5FC008C2D002000B585B003460091ADF80630A7
:10D60C00BDF8063000991846FFF727FF0390039BDF
:10D61C00002B05D0039B112B02D00398FFF7DAFFE8
:10D62C00039B002B0CBF01230023DBB2184605B073
:10D63C0000BD000000B589B00190019B0793079BCA
:10D64C009BB21846FFF71AFF0690069B002B42D0A0
:10D65C00069B1A7A214B1B7B9A4215D2079B9AB2D6
:10D66C00069B0A3319461046FFF7C4FF03468DF894
:10D67C0013309DF81330002B2DD0069B1B7A0133F1
:10D68C00DAB2069B1A7226E0069B00221A72134B22
:10D69C001B7C002B0FD0079B9BB23B211846FFF73E
:10D6AC00E0FE0590059B002B05D0059B082B02D0B6
:10D6BC000598FFF78FFF094B5B69002B0BD00023FC
:10D6CC008DF80C30079B9BB2ADF80E30034B5B69A9
:10D6DC0003AA1046984700BF09B000BD8C2D00204E
:10D6EC0030B587B00190019B002B01D10E2353E084
:10D6FC002B4A019B14461D460FCD0FC495E807001D
:10D70C0084E80700264B274A1A60019B1B68002BF4
:10D71C0011D0019B1B681846FFF7A7FE0490049BD1
:10D72C00002B01D0049B37E0019B1A681D4B10683D
:10D73C00516803C308E01B48FFF79BFE0490049B51
:10D74C00002B01D0049B27E00023059320E0059AD1
:10D75C0013469B0013449B00134A134403930398F2
:10D76C00FFF7CEFE059B5B01104A1A44039B5A60DF
:10D77C00039B04330E4A0021184604F0C5FC0490A8
:10D78C00049B002B01D0032306E0059B013305937A
:10D79C00059B002BDBD00023184607B030BD00BF23
:10D7AC008C2D0020A82D0020782D0020582D002035
:10D7BC0041D6010000B587B003460091ADF80630A4
:10D7CC00009B5B7A002B1AD1009B1B7A002B03D198
:10D7DC00164B5B68059302E0144B9B680593009B0A
:10D7EC005B68BDF806200599184604F0BDFC049052
:10D7FC00049B002B16D00498FFF7ECFE12E0009B64
:10D80C0000221A72094B5B69002B0BD001238DF897
:10D81C000C30BDF80630ADF80E30044B5B6903AA32
:10D82C001046984700BF07B000BD00BF8C2D0020EC
:10D83C0000B585B00190019BDB7B8DF80F30019B0F
:10D84C009B88ADF80C309DF80F30012B2CD14FF686
:10D85C00FF70FFF713FE0290029B002B03D10420F4
:10D86C00FFF7B8FE21E0BDF80C3019460298FFF71F
:10D87C002DFE029B03F10A00019B03F110014FF6F0
:10D88C00FF7340F2F312FFF744FE03461A46029B65
:10D89C005A72074BDB89002B07D1BDF80C3002996B
:10D8AC001846FFF787FF00E000BF05B000BD00BFC2
:10D8BC008C2D002000B587B00190019B9B88ADF8A2
:10D8CC001630BDF816301846FFF7D8FD0490049BAF
:10D8DC00002B0ED0049B5B68184604F07BFC039075
:10D8EC00039B002B02D00398FFF774FE0498FFF7FC
:10D8FC0007FE00BF07B000BD00B587B00190019BCB
:10D90C0006330593059B1A88194BDB899A422BD158
:10D91C00059B5B89022B27D1019B9B88ADF81230AC
:10D92C00BDF812301846FFF7A9FD0390039B002B9E
:10D93C001AD0059B0C33184600F04BFA0346002B0B
:10D94C0006D0BDF8123003991846FFF733FF0BE0F1
:10D95C00039B5B68184604F03DFC0290029B002B75
:10D96C0002D00298FFF736FE00BF07B000BD00BF23
:10D97C008C2D002000B585B00190019B9B88ADF8E3
:10D98C000E30BDF80E301846FFF778FD0290029B62
:10D99C00002B15D0029B03F10A00019B03F1080137
:10D9AC004FF6FF7340F2F312FFF7B3FD03461A462E
:10D9BC00029B5A72BDF80E3002991846FFF7FAFE18
:10D9CC0000BF05B000BD00B583B001900091019B74
:10D9DC001B88502B12D0502B18DC122B12D0122B70
:10D9EC0014DC102B02D0112B04D00FE00198FFF7A0
:10D9FC001FFF0CE00198FFF75DFF08E00198FFF7AF
:10DA0C007BFF04E00198FFF7B5FF00E000BF00BF0B
:10DA1C0003B000BD30B58FB001900091002302938C
:10DA2C00009B002B1AD000230D9314E06B460D992C
:10DA3C00184605F037FD0346002B09D0029B5A1CF3
:10DA4C0002920D9A92B25B0038336B4423F82C2C63
:10DA5C000D9B01330D930D9B132BE7D9019B1D4699
:10DA6C0002AC0FCC0FC50FCC0FC594E8070085E8AE
:10DA7C00070001980FB030BD00B583B00346ADF878
:10DA8C000630BDF80630132B01D900230CE0BDF88D
:10DA9C0006301946064805F0D6FCBDF80630194686
:10DAAC00044805F0D0FC0123184603B000BD00BFAC
:10DABC00B82D0020B42D002000B585B00346ADF87C
:10DACC000630002303930DE0039B9B00094A13448B
:10DADC000433BDF806201146184605F0CBFC039B19
:10DAEC0001330393039B1D2BEED900BF00BF05B080
:10DAFC0000BD00BFB02D002000B583B00346ADF8CB
:10DB0C000630BDF806301946024805F0B3FC00BFDC
:10DB1C0003B000BDB82D002030B59BB0184B9B68EE
:10DB2C00DB431893164B5A6818AB1146184605F090
:10DB3C0013FD189A6B4611461846FFF76BFF0DAC98
:10DB4C006D460FCD0FC40FCD0FC495E8070084E8C8
:10DB5C000700002319930BE0199B5B0068336B449F
:10DB6C0033F8303C1846FFF7A7FF199B0133199384
:10DB7C000D9B199A9A42EFD300BF00BF1BB030BD6A
:10DB8C00B02D002000B583B001900B46ADF80230EB
:10DB9C0013468DF801309DF80130002B06D0BDF8EE
:10DBAC0002301946019805F04EFC05E0BDF8023034
:10DBBC001946019805F05EFC00BF03B000BD0000E3
:10DBCC0000B585B001900091019B9B88ADF80E309B
:10DBDC00019B1B881A2B23D01A2B66DC192B4ED0D9
:10DBEC00192B62DC102B02D0112B13D05DE0FFF748
:10DBFC0093FFBDF80E301846FFF73EFF034683F047
:10DC0C000103DBB2002B4DD0294AF021042003F094
:10DC1C00F9FA47E0BDF80E301846FFF76DFF44E007
:10DC2C00019B1B7AC3F30313DBB28DF80D309DF807
:10DC3C000D30032B8CBF01230023DAB2BDF80E305C
:10DC4C0019461C48FFF79EFF9DF80D30022B8CBF28
:10DC5C0001230023DAB2BDF80E3019461648FFF73F
:10DC6C0091FF9DF80D30012B8CBF01230023DAB2FC
:10DC7C00BDF80E3019461148FFF784FF15E0019BE3
:10DC8C001B7A002B10D1019B5B7AC3F3C0038DF878
:10DC9C000C309DF80C20BDF80E3019460548FFF7E6
:10DCAC0071FF01E000BF00E000BF00BF05B000BD88
:10DCBC0078740200C82D0020C42D0020C02D002037
:10DCCC0000B583B00346ADF80630BDF80630132B13
:10DCDC0001D9002306E0BDF806301946034805F0CB
:10DCEC00E1FB0346184603B000BD00BFB42D002075
:10DCFC0000B583B00346ADF80630BDF806301846C3
:10DD0C00FFF7DEFF0346002B02D0BDF8063000E023
:10DD1C001423184603B000BD00B587B003900B4622
:10DD2C000192ADF80A30019B002B01D10E2338E093
:10DD3C00019B00221A60039B002B01D10E2330E0C3
:10DD4C00039B1B68002B01D10E232AE0039BDB886D
:10DD5C0003F003039BB2002B01D0072321E0BDF895
:10DD6C000A301846FFF7C4FF03468DF817309DF8AC
:10DD7C001730142B01D1052313E0039B1B799DF85D
:10DD8C0017209A4201D304230BE0039B1B689DF8D8
:10DD9C0017200399C98801FB02F21A44019B1A60EF
:10DDAC000023184607B000BD82B00190019B1B7880
:10DDBC001AB2019B01331B781BB21B021BB213431B
:10DDCC001BB29BB2184602B07047AADF704700BF67
:10DDDC00184600B585B001900198FFF7E5FF0346A2
:10DDEC00ADF80E30BDF80E3003F00103DBB218466F
:10DDFC0005B000BD82B0034600918DF80730009A43
:10DE0C00137823F00F031370009A137823F0F003A8
:10DE1C0013709DF80730052B51D0052B5DDC042BBE
:10DE2C0040D0042B59DC032B2FD0032B55DC022BB9
:10DE3C001ED0022B51DC002B02D0012B0BD04CE05E
:10DE4C00009A137823F00F031370009A137823F0C1
:10DE5C00F003137040E0009A1378012161F303037F
:10DE6C001370009A1378012161F30713137033E0D8
:10DE7C00009A1378012161F303031370009A13784D
:10DE8C00022161F30713137026E0009A1378012125
:10DE9C0061F303031370009A1378032161F30713E2
:10DEAC00137019E0009A1378022161F303031370C5
:10DEBC00009A1378012161F3071313700CE0009A98
:10DECC001378022161F303031370009A1378022173
:10DEDC0061F30713137000BF00BF00BF02B070479F
:10DEEC0000B595B0034602910192ADF80E30029B3D
:10DEFC009B78002B03D101238DF81E3003E0029B8D
:10DF0C009B788DF81E30029B1B88ADF81C3006AB3D
:10DF1C0003220021184608F093FC029B5B7C06AAA6
:10DF2C0011461846FFF766FF029B9A7C06AB01333D
:10DF3C0019461046FFF75EFF029BDA7B9DF81A30FC
:10DF4C0062F3C3038DF81A30029B1A7C9DF81A30C9
:10DF5C0062F304138DF81A30029B1A7B9DF81A3069
:10DF6C0062F300038DF81A30029B1B7D002B01D04D
:10DF7C00022200E001229DF81A3062F342038DF870
:10DF8C001A300DAB1C220021184608F059FC029BDC
:10DF9C005B7B03F01003DBB2002B06D1029B5B7B97
:10DFAC0003F02003DBB2002B24D004AB03220021AE
:10DFBC00184608F045FC029BDA7C04AB0133194689
:10DFCC001046FFF717FF9DF81030012262F3030390
:10DFDC008DF810309DF81030012262F307138DF884
:10DFEC0010309DF81230012262F342038DF812308A
:10DFFC0004AB1293029B5B7B8DF83430029B9B7BB2
:10E00C008DF8353008AB14220021184608F018FCA6
:10E01C0007AB089306AB0993029B9B88ADF82C3099
:10E02C00029B9B68002B06D0029BDB88ADF8283046
:10E03C00029B9B680C93029B9B69002B4FD005ABFA
:10E04C0003220021184608F0FBFB029B9B691B88EE
:10E05C00ADF83C30029B9B695B88ADF83E30029B6F
:10E06C009B695B680E9305AB1193029B9B691B7BB1
:10E07C0005AA11461846FFF7BDFE029B9B695A7B09
:10E08C0005AB013319461046FFF7B4FE029B9B69A2
:10E09C009A7A9DF8163062F3C3038DF81630029B02
:10E0AC009B69DA7A9DF8163062F304138DF81630FA
:10E0BC00029B9B691A7A9DF8163062F300038DF867
:10E0CC001630029B9B699B7B002B01D0022200E047
:10E0DC0001229DF8163062F342038DF81630029B34
:10E0EC00DB69002B02D0029BDB69109308AA0DA9F7
:10E0FC00BDF80E00019BFFF768FE0346184615B0ED
:10E10C0000BDA5DF704700BF1846B5DF704700BFE4
:10E11C00184682B00190019BF7221A80019B1722AE
:10E12C005A80019B00221A71019B00225A7100BF78
:10E13C0002B0704784B001900091009B9B88ADF8B1
:10E14C000E30BDF80E2013465B0013445B00019AA1
:10E15C00134406330293009BDB7B012B04D1019B00
:10E16C001A88029B1A8000E000BF00BF04B0704701
:10E17C0000B583B001900091009B9B881A46134612
:10E18C005B0013445B00019A134406331846FFF7F7
:10E19C00C0FF00BF03B000BD00B587B00190009177
:10E1AC00009B9B88ADF81630009B5B89ADF8143052
:10E1BC00BDF8162013465B0013445B00019A134410
:10E1CC0006330493049B1B88BDF81420934228BF8C
:10E1DC0013469AB2049B5A80049B5B88172B38BF5A
:10E1EC0017239AB2049B5A80019BDB68002B15D035
:10E1FC00049B5B79002B11D040F67723ADF80830E7
:10E20C00BDF81630ADF80A30049B5B88ADF80C30C5
:10E21C00019BDB6802AA114601989847049B0022D7
:10E22C005A71049B00221A7100BF07B000BD000098
:10E23C0010B588B001900091009B9B88ADF81A3006
:10E24C00009BDB88ADF81830BDF81A2013465B0034
:10E25C0013445B00019A134406330593BDF8183040
:10E26C00172B38BF1723ADF81830059B1B88BDF84A
:10E27C001820934228BF13469AB2059B5A80059BDF
:10E28C0000221A71059B1A88BDF81A3011461846DF
:10E29C00FFF73BFF0790079B002B0FD0164A174B3D
:10E2AC00D31ADB081B0443F00104079806F014FB97
:10E2BC0003461A461249204606F09BFF059B5B79E4
:10E2CC00002B16D1019BDB68002B13D040F6772373
:10E2DC00ADF80C30BDF81A30ADF80E30059B5B88EC
:10E2EC00ADF81030019BDB6803AA114601989847E2
:10E2FC0000E000BF08B010BD686A0200106A02009E
:10E30C00E874020000B585B001900091019B002BD0
:10E31C0001D10E2320E0019B009ADA60019BF722C9
:10E32C001A80019BF7225A80019BFB221A71002351
:10E33C0003930DE0039A13465B0013445B00019AB0
:10E34C00134406331846FFF7E4FE039B0133039393
:10E35C00039B002BEED00023184605B000BD82B005
:10E36C0001900B46ADF80230019B002B01D10E231E
:10E37C000EE0BDF80230162B03D9BDF80230F72B96
:10E38C0001D9072304E0019BBDF802201A80002369
:10E39C00184602B07047000010B586B0019000918D
:10E3AC00009B0593019B9B88ADF81230BDF8123091
:10E3BC00002B6ED1019B1B88552B19D0552B1CDCC7
:10E3CC003A2B10D03A2B18DC102B02D0112B05D085
:10E3DC0013E001990598FFF7ADFE0FE00199059840
:10E3EC00FFF7C6FE0AE001990598FFF7D5FE05E098
:10E3FC0001990598FFF71CFF00E000BFBDF8122043
:10E40C00059913465B0013445B000B440A331B78DD
:10E41C00002B3FD0BDF81220059913465B00134426
:10E42C005B000B4406331A88BDF8123011461846AF
:10E43C00FFF767FE0390039B002B16D1BDF812204B
:10E44C00059913465B0013445B000B440A3300220E
:10E45C001A70BDF81220059913465B0013445B003B
:10E46C000B440B3301221A7014E0039B112B11D0B7
:10E47C00094A0A4BD31ADB081B0443F00104039826
:10E48C0006F02AFA03461A460549204606F0B1FE64
:10E49C0000E000BF06B010BD686A0200106A0200FE
:10E4AC0018750200B0DF704700BF184666DF704772
:10E4BC0000BF184682B001900091019B002B01D146
:10E4CC000E2316E0009B002B01D10E2311E0019BC3
:10E4DC001B78DE2B01D108230BE0009B1A68019BF3
:10E4EC005A60019BDE221A70019B4FF6FF725A8014
:10E4FC000023184602B0704782B001900B46ADF86D
:10E50C000230019B002B01D10E230AE0019B1B78EA
:10E51C00DE2B01D0082304E0019BBDF802205A80B9
:10E52C000023184602B0704700B585B00190019BDE
:10E53C001B7A002B18D0019B5B8800211846FFF733
:10E54C00B5FF0390039B002B03D1019B00221A7291
:10E55C000AE0039B112B03D1019B01221A7203E0E9
:10E56C00019B5B680398984700BF05B000BD00B5E0
:10E57C0083B001900091009B1B79012B0BD1009B68
:10E58C001A88019B5B889A4205D1019B01221A7261
:10E59C000198FFF7C9FF00BF03B000BD82B0019026
:10E5AC00009100BF02B0704700B589B00190009196
:10E5BC00009B1A88019B5B889A4236D1009B0233E0
:10E5CC000793079B1B78022B31D1079B1B7A042BDB
:10E5DC0007D0079B1B7A062B03D0079B1B7A052BB6
:10E5EC0027D102AB00221A605A609A60DA600223CB
:10E5FC008DF808304FF4C073ADF80C30079B1B7AC4
:10E60C00052B02D10023ADF80C30009B1B8802AA0D
:10E61C0011461846FFF746FF0690069B002B09D0C3
:10E62C00019B5B680698984704E000BF02E000BFBE
:10E63C0000E000BF09B000BD00B585B001900091AD
:10E64C00009B002B43D0019B002B40D0009B0393DD
:10E65C00039B1B78DE2B3AD1019B9A88039B5B882A
:10E66C009A4202D10398FFF75FFF019B1B88512B45
:10E67C0018D0512B28DC112B1BD0112B24DC012B97
:10E68C0002D0022B07D01FE0019B043319460398DC
:10E69C00FFF76DFF1BE0019B043319460398FFF74E
:10E6AC007DFF14E0019B043319460398FFF77CFFB0
:10E6BC000DE0019B9A88039B5B889A4206D1039BD1
:10E6CC004FF6FF725A8001E000BF00E000BF05B0BA
:10E6DC0000BDA8DF704700BF1846ADDF704700BF14
:10E6EC001846AEDF704700BF184662DF704700BFA8
:10E6FC00184600B58FB00190009100230393019B45
:10E70C005869009B9B8803AA1946FFF705FB0D90DF
:10E71C0005AB08220021184608F092F804AB0693CA
:10E72C000223ADF814300023ADF81630009B988806
:10E73C00019B1B8905AA1946FFF7CFFF0D900D9B76
:10E74C00002B26D1019B9B69002B22D0069B1846DF
:10E75C00FFF73FFB0346002B1BD0039B002B02D083
:10E76C00039B01221A7007AB18220021184608F0EF
:10E77C0067F802238DF81C30019B0893009B9B8843
:10E78C00ADF82430039B0A93019B9B6907AA1046A2
:10E79C00984700BF0FB000BD00B58DB0019000913F
:10E7AC00009B06330B93019B5869009B9B8803AA23
:10E7BC001946FFF7B1FA0A9004AB1822002118464B
:10E7CC0008F03EF8019B0593009B9B88ADF8183030
:10E7DC00039B07930B9B1A88019B1B899A4225D19B
:10E7EC000B9B5B89022B21D1039B002B38D00B9BFD
:10E7FC000C331846FFF7EDFA0346002B06D0039BAB
:10E80C0001221A7002238DF8103005E0039B0022C0
:10E81C001A7003238DF81030019B9B69002B1FD0BD
:10E82C00019B9B6904AA1046984719E00B9B1A8818
:10E83C00019B9B899A4214D1019B9B69002B10D0A0
:10E84C0000238DF810300B9B0C3308930B9B5B89CA
:10E85C00ADF82430019B9B6904AA1046984700E050
:10E86C0000BF00BF0DB000BD00B58BB00190009192
:10E87C00019B5869009B9B8802AA1946FFF74CFA2A
:10E88C000990099B002B1ED1029B1B78002B1BD0DF
:10E89C00019B9B69002B17D003AB18220021184653
:10E8AC0007F0CEFF01238DF80C30019B0493009BE5
:10E8BC009B88ADF81430029B0693019B9B6903AABD
:10E8CC001046984700E000BF0BB000BD00B585B006
:10E8DC0001900091009B002B1ED0019B002B1BD0A4
:10E8EC00009B0393019B1B88572B10D0572B15DCD7
:10E8FC00102B02D0502B05D010E001990398FFF794
:10E90C00F8FE0CE001990398FFF746FF07E0019928
:10E91C000398FFF7A9FF02E000BF00E000BF05B0BD
:10E92C0000BD000010B592B0019000914F4B0AACA5
:10E93C000FCB84E80F00019B002B01D10E2391E03B
:10E94C00009B002B01D10E238CE0009B1A68019BCD
:10E95C009A61019A0AAB11461846FFF7C6FE119050
:10E96C00119B1093109B002B01D0109B7AE0019B04
:10E97C001B788DF83A300123ADF83830019B9A1C86
:10E98C000EAB19460120FFF7A4FE1190119B0F93BB
:10E99C000F9B002B01D00F9B64E002AB20220021C7
:10E9AC00184607F04DFF0223ADF80830019B1B7889
:10E9BC008DF80A30F423ADF80C300123ADF80E308D
:10E9CC0001238DF814309DF8153043F008038DF8B1
:10E9DC0015309DF8153043F004038DF815300123E4
:10E9EC008DF8193001238DF81A30019B5888019B42
:10E9FC0003F10C0202AB1946FFF772FA1190119B4E
:10EA0C00002B01D0119B2DE002AB202200211846D7
:10EA1C0007F016FF0323ADF80830019B1B788DF827
:10EA2C000A30F423ADF80C300123ADF80E3001237D
:10EA3C008DF814309DF8153043F010038DF8153017
:10EA4C0001238DF8193001238DF81A3001238DF82C
:10EA5C001B30019B5888019B1A1D02AB1946FFF70E
:10EA6C003FFA0346184612B010BD00BF54750200A1
:10EA7C0000B58DB0039002910192ADF80230039B6A
:10EA8C00002B01D10E2342E0039B5B6905AABDF864
:10EA9C0002101846FFF740F90B900B9B0A930A9B48
:10EAAC00002B01D00A9B32E0BDF802304FF6FF720A
:10EABC00934202D0059B002B01D1052327E0059B37
:10EACC001B7883F00103DBB2002B01D008231EE07E
