:020000021000EC
:10900000006000201992010001920100039201000A
:109010000592010007920100099201000000000082
:109020000000000000000000000000000B920100A2
:109030000D920100000000000F920100119201004A
:1090400029F1010013920100D5FD01002511020054
:10905000C509020000000000D1FC010009FF010069
:109060001392010013920100139201001392010068
:109070001392010013920100139201001392010058
:10908000951102002D20020013920100139201009D
:109090006D20020013920100E163020013920100AF
:1090A0001392010013920100000000000000000074
:1090B0001392010013920100000000000000000064
:1090C00000000000000000000000000000000000A0
:1090D0000000000000000000000000000000000090
:1090E0000000000000000000000000000000000080
:1090F0000000000000000000000000000000000070
:10910000000000000000000000000000000000005F
:10911000000000000000000000000000000000004F
:10912000000000000000000000000000000000003F
:10913000000000000000000000000000000000002F
:10914000000000000000000000000000000000001F
:10915000000000000000000000000000000000000F
:1091600000000000000000000000000000000000FF
:1091700000000000000000000000000000000000EF
:1091800000000000000000000000000000000000DF
:1091900000000000000000000000000000000000CF
:1091A00000000000000000000000000000000000BF
:1091B00000000000000000000000000000000000AF
:1091C000000000000000000000000000000000009F
:1091D000000000000000000000000000000000008F
:1091E000000000000000000000000000000000007F
:1091F000000000000000000000000000000000006F
:10920000FEE7FEE7FEE7FEE7FEE7FEE7FEE7FEE736
:10921000FEE7FEE700F002B8FFF7FCBF0B484FF097
:109220000701884385460A48804700F019B8094875
:1092300009490A4A884207D0521A05D003780130FA
:109240000B700131013AF9D1704700000060002035
:10925000FDBC0100A06B0200A0230020B42300206D
:109260003A493B480A1A02D0072291438D463949B0
:1092700039480A1A06D00722914381F3098802224D
:1092800082F3148835483649364A00F041F83648AA
:109290003649374A00F03CF836483749374A00F03B
:1092A00037F837483749384A00F032F837483849F4
:1092B000384A00F02DF838483849394A00F028F883
:1092C00038483949394A00F023F8394839490022E9
:1092D00000F036F838483949002200F031F83848B3
:1092E0003849091A0DF042FB374A9047254826496C
:1092F000884205D00268043003B4904703BCF7E706
:1093000000208646EC4600200021304A9047FEE7C8
:10931000884214D0521A12D003460B43134303243D
:10932000234206D1036804300B600431043AF9D1BA
:109330007047037801300B700131013AF9D1704761
:10934000884202D002700130FAE7704700600020C6
:109350000058002000600020006000201C860200F1
:10936000B423002044240020D0930100D0930100B6
:10937000746A02001C860200B4230020B42300207B
:10938000B46B0200B46B0200B46B0200B46B020059
:10939000B46B0200B46B0200B46B0200B46B020049
:1093A00019860200AC8602004424002044240020D8
:1093B00044240020243800202438002024380020B1
:1093C00024380020244000202F920100BD94010089
:1093D0003FDF704700BF184641DF704700BF1846A7
:1093E00000B583B04FF4004100200BF0ADFC0190BC
:1093F000019B0093009B002B04D0054A4B21009851
:1094000007F028FF0BF03EFC00BF03B05DF804FB43
:10941000B46B020000B583B00BF054FA0190019BCD
:109420000093009B002B04D0044A5721009807F0BA
:1094300011FF00BF03B05DF804FB00BFB46B020076
:1094400000B583B008F018FE0190019B0093009BCB
:10945000002B04D0044A6B21009807F0FBFE00BFEC
:1094600003B05DF804FB00BFB46B020082B0019052
:109470000B46ADF8023000BF02B0704700B585B0B2
:1094800003468DF807309DF807308DF80F309DF8B2
:109490000F30022B09D0022B09DC002B09D0012B45
:1094A00000D004E000F03EF804E000F041F800BF16
:1094B00000E000BF00BF05B05DF804FB00B583B05D
:1094C000FFF78EFFFFF7BCFFFFF7A4FF1249134819
:1094D00000F06EFC0120FFF77BFF0190019B0093E1
:1094E000009B002B04D00E4A9321009807F0B2FE97
:1094F00001F0E0FF01F062FA01F020FE01F0FEFC55
:1095000001F02EF901F040FC0BF066FF08F02CF89A
:10951000FFF762FFF6E700BF7D9401006D94010044
:10952000B46B020008B5012000F008F800BF08BDC8
:1095300008B5002000F002F800BF08BD82B0034665
:109540008DF80730034A9DF80730137000BF02B052
:10955000704700BF44240020014B1B781846704719
:109560004424002084B001900B468DF8033013464C
:109570008DF8023000230393019B032B3CD89DF808
:109580000230012B0BD19DF80330012B04D1019B3C
:10959000DBB20E33DBB200E000238DF802309DF821
:1095A0000330022B0FD0022B23DC002B16D0012B13
:1095B0001FD11449019A13465B0013440B449DF8D4
:1095C00002201A701AE00F49019A13465B001344F7
:1095D0000B4401339DF802201A700FE00949019AEB
:1095E00013465B0013440B4402339DF802201A70AB
:1095F00004E00723039301E007230393039B18462A
:1096000004B070474824002000B583B00122002137
:109610000020FFF7A7FF0190019B002B04D0019BC6
:10962000072B01D0019B1CE0072202210120FFF73C
:1096300099FF0190019B002B04D0019B072B01D0C7
:10964000019B0EE0042202210020FFF78BFF019016
:10965000019B002B04D0019B072B01D0019B00E054
:109660000023184603B05DF804FB00B583B0012267
:1096700002210020FFF776FF0190019B002B04D010
:10968000019B072B01D0019B1CE007220221012036
:10969000FFF768FF0190019B002B04D0019B072B73
:1096A00001D0019B0EE00A2200210020FFF75AFFA3
:1096B0000190019B002B04D0019B072B01D0019B43
:1096C00000E00023184603B05DF804FB00B585B048
:1096D00001900091019B1B88102B02D0112B18D0F8
:1096E0002FE01A4B1B68002B0DD1FFF78DFF039065
:1096F000039B002B07D0164B1B68002B03D0144B89
:109700001B6803989847114B1B6801330F4A13607D
:1097100017E00E4B1B68013B0C4A13600B4B1B6898
:10972000002B0DD1FFF7A1FF0390039B002B07D067
:10973000074B1B68002B03D0054B1B680398984709
:1097400000BF00BF05B05DF804FB00BF5824002037
:1097500054240020A8DF704700BF1846AEDF7047D2
:1097600000BF184662DF704700BF184600B587B0DB
:1097700001900091019B039303238DF80830019B16
:109780005B6902AA1046984700BF07B05DF804FB6A
:1097900000B587B001900091019B039302238DF8DF
:1097A0000830019B5B6902AA1046984700BF07B0CA
:1097B0005DF804FB00B589B001900091009B063371
:1097C000079303AB1022002118460DF023F9019BEB
:1097D0000493079B1A88019B1B899A421CD1079B03
:1097E0005B89022B18D1079B0C33184604F0DBFA77
:1097F0000346002B03D000238DF80C3002E0012338
:109800008DF80C30019B5B69002B1FD0019B5B69BD
:1098100003AA1046984719E0079B1A88019B9B8969
:109820009A4213D1019B5B69002B0FD004238DF862
:109830000C30079B0C330593079B5B89ADF8183000
:10984000019B5B6903AA10469847FFE700BF09B078
:109850005DF804FB00B585B001900091009B039377
:10986000039B002B1CD0019B002B19D0019B1B8854
:10987000502B10D0502B15DC102B02D0112B05D003
:1098800010E001990398FFF771FF0CE0019903982C
:10989000FFF77EFF07E001990398FFF78BFF02E0D7
:1098A00000BF00E000BF05B05DF804FB10B592B04A
:1098B00001900091019B002B02D0009B002B01D155
:1098C0000E2394E04B4B0AAC0FCB84E80F00009BB7
:1098D0001A68019B5A61019A0AAB11461846FFF7B4
:1098E00041FF1190119B1093109B002B01D0109BF6
:1098F0007DE0019B1B788DF83A304FF4A053ADF812
:109900003830019B9A1C0EAB19460120FFF722FF4D
:109910001190119B0F930F9B002B01D00F9B66E0C2
:1099200002AB2022002118460DF074F841F20243E8
:10993000ADF80830019B1B788DF80A300123ADF893
:109940000C300123ADF80E3000238DF814309DF853
:10995000153043F008038DF815309DF8153043F0AD
:1099600004038DF8153001238DF8193001238DF88B
:109970001A30019B5888019B03F10C0202AB194677
:1099800004F09AFA1190119B002B01D0119B2EE04C
:1099900002AB2022002118460DF03CF841F20143B1
:1099A000ADF80830019B1B788DF80A300123ADF823
:1099B0000C300123ADF80E3000238DF814309DF8E3
:1099C000153043F010038DF8153001238DF8193050
:1099D00001238DF81A3001238DF81B30019B588824
:1099E000019B1A1D02AB194604F066FA034618469D
:1099F00012B010BD206C020000B58BB00390029134
:109A00000192ADF8023000230993039B002B01D192
:109A10000E2324E0099B002B01D0099B1FE0BDF819
:109A200002304FF6FF72934218D005AB102200218E
:109A300018460CF0EFFF039B9B88ADF81430029B97
:109A40000893019B079301238DF8163005AABDF8F2
:109A5000023011461846FFF781FE0990099B18460F
:109A60000BB05DF804FB76DF704700BF184677DF68
:109A7000704700BF18467ADF704700BF18467CDF8A
:109A8000704700BF18467FDF704700BF18468FDF62
:109A9000704700BF1846B1DF704700BF184669DF46
:109AA000704700BF18460000064B1B78DAB2064B21
:109AB0001B78DBB29A420CBF01230023DBB21846AD
:109AC000704700BF982B0020992B00200C4B1B786F
:109AD000DBB20133DAB20B4BA3FB021399080B463E
:109AE0005B000B445B00D31ADAB2074B1B78DBB286
:109AF0009A420CBF01230023DBB21846704700BF17
:109B0000982B0020ABAAAAAA992B002000B583B0FD
:109B100001900B46ADF80230FFF7D8FF0346002B4B
:109B200010D0214B1B78DBB20133DAB21F4BA3FB01
:109B3000021399080B465B000B445B00D31ADAB2A0
:109B4000194B1A701A4B1B78DBB21946194ADC23E1
:109B500001FB03F31344BDF802201A80144B1B7859
:109B6000DBB21A46DC2302FB03F3124A134402332E
:109B7000BDF80220019918460CF01AFF0C4B1B7817
:109B8000DBB20133DAB2094BA3FB021399080B468F
:109B90005B000B445B00D31ADAB2054B1A7000BFAE
:109BA00003B05DF804FB00BF992B0020ABAAAAAA62
:109BB000982B00207026002000B585B04BE02D4B7F
:109BC0001B78DBB219462C4ADC2301FB03F3134458
:109BD0001B88ADF80630274B1B78DBB21A46DC2316
:109BE00002FB03F3244A1344991C244B1B880DF1F8
:109BF0000602234804F032FF0390039B002B11D18F
:109C00001C4B1B78DBB20133DAB21E4BA3FB0213F1
:109C100099080B465B000B445B00D31ADAB2154B74
:109C20001A7018E0039B132B1ED0039B082B1BD02C
:109C3000039B052B18D0039B0C2B15D0039B072BE4
:109C400012D0039B0293029B002B04D00E4A4F219B
:109C5000029807F0FFFAFFF727FF034683F001039E
:109C6000DBB2002BABD100E000BF00BF05B05DF858
:109C700004FB00BF992B002070260020D823002071
:109C8000BC230020ABAAAAAA306C020000B585B0A4
:109C900001900B46ADF802300023039314E0174BFC
:109CA0001B88D82B07D8039B019A1344134A1288A8
:109CB0001978134B9954039B013303930F4B1B8863
:109CC00001339AB20D4B1A80BDF80230039A9A42C2
:109CD000E5DB0A4B1B88D82B0CD10A4B1A78084BB2
:109CE00083F8D82000F010F8064B1B780133DAB265
:109CF000044B1A7000BF05B05DF804FB6626002017
:109D00008C2500209A2B002008B50A4B1B884FF6A3
:109D1000FF72934203D1084B00221A8008E0D92138
:109D20000648FFF7F3FE044B00221A80FFF744FFBA
:109D300008BD00BFD8230020662600208C25002007
:109D400000B585B003468DF807309DF807308DF8D3
:109D50000B300123ADF80830064B1B8802AA0DF129
:109D60000B010548FFF748FE039000BF05B05DF802
:109D700004FB00BFD82300207425002000B583B069
:109D8000FFF7EAFB03468DF807309DF80730002BFC
:109D900002D0012B04D007E00120FFF7D1FF03E040
:109DA0000220FFF7CDFF00BF00BF03B05DF804FB4A
:109DB00000B583B001900091434A444BD31ADB08AD
:109DC0001B0443F00303424918460BF07BFA0BF0E7
:109DD00003FB0346002BFAD13E4A019B13603E4A27
:109DE000009B136000F0C4FB374A384BD31ADB08E2
:109DF0001B0443F00303394918460BF063FA0BF0D8
:109E0000EBFA0346002BFAD100F074F82E4A2F4BE0
:109E1000D31ADB081B0443F00303314918460BF047
:109E200051FA0BF0D9FA0346002BFAD100F02AFCC4
:109E3000254A264BD31ADB081B0443F003032949A8
:109E400018460BF03FFA0BF0C7FA0346002BFAD185
:109E500000F0C0F81C4A1D4BD31ADB081B0443F06A
:109E60000303214918460BF02DFA0BF0B5FA03460F
:109E7000002BFAD100F032FC134A144BD31ADB0842
:109E80001B0443F00303194918460BF01BFA0BF0AF
:109E9000A3FA0346002BFAD100F052F90A4A0B4B01
:109EA000D31ADB081B0443F00303114918460BF0D7
:109EB00009FA0BF091FA0346002BFAD100BF00BF5C
:109EC00003B05DF804FB00BF406B0200086B0200AA
:109ED000E06C0200682600206C260020006D020065
:109EE000186D0200346D0200486D0200606D0200C2
:109EF0007C6D020000B587B09DF80030012262F34E
:109F000003038DF800309DF80030012262F307133F
:109F10008DF800306B460E221A491846FFF7AFFD48
:109F20000590059B0493049B002B04D0164ACA217C
:109F3000049807F08FF901AB0822002118460CF0B5
:109F400069FD0623ADF804300C23ADF8063000237C
:109F5000ADF808304FF4C873ADF80A3001AB1846BD
:109F6000FFF789FD0590059B0393039B002B04D00D
:109F7000054AD421039807F06DF900BF07B05DF8DA
:109F800004FB00BFA06D0200306C020000B583B07E
:109F90000190044ADA21019807F05CF900BF03B090
:109FA0005DF804FB306C020000B583B00190019BAA
:109FB0001B78002B07D1064B1B68019A1069019A88
:109FC000928A1146984700BF03B05DF804FB00BFBA
:109FD0006826002000B589B000230093384B009319
:109FE0006B461946374804F053FA0790079B0693CF
:109FF000069B002B04D0344AF121069807F02AF979
:10A0000003AB0422002118460CF004FD2F4B0393F0
:10A0100003AB19462E4804F07BFC0790079B059381
:10A02000059B002B04D0284AF821059807F012F967
:10A0300001AB0822002118460CF0ECFC254B0193E3
:10A040009DF80930012262F303038DF809309DF871
:10A050000930012262F307138DF809309DF80A30A8
:10A06000012262F303038DF80A309DF80A300122C1
:10A0700062F307138DF80A309DF80B30012262F36A
:10A0800003038DF80B309DF80B30012262F30713A8
:10A090008DF80B3001AB19460F48FFF707FC07900E
:10A0A000079B0493049B002B05D0074A4FF484714F
:10A0B000049807F0CFF800BF09B05DF804FB00BFBB
:10A0C0008D9F010070240020306C0200A99F0100C8
:10A0D000BC23002095A701007425002000B585B0A1
:10A0E0000190019B1B78002B11D10B4B1B883B214E
:10A0F0001846FFF7B8FC0390039B0293029B002BCA
:10A1000005D0064A40F21311029807F0A3F800BFE9
:10A1100005B05DF804FB00BFD8230020306C0200BE
:10A1200000B583B00190054A4FF48D71019807F096
:10A1300091F800BF03B05DF804FB00BF306C020073
:10A1400000B58BB001AB1C22002118460CF062FC5C
:10A15000002301934FF4203302934FF470230393B1
:10A1600003238DF810300023ADF8123000238DF852
:10A1700014300C4B06930C4B079301AB184603F0BD
:10A180007BFA0990099B0893089B002B05D0074A8E
:10A1900040F22F11089807F05DF800BF0BB05DF892
:10A1A00004FB00BFDDA0010021A10100306C020012
:10A1B00000B585B003468DF807309DF80730002BB9
:10A1C00001D0032B10E00321094802F0CBFF0390DC
:10A1D000039B0293029B002B05D0064A40F24911D3
:10A1E000029807F037F800BF00BF05B05DF804FB28
:10A1F0007C240020306C020030B591B003900291B5
:10A20000039B1B88103B472B00F28F8101A252F861
:10A2100023F000BF35A30100B5A30100AFA40100E6
:10A220000BA401002BA501002BA501002BA501000B
:10A230002BA501002BA501002BA501002BA50100DA
:10A240002BA501002BA501002BA501002BA50100CA
:10A250002BA501002BA50100D5A301002BA5010012
:10A260002BA501002BA501002BA501002BA50100AA
:10A270002BA501002BA501002BA501002BA501009A
:10A280002BA501002BA501002BA501002BA501008A
:10A290002BA501002BA501002BA501002BA501007A
:10A2A0002BA501002BA501002BA501002BA501006A
:10A2B0002BA501002BA501002BA501002BA501005A
:10A2C0005DA401002BA501002BA501002BA5010019
:10A2D0002BA501002BA501002BA501002BA501003A
:10A2E0002BA501002BA501002BA501002BA501002A
:10A2F0002BA501002BA501002BA501002BA501001A
:10A300002BA501002BA501002BA501002BA5010009
:10A310002BA501002BA501002BA5010035A40100F0
:10A320002BA501002BA501002BA5010083A4010092
:10A33000A9A40100844A854BD31ADB081B0443F00F
:10A340000303834918460AF0BDFF039B9A88814B9B
:10A350001A80804B1B8819467F4804F0BBF80F9089
:10A360000F9B0893089B002B05D07C4A4FF4AE71DD
:10A37000089806F06FFF774B1B88042219460320CC
:10A38000FFF775FB0F900F9B0793079B002B05D0E2
:10A39000724A40F25F11079806F05CFF704B1B8811
:10A3A000ADF818306B4B1B8806AA11461846FFF70C
:10A3B0006EFBC5E0644A654BD31ADB081B0443F00F
:10A3C0000303684918460AF07DFF624B4FF6FF729F
:10A3D0001A80B5E000238DF8143000238DF8153075
:10A3E000039B9B8805AA11461846FFF750FB0F9068
:10A3F0000F9B0B930B9B002B00F09980574A4FF457
:10A40000BE710B9806F026FF91E0524B188800238E
:10A4100000228521FFF737FB0F900F9B0A930A9BC1
:10A42000002B00F086804D4A4FF4C1710A9806F067
:10A4300011FF7EE0474B1888002300220021FFF720
:10A440002AFB0F900F9B0D930D9B002B73D0434A5B
:10A450004FF4C4710D9806F0FDFE6CE0039B9B88E1
:10A4600013211846FFF7FFFA0F900F9B0C930C9BDC
:10A47000002B62D0394A40F28F110C9806F0EAFEA8
:10A480005BE0039B9B8813211846FFF7ECFA0F90C3
:10A490000F9B0E930E9B002B51D0304A4FF4CB7183
:10A4A0000E9806F0D7FE4AE0FFF786FB48E0039BD4
:10A4B00008330993244A254BD31ADB081B0443F0C5
:10A4C0000300099B5B881A4613465B019B1A9B009D
:10A4D0001344254A82FB03125211DB17D31A1C4680
:10A4E000099B5B881A4613465B019B1A9B00134429
:10A4F0001D4A82FB03125111DA178A1A642101FBEB
:10A5000002F29A1A1546099B9B881946099BDB881B
:10A510001A4613469B0013445B00019300912B469F
:10A52000224612490AF017FF0AE000BF08E000BF08
:10A5300006E000BF04E000BF02E000BF00E000BF93
:10A5400000BF11B030BD00BF406B0200086B0200BD
:10A55000B06D0200D823002070240020306C02006F
:10A56000F86D0200BC6D02001F85EB51CC6D02003E
:10A5700000B58BB00BF048FE0990099B0893089B2F
:10A58000002B05D0244A40F2B511089806F062FE6F
:10A590000023049304AB194601200BF063FF0990DC
:10A5A000099B0793079B002B05D01B4A40F2BB1168
:10A5B000079806F04FFE01AB00221A605A609A60BD
:10A5C00001238DF8043007238DF80630049A01AB7F
:10A5D00019462220FFF763FA0990099B0693069B10
:10A5E000002B05D00C4A40F2C311069806F032FE4B
:10A5F00004AB18460CF04EF80990099B0593059B97
:10A60000002B05D0044A40F2C711059806F022FE3F
:10A6100000BF0BB05DF804FB306C020000B583B0E6
:10A6200001900091009B5A88114B1B889A421AD1C5
:10A63000009B1B8840F67722934214D1009B9B8895
:10A64000033B9AB20B4B1A800B4A0C4BD31ADB0814
:10A650001B0443F00300074B1B881A46054B1B885D
:10A6600007490AF04EFE00BF03B05DF804FB00BFCF
:10A67000D8230020DA230020406B0200086B020080
:10A68000FC6D020000B585B01149124803F028FEA8
:10A690000390039B0293029B002B05D00E4A4FF4BC
:10A6A000F071029806F0D6FDF7210A4803F046FE45
:10A6B0000390039B0193019B002B05D0064A40F2B7
:10A6C000E311019806F0C6FD00BF05B05DF804FB7C
:10A6D0001DA6010060240020306C020000B5AFB060
:10A6E00001ABAC22002118460CF094F902238DF83E
:10A6F000043000238DF8063005238DF80730012340
:10A70000ADF85030124B159301238DF88030402363
:10A71000239344F2506324930E4B2A9301AB1946C2
:10A720000D4802F04AFC2D902D9B2C932C9B002B66
:10A7300005D00A4A4FF4FD712C9806F08BFD0121DB
:10A74000054802F02DFC00BF2FB05DF804FB00BFF0
:10A75000DC230020B1A101007C240020306C020029
:10A7600000B583B00321094802F0FCFC0190019B75
:10A770000093009B002B05D0054A40F2022100986F
:10A7800006F068FD00BF03B05DF804FB7C240020E8
:10A79000306C020000B583B00190019B1B78042B44
:10A7A00017D801A252F823F0BDA70100D3A70100DA
:10A7B000D3A70100D3A70100C3A70100FFF7DEFA6A
:10A7C00008E0064B1B68019A926812781046984779
:10A7D00000E000BF00BF03B05DF804FB6C26002062
:10A7E00000B585B00190019B002B0AD0074B43F0C8
:10A7F00001030393019B9B010293039B02989847DB
:10A8000000E000BF05B05DF804FB00BF207402004B
:10A8100082B001904FF0A043184602B0704700B5D7
:10A8200085B00190084611461A4603468DF803305C
:10A830000B468DF8023013468DF8013001AB1846F7
:10A84000FFF7E6FF03909DF803209DF802305B00C0
:10A850001A439DF801309B001A439DF818301B02E3
:10A8600042EA03019DF81C301B04019A1943039B23
:10A8700002F5E07243F8221000BF05B05DF804FB5A
:10A8800000B585B0039000230193032300930023B8
:10A89000012201210398FFF7C2FF00BF05B05DF858
:10A8A00004FB00B585B0019001AB1846FFF7B0FF7F
:10A8B0000390019B012202FA03F31946039800F06A
:10A8C00018F800BF05B05DF804FB00B585B0019035
:10A8D00001AB1846FFF79CFF0390019B012202FA8F
:10A8E00003F31946039800F00EF800BF05B05DF8B9
:10A8F00004FB82B001900091019B009AC3F80825E7
:10A9000000BF02B0704782B001900091019B009A95
:10A91000C3F80C2500BF02B0704700B583B00190AA
:10A92000019B002B0AD04FF47A70FFF759FF019B6F
:10A93000013B0193019B002BF5D100E000BF03B068
:10A940005DF804FB08B51020FFF79AFF1020FFF711
:10A95000A8FF1020FFF7B9FF0F20FFF791FF0F208E
:10A96000FFF79FFF0F20FFF7B0FF1120FFF788FFD1
:10A970001120FFF796FF1120FFF7A7FF0B20FFF72D
:10A980007FFF0B20FFF78DFF0B20FFF79EFF1520A9
:10A99000FFF776FF1520FFF784FF1520FFF795FFDF
:10A9A0001220FFF76DFF1220FFF77BFF1220FFF749
:10A9B0008CFF00F0C9F800BF08BD000000B583B0EF
:10A9C000FFF7C0FF00F0F4F800F07EF90622FF2147
:10A9D000584800F027FE0190062301220D2155481A
:10A9E00000F0C0FE0120FFF798FF06220021514829
:10A9F00000F018FE062201214E4800F013FE062347
:10AA000002220D214B4800F0ADFE06230222102148
:10AA1000484800F0A7FE0623BF221121454800F058
:10AA2000A1FE062318221221424800F09BFE0623B5
:10AA3000002213213F4800F095FE06231122152124
:10AA40003C4800F08FFE062300222A21394800F0FE
:10AA500089FE062300222B21364800F083FE0623C0
:10AA600084222321334800F07DFE062384222721FF
:10AA7000304800F077FE0623422225212D4800F0C1
:10AA800071FE0623422226212A4800F06BFE06238F
:10AA900042222421274800F065FE06234222282175
:10AAA000244800F05FFE062374220921214800F0AB
:10AAB00059FE062302220A211E4800F053FE80227E
:10AAC0000221122000F006FE06232122202119482F
:10AAD00000F048FE0623A3222121164800F042FE82
:10AAE0000623CB222221134800F03CFE0120FFF771
:10AAF00014FF062304220D210E4800F033FE0E4BF6
:10AB000001221A7000F020F80C4A0D4BD31ADB0812
:10AB10001B0443F003030B4918460AF0D3FB0AF069
:10AB20005BFC0346002BFAD100BF00BF03B05DF809
:10AB300004FB00BFE02300209B2B0020406B0200A1
:10AB4000086B0200186E020000B583B00023019369
:10AB500009E0094A019B13441B781846FFF7A1FE40
:10AB6000019B01330193019B052BF2DD00BF00BF68
:10AB700003B05DF804FB00BFE023002000B583B004
:10AB80000023019309E0094A019B13441B781846EE
:10AB9000FFF79BFE019B01330193019B052BF2DD27
:10ABA00000BF00BF03B05DF804FB00BFE02300203E
:10ABB00000B583B00023019339E0294A019B134477
:10ABC0001B78184600F058F803468DF803309DF8BE
:10ABD000033083F00103DBB2002B0FD0214A224B5C
:10ABE000D31ADB081B0443F003001D4A019B1344E6
:10ABF0001B781A461D490AF073FB12E09DF80330DA
:10AC0000002B0ED0174A184BD31ADB081B0443F055
:10AC10000300134A019B13441B781A4614490AF097
:10AC20005FFB0A20FFF779FE019B01330193019B33
:10AC3000052BC2DD0B4A0C4BD31ADB081B0443F077
:10AC400003030C4918460AF03DFB0AF0C5FB034616
:10AC5000002BFAD100BF00BF03B05DF804FB00BFBA
:10AC6000E0230020406B0200086B0200406E0200EF
:10AC7000606E0200806E020000B585B00346ADF83C
:10AC80000630FFF761FFBDF80630DBB2FF21184642
:10AC900000F05AFC03468DF80E309DF80E30252B3F
:10ACA00003D000238DF80F3002E001238DF80F3020
:10ACB000FFF764FF0120FFF730FE9DF80F301846C4
:10ACC00005B05DF804FB000000B585B004F02EFE71
:10ACD0000390039B0293029B002B05D01D4A4FF467
:10ACE0008171029806F0B6FA1B4A6B46126811464B
:10ACF00019800233120C1A7003238DF801306B4651
:10AD0000164A1946012004F075FE0390039B019337
:10AD1000019B002B05D00F4A4FF48471019806F077
:10AD200099FA0121012004F0D5FE0D4A0D4BD31AEA
:10AD3000DB081B0443F003030B4918460AF0C2FA70
:10AD40000AF04AFB0346002BFAD100BF00BF05B052
:10AD50005DF804FB9C6E02003C6F02006DAD0100CB
:10AD6000406B0200086B0200246F020082B0019069
:10AD70000B468DF80330034B01221A7000BF02B05E
:10AD8000704700BF9C2B002000B583B00F4B1B7891
:10AD9000DBB283F00103DBB2002B12D10B4B00229C
:10ADA0001A700021122000F0CFFB03468DF8073007
:10ADB0009DF90730002B05DA0621054800F00AF856
:10ADC00000E000BF03B05DF804FB00BF9C2B002037
:10ADD000E023002000B585B001900B468DF80330CC
:10ADE0000023039309E0039B019A13441B78184640
:10ADF00000F00EF8039B013303939DF80330039A90
:10AE00009A42F0DB00BF00BF05B05DF804FB000014
:10AE100000B595B003468DF80F309DF80F3007212F
:10AE2000184600F091FB03468DF84D309DF84D30EB
:10AE30000B2B17D82C4A2D4BD31ADB081B0443F0DD
:10AE400003009DF80F209DF84D300C2100912849FA
:10AE50000AF06BFA0AF0C0FA0346002BFAD1254B30
:10AE600001221A7024238DF84C309DF84C300AAA28
:10AE70009DF80F00082100F09FFC00238DF84F3053
:10AE800000238DF84E3021E09DF84E301A4AD35CF5
:10AE9000012B16D19DF84F2013465B00134405AAE1
:10AEA000D0189DF84E2013465B0013440AAA1344A1
:10AEB000032219460BF07CFD9DF84F3001338DF8CD
:10AEC0004F309DF84E3001338DF84E309DF84E30A6
:10AED0000B2BD9D905AB12211846FEF7D7FE00BFC0
:10AEE00015B05DF804FB00BF406B0200086B020068
:10AEF000406F02009D2B00202874020010B586B020
:10AF000013238DF8123000238DF817307D4A7E4BC5
:10AF1000D31ADB081B0443F003037C4918460AF0EC
:10AF2000D1F9784A784BD31ADB081B0443F00303AA
:10AF3000774918460AF0C6F9724A734BD31ADB08F0
:10AF40001B0443F00303734918460AF0BBF90AF0E7
:10AF500043FA0346002BFAD100238DF816308DE01A
:10AF600000238DF815301AE09DF815306A4AD25C3E
:10AF70009DF81630694911F833309DF8154019468F
:10AF8000104600F0E1FA03461A4604F118036B4438
:10AF900003F80C2C9DF8153001338DF815309DF811
:10AFA0001530052BE0D901238DF8143001238DF8DD
:10AFB000133012E09DF8133018336B4413F80C2C47
:10AFC0009DF80C309A4203D000238DF8143008E02D
:10AFD0009DF8133001338DF813309DF81330052B95
:10AFE000E8D99DF81430002B04D19DF817300133B7
:10AFF0008DF81730434A444BD31ADB081B0443F047
:10B0000003009DF81630454ADB0013445B6819467F
:10B010009DF80C301C469DF80D309DF80E200192D5
:10B02000009323460A463E490AF095F9354A364BC5
:10B03000D31ADB081B0443F003009DF80F301946B8
:10B040009DF810301C469DF811301A469DF81430BA
:10B05000002B01D0334B00E0334B01930092234689
:10B060000A4632490AF077F90AF0B6F90346002B8E
:10B07000FAD19DF8163001338DF816309DF8162060
:10B080009DF812309A42FFF46BAF1E4A1E4BD31A42
:10B09000DB081B0443F003031E4918460AF012F9AB
:10B0A0009DF81730002B0CD1164A174BD31ADB082A
:10B0B0001B0443F0030306221D4918460AF010F949
:10B0C0000CE0104A104BD31ADB081B0443F00303B7
:10B0D0009DF81720174918460AF002F9094A0A4B49
:10B0E000D31ADB081B0443F00303134918460AF084
:10B0F000E9F80AF071F90346002BFAD100BF00BF4E
:10B1000006B010BD406B0200086B020060700200C8
:10B1100090700200D8700200E02300203474020016
:10B12000247102004471020048710200587102004B
:10B1300090710200B4710200E071020010B588B095
:10B14000984A04AB92E80300186004331980002386
:10B150008DF81F30944A954BD31ADB081B0443F03B
:10B160000303934918460AF0ADF80AF035F903468F
:10B17000002BFAD100238DF81E3012E09DF81E300E
:10B180008C4AD05C9DF81E3020336B4413F8103C81
:10B190001A46102100F09EFA9DF81E3001338DF8FA
:10B1A0001E309DF81E30052BE8D90120FFF7B5FBB6
:10B1B00000238DF81D3015E09DF81D307D4AD35CCD
:10B1C0009DF81D401021184600F0BEF903461A46AE
:10B1D00004F120036B4403F8182C9DF81D30013353
:10B1E0008DF81D309DF81D30052BE5D900238DF815
:10B1F0001C3047E09DF81C3020336B4413F8182CAA
:10B200009DF81C3020336B4413F8103C9A420CBF5D
:10B2100001230023DBB28DF819309DF81930002B83
:10B2200004D19DF81F3001338DF81F305E4A5F4B0B
:10B23000D31ADB081B0443F003009DF81C300133D4
:10B2400019469DF81C3020336B4413F8103C1C4603
:10B250009DF81C3020336B4413F8183C1A469DF8B7
:10B260001930002B01D0544B00E0544B0193009255
:10B2700023460A4652490AF06EF89DF81C30013305
:10B280008DF81C309DF81C30052BB3D900238DF8A8
:10B290001B3048E09DF81B3001338DF81A3039E03F
:10B2A0009DF81B3020336B4413F8182C9DF81A308E
:10B2B00020336B4413F8183C9A4226D19DF81B307A
:10B2C00020336B4413F8183C002B1ED0364A374B02
:10B2D000D31ADB081B0443F003009DF81B30013335
:10B2E0001A469DF81A30013319469DF81B30203359
:10B2F0006B4413F8183C00930B4632490AF015F8DA
:10B300009DF81F3001338DF81F309DF81A3001333E
:10B310008DF81A309DF81A30052BC1D99DF81B30D5
:10B3200001338DF81B309DF81B30052BB2D90AF084
:10B3300053F80346002BFAD19DF81F30002B0BD198
:10B34000194A1A4BD31ADB081B0443F003031E49A6
:10B35000184609F0B7FF0CE0134A144BD31ADB0868
:10B360001B0443F003039DF81F201849184609F0F9
:10B37000B7FF0D4A0D4BD31ADB081B0443F0030340
:10B380001349184609F09EFF0AF026F80346002BE1
:10B39000FAD1062302221021064800F0E3F900BF8B
:10B3A00008B010BD30730200406B0200086B020051
:10B3B00010720200E0230020447102003472020087
:10B3C0004072020068720200B4720200E072020071
:10B3D0000C73020000B58FB00390029100931346E6
:10B3E0008DF8073000230D93029B09939DF80730D9
:10B3F0000A93009B0B939DF840300C93039B0433FE
:10B4000009A90022184605F077FA0D900D9B184601
:10B410000FB05DF804FB82B001904FF0A0431846D6
:10B4200002B0704700B585B0019001AB1846FFF738
:10B43000F2FF0390019B012202FA03F319460398DD
:10B4400000F018F800BF05B05DF804FB00B585B04A
:10B45000019001AB1846FFF7DEFF0390019B01222C
:10B4600002FA03F31946039800F00EF800BF05B086
:10B470005DF804FB82B001900091019B009AC3F833
:10B48000082500BF02B0704782B001900091019B77
:10B49000009AC3F80C2500BF02B0704782B001903B
:10B4A0000091034B01221A7000BF02B0704700BF29
:10B4B0009E2B002010B586B01C4B01AC0FCB84E84E
:10B4C0000F0008238DF8063005238DF805300C2376
:10B4D0008DF804304FF08043039300238DF8103033
:10B4E00002238DF8083001A90023114A114803F006
:10B4F0007BFC0590059B002B04D00F4A1B2105986F
:10B5000005F0A8FE0D4A0E4BD31ADB081B0443F0CE
:10B5100003030C49184609F0D5FE09F05DFF034608
:10B52000002BFAD100BF00BF06B010BD807502002D
:10B530009DB40100CC740200DC740200406B020078
:10B54000086B0200607502002DE9F0438BB002AF7A
:10B5500003460A46FB711346BB716B461E462E4BD3
:10B5600000221A70FB791846FFF770FFBB793B7316
:10B57000FF237B730323FB77F97F0B46013BBB6102
:10B58000CBB20022984691464FF000024FF00003E4
:10B590004FEAC90343EA58734FEAC802CBB200220C
:10B5A0001C4615464FF000024FF00003EB0043EA43
:10B5B0005473E2000B460733DB08DB00ADEB030DF1
:10B5C00002AB00337B6107F10C01FB7F00937B69C9
:10B5D00002221248FFF7FEFE38613B69002B06D0BD
:10B5E0000F4A3221386905F035FE00E020BF0A4BD2
:10B5F0001B78DBB283F00103DBB2002BF6D1FB79C1
:10B600001846FFF70FFF7B699B78B546184624372D
:10B61000BD46BDE8F08300BF9E2B0020CC74020025
:10B62000DC7402002DE9F04387B000AF78600B4670
:10B63000FB701346BB706B461E460323FB74F97CFC
:10B640000B46013BFB60CBB20022984691464FF07F
:10B6500000024FF000034FEAC90343EA58734FEA70
:10B66000C802CBB200221C4615464FF000024FF034
:10B670000003EB0043EA5473E2000B460733DB0898
:10B68000DB00ADEB030D6B460033BB6000237B6139
:10B6900012E07B697A6813441B78FA7811461846E1
:10B6A000FFF752FF03461946094A7B6913440A46CD
:10B6B0001A707B6901337B61BB787A699A42E8DB57
:10B6C000034BB54618461C37BD46BDE8F08300BFA6
:10B6D000A02B002000B587B003468DF80F300B4635
:10B6E0008DF80E3013468DF80D301B4B00221A706A
:10B6F0009DF80F301846FFF7A9FE9DF80E308DF823
:10B70000103000238DF811309DF80D308DF8123077
:10B7100004A900230093002303221048FFF75AFED8
:10B720000590059B002B06D00D4A5C21059805F07D
:10B7300091FD00E020BF084B1B78DBB283F00103D2
:10B74000DBB2002BF6D19DF80F301846FFF76AFEEA
:10B7500000BF07B05DF804FB9E2B0020CC740200F4
:10B76000DC74020000B585B00190084611461A4607
:10B7700003468DF803300B468DF8023013468DF8E2
:10B780000130002303930DE0039B019A13441B78BF
:10B790009DF802209DF803101846FFF79BFF039BBE
:10B7A000013303939DF80130039A9A42ECDB00BF0A
:10B7B00000BF05B05DF804FB2DE9F04389B002AF8E
:10B7C0003A601A460346FB710B46BB7113467B7108
:10B7D0006B461E46304B00221A70FB791846FFF765
:10B7E00035FEBB793B7280237B727B79991C4B1EA3
:10B7F0007B610A460023904699464FF000024FF0C5
:10B8000000034FEAC90343EA58734FEAC8020A46E5
:10B81000002314461D464FF000024FF00003EB00DA
:10B8200043EA5473E2000B460733DB08DB00ADEB61
:10B83000030D02AB00333B617B790233DBB207F1CE
:10B84000080100933B6902221448FFF7C3FDF8602A
:10B85000FB68002B06D0124A7E21F86805F0FAFC3E
:10B8600000E020BF0C4B1B78DBB283F00103DBB29E
:10B87000002BF6D1FB791846FFF7D4FD3B69023364
:10B880007A79194638680BF093F8B54600BF1C3733
:10B89000BD46BDE8F08300BF9E2B0020CC740200A3
:10B8A000DC740200BFF34F8F00BF064BDB6803F46C
:10B8B000E0620449044B1343CB60BFF34F8F00BFDA
:10B8C00000BFFDE700ED00E00400FA0582B00A4B7E
:10B8D0001B680193094B1B680093019B0E2B06D13B
:10B8E000009B002B01D1012302E0012300E0002393
:10B8F000184602B0704700BF30010010340100103C
:10B9000082B01B4B1B6801931A4B1B680093019B71
:10B91000082B1FD1009B052B1AD801A252F823F047
:10B9200039B901003DB9010041B9010045B9010033
:10B9300049B901004DB90100012316E0012314E0CB
:10B94000012312E0012310E001230EE001230CE0AB
:10B9500001230AE0019B0E2B06D1009B002B01D195
:10B96000012302E0012300E00023184602B07047E3
:10B97000300100103401001082B01B4B1B68019392
:10B980001A4B1B680093019B082B1FD1009B052BB2
:10B990001AD801A252F823F0B1B90100B5B90100DB
:10B9A000B9B90100BDB90100C1B90100C5B90100B3
:10B9B000012316E0012314E0012312E0012310E02B
:10B9C00001230EE001230CE001230AE0019B0E2B72
:10B9D00006D1009B002B01D1012302E0012300E0EE
:10B9E0000023184602B070473001001034010010E7
:10B9F00082B0164B1B680193154B1B680093019B8B
:10BA0000082B1FD1009B052B1AD801A252F823F056
:10BA100029BA01002DBA010031BA010035BA01007E
:10BA200039BA01003DBA010001230CE000230AE00D
:10BA3000002308E0002306E0002304E0002302E0E6
:10BA4000002300E00023184602B0704730010010C8
:10BA50003401001082B0164B1B680193154B1B6814
:10BA60000093019B082B1FD1009B052B1AD801A224
:10BA700052F823F08DBA010091BA010095BA010085
:10BA800099BA01009DBA0100A1BA010001230CE09E
:10BA900000230AE0002308E0002306E0002304E07E
:10BAA000002302E0002300E00023184602B07047A4
:10BAB000300100103401001082B0164B1B68019356
:10BAC000154B1B680093019B082B1FD1009B052B76
:10BAD0001AD801A252F823F0F1BA0100F5BA010018
:10BAE000F9BA0100FDBA010001BB010005BB01006C
:10BAF00001230CE000230AE0002308E0002306E015
:10BB0000002304E0002302E0002300E000231846A5
:10BB100002B07047300100103401001082B0164BA3
:10BB20001B680193154B1B680093019B082B1FD1C9
:10BB3000009B052B1AD801A252F823F055BB010037
:10BB400059BB01005DBB010061BB010065BB010089
:10BB500069BB010001230CE000230AE0002308E098
:10BB6000002306E0002304E0002302E0002300E0BD
:10BB70000023184602B07047300100103401001055
:10BB800082B01B4B1B6801931A4B1B680093019BEF
:10BB9000082B1FD1009B052B1AD801A252F823F0C5
:10BBA000B9BB0100BDBB0100C1BB0100C5BB0100A9
:10BBB000C9BB0100CDBB0100012316E0012314E045
:10BBC000012312E0012310E001230EE001230CE029
:10BBD00001230AE0019B0E2B06D1009B002B01D113
:10BBE000012302E0012300E00023184602B0704761
:10BBF000300100103401001082B00A4B1B68019321
:10BC0000094B1B680093019B0E2B06D1009B002B58
:10BC100001D1012302E0012300E00023184602B015
:10BC2000704700BF300100103401001082B0164B85
:10BC30001B680193154B1B680093019B082B1FD1B8
:10BC4000009B052B1AD801A252F823F065BC010015
:10BC500069BC01006DBC010071BC010075BC010034
:10BC600079BC010000230CE000230AE0002308E077
:10BC7000002306E0012304E0012302E0012300E0A9
:10BC80000023184602B07047300100103401001044
:10BC900008B5FFF7CBFF0346002B07D04FF010236A
:10BCA0004FF08042D3F80832C2F8583500BF08BDC3
:10BCB00000BF044BD3F80034002BFAD000BF00BF04
:10BCC000704700BF00E0014000B583B00190054A15
:10BCD000019BC2F80435FFF7EBFF00BF03B05DF82E
:10BCE00004FB00BF00E00140024B034A1A6000BFA2
:10BCF000704700BFE82300200090D00308B5FFF78D
:10BD0000E5FD0346002B06D08C4B1B685B0B8C4A71
:10BD100003F007031360FFF7F3FD0346002B0ED07B
:10BD20004FF080430022C3F80C214FF080430022E3
:10BD3000C3F810214FF080430022C3F83825FFF7E5
:10BD40001BFE0346002B76D04FF080537D4AD3F87C
:10BD50000434C2F820354FF080537A4AD3F80834BF
:10BD6000C2F824354FF08053764AD3F80C34C2F829
:10BD700028354FF08053734AD3F81034C2F82C356D
:10BD80004FF080536F4AD3F81434C2F830354FF077
:10BD900080536C4AD3F81834C2F834354FF08053CE
:10BDA000684AD3F81C34C2F840354FF08053654AD6
:10BDB000D3F82034C2F844354FF08053614AD3F8A9
:10BDC0002434C2F848354FF080535E4AD3F8283403
:10BDD000C2F84C354FF080535A4AD3F82C34C2F88D
:10BDE00050354FF08053574AD3F83034C2F85435A9
:10BDF0004FF08053534AD3F83434C2F860354FF0D3
:10BE00008053504AD3F83834C2F864354FF0805329
:10BE10004C4AD3F83C34C2F868354FF08053494A55
:10BE2000D3F84034C2F86C354FF08053454AD3F80C
:10BE30004434C2F87035FFF7DBFD0346002B02D017
:10BE4000414B424A1A60FFF705FE0346002B03D020
:10BE50003F4BFB22C3F81825FFF72EFE0346002BAD
:10BE60000AD03C4B1B6823F00F023B4B1B6803F0CE
:10BE70000F03384913430B60FFF750FE0346002BB6
:10BE800003D0364B4FF400721A60FFF779FE034679
:10BE9000002B0DD04FF08043D3F8003403F00103A2
:10BEA000002B05D04FF080436FF00102C3F800244F
:10BEB000FFF7A2FE0346002B05D0264B1B68254A40
:10BEC00043F00F031360FFF7E3FE4FF01023D3F8A6
:10BED0000032002B05DB4FF01023D3F80432002B87
:10BEE00015DA0120FFF7F0FE4FF010231222C3F8FD
:10BEF0000022FFF7DDFE4FF010231222C3F80422C8
:10BF0000FFF7D6FE0020FFF7DFFEFFF7CBFC144B58
:10BF10001B6803F00103002B0CD00120FFF7D4FEB7
:10BF20000F4B00221A60FFF7C3FE0020FFF7CCFE84
:10BF3000FFF7B8FCFFF7D8FE00BF08BD44020010B1
:10BF40003C05004000C000408C5600404881030082
:10BF500000F00040E40E00405802001040960240FD
:10BF60000C1200106DDF704700BF184679DF704774
:10BF700000BF18467DDF704700BF184664DF70477A
:10BF800000BF184682B003460091ADF80630BDF8F8
:10BF90000630DAB2009B1A70BDF806301B0A9AB25E
:10BFA000009B0133D2B21A700223184602B07047C8
:10BFB00000B589B0039002911346ADF80630029B9C
:10BFC0001B8803F10902BDF806309A4201D90C23FF
:10BFD00053E004AB1846FFF7C5FF0790079B069395
:10BFE000069B002B01D0069B47E0029B1B881A464C
:10BFF000039B134408221A70029B1B8801339AB2D8
:10C00000029B1A80029B1B881A46039B13441B2227
:10C010001A70029B1B8801339AB2029B1A80029B02
:10C020001B881A46039B981804AB01330622194655
:10C030000AF0BEFC029B1B8806339AB2029B1A8050
:10C040009DF8103023F00103DBB2002B07D1029BD7
:10C050001B881A46039B134400221A7006E0029BB9
:10C060001B881A46039B134401221A70029B1B88EB
:10C0700001339AB2029B1A800023184609B05DF87A
:10C0800004FB00B589B0039002910192ADF8023033
:10C09000039B1B78012B05D1039B5B78002B01D1FF
:10C0A000072391E0019B1B889A1CBDF802309A423D
:10C0B0000ED8039B1B78012B0CD1019B1B881A46C1
:10C0C000039B5B7813449A1CBDF802309A4201D955
:10C0D0000C2379E0019B1B88BDF80220D31A9BB288
:10C0E000023BADF81C30BDF81C30ADF81230019B9E
:10C0F0001B880233029A13440DF1120211461846AE
:10C10000FFF738FF0690069B0593059B002B01D097
:10C11000059B59E0039B1B78022B06D0039B5B78A1
:10C120001A46BDF812309A4209D3BDF81230BDF854
:10C130001C209A4203D309238DF81F3016E00823F0
:10C140008DF81F30039B1B78012B0BD1039B5B7871
:10C150001A46BDF81C30934204D3039B5B78ADF8BC
:10C16000123003E0BDF81C30ADF81230BDF81230CB
:10C17000FE2B01D90C2327E0BDF81230DAB2019B67
:10C180001B881946029B0B440132D2B21A70019BE4
:10C190001B8801339AB2019B1A80019B1B881A46A7
:10C1A000029B13449DF81F201A70019B1B880133CA
:10C1B0009AB2019B1A80019B1A88BDF81230134471
:10C1C0009AB2019B1A800023184609B05DF804FB5F
:10C1D00000B589B0039002911346ADF80630029B7A
:10C1E0001B881A1DBDF806309A4201D90C233AE08B
:10C1F0000DF116031846FFF7B9FE0790079B06934B
:10C20000069B002B01D0069B2DE0029B1B881A4643
:10C21000039B134403221A70029B1B8801339AB2BA
:10C22000029B1A80029B1B881A46039B1344192207
:10C230001A70029B1B8801339AB2029B1A80BDF8C8
:10C240001620029B1B881946039B0B441946104677
:10C25000FFF798FE03461A46029B1B8813449AB2C6
:10C26000029B1A800023184609B05DF804FB84B0D5
:10C27000029101921A4603468DF80F301346ADF82D
:10C280000C30019B1B88DA1CBDF80C309A4201D996
:10C290000C2328E0019B1B881A46029B13440222B0
:10C2A0001A70019B1B8801339AB2019B1A80019B73
:10C2B0001B881A46029B134401221A70019B1B889B
:10C2C00001339AB2019B1A80019B1B881A46029B7C
:10C2D00013449DF80F201A70019B1B8801339AB2FA
:10C2E000019B1A800023184604B0704784B0029165
:10C2F00001921A4603468DF80F301346ADF80C3004
:10C30000019B1B88DA1CBDF80C309A4201D90C2322
:10C3100028E0019B1B881A46029B134402221A70D4
:10C32000019B1B8801339AB2019B1A80019B1B88D9
:10C330001A46029B13440A221A70019B1B88013380
:10C340009AB2019B1A80019B1B881A46029B1344D8
:10C350009DF80F201A70019B1B8801339AB2019B34
:10C360001A800023184604B0704700B58FB00390C0
:10C3700001930B468DF80B3013468DF80A300023DD
:10C380008DF83330109B1B88ADF8303000230D93AF
:10C3900070E0039B5A680D9B9B001A4405AB106824
:10C3A00018600DF11B0105AB00221846FFF7E6FDF2
:10C3B0000A900A9B0993099B002B01D0099B7BE003
:10C3C0009DF81B309DF80A209A4250D19DF83330D9
:10C3D000002B01D0002300E002238DF82330109BB6
:10C3E0001B881A469DF81B301A449DF823301A44C6
:10C3F000BDF844309A4201DD0C235DE09DF83330F6
:10C4000083F00103DBB2002B16D0109B1B88013395
:10C410009AB2109B1A80109B1B881A46019B1344EA
:10C420009DF80B201A70109B1B8801339AB2109B49
:10C430001A8001238DF83330109B1B881A46019B0C
:10C440001A440DF11B0105AB1846FFF797FD0A9042
:10C450000A9B0793079B002B01D0079B2CE0109BA6
:10C460001B889DF81B2013449AB2109B1A800D9BC9
:10C4700001330D93039B1B881A460D9B934288DB67
:10C480009DF83330002B16D0109B1A88BDF8303041
:10C49000D31A9BB2013BADF82E30BDF82E30FF2BE6
:10C4A00001D90C2308E0BDF83030019A1344BDF8DF
:10C4B0002E20D2B21A70002318460FB05DF804FB8C
:10C4C00000B58BB0059003930B468DF813301346DF
:10C4D0008DF812309DF81310BDF8343001930C9B89
:10C4E0000093039B02220598FFF73FFF0990099BE9
:10C4F0000893089B002B01D0089B14E09DF81210B4
:10C50000BDF8343001930C9B0093039B10220598D7
:10C51000FFF72BFF0990099B0793079B002B01D086
:10C52000079B00E0002318460BB05DF804FB82B0C7
:10C530000190019B1B88052B0AD9019B1B88B3F531
:10C54000486F07D9019B1B884FF6FF72934201D0B9
:10C55000072325E0019B5B88052B0AD9019B5B889B
:10C56000B3F5486F07D9019B5B884FF6FF72934282
:10C5700001D0072314E0019B1B884FF6FF72934202
:10C580000DD0019B5B884FF6FF72934207D0019B51
:10C590001A88019B5B889A4201D9072300E0002397
:10C5A000184602B0704700B587B00390029101921F
:10C5B000ADF80230019B1B889A1DBDF802309A42EB
:10C5C00001D90C234BE00398FFF7B1FF0590059BC1
:10C5D0000493049B002B01D0049B40E0019B1B882B
:10C5E0001A46029B134405221A70019B1B880133D3
:10C5F0009AB2019B1A80019B1B881A46029B134426
:10C6000012221A70019B1B8801339AB2019B1A8077
:10C61000039B1A88019B1B881946029B0B441946F1
:10C620001046FFF7AFFC03461A46019B1B881344D4
:10C630009AB2019B1A80039B5A88019B1B8819465A
:10C64000029B0B4419461046FFF79CFC03461A4612
:10C65000019B1B8813449AB2019B1A800023184641
:10C6600007B05DF804FB00B587B00390029101921A
:10C67000ADF80230039B9B8802330593019B1B8816
:10C680001A46059B13449A1CBDF802309A4201D900
:10C690000C2353E0059BFE2B01D90C234EE0059B98
:10C6A000DAB2019B1B881946029B0B440132D2B2BD
:10C6B0001A70019B1B8801339AB2019B1A80019B5F
:10C6C0001B881A46029B1344FF221A70019B1B8889
:10C6D00001339AB2019B1A80039B1A88019B1B8825
:10C6E0001946029B0B4419461046FFF74BFC0346C4
:10C6F0001A46019B1B8813449AB2019B1A80039B24
:10C700009B88002B19D0039B9B68002B01D107232A
:10C7100014E0019B1B881A46029B9818039B99689A
:10C72000039B9B881A460AF043F9019B1A88039BD6
:10C730009B8813449AB2019B1A800023184607B0C5
:10C740005DF804FB00B589B0039002910192ADF849
:10C750000230039B9B6A002B01D1072371E0002369
:10C760008DF81F3065E0039B996A9DF81F201346E2
:10C770005B0013449B000B440693069B9B8802338B
:10C780000593059BFE2B01D90C235AE0059BDAB2D9
:10C79000019B1B881946029B0B440132D2B21A70CE
:10C7A000019B1B8801339AB2019B1A80019B1B8855
:10C7B0001A46029B134416221A70019B1B880133F0
:10C7C0009AB2019B1A80069B1A88019B1B88194606
:10C7D000029B0B4419461046FFF7D4FB03461A464A
:10C7E000019B1B8813449AB2019B1A80069B9B886D
:10C7F000002B19D0069B9B68002B01D1072320E05A
:10C80000019B1B881A46029B9818069B9968069BF9
:10C810009B881A460AF0CCF8019B1A88069B9B88D5
:10C8200013449AB2019B1A809DF81F3001338DF892
:10C830001F30039B93F82C309DF81F209A4292D30F
:10C840000023184609B05DF804FB00B595B00590CB
:10C850000491039200231393039B1B88ADF84A3085
:10C86000039B00221A80059B93F82D30002B0ED0DD
:10C87000BDF84A301A4603990498FFF799FB1390C4
:10C88000139B1193119B002B01D0119BD8E0059BAA
:10C890009B78002B0ED0BDF84A301A4603990498B5
:10C8A000FFF796FC1390139B1093109B002B01D065
:10C8B000109BC5E0059BDB78002B10D0059BDB7837
:10C8C00058B2BDF84A30039A0499FFF7D0FC139090
:10C8D000139B0F930F9B002B01D00F9BB0E0059B88
:10C8E0005B68002B11D0059B5B6893F90000BDF8D5
:10C8F0004A30039A0499FFF7F9FC1390139B0E93A7
:10C900000E9B002B01D00E9B9AE0059B1B89002BF0
:10C9100014D0059B03F10800BDF84A300193039B36
:10C920000093049B06220221FFF7CAFD1390139B7C
:10C930000D930D9B002B01D00D9B81E0059B1B8A65
:10C94000002B14D0059B03F11000BDF84A30019371
:10C95000039B0093049B07220321FFF7B1FD139073
:10C96000139B0C930C9B002B01D00C9B68E0059B48
:10C970001B8B002B14D0059B03F11800BDF84A3027
:10C980000193039B0093049B15221421FFF798FD4C
:10C990001390139B0B930B9B002B01D00B9B4FE031
:10C9A000059B1B6A002B0FD0059B186ABDF84A3007
:10C9B000039A0499FFF7F7FD1390139B0A930A9BC0
:10C9C000002B01D00A9B3BE0059B5B6A002B0FD03C
:10C9D000059B586ABDF84A30039A0499FFF743FE55
:10C9E0001390139B0993099B002B01D0099B27E00F
:10C9F000059B93F82C30002B0ED0BDF84A30039ADB
:10CA000004990598FFF79EFE1390139B0893089BCB
:10CA1000002B01D0089B13E0059B1B78002B0ED048
:10CA2000BDF84A30039A04990598FFF72AFB139042
:10CA3000139B0793079B002B01D0079B00E0139BE0
:10CA4000184615B05DF804FB86B0039001921A46B3
:10CA50000B46ADF80A3013468DF80930039B002BC6
:10CA600002D0019B002B01D100235BE00023ADF835
:10CA700016300CE0BDF81630039A13441B781A46A2
:10CA8000BDF8163013449BB20133ADF81630BDF833
:10CA900016305A1CBDF80A309A420FDA019B1B88E7
:10CAA000BDF816209A42E5D3BDF816300133039A3B
:10CAB00013441B789DF809209A42DBD1BDF816205B
:10CAC000BDF80A309A4201D300232BE0BDF816309E
:10CAD0000233ADF81430BDF81630039A13441B78B6
:10CAE000002B07D0BDF81630039A13441B78013B86
:10CAF0009BB200E00023ADF81230BDF81230002BDD
:10CB000008D0BDF81420BDF812301A44BDF80A3020
:10CB10009A4201DD002305E0019BBDF814201A8034
:10CB2000BDF81230184606B0704700B585B00190C8
:10CB30000B46ADF8023013468DF801300023ADF8F6
:10CB40000C309DF8013003AABDF802100198FFF7E0
:10CB50007BFF0346ADF80E30BDF80E30002B01D13F
:10CB6000002304E0BDF80C301A46019B134418461C
:10CB700005B05DF804FB72DF704700BF184673DF35
:10CB8000704700BF184682B00190019B93F8F430C3
:10CB9000184602B0704784B00190002303930AE066
:10CBA000019A039B13441B78002B01D0012306E05C
:10CBB000039B01330393039B052BF1D900231846F4
:10CBC00004B0704782B003468DF807309DF80730F7
:10CBD0005A1C074B83FB02135910D317C91A0B4673
:10CBE0009B000B44D11ACBB2184602B0704700BF6D
:10CBF0006766666682B001900091009BDB7B012B2B
:10CC000004D1009B9A88019BA3F8E82000BF02B0E2
:10CC1000704700B585B001900091019B002283F818
:10CC2000F220009B9A88019BB3F8E8309A4216D113
:10CC3000019B1B7983F00103DBB2002B0FD0012194
:10CC4000019800F08FFA0390039B002B07D0019B03
:10CC50009B6B002B03D0019B9B6B0398984700BFF5
:10CC600005B05DF804FB00B585B001900091009B14
:10CC70001B88262B1ED1009B1B7A012B03D0009B07
:10CC80001B7A022B17D1019B9B781846FFF79AFF5E
:10CC900003461946019800F065FA0390039B002BA8
:10CCA00009D0019B9B6B002B05D0019B9B6B0398CC
:10CCB000984700E000BF05B05DF804FB00B585B003
:10CCC00001900B468DF80330019BEB331846FFF7BC
:10CCD00062FF03468DF80F309DF80330013B032BB4
:10CCE00032D801A252F823F0F9CC01001DCD010089
:10CCF00031CD01003DCD0100019B9B79002B0DD072
:10CD0000019B93F8243083F00103DBB2002B05D0A4
:10CD10009DF80F30002B01D0012316E0019BDB7939
:10CD2000002B05D09DF80F30002B01D002230CE022
:10CD3000019B1B7A002B01D0032306E0019B5B7A49
:10CD4000002B01D0042300E00023184605B05DF855
:10CD500004FB00BF82B001900091019B012283F887
:10CD60003120019B0022C3F8E420019B03F1EA0279
:10CD7000009B5A60009B00229A60009B02221A705E
:10CD8000009B80229A810023184602B0704782B02F
:10CD900001900091019B022283F83120009B032225
:10CDA0001A70019B1B699AB2009B9A81019B002219
:10CDB000C3F8E420019B03F1EA02009B5A60019B47
:10CDC000DA68009B9A600023184602B0704700B5ED
:10CDD00083B00190019B5B79002B0FD0019B93F8EE
:10CDE000F23083F00103DBB2002B07D00198FFF78C
:10CDF000CAFE0346002B01D0012300E0002303F00C
:10CE00000103DBB2184603B05DF804FB00B585B042
:10CE100001900B468DF80330019BD3F8D400019BA1
:10CE2000B3F8D83001221946FFF77FFE0390039B29
:10CE3000002B03D0039B9DF803201A70019B03F184
:10CE40005400019B03F1D401019B3C331A46FFF7C8
:10CE500092FE0346184605B05DF804FB00B585B0A8
:10CE600001900091019B5A69009B9A60019B9B690C
:10CE70009AB2009B9A81019B012283F83C20019881
:10CE8000FFF7A5FF0346002B13D0009B02221A7563
:10CE900004210198FFF7BAFF0390039B0293029BC2
:10CEA000002B01D0029B0FE0019B052283F831206B
:10CEB00003E0019B032283F83120019B03F1D4029C
:10CEC000019BC3F8E4200023184605B05DF804FB7D
:10CED00000B585B001900091019BDA69009B9A60D2
:10CEE000019B1B6A9AB2009B9A81019B012283F8E5
:10CEF0003C200198FFF76BFF0346002B13D0009BEB
:10CF000002221A7504210198FFF780FF0390039B0A
:10CF10000293029B002B01D0029B0FE0019B062293
:10CF200083F8312003E0019B042283F83120019B28
:10CF300003F1D402019BC3F8E4200023184605B096
:10CF40005DF804FB82B00190019B9B78002B06D01A
:10CF5000019B93F82030002B01D000230AE0019BB5
:10CF60009B6A042B03D0019B5B6A042B01D1002335
:10CF700000E00123184602B0704784B00190019B85
:10CF800093F82430002B03D01F23ADF80E3002E0BD
:10CF90001F23ADF80E30BDF80E30184604B07047B0
:10CFA00082B001900B468DF80330019B9DF8032061
:10CFB00083F8302000BF02B0704730B587B00190D1
:10CFC0000091009B002B02D0019B002B01D10E236E
:10CFD000B5E0009B78331846FFF7B4FF034683F0B3
:10CFE0000103DBB2002B01D00723A8E0019B002244
:10CFF0009A70019A009B141D03F178050FCD0FC4A0
:10D000000FCD0FC495E8070084E80700019B0022BC
:10D0100083F83020009BD3F8A420019B5A63009B27
:10D02000D3F8A820019B9A63019B4FF6FF72A3F8E7
:10D03000E820019B03F1D402019BC3F8E420019B8B
:10D04000EA3307220021184609F0E4FC019B1B7813
:10D0500083F00103DBB2002B03D0019BFF2283F896
:10D060005420019B03F15502019BC3F8D420019881
:10D07000FFF783FF03461A46019BA3F8D8200098C8
:10D08000019B03F15501019BD8331A46FFF7DDFBE5
:10D090000590059B0493049B002B01D0049B4EE05C
:10D0A000019B03F19302019BC3F8DC200198FFF779
:10D0B00064FF03461A46019BA3F8E020009B03F19E
:10D0C0003C00019BD3F8DC10019BE0331A46FFF7CC
:10D0D000BCFB0590059B0393039B002B01D0039B96
:10D0E0002DE0019B012283F85120019B9B699AB29C
:10D0F000019BA3F84820019B012283F83C20019B5F
:10D1000000221A64019B002283F85020019B5A6977
:10D11000019B5A64019B03F15400019B3C331A4666
:10D120000021FFF728FD0590059B0293029B002B31
:10D1300001D0029B03E0019B01221A70059B184657
:10D1400007B030BD82B00190019B1B68012B03D05A
:10D15000019B1B68022B01D1012300E0002318462C
:10D1600002B0704700B585B001900B468DF80330D2
:10D17000019B1B7883F00103DBB2002B01D0082355
:10D1800009E1019B9DF803209A70019BEA33072275
:10D190000021184609F03EFC019B9B79002B03D02F
:10D1A000019B9B78012B0FD0019BDB79002B03D0D7
:10D1B000019B9B78012B07D0019BDB79002B14D0BE
:10D1C000019B9B78022B10D1019B5B6B002B08D03D
:10D1D000019B012283F8F120019B5B6B082098479B
:10D1E00003E0019B002283F8F1209DF803301946EB
:10D1F0000198FFF763FD03461A46019B9A70019B55
:10D200005B6B002B20D0019B9B78032B03D0019BF1
:10D210009B78042B18D1019B5B79002B14D0019BC8
:10D2200093F8F23083F00103DBB2002B0CD0019BAA
:10D23000002283F8F420019B012283F8F320019B54
:10D240005B6B0720984703E0019B002283F8F320E3
:10D25000019B3C3318220021184609F0DBFB019B9F
:10D26000012283F83C20019B2C331846FFF76AFF0C
:10D270000346002B06D0019BDB6ADAB2019B83F8E0
:10D28000512003E0019B012283F85120019B93F878
:10D290002430002B12D0019B28331846FFF752FF91
:10D2A0000346002B06D0019B9B6ADAB2019B83F8F0
:10D2B000522003E0019B012283F85220019B0022AF
:10D2C00083F85020019B9B78042B32D801A252F89E
:10D2D00023F000BF29D30100E9D20100F9D20100F7
:10D2E00009D3010019D30100019B3C331946019871
:10D2F000FFF730FD03901DE0019B3C331946019878
:10D30000FFF745FD039015E0019B3C33194601985A
:10D31000FFF7A4FD03900DE0019B3C3319460198F3
:10D32000FFF7D6FD039005E0019B002283F8312032
:10D3300000E000BF019B9B78002B20D0019B03F1F4
:10D340005400019BD3F8E410019B3C331A46FFF7CD
:10D3500012FC0390039B002B01D0039B1BE0019B5D
:10D3600093F85420019B93F8303019461046FFF78C
:10D3700006FC0390039B002B01D0039B0BE0019B59
:10D380005B6B002B06D0019B5B6B019A92F83120FE
:10D39000104698470023184605B05DF804FB00BF0F
:10D3A00000B585B001900091009B0393019B1B8801
:10D3B000262B10D0262B13DC102B02D0112B05D0DE
:10D3C0000EE001990398FFF715FC0AE00199039814
:10D3D000FFF71FFC05E001990398FFF744FC00E00C
:10D3E00000BF00BF05B05DF804FB75DF704700BFEC
:10D3F000184676DF704700BF18467ADF704700BFD7
:10D4000018467BDF704700BF1846000084B0034613
:10D41000ADF806300023039316E00F49039A134634
:10D420009B0013449B000B441B88BDF806209A42C6
:10D4300007D1039A13469B0013449B00064A1344EA
:10D4400006E0039B01330393039B002BE5D00023ED
:10D45000184604B0704700BFC82B002082B001906E
:10D460000B46ADF80230019BBDF802201A80019BEB
:10D4700000221A72019B054903F10A020B4603CBF5
:10D480001060516000BF02B0704700BFF82B002051
:10D4900082B00190019B4FF6FF721A8000BF02B06C
:10D4A000704788B00390029111461A460B46ADF8BA
:10D4B00006301346ADF80430039B9B881A46BDF82E
:10D4C000063013440793039B9B881946039B9B8854
:10D4D000BDF80620934228BF13469BB2CB1A069391
:10D4E000039BDB881A46BDF8043013440593039B65
:10D4F000DB881946039BDB88BDF80420934228BFD4
:10D5000013469BB2CB1A0493029B5A88039B1B8839
:10D510009A4205D3029B5A88039B5B889A4201D9A1
:10D5200000231CE0029B9B881A46069B934205D869
:10D53000029B9B881A46079B934201D200230EE070
:10D54000029BDB881A46049B934205D8029BDB882A
:10D550001A46059B934201D2002300E0012318469E
:10D5600008B0704700B583B00190064B9B69002B53
:10D5700003D0044B9B690198984700BF03B05DF846
:10D5800004FB00BFDC2B002000B585B003460091F2
:10D59000ADF80630BDF8063000991846FFF725FFB4
:10D5A0000390039B002B05D0039B112B02D0039803
:10D5B000FFF7D8FF039B002B0CBF01230023DBB236
:10D5C000184605B05DF804FB00B589B00190019BD9
:10D5D0000793079B9BB21846FFF718FF0690069B20
:10D5E000002B42D0069B1A7A224B1B7B9A4215D203
:10D5F000079B9AB2069B0A3319461046FFF7C4FFF1
:10D6000003468DF813309DF81330002B2DD0069B68
:10D610001B7A0133DAB2069B1A7226E0069B0022BF
:10D620001A72144B1B7C002B0FD0079B9BB23B2123
:10D630001846FFF7DEFE0590059B002B05D0059BE5
:10D64000082B02D00598FFF78DFF0A4B5B69002B72
:10D650000BD000238DF80C30079B9BB2ADF80E3039
:10D66000044B5B6903AA1046984700BF09B05DF8F8
:10D6700004FB00BFDC2B002030B587B00190019B7C
:10D68000002B01D10E2353E02B4A019B14461D466B
:10D690000FCD0FC495E8070084E80700264B274A02
:10D6A0001A60019B1B68002B11D0019B1B68184658
:10D6B000FFF7A3FE0490049B002B01D0049B37E0EE
:10D6C000019B1A681D4B1068516803C308E01B4892
:10D6D000FFF797FE0490049B002B01D0049B27E0EA
:10D6E0000023059320E0059A13469B0013449B00FA
:10D6F000134A134403930398FFF7CAFE059B5B018B
:10D70000104A1A44039B5A60039B04330E4A0021BB
:10D71000184604F0E5FC0490049B002B01D0032381
:10D7200006E0059B01330593059B002BDBD000230E
:10D73000184607B030BD00BFDC2B0020F82B0020BE
:10D74000C82B0020A82B0020C9D5010000B587B048
:10D7500003460091ADF80630009B5B7A002B1AD18E
:10D76000009B1B7A002B03D1164B5B68059302E0EC
:10D77000144B9B680593009B5B68BDF806200599D8
:10D78000184604F0DDFC0490049B002B16D004988E
:10D79000FFF7E8FE12E0009B00221A72094B5B695A
:10D7A000002B0BD001238DF80C30BDF80630ADF8FE
:10D7B0000E30044B5B6903AA1046984700BF07B0C0
:10D7C0005DF804FBDC2B002000B585B00190019BC7
:10D7D000DB7B8DF80F30019B9B88ADF80C309DF8FA
:10D7E0000F30012B2CD14FF6FF70FFF70FFE029088
:10D7F000029B002B03D10420FFF7B4FE21E0BDF80B
:10D800000C3019460298FFF729FE029B03F10A002B
:10D81000019B03F110014FF6FF7340F2F312FFF783
:10D8200040FE03461A46029B5A72074BDB89002BC7
:10D8300007D1BDF80C3002991846FFF787FF00E0CA
:10D8400000BF05B05DF804FBDC2B002000B587B0FD
:10D850000190019B9B88ADF81630BDF81630184634
:10D86000FFF7D4FD0490049B002B0ED0049B5B6853
:10D87000184604F09BFC0390039B002B02D00398F6
:10D88000FFF770FE0498FFF703FE00BF07B05DF8D6
:10D8900004FB000000B587B00190019B063305939F
:10D8A000059B1A88194BDB899A422BD1059B5B8912
:10D8B000022B27D1019B9B88ADF81230BDF81230A6
:10D8C0001846FFF7A3FD0390039B002B1AD0059B7E
:10D8D0000C33184600F067FA0346002B06D0BDF85B
:10D8E000123003991846FFF731FF0BE0039B5B688A
:10D8F000184604F05BFC0290029B002B02D00298B9
:10D90000FFF730FE00BF07B05DF804FBDC2B002002
:10D9100000B585B00190019B9B88ADF80E30BDF835
:10D920000E301846FFF772FD0290029B002B15D0B7
:10D93000029B03F10A00019B03F108014FF6FF73FC
:10D9400040F2F312FFF7ADFD03461A46029B5A72EE
:10D95000BDF80E3002991846FFF7F8FE00BF05B07B
:10D960005DF804FB00B583B001900091019B1B881A
:10D97000502B12D0502B18DC122B12D0122B14DC8F
:10D98000102B02D0112B04D00FE00198FFF71CFFE1
:10D990000CE00198FFF75AFF08E00198FFF77AFFC3
:10D9A00004E00198FFF7B4FF00E000BF00BF03B040
:10D9B0005DF804FB30B58FB0019000910023029315
:10D9C000009B002B1AD000230D9314E06B460D9999
:10D9D000184605F07EFD0346002B09D0029B5A1C19
:10D9E00002920D9A92B25B0038336B4423F82C2CD0
:10D9F0000D9B01330D930D9B132BE7D9019B1D4606
:10DA000002AC0FCC0FC50FCC0FC594E8070085E81A
:10DA1000070001980FB030BD00B583B00346ADF8E4
:10DA20000630BDF80630132B01D900230CE0BDF8F9
:10DA300006301946064805F01BFDBDF806301946AC
:10DA4000044805F015FD0123184603B05DF804FBFA
:10DA5000082C0020042C002000B585B00346ADF84A
:10DA60000630002303930DE0039B9B00094A1344F7
:10DA70000433BDF806201146184605F011FD039B3E
:10DA800001330393039B1D2BEED900BF00BF05B0EC
:10DA90005DF804FB002C002000B583B00346ADF810
:10DAA0000630BDF806301946034805F0F9FC00BF02
:10DAB00003B05DF804FB00BF082C002030B59BB01C
:10DAC000184B9B68DB431893164B5A6818AB1146EA
:10DAD000184605F05AFD189A6B4611461846FFF78E
:10DAE00069FF0DAC6D460FCD0FC40FCD0FC495E887
:10DAF000070084E80700002319930BE0199B5B00E3
:10DB000068336B4433F8303C1846FFF7A5FF199B88
:10DB1000013319930D9B199A9A42EFD300BF00BFAE
:10DB20001BB030BD002C002000B583B001900B4627
:10DB3000ADF8023013468DF801309DF80130002B0E
:10DB400006D0BDF802301946019805F091FC05E0B9
:10DB5000BDF802301946019805F0A2FC00BF03B0E1
:10DB60005DF804FB00B585B001900091019B9B8896
:10DB7000ADF80E30019B1B88103B0A2B7BD801A20D
:10DB800052F823F0B1DB0100D7DB010077DC0100A4
:10DB900077DC010077DC010077DC010077DC010035
:10DBA00077DC010077DC010041DC0100E3DB0100F0
:10DBB000FFF784FFBDF80E301846FFF72DFF034630
:10DBC00083F00103DBB2002B52D02D4AF021042058
:10DBD00003F040FB4CE0BDF80E301846FFF75CFF49
:10DBE00049E0019B1B7AC3F30313DBB28DF80D30C0
:10DBF0009DF80D30032B8CBF01230023DAB2BDF852
:10DC00000E3019461F48FFF78FFF9DF80D30022B8D
:10DC10008CBF01230023DAB2BDF80E3019461A4832
:10DC2000FFF782FF9DF80D30012B8CBF01230023ED
:10DC3000DAB2BDF80E3019461448FFF775FF1AE046
:10DC4000019B1B7A002B15D1019B5B7AC3F3C003A8
:10DC5000DBB2002B14BF012300238DF80C309DF89C
:10DC60000C20BDF80E3019460648FFF75DFF01E0B5
:10DC700000BF00E000BF00BF05B05DF804FB00BFBF
:10DC800090750200182C0020142C0020102C00206D
:10DC900000B583B00346ADF80630BDF80630132B4F
:10DCA00001D9002306E0BDF806301946034805F007
:10DCB00010FC0346184603B05DF804FB042C00205A
:10DCC00000B583B00346ADF80630BDF806301846FF
:10DCD000FFF7DEFF0346002B02D0BDF8063000E060
:10DCE0001423184603B05DF804FB00B587B0039019
:10DCF0000B460192ADF80A30019B002B01D10E2397
:10DD000038E0019B00221A60039B002B01D10E23F7
:10DD100030E0039B1B68002B01D10E232AE0039BFC
:10DD2000DB8803F003039BB2002B01D0072321E023
:10DD3000BDF80A301846FFF7C3FF03468DF81730C9
:10DD40009DF81730142B01D1052313E0039B1B7999
:10DD50009DF817209A4201D304230BE0039B1B6814
:10DD60009DF817200399C98801FB02F21A44019B10
:10DD70001A600023184607B05DF804FB82B00190DA
:10DD8000019B1B781AB2019B01331B781BB21B024B
:10DD90001BB213431BB29BB2184602B07047AADFF6
:10DDA000704700BF184600B585B001900198FFF795
:10DDB000E5FF0346ADF80E30BDF80E3003F0010369
:10DDC000002B14BF01230023DBB2184605B05DF819
:10DDD00004FB000082B0034600918DF80730009AE2
:10DDE000137823F00F031370009A137823F0F003D5
:10DDF00013709DF80730052B5BD801A252F823F071
:10DE000019DE01002FDE010049DE010063DE0100A2
:10DE10007DDE010097DE0100009A137823F00F03E6
:10DE20001370009A137823F0F003137040E0009A07
:10DE30001378012161F303031370009A1378012111
:10DE400061F30713137033E0009A1378012161F333
:10DE500003031370009A1378022161F30713137000
:10DE600026E0009A1378012161F303031370009AEE
:10DE70001378032161F30713137019E0009A1378E4
:10DE8000022161F303031370009A1378012161F3F7
:10DE9000071313700CE0009A1378022161F3030357
:10DEA0001370009A1378022161F30713137000BFF7
:10DEB00000BF00BF02B0704700B595B003460291A5
:10DEC0000192ADF80E30029B9B78002B03D1012309
:10DED0008DF81E3003E0029B9B788DF81E30029B6C
:10DEE0001B88ADF81C3006AB03220021184608F051
:10DEF00091FD029B5B7C06AA11461846FFF76AFF5C
:10DF0000029B9A7C06AB013319461046FFF762FF6D
:10DF1000029BDA7B9DF81A3062F3C3038DF81A3046
:10DF2000029B1A7C9DF81A3062F304138DF81A30A4
:10DF3000029B1A7B9DF81A3062F300038DF81A30A9
:10DF4000029B1B7D002B01D0022200E001229DF8E4
:10DF50001A3062F342038DF81A300DAB1C220021F7
:10DF6000184608F057FD029B5B7B03F01003DBB201
:10DF7000002B06D1029B5B7B03F02003DBB2002B5E
:10DF800024D004AB03220021184608F043FD029B75
:10DF9000DA7C04AB013319461046FFF71BFF9DF8EE
:10DFA0001030012262F303038DF810309DF8103019
:10DFB000012262F307138DF810309DF81230012210
:10DFC00062F342038DF8123004AB1293029B5B7B29
:10DFD0008DF83430029B9B7B8DF8353008AB1422D2
:10DFE0000021184608F016FD07AB089306AB09930D
:10DFF000029B9B88ADF82C30029B9B68002B06D0BF
:10E00000029BDB88ADF82830029B9B680C93029B37
:10E010009B69002B4FD005AB03220021184608F066
:10E02000F9FC029B9B691B88ADF83C30029B9B6905
:10E030005B88ADF83E30029B9B695B680E9305AB35
:10E040001193029B9B691B7B05AA11461846FFF79B
:10E05000C1FE029B9B695A7B05AB013319461046F2
:10E06000FFF7B8FE029B9B699A7A9DF8163062F31F
:10E07000C3038DF81630029B9B69DA7A9DF816303F
:10E0800062F304138DF81630029B9B691A7A9DF88F
:10E09000163062F300038DF81630029B9B699B7B60
:10E0A000002B01D0022200E001229DF8163062F31D
:10E0B00042038DF81630029BDB69002B02D0029BD5
:10E0C000DB69109308AA0DA9BDF80E00019BFFF7AC
:10E0D00066FE0346184615B05DF804FBA5DF7047E1
:10E0E00000BF1846B5DF704700BF184682B00190E8
:10E0F000019BF7221A80019B17225A80019B002264
:10E100001A71019B00225A7100BF02B0704784B09F
:10E1100001900091009B9B88ADF80E30BDF80E2059
:10E1200013465B0013445B00019A134406330293C9
:10E13000009BDB7B012B04D1019B1A88029B1A8078
:10E1400000E000BF00BF04B0704700B583B001908D
:10E150000091009B9B881A4613465B0013445B00AA
:10E16000019A134406331846FFF7C0FF00BF03B0FF
:10E170005DF804FB00B587B001900091009B9B887F
:10E18000ADF81630009B5B89ADF81430BDF8162051
:10E1900013465B0013445B00019A13440633049357
:10E1A000049B1B88BDF81420934228BF13469AB2E3
:10E1B000049B5A80049B5B88172B38BF17239AB2A5
:10E1C000049B5A80019BDB68002B15D0049B5B7974
:10E1D000002B11D040F67723ADF80830BDF816308B
:10E1E000ADF80A30049B5B88ADF80C30019BDB680E
:10E1F00002AA114601989847049B00225A71049B79
:10E2000000221A7100BF07B05DF804FB10B588B09A
:10E2100001900091009B9B88ADF81A30009BDB8831
:10E22000ADF81830BDF81A2013465B0013445B00AC
:10E23000019A134406330593BDF81830172B38BFE5
:10E240001723ADF81830059B1B88BDF818209342A2
:10E2500028BF13469AB2059B5A80059B00221A716B
:10E26000059B1A88BDF81A3011461846FFF73AFF89
:10E270000790079B002B0FD0164A174BD31ADB08C9
:10E280001B0443F00104079806F086FB03461A4678
:10E290001249204607F024F8059B5B79002B16D124
:10E2A000019BDB68002B13D040F67723ADF80C30D0
:10E2B000BDF81A30ADF80E30059B5B88ADF8103014
:10E2C000019BDB6803AA11460198984700E000BF54
:10E2D00008B010BD606B0200086B020000760200FF
:10E2E00000B585B001900091019B002B01D10E2358
:10E2F00020E0019B009ADA60019BF7221A80019BC3
:10E30000F7225A80019BFB221A71002303930DE030
:10E31000039A13465B0013445B00019A13440633CF
:10E320001846FFF7E3FE039B01330393039B002B87
:10E33000EED00023184605B05DF804FB82B00190D2
:10E340000B46ADF80230019B002B01D10E230EE0ED
:10E35000BDF80230162B03D9BDF80230F72B01D9D6
:10E36000072304E0019BBDF802201A800023184611
:10E3700002B0704710B586B001900091009B0593E4
:10E38000019B9B88ADF81230BDF81230002B6ED186
:10E39000019B1B88552B19D0552B1CDC3A2B10D018
:10E3A0003A2B18DC102B02D0112B05D013E0019969
:10E3B0000598FFF7ACFE0FE001990598FFF7C5FE41
:10E3C0000AE001990598FFF7D5FE05E00199059847
:10E3D000FFF71CFF00E000BFBDF8122005991346AF
:10E3E0005B0013445B000B440A331B78002B3FD0C7
:10E3F000BDF81220059913465B0013445B000B44E3
:10E4000006331A88BDF8123011461846FFF766FE2B
:10E410000390039B002B16D1BDF8122005991346DB
:10E420005B0013445B000B440A3300221A70BDF8F2
:10E430001220059913465B0013445B000B440B3319
:10E4400001221A7014E0039B112B11D0094A0A4BC8
:10E45000D31ADB081B0443F00104039806F09CFA6E
:10E4600003461A460549204606F03AFF00E000BF81
:10E4700006B010BD606B0200086B0200307602002F
:10E48000B0DF704700BF184666DF704700BF184610
:10E4900082B001900091019B002B01D10E2316E068
:10E4A000009B002B01D10E2311E0019B1B78DE2B7A
:10E4B00001D108230BE0009B1A68019B5A60019B65
:10E4C000DE221A70019B4FF6FF725A800023184615
:10E4D00002B0704782B001900B46ADF80230019B4C
:10E4E000002B01D10E230AE0019B1B78DE2B01D00B
:10E4F000082304E0019BBDF802205A80002318463F
:10E5000002B0704700B585B00190019B1B7A002BCB
:10E5100018D0019B5B8800211846FFF7B5FF0390D8
:10E52000039B002B03D1019B00221A720AE0039B7C
:10E53000112B03D1019B01221A7203E0019B5B683E
:10E540000398984700BF05B05DF804FB00B583B0A1
:10E5500001900091009B1B79012B0BD1009B1A8825
:10E56000019B5B889A4205D1019B01221A72019896
:10E57000FFF7C8FF00BF03B05DF804FB82B0019055
:10E58000009100BF02B0704700B589B001900091C2
:10E59000009B1A88019B5B889A4236D1009B02330C
:10E5A0000793079B1B78022B31D1079B1B7A042B07
:10E5B00007D0079B1B7A062B03D0079B1B7A052BE2
:10E5C00027D102AB00221A605A609A60DA600223F7
:10E5D0008DF808304FF4C073ADF80C30079B1B7AF0
:10E5E000052B02D10023ADF80C30009B1B8802AA3A
:10E5F00011461846FFF744FF0690069B002B09D0F2
:10E60000019B5B680698984704E000BF02E000BFEA
:10E6100000E000BF09B05DF804FB00B585B00190D3
:10E620000091009B002B43D0019B002B40D0009B0E
:10E630000393039B1B78DE2B3AD1019B9A88039BA3
:10E640005B889A4202D10398FFF75CFF019B1B880D
:10E65000512B18D0512B28DC112B1BD0112B24DC73
:10E66000012B02D0022B07D01FE0019B0433194677
:10E670000398FFF76BFF1BE0019B043319460398D7
:10E68000FFF77CFF14E0019B043319460398FFF762
:10E690007BFF0DE0019B9A88039B5B889A4206D121
:10E6A000039B4FF6FF725A8001E000BF00E000BFFD
:10E6B00005B05DF804FBA8DF704700BF1846ADDF6A
:10E6C000704700BF1846AEDF704700BF184662DFD4
:10E6D000704700BF184600B58FB00190009100232D
:10E6E0000393019B5869009B9B8803AA1946FFF777
:10E6F000FCFA0D9005AB08220021184608F08AF9B3
:10E7000004AB06930223ADF814300023ADF81630A5
:10E71000009B9888019B1B8905AA1946FFF7CFFF2C
:10E720000D900D9B002B26D1019B9B69002B22D0C5
:10E73000069B1846FFF737FB0346002B1BD0039BB5
:10E74000002B02D0039B01221A7007AB1822002174
:10E75000184608F05FF902238DF81C30019B0893DE
:10E76000009B9B88ADF82430039B0A93019B9B6917
:10E7700007AA1046984700BF0FB05DF804FB00B52C
:10E780008DB001900091009B06330B93019B58695B
:10E79000009B9B8803AA1946FFF7A7FA0A9004ABCF
:10E7A00018220021184608F035F9019B0593009BBB
:10E7B0009B88ADF81830039B07930B9B1A88019B2D
:10E7C0001B899A4225D10B9B5B89022B21D1039B8C
:10E7D000002B38D00B9B0C331846FFF7E4FA0346A6
:10E7E000002B06D0039B01221A7002238DF81030F3
:10E7F00005E0039B00221A7003238DF81030019B63
:10E800009B69002B1FD0019B9B6904AA1046984767
:10E8100019E00B9B1A88019B9B899A4214D1019B9A
:10E820009B69002B10D000238DF810300B9B0C330C
:10E8300008930B9B5B89ADF82430019B9B6904AA6C
:10E840001046984700E000BF00BF0DB05DF804FB24
:10E8500000B58BB001900091019B5869009B9B888B
:10E8600002AA1946FFF741FA0990099B002B1ED115
:10E87000029B1B78002B1BD0019B9B69002B17D0A0
:10E8800003AB18220021184608F0C4F801238DF8C4
:10E890000C30019B0493009B9B88ADF81430029BC5
:10E8A0000693019B9B6903AA1046984700E000BFAE
:10E8B0000BB05DF804FB00B585B001900091009BA2
:10E8C000002B1ED0019B002B1BD0009B0393019BB0
:10E8D0001B88572B10D0572B15DC102B02D0502B38
:10E8E00005D010E001990398FFF7F5FE0CE00199BF
:10E8F0000398FFF744FF07E001990398FFF7A8FF8B
:10E9000002E000BF00E000BF05B05DF804FB0000BE
:10E9100010B592B0019000914F4B0AAC0FCB84E838
:10E920000F00019B002B01D10E2391E0009B002BD7
:10E9300001D10E238CE0009B1A68019B9A61019A19
:10E940000AAB11461846FFF7C2FE1190119B1093B7
:10E95000109B002B01D0109B7AE0019B1B788DF857
:10E960003A300123ADF83830019B9A1C0EAB1946A2
:10E970000120FFF7A0FE1190119B0F930F9B002B1E
:10E9800001D00F9B64E002AB20220021184608F062
:10E9900041F80223ADF80830019B1B788DF80A304E
:10E9A000F423ADF80C300123ADF80E3001238DF8BF
:10E9B00014309DF8153043F008038DF815309DF89C
:10E9C000153043F004038DF8153001238DF819300C
:10E9D00001238DF81A30019B5888019B03F10C022A
:10E9E00002AB1946FFF768FA1190119B002B01D07A
:10E9F000119B2DE002AB20220021184608F00AF8F6
:10EA00000323ADF80830019B1B788DF80A30F423FE
:10EA1000ADF80C300123ADF80E3001238DF8143021
:10EA20009DF8153043F010038DF8153001238DF853
:10EA3000193001238DF81A3001238DF81B30019B0A
:10EA40005888019B1A1D02AB1946FFF735FA034699
:10EA5000184612B010BD00BF6C76020000B58DB034
:10EA6000039002910192ADF80230039B002B01D17B
:10EA70000E2342E0039B5B6905AABDF8021018460D
:10EA8000FFF733F90B900B9B0A930A9B002B01D0E5
:10EA90000A9B32E0BDF802304FF6FF72934202D07B
:10EAA000059B002B01D1052327E0059B1B7883F0F4
:10EAB0000103DBB2002B01D008231EE0019B1B8861
:10EAC000F42B01D9072318E006AB102200211846C9
:10EAD00007F0A0FF039B9B88ADF81830029B0993B9
