:020000021000EC
:10900000006000201992010001920100039201000A
:109010000592010007920100099201000000000082
:109020000000000000000000000000000B920100A2
:109030000D920100000000000F920100119201004A
:10904000B1E0010013920100E9E8010061FE0100B6
:10905000E5F101000000000019E50100B9EB010095
:1090600013920100FDF6010013920100139201001A
:109070001392010013920100139201001392010058
:10908000D1FE01009D0C0200139201001392010019
:10909000DD0C020013920100215002001392010026
:1090A0001392010013920100000000000000000074
:1090B0001392010013920100000000000000000064
:1090C00000000000000000000000000000000000A0
:1090D0000000000000000000000000000000000090
:1090E0000000000000000000000000000000000080
:1090F0000000000000000000000000000000000070
:10910000000000000000000000000000000000005F
:10911000000000000000000000000000000000004F
:10912000000000000000000000000000000000003F
:10913000000000000000000000000000000000002F
:10914000000000000000000000000000000000001F
:10915000000000000000000000000000000000000F
:1091600000000000000000000000000000000000FF
:1091700000000000000000000000000000000000EF
:1091800000000000000000000000000000000000DF
:1091900000000000000000000000000000000000CF
:1091A00000000000000000000000000000000000BF
:1091B00000000000000000000000000000000000AF
:1091C000000000000000000000000000000000009F
:1091D000000000000000000000000000000000008F
:1091E000000000000000000000000000000000007F
:1091F000000000000000000000000000000000006F
:10920000FEE7FEE7FEE7FEE7FEE7FEE7FEE7FEE736
:10921000FEE7FEE700F002B8FFF7FCBF0B484FF097
:109220000701884385460A48804700F019B8094875
:1092300009490A4A884207D0521A05D003780130FA
:109240000B700131013AF9D1704700000060002035
:1092500071AD0100F0570200A0240020B4240020CA
:109260003A493B480A1A02D0072291438D463949B0
:1092700039480A1A06D00722914381F3098802224D
:1092800082F3148835483649364A00F041F83648AA
:109290003649374A00F03CF836483749374A00F03B
:1092A00037F837483749384A00F032F837483849F4
:1092B000384A00F02DF838483849394A00F028F883
:1092C00038483949394A00F023F8394839490022E9
:1092D00000F036F838483949002200F031F83848B3
:1092E0003849091A0CF062F9374A9047254826494F
:1092F000884205D00268043003B4904703BCF7E706
:1093000000208646EC4600200021304A9047FEE7C8
:10931000884214D0521A12D003460B43134303243D
:10932000234206D1036804300B600431043AF9D1BA
:109330007047037801300B700131013AF9D1704761
:10934000884202D002700130FAE7704700600020C6
:10935000005800200060002000600020106B020018
:10936000B42400203C250020D0930100D0930100BC
:10937000B4560200106B0200B4240020B424002074
:109380000458020004580200045802000458020065
:109390000458020004580200045802000458020055
:1093A0000D6B0200986B02003C2500203C2500203C
:1093B0003C250020183300201833002018330020EB
:1093C00018330020183B00202F920100BD940100AB
:1093D0003FDF704700BF184641DF704700BF1846A7
:1093E00000B583B04FF4004100200AF0E5FA019087
:1093F000019B0093009B002B04D0054A4721009855
:1094000006F0C6FD0AF076FA00BF03B05DF804FB73
:109410000458020000B583B00AF08CF80190019B5B
:109420000093009B002B04D0044A5321009806F0BF
:10943000AFFD00BF03B05DF804FB00BF045802009D
:1094400000B583B007F050FC0190019B0093009B96
:10945000002B04D0044A6721009806F099FD00BF54
:1094600003B05DF804FB00BF0458020082B0019015
:109470000B46ADF8023000BF02B0704700B585B0B2
:1094800003468DF807309DF807308DF80F309DF8B2
:109490000F30022B09D0022B09DC002B09D0012B45
:1094A00000D004E000F044F804E000F047F800BF0A
:1094B00000E000BF00BF05B05DF804FB00B583B05D
:1094C000FFF78EFFFFF7BCFFFFF7A4FF1249134819
:1094D00000F09CFB0120FFF77BFF0190019B002B1C
:1094E00004D00F4A8E21019806F052FD01F08CF94C
:1094F00001F08AF801F0FEF80A4A0B4BD31ADB0898
:109500001B0443F00303094918460AF013FD00F059
:1095100089FFFFF761FFFCE77D9401006D94010076
:109520000458020090570200485702006458020095
:1095300008B5012000F008F800BF08BD08B50020FC
:1095400000F002F800BF08BD82B003468DF8073076
:10955000034A9DF80730137000BF02B0704700BF88
:109560003C250020014B1B78184670473C25002005
:1095700084B001900B468DF8033013468DF802300D
:1095800000230393019B032B3CD89DF80230012B51
:109590000BD19DF80330012B04D1019BDBB20E33BC
:1095A000DBB200E000238DF802309DF80330022B7F
:1095B0000FD0022B23DC002B16D0012B1FD1144916
:1095C000019A13465B0013440B449DF802201A7065
:1095D0001AE00F49019A13465B0013440B44013310
:1095E0009DF802201A700FE00949019A13465B00AA
:1095F00013440B4402339DF802201A7004E0072341
:10960000039301E007230393039B184604B07047BC
:109610004025002000B583B0012200210020FFF783
:10962000A7FF0190019B002B04D0019B072B01D0C9
:10963000019B1CE0072202210120FFF799FF019006
:10964000019B002B04D0019B072B01D0019B0EE056
:10965000042202210020FFF78BFF0190019B002BC9
:1096600004D0019B072B01D0019B00E0002318468A
:1096700003B05DF804FB00B583B001220221002095
:10968000FFF776FF0190019B002B04D0019B072B75
:1096900001D0019B1CE0072202210120FFF768FF97
:1096A0000190019B002B04D0019B072B01D0019B53
:1096B0000EE00A2200210020FFF75AFF0190019BD3
:1096C000002B04D0019B072B01D0019B00E000235D
:1096D000184603B05DF804FB00B585B00190009119
:1096E000019B1B88102B02D0112B18D02FE01A4B96
:1096F0001B68002B0DD1FFF78DFF0390039B002B00
:1097000007D0164B1B68002B03D0144B1B68039823
:109710009847114B1B6801330F4A136017E00E4B3B
:109720001B68013B0C4A13600B4B1B68002B0DD1CF
:10973000FFF7A1FF0390039B002B07D0074B1B688B
:10974000002B03D0054B1B680398984700BF00BF50
:1097500005B05DF804FB00BF502500204C2500201B
:10976000A8DF704700BF1846AEDF704700BF18463D
:1097700062DF704700BF184600B587B001900091C6
:10978000019B039303238DF80830019B5B6902AAB8
:109790001046984700BF07B05DF804FB00B587B0DE
:1097A00001900091019B039302238DF80830019BE7
:1097B0005B6902AA1046984700BF07B05DF804FB3A
:1097C00000B589B001900091009B0633079303AB6D
:1097D0001022002118460BF03DFF019B0493079BCC
:1097E0001A88019B1B899A421CD1079B5B89022B1B
:1097F00018D1079B0C33184603F00FFB0346002BD0
:1098000003D000238DF80C3002E001238DF80C30DA
:10981000019B5B69002B1FD0019B5B6903AA10466B
:10982000984719E0079B1A88019B9B899A4213D19C
:10983000019B5B69002B0FD004238DF80C30079B34
:109840000C330593079B5B89ADF81830019B5B696E
:1098500003AA10469847FFE700BF09B05DF804FB74
:1098600000B585B001900091009B0393039B002BF2
:109870001CD0019B002B19D0019B1B88502B10D0B2
:10988000502B15DC102B02D0112B05D010E00199C4
:109890000398FFF771FF0CE001990398FFF77EFF33
:1098A00007E001990398FFF78BFF02E000BF00E09B
:1098B00000BF05B05DF804FB10B592B001900091B7
:1098C000019B002B02D0009B002B01D10E2394E0C2
:1098D0004B4B0AAC0FCB84E80F00009B1A68019B2E
:1098E0005A61019A0AAB11461846FFF741FF1190E1
:1098F000119B1093109B002B01D0109B7DE0019BCE
:109900001B788DF83A304FF4A053ADF83830019BF6
:109910009A1C0EAB19460120FFF722FF1190119BF4
:109920000F930F9B002B01D00F9B66E002AB202210
:10993000002118460BF08EFE41F20243ADF80830CC
:10994000019B1B788DF80A300123ADF80C30012300
:10995000ADF80E3000238DF814309DF8153043F02B
:1099600008038DF815309DF8153043F004038DF889
:10997000153001238DF8193001238DF81A30019B21
:109980005888019B03F10C0202AB194603F0CEFA92
:109990001190119B002B01D0119B2EE002AB2022D5
:1099A000002118460BF056FE41F20143ADF8083095
:1099B000019B1B788DF80A300123ADF80C30012390
:1099C000ADF80E3000238DF814309DF8153043F0BB
:1099D00010038DF8153001238DF8193001238DF80F
:1099E0001A3001238DF81B30019B5888019B1A1DEA
:1099F00002AB194603F09AFA0346184612B010BD9E
:109A00007458020000B58BB0039002910192ADF83A
:109A1000023000230993039B002B01D10E2324E085
:109A2000099B002B01D0099B1FE0BDF802304FF6C7
:109A3000FF72934218D005AB1022002118460BF09C
:109A400009FE039B9B88ADF81430029B0893019B91
:109A5000079301238DF8163005AABDF80230114690
:109A60001846FFF781FE0990099B18460BB05DF878
:109A700004FB76DF704700BF184677DF704700BFF2
:109A800018467ADF704700BF18467CDF704700BF7A
:109A900018467FDF704700BF18468FDF704700BF52
:109AA0001846B1DF704700BF1846000000B585B00A
:109AB00001900B46ADF80230114B1B880DF10202EC
:109AC0000199104804F004F80390039B082B0FD071
:109AD000039B132B0CD0039B052B09D0039B0293F4
:109AE000029B002B04D0084A2821029806F050FA65
:109AF000039B132BE0D000BF00BF05B05DF804FB53
:109B0000D8240020BC240020845802002DE9F0470E
:109B100086B000AF03463960FB711346BB716B46DC
:109B20009A46BB795E1C731E7B61324600239046C9
:109B300099464FF000024FF000034FEAC90343EA91
:109B400058734FEAC8023246002314461D464FF0B0
:109B500000024FF00003EB0043EA5473E200334687
:109B60000733DB08DB00ADEB030D6B4600333B61D5
:109B70003B69FA791A703B690133BA79396818463A
:109B80000BF036FDB3B27B810C4B1B8807F10A0248
:109B900039690B48FFF736FFF8600A4A0A4BD31AB7
:109BA000DB081B0443F00303084918460AF0C2F916
:109BB000D54600BF1837BD46BDE8F087D824002041
:109BC0006C2600209057020048570200F858020007
:109BD00000B583B0FFF7C6FC03468DF807309DF84B
:109BE0000730002B02D0012B06D00BE00022002111
:109BF0000120FFF78BFF05E0002200210220FFF784
:109C000085FF00BF00BF03B05DF804FB00B583B063
:109C100001900091434A444BD31ADB081B0443F0E4
:109C20000303424918460AF085F90AF0F5F903469C
:109C3000002BFAD13E4A019B13603E4A009B136001
:109C400000F014FB374A384BD31ADB081B0443F0EF
:109C50000303394918460AF06DF90AF0DDF90346A5
:109C6000002BFAD100F074F82E4A2F4BD31ADB08E0
:109C70001B0443F00303314918460AF05BF90AF06C
:109C8000CBF90346002BFAD100F05EFB254A264BA8
:109C9000D31ADB081B0443F00303294918460AF0D2
:109CA00049F90AF0B9F90346002BFAD100F0C0F8DF
:109CB0001C4A1D4BD31ADB081B0443F00303214944
:109CC00018460AF037F90AF0A7F90346002BFAD133
:109CD00000F066FB134A144BD31ADB081B0443F055
:109CE0000303194918460AF025F90AF095F90346C5
:109CF000002BFAD100F04CF90A4A0B4BD31ADB08BF
:109D00001B0443F00303114918460AF013F90AF043
:109D100083F90346002BFAD100BF00BF03B05DF802
:109D200004FB00BF9057020048570200045902008C
:109D30008426002088260020245902003C59020075
:109D4000585902006C59020084590200A0590200BF
:109D500000B587B09DF80030012262F303038DF84F
:109D600000309DF80030012262F307138DF80030B7
:109D70006B460C221A491846FFF787FE0590059B93
:109D80000493049B002B04D0164A7621049806F015
:109D9000FFF801AB0822002118460BF05BFC1023F2
:109DA000ADF804303C23ADF806300023ADF80830A0
:109DB0004FF4C873ADF80A3001AB1846FFF761FEE7
:109DC0000590059B0393039B002B04D0054A80213B
:109DD000039806F0DDF800BF07B05DF804FB00BF94
:109DE000C45902008458020000B583B00190044AAF
:109DF0008621019806F0CCF800BF03B05DF804FBA3
:109E00008458020000B583B00190019B1B78002BA1
:109E100007D1064B1B68019A1069019A928A114674
:109E2000984700BF03B05DF804FB00BF8426002004
:109E300000B589B000230093374B00936B46194659
:109E4000364803F05FFB0790079B0693069B002BA9
:109E500004D0334A9D21069806F09AF803AB0422F9
:109E6000002118460BF0F6FB2E4B039303AB19466B
:109E70002D4803F087FD0790079B0593059B002B5A
:109E800004D0274AA421059806F082F801AB0822E5
:109E9000002118460BF0DEFB244B01939DF809309E
:109EA000012262F303038DF809309DF80930012285
:109EB00062F307138DF809309DF80A30012262F32E
:109EC00003038DF80A309DF80A30012262F307136C
:109ED0008DF80A309DF80B30012262F303038DF8F0
:109EE0000B309DF80B30012262F307138DF80B3015
:109EF00001AB19460E48FFF7DFFC0790079B049360
:109F0000049B002B04D0064AB421049806F040F8C4
:109F100000BF09B05DF804FBE99D01006825002041
:109F200084580200059E0100BC24002059A40100B1
:109F30006C26002000B585B00190019B1B78002B9A
:109F400010D10A4B1B883B211846FFF792FD039066
:109F5000039B0293029B002B04D0054ABF21029869
:109F600006F016F800BF05B05DF804FBD824002009
:109F70008458020000B583B00190044AC6210198BC
:109F800006F006F800BF03B05DF804FB8458020039
:109F900000B58BB001AB1C22002118460BF05AFB18
:109FA000002301934FF4203302934FF47023039363
:109FB00003238DF810300023ADF8123000238DF804
:109FC00014300B4B06930B4B079301AB184602F072
:109FD0008DFB0990099B0893089B002B04D0064A2F
:109FE000DB21089805F0D4FF00BF0BB05DF804FB3F
:109FF000359F0100759F01008458020000B585B0AF
:10A0000003468DF807309DF80730002B01D0032B55
:10A010000FE00321094802F0DFF80390039B02934D
:10A02000029B002B04D0064AF521029805F0B0FFF0
:10A0300000BF00BF05B05DF804FB00BF7425002021
:10A040008458020000B58DB001900091019B1B88DF
:10A05000562B00F0D880562B00F3E880522B00F0EE
:10A06000AB80522B00F3E280212B2DDC102BC0F2B1
:10A07000DD80103B112B00F2D98001A252F823F0B1
:10A08000D1A001003DA101002DA2010091A101007C
:10A090002DA201002DA201002DA201002DA2010080
:10A0A0002DA201002DA201002DA201002DA2010070
:10A0B0002DA201002DA201002DA201002DA2010060
:10A0C0002DA201005DA101003B2B00F08980ADE0D5
:10A0D0005F4A604BD31ADB081B0443F003035E495D
:10A0E000184609F027FF019B9A885C4B1A805B4B4E
:10A0F0001B8819465A4803F027FA0B900B9B0593CF
:10A10000059B002B05D0574A4FF48471059805F044
:10A110003FFF524B1B88042219460320FFF7ADFC7A
:10A120000B900B9B0493049B002B00F081804D4A05
:10A130004FF48671049805F02BFF79E0444A454BB3
:10A14000D31ADB081B0443F003034749184609F000
:10A15000F1FE424B4FF6FF721A8074E000238DF837
:10A160000C3000238DF80D30019B9B8803AA11460B
:10A170001846FFF792FC0B900B9B0793079B002B55
:10A1800058D0384A4FF49071079805F001FF51E01C
:10A19000324B1888002300228521FFF77AFC0B90B0
:10A1A0000B9B0693069B002B46D02E4A4FF49371CF
:10A1B000069805F0EDFE3FE0284B188800230022AA
:10A1C0000021FFF76EFC0B900B9B0993099B002B62
:10A1D00034D0244A4FF49671099805F0D9FE2DE049
:10A1E000019B9B8813211846FFF743FC0B900B9BA8
:10A1F0000893089B002B23D01A4A40F23311089889
:10A2000005F0C6FE1CE0019B9B8813211846FFF752
:10A2100030FC0B900B9B0A930A9B002B12D0114A27
:10A220004FF49D710A9805F0B3FE0BE000BF0AE001
:10A2300000BF08E000BF06E000BF04E000BF02E08E
:10A2400000BF00E000BF00BF0DB05DF804FB00BF21
:10A250009057020048570200D4590200D824002029
:10A260006825002084580200E059020000B587B03C
:10A270000AF0EAFD0590059B0493049B002B05D092
:10A28000164A40F24911049805F082FE002301931A
:10A2900001AB194601200AF005FF0590059B0393C9
:10A2A000039B002B05D00D4A40F24F11039805F097
:10A2B0006FFE01AB18460BF00DF80590059B02935D
:10A2C000029B002B05D0054A40F25311029805F07D
:10A2D0005FFE00BF07B05DF804FB00BF84580200BA
:10A2E00000B583B001900091009B5A88114B1B88E8
:10A2F0009A421AD1009B1B8840F67722934214D1D0
:10A30000009B9B88033B9AB20B4B1A800B4A0C4B69
:10A31000D31ADB081B0443F00300074B1B881A46C3
:10A32000054B1B88074909F024FE00BF03B05DF808
:10A3300004FB00BFD8240020DA240020905702003C
:10A3400048570200F059020000B585B01149124883
:10A3500003F000F80390039B0293029B002B05D0AF
:10A360000E4A4FF4B671029805F012FEF7210A4822
:10A3700003F01EF80390039B0193019B002B05D073
:10A38000064A40F26F11019805F002FE00BF05B0C9
:10A390005DF804FBE1A2010058250020845802006A
:10A3A00000B5AFB001ABAC22002118460BF052F95A
:10A3B00002238DF8043000238DF8063005238DF834
:10A3C00007300123ADF85030124B159301238DF85F
:10A3D00080304023239344F2506324930E4B2A93FE
:10A3E00001AB19460D4801F022FE2D902D9B2C93B8
:10A3F0002C9B002B05D00A4A4FF4C3712C9805F012
:10A40000C7FD0121054801F005FE00BF2FB05DF832
:10A4100004FB00BFDC240020FD9F01007425002008
:10A420008458020000B583B00321094801F0D4FE2E
:10A430000190019B0093009B002B05D0054A4FF42F
:10A44000C771009805F0A4FD00BF03B05DF804FBE0
:10A45000742500208458020000B583B00190019B50
:10A460001B78042B17D801A252F823F081A4010015
:10A4700097A4010097A4010097A4010087A40100FC
:10A48000FFF7A6FB08E0064B1B68019A926812785A
:10A490001046984700E000BF00BF03B05DF804FB22
:10A4A0008826002000B583B001900091019B002B0D
:10A4B00001D1054B01930099019804F0A9FC0346D2
:10A4C000184603B05DF804FBA05A020082B0019068
:10A4D0000B46ADF80230BDF80230019A134418461D
:10A4E00002B0704782B00190019BD3F81035DBB207
:10A4F000184602B0704782B00190019B9B0003F5A3
:10A50000A0739BB2184602B070472DE9F00F86B0D9
:10A5100001908DF803109DF803100591019900201A
:10A520000E460746304639464FF0000A4FF0000B02
:10A530004FEA411B4BEAD06B4FEA401A504659464E
:10A54000821B61EB07034FF000004FF00001990000
:10A5500041EA9271900002460B4612EB060843EB6B
:10A5600007094FF000024FF000034FEAC91343EA16
:10A5700058634FEAC8129046994642464B460599A1
:10A58000C1F12006A1F1200022FA01F403FA06F637
:10A59000344323FA00F0044323FA01F5CDE90245E0
:10A5A000029B184606B0BDE8F00F704710B582B0A8
:10A5B00001900091019B1C680098FFF79CFF0346E7
:10A5C00019462046FFF782FF0346184602B010BD29
:10A5D00000B583B001900091019B1B681846FFF7FE
:10A5E00081FF034619460098FFF78FFF0346184680
:10A5F00003B05DF804FB82B003460091ADF806306D
:10A6000000BF02B07047000000B58DB003F0F8FB4A
:10A610000B900B9B0A930A9B002B04D0314A172105
:10A620000A9805F0B5FC00238DF8083000238DF85A
:10A63000093000238DF80A3006238DF80B300023F3
:10A64000039303238DF80A3002AB274A19462748A3
:10A6500004F01AFF0B900B9B0993099B002B04D06D
:10A66000204A1C21099805F093FC4FF47A711F4889
:10A67000FFF7AEFF0890002300930123089A002102
:10A680001A4804F0C8FF194804F070FF0021174869
:10A69000FFF78CFF079004F05FFC0690144804F06D
:10A6A0005BF80B900B9B0593059B002B04D00D4A88
:10A6B0002D21059805F06CFC0D4B1B78069A079927
:10A6C000184604F0A3F80B900B9B0493049B002BFB
:10A6D00004D0044A3221049805F05AFC00BF0DB0A2
:10A6E0005DF804FB145A0200F7A501000C5A0200A1
:10A6F0009426002000B583B0094B1B78184604F05F
:10A70000BEF80190019B0093009B002B04D0054AEA
:10A710003A21009805F03CFC00BF03B05DF804FB53
:10A7200094260020145A020000B589B00190019BC4
:10A730001B78002B57D1019B5B680221184604F05F
:10A740001DFC0690069B0593059B002B04D0284A10
:10A750004521059805F01CFC264A274BD31ADB0837
:10A760001B0443F00303254A12782549184609F0D3
:10A77000EFFB002307932DE0019B5A68079B5B00CA
:10A780001344B3F90030ADF812301C4B1B788DF830
:10A790000C30BDF812301B0A9BB2DBB28DF80D30C5
:10A7A000BDF81230DBB28DF80E3003AB0321184632
:10A7B000FFF77CF90F4A104BD31ADB081B0443F058
:10A7C0000303BDF812200F49184609F0C1FB079B8F
:10A7D00001330793079B012BCEDD084B1B78013318
:10A7E000DAB2064B1A7000BF09B05DF804FB00BF77
:10A7F000145A020090570200485702009526002084
:10A80000845A02009C5A020000B58BB001238DF8D7
:10A81000133003238DF8103000238DF811300623F8
:10A820008DF8123004AB38491846FFF73BFE09900B
:10A83000099B0893089B002B04D0344A7121089887
:10A8400005F0A6FB00238DF8073004238DF80630B1
:10A8500005238DF8083000238DF8093002238DF888
:10A860000B3000238DF80C3000238DF804300023CA
:10A870008DF8053000238DF8073004238DF806305D
:10A8800005238DF8083000238DF8093003238DF857
:10A890000B3000238DF80C3000238DF8043000239A
:10A8A0008DF8053001AB1946002004F011FB09902A
:10A8B000099B0793079B002B04D0144A9521079806
:10A8C00005F066FB0221124804F058FB0990099B31
:10A8D0000693069B002B04D00C4A9821069805F09D
:10A8E00057FB02210B4804F049FB0990099B059393
:10A8F000059B002B04D0054A9B21059805F048FBD9
:10A9000000BF0BB05DF804FB29A70100145A020038
:10A910008C26002090260020BFF34F8F00BF064BEF
:10A92000DB6803F4E0620449044B1343CB60BFF3DC
:10A930004F8F00BF00BFFDE700ED00E00400FA0507
:10A9400082B00A4B1B680193094B1B680093019B63
:10A950000E2B06D1009B002B01D1012302E0012325
:10A9600000E00023184602B0704700BF300100101D
:10A970003401001082B01B4B1B6801931A4B1B68FB
:10A980000093019B082B1FD1009B052B1AD801A215
:10A9900052F823F0ADA90100B1A90100B5A9010049
:10A9A000B9A90100BDA90100C1A90100012316E058
:10A9B000012314E0012312E0012310E001230EE043
:10A9C00001230CE001230AE0019B0E2B06D1009B22
:10A9D000002B01D1012302E0012300E000231846EF
:10A9E00002B07047300100103401001082B01B4BE0
:10A9F0001B6801931A4B1B680093019B082B1FD106
:10AA0000009B052B1AD801A252F823F025AA0100B9
:10AA100029AA01002DAA010031AA010035AA0100CE
:10AA200039AA0100012316E0012314E0012312E0FA
:10AA3000012310E001230EE001230CE001230AE0D2
:10AA4000019B0E2B06D1009B002B01D1012302E0BC
:10AA5000012300E00023184602B0704730010010C7
:10AA60003401001082B0164B1B680193154B1B6814
:10AA70000093019B082B1FD1009B052B1AD801A224
:10AA800052F823F09DAA0100A1AA0100A5AA010085
:10AA9000A9AA0100ADAA0100B1AA010001230CE09E
:10AAA00000230AE0002308E0002306E0002304E07E
:10AAB000002302E0002300E00023184602B07047A4
:10AAC000300100103401001082B0164B1B68019356
:10AAD000154B1B680093019B082B1FD1009B052B76
:10AAE0001AD801A252F823F001AB010005AB010016
:10AAF00009AB01000DAB010011AB010015AB01006A
:10AB000001230CE000230AE0002308E0002306E014
:10AB1000002304E0002302E0002300E000231846A5
:10AB200002B07047300100103401001082B0164BA3
:10AB30001B680193154B1B680093019B082B1FD1C9
:10AB4000009B052B1AD801A252F823F065AB010037
:10AB500069AB01006DAB010071AB010075AB010089
:10AB600079AB010001230CE000230AE0002308E098
:10AB7000002306E0002304E0002302E0002300E0BD
:10AB80000023184602B07047300100103401001055
:10AB900082B0164B1B680193154B1B680093019BF9
:10ABA000082B1FD1009B052B1AD801A252F823F0C5
:10ABB000C9AB0100CDAB0100D1AB0100D5AB0100A9
:10ABC000D9AB0100DDAB010001230CE000230AE05A
:10ABD000002308E0002306E0002304E0002302E055
:10ABE000002300E00023184602B070473001001037
:10ABF0003401001082B01B4B1B6801931A4B1B6879
:10AC00000093019B082B1FD1009B052B1AD801A292
:10AC100052F823F02DAC010031AC010035AC01003D
:10AC200039AC01003DAC010041AC0100012316E04C
:10AC3000012314E0012312E0012310E001230EE0C0
:10AC400001230CE001230AE0019B0E2B06D1009B9F
:10AC5000002B01D1012302E0012300E0002318466C
:10AC600002B07047300100103401001082B00A4B6E
:10AC70001B680193094B1B680093019B0E2B06D1A7
:10AC8000009B002B01D1012302E0012300E00023FF
:10AC9000184602B0704700BF3001001034010010A8
:10ACA00082B0164B1B680193154B1B680093019BE8
:10ACB000082B1FD1009B052B1AD801A252F823F0B4
:10ACC000D9AC0100DDAC0100E1AC0100E5AC010054
:10ACD000E9AC0100EDAC010000230CE000230AE028
:10ACE000002308E0002306E0012304E0012302E042
:10ACF000012300E00023184602B070473001001025
:10AD00003401001008B5FFF7CBFF0346002B07D036
:10AD10004FF010234FF08042D3F80832C2F8583574
:10AD200000BF08BD00BF044BD3F80034002BFAD09D
:10AD300000BF00BF704700BF00E0014000B583B016
:10AD40000190054A019BC2F80435FFF7EBFF00BFF5
:10AD500003B05DF804FB00BF00E00140024B034A72
:10AD60001A6000BF704700BFE02400200090D003AD
:10AD700008B5FFF7E5FD0346002B06D08C4B1B689A
:10AD80005B0B8C4A03F007031360FFF7F3FD0346E8
:10AD9000002B0ED04FF080430022C3F80C214FF05F
:10ADA00080430022C3F810214FF080430022C3F8F3
:10ADB0003825FFF71BFE0346002B76D04FF080535B
:10ADC0007D4AD3F80434C2F820354FF080537A4AD4
:10ADD000D3F80834C2F824354FF08053764AD3F8BC
:10ADE0000C34C2F828354FF08053734AD3F810342E
:10ADF000C2F82C354FF080536F4AD3F81434C2F8A0
:10AE000030354FF080536C4AD3F81834C2F83435DB
:10AE10004FF08053684AD3F81C34C2F840354FF0E5
:10AE20008053654AD3F82034C2F844354FF080533C
:10AE3000614AD3F82434C2F848354FF080535E4A53
:10AE4000D3F82834C2F84C354FF080535A4AD3F81F
:10AE50002C34C2F850354FF08053574AD3F8303471
:10AE6000C2F854354FF08053534AD3F83434C2F803
:10AE700060354FF08053504AD3F83834C2F8643507
:10AE80004FF080534C4AD3F83C34C2F868354FF049
:10AE90008053494AD3F84034C2F86C354FF08053A0
:10AEA000454AD3F84434C2F87035FFF7DBFD03465A
:10AEB000002B02D0414B424A1A60FFF705FE0346C1
:10AEC000002B03D03F4BFB22C3F81825FFF72EFEC3
:10AED0000346002B0AD03C4B1B6823F00F023B4B70
:10AEE0001B6803F00F03384913430B60FFF750FE54
:10AEF0000346002B03D0364B4FF400721A60FFF765
:10AF000079FE0346002B0DD04FF08043D3F8003478
:10AF100003F00103002B05D04FF080436FF00102D6
:10AF2000C3F80024FFF7A2FE0346002B05D0264BF2
:10AF30001B68254A43F00F031360FFF7E3FE4FF051
:10AF40001023D3F80032002B05DB4FF01023D3F889
:10AF50000432002B15DA0120FFF7F0FE4FF010232A
:10AF60001222C3F80022FFF7DDFE4FF01023122259
:10AF7000C3F80422FFF7D6FE0020FFF7DFFEFFF73D
:10AF8000CBFC144B1B6803F00103002B0CD00120F9
:10AF9000FFF7D4FE0F4B00221A60FFF7C3FE00201C
:10AFA000FFF7CCFEFFF7B8FCFFF7D8FE00BF08BDE7
:10AFB000440200103C05004000C000408C56004098
:10AFC0004881030000F00040E40E004058020010E9
:10AFD000409602400C1200106DDF704700BF18460B
:10AFE00079DF704700BF18467DDF704700BF184605
:10AFF00064DF704700BF184682B003460091ADF889
:10B000000630BDF80630DAB2009B1A70BDF8063083
:10B010001B0A9AB2009B0133D2B21A70022318465F
:10B0200002B0704700B589B0039002911346ADF8A5
:10B030000630029B1B8803F10902BDF806309A42D4
:10B0400001D90C2353E004AB1846FFF7C5FF079066
:10B05000079B0693069B002B01D0069B47E0029BB3
:10B060001B881A46039B134408221A70029B1B88F4
:10B0700001339AB2029B1A80029B1B881A46039BDB
:10B0800013441B221A70029B1B8801339AB2029B45
:10B090001A80029B1B881A46039B981804AB013345
:10B0A000062219460AF0A4FA029B1B8806339AB2BC
:10B0B000029B1A809DF8103023F00103DBB2002BB5
:10B0C00007D1029B1B881A46039B134400221A7067
:10B0D00006E0029B1B881A46039B134401221A7048
:10B0E000029B1B8801339AB2029B1A8000231846E8
:10B0F00009B05DF804FB00B589B00390029101929C
:10B10000ADF80230039B1B78012B05D1039B5B78C4
:10B11000002B01D1072391E0019B1B889A1CBDF8ED
:10B1200002309A420ED8039B1B78012B0CD1019B55
:10B130001B881A46039B5B7813449A1CBDF80230A7
:10B140009A4201D90C2379E0019B1B88BDF80220AB
:10B15000D31A9BB2023BADF81C30BDF81C30ADF8E1
:10B160001230019B1B880233029A13440DF1120224
:10B1700011461846FFF738FF0690069B0593059B7E
:10B18000002B01D0059B59E0039B1B78022B06D0B6
:10B19000039B5B781A46BDF812309A4209D3BDF87A
:10B1A0001230BDF81C209A4203D309238DF81F30BA
:10B1B00016E008238DF81F30039B1B78012B0BD161
:10B1C000039B5B781A46BDF81C30934204D3039B63
:10B1D0005B78ADF8123003E0BDF81C30ADF81230EA
:10B1E000BDF81230FE2B01D90C2327E0BDF8123038
:10B1F000DAB2019B1B881946029B0B440132D2B282
:10B200001A70019B1B8801339AB2019B1A80019B23
:10B210001B881A46029B13449DF81F201A70019B3D
:10B220001B8801339AB2019B1A80019B1A88BDF8D2
:10B23000123013449AB2019B1A800023184609B0B9
:10B240005DF804FB00B589B0039002911346ADF898
:10B250000630029B1B881A1DBDF806309A4201D9A0
:10B260000C233AE00DF116031846FFF7B9FE0790DC
:10B27000079B0693069B002B01D0069B2DE0029BAB
:10B280001B881A46039B134403221A70029B1B88D7
:10B2900001339AB2029B1A80029B1B881A46039BB9
:10B2A000134419221A70029B1B8801339AB2029B25
:10B2B0001A80BDF81620029B1B881946039B0B447D
:10B2C00019461046FFF798FE03461A46029B1B8854
:10B2D00013449AB2029B1A800023184609B05DF805
:10B2E00004FB84B0029101921A4603468DF80F3098
:10B2F0001346ADF80C30019B1B88DA1CBDF80C30EE
:10B300009A4201D90C2328E0019B1B881A46029B14
:10B31000134402221A70019B1B8801339AB2019BCD
:10B320001A80019B1B881A46029B134401221A7043
:10B33000019B1B8801339AB2019B1A80019B1B88D9
:10B340001A46029B13449DF80F201A70019B1B881C
:10B3500001339AB2019B1A800023184604B070474B
:10B3600084B0029101921A4603468DF80F301346BD
:10B37000ADF80C30019B1B88DA1CBDF80C309A42EA
:10B3800001D90C2328E0019B1B881A46029B134419
:10B3900002221A70019B1B8801339AB2019B1A800A
:10B3A000019B1B881A46029B13440A221A70019BB8
:10B3B0001B8801339AB2019B1A80019B1B881A4695
:10B3C000029B13449DF80F201A70019B1B880133C8
:10B3D0009AB2019B1A800023184604B0704700B54A
:10B3E0008FB0039001930B468DF80B3013468DF808
:10B3F0000A3000238DF83330109B1B88ADF83030B5
:10B4000000230D9370E0039B5A680D9B9B001A4428
:10B4100005AB106818600DF11B0105AB0022184642
:10B42000FFF7E6FD0A900A9B0993099B002B01D0C8
:10B43000099B7BE09DF81B309DF80A209A4250D171
:10B440009DF83330002B01D0002300E002238DF85B
:10B450002330109B1B881A469DF81B301A449DF818
:10B4600023301A44BDF844309A4201DD0C235DE0DC
:10B470009DF8333083F00103DBB2002B16D0109B14
:10B480001B8801339AB2109B1A80109B1B881A46A6
:10B49000019B13449DF80B201A70109B1B880133ED
:10B4A0009AB2109B1A8001238DF83330109B1B88B1
:10B4B0001A46019B1A440DF11B0105AB1846FFF714
:10B4C00097FD0A900A9B0793079B002B01D0079BCF
:10B4D0002CE0109B1B889DF81B2013449AB2109BF4
:10B4E0001A800D9B01330D93039B1B881A460D9BFD
:10B4F000934288DB9DF83330002B16D0109B1A88BE
:10B50000BDF83030D31A9BB2013BADF82E30BDF8F8
:10B510002E30FF2B01D90C2308E0BDF83030019A02
:10B520001344BDF82E20D2B21A70002318460FB073
:10B530005DF804FB00B58BB0059003930B468DF8C6
:10B54000133013468DF812309DF81310BDF83430C7
:10B5500001930C9B0093039B02220598FFF73FFF8A
:10B560000990099B0893089B002B01D0089B14E0CD
:10B570009DF81210BDF8343001930C9B0093039B8F
:10B5800010220598FFF72BFF0990099B0793079B53
:10B59000002B01D0079B00E0002318460BB05DF89C
:10B5A00004FB82B00190019B1B88052B0AD9019BEB
:10B5B0001B88B3F5486F07D9019B1B884FF6FF72B4
:10B5C000934201D0072325E0019B5B88052B0AD914
:10B5D000019B5B88B3F5486F07D9019B5B884FF6E9
:10B5E000FF72934201D0072314E0019B1B884FF6A2
:10B5F000FF7293420DD0019B5B884FF6FF7293421E
:10B6000007D0019B1A88019B5B889A4201D90723C6
:10B6100000E00023184602B0704700B587B00390E1
:10B6200002910192ADF80230019B1B889A1DBDF872
:10B6300002309A4201D90C234BE00398FFF7B1FF87
:10B640000590059B0493049B002B01D0049B40E0D4
:10B65000019B1B881A46029B134405221A70019B0A
:10B660001B8801339AB2019B1A80019B1B881A46E2
:10B67000029B134412221A70019B1B8801339AB259
:10B68000019B1A80039B1A88019B1B881946029B09
:10B690000B4419461046FFF7AFFC03461A46019BC0
:10B6A0001B8813449AB2019B1A80039B5A88019B02
:10B6B0001B881946029B0B4419461046FFF79CFC59
:10B6C00003461A46019B1B8813449AB2019B1A80B9
:10B6D0000023184607B05DF804FB00B587B003905F
:10B6E00002910192ADF80230039B9B8802330593CF
:10B6F000019B1B881A46059B13449A1CBDF8023017
:10B700009A4201D90C2353E0059BFE2B01D90C234F
:10B710004EE0059BDAB2019B1B881946029B0B4445
:10B720000132D2B21A70019B1B8801339AB2019B7D
:10B730001A80019B1B881A46029B1344FF221A7031
:10B74000019B1B8801339AB2019B1A80039B1A88C4
:10B75000019B1B881946029B0B4419461046FFF7B4
:10B760004BFC03461A46019B1B8813449AB2019B6B
:10B770001A80039B9B88002B19D0039B9B68002B8E
:10B7800001D1072314E0019B1B881A46029B9818DD
:10B79000039B9968039B9B881A4609F029FF019B2C
:10B7A0001A88039B9B8813449AB2019B1A8000233A
:10B7B000184607B05DF804FB00B589B0039002910C
:10B7C0000192ADF80230039B9B6A002B01D1072345
:10B7D00071E000238DF81F3065E0039B996A9DF8A6
:10B7E0001F2013465B0013449B000B440693069BEB
:10B7F0009B8802330593059BFE2B01D90C235AE04D
:10B80000059BDAB2019B1B881946029B0B4401324F
:10B81000D2B21A70019B1B8801339AB2019B1A8025
:10B82000019B1B881A46029B134416221A70019B27
:10B830001B8801339AB2019B1A80069B1A88019BD0
:10B840001B881946029B0B4419461046FFF7D4FB90
:10B8500003461A46019B1B8813449AB2019B1A8027
:10B86000069B9B88002B19D0069B9B68002B01D15F
:10B87000072320E0019B1B881A46029B9818069B11
:10B880009968069B9B881A4609F0B2FE019B1A88AC
:10B89000069B9B8813449AB2019B1A809DF81F3027
:10B8A00001338DF81F30039B93F82C309DF81F2037
:10B8B0009A4292D30023184609B05DF804FB00B504
:10B8C00095B005900491039200231393039B1B886A
:10B8D000ADF84A30039B00221A80059B93F82D3067
:10B8E000002B0ED0BDF84A301A4603990498FFF792
:10B8F00099FB1390139B1193119B002B01D0119B6B
:10B90000D8E0059B9B78002B0ED0BDF84A301A4634
:10B9100003990498FFF796FC1390139B1093109BC8
:10B92000002B01D0109BC5E0059BDB78002B10D0CD
:10B93000059BDB7858B2BDF84A30039A0499FFF7AB
:10B94000D0FC1390139B0F930F9B002B01D00F9BE8
:10B95000B0E0059B5B68002B11D0059B5B6893F9F9
:10B960000000BDF84A30039A0499FFF7F9FC1390E0
:10B97000139B0E930E9B002B01D00E9B9AE0059B10
:10B980001B89002B14D0059B03F10800BDF84A3039
:10B990000193039B0093049B06220221FFF7CAFD3B
:10B9A0001390139B0D930D9B002B01D00D9B81E0F9
:10B9B000059B1B8A002B14D0059B03F11000BDF8DA
:10B9C0004A300193039B0093049B07220321FFF756
:10B9D000B1FD1390139B0C930C9B002B01D00C9B7F
:10B9E00068E0059B1B8B002B14D0059B03F118000E
:10B9F000BDF84A300193039B0093049B1522142148
:10BA0000FFF798FD1390139B0B930B9B002B01D01A
:10BA10000B9B4FE0059B1B6A002B0FD0059B186A00
:10BA2000BDF84A30039A0499FFF7F7FD1390139B72
:10BA30000A930A9B002B01D00A9B3BE0059B5B6AA3
:10BA4000002B0FD0059B586ABDF84A30039A049921
:10BA5000FFF743FE1390139B0993099B002B01D022
:10BA6000099B27E0059B93F82C30002B0ED0BDF8E6
:10BA70004A30039A04990598FFF79EFE1390139B92
:10BA80000893089B002B01D0089B13E0059B1B78B3
:10BA9000002B0ED0BDF84A30039A04990598FFF7A1
:10BAA0002AFB1390139B0793079B002B01D0079B46
:10BAB00000E0139B184615B05DF804FB86B00390B8
:10BAC00001921A460B46ADF80A3013468DF809303C
:10BAD000039B002B02D0019B002B01D100235BE0D4
:10BAE0000023ADF816300CE0BDF81630039A13446D
:10BAF0001B781A46BDF8163013449BB20133ADF8DB
:10BB00001630BDF816305A1CBDF80A309A420FDACA
:10BB1000019B1B88BDF816209A42E5D3BDF816306C
:10BB20000133039A13441B789DF809209A42DBD114
:10BB3000BDF81620BDF80A309A4201D300232BE04D
:10BB4000BDF816300233ADF81430BDF81630039A44
:10BB500013441B78002B07D0BDF81630039A13440A
:10BB60001B78013B9BB200E00023ADF81230BDF81A
:10BB70001230002B08D0BDF81420BDF812301A4442
:10BB8000BDF80A309A4201DD002305E0019BBDF8B3
:10BB900014201A80BDF81230184606B0704700B560
:10BBA00085B001900B46ADF8023013468DF8013098
:10BBB0000023ADF80C309DF8013003AABDF8021047
:10BBC0000198FFF77BFF0346ADF80E30BDF80E304D
:10BBD000002B01D1002304E0BDF80C301A46019B74
:10BBE0001344184605B05DF804FB72DF704700BFD0
:10BBF000184673DF704700BF184682B00190019B62
:10BC000093F8F430184602B0704784B001900023D6
:10BC100003930AE0019A039B13441B78002B01D085
:10BC2000012306E0039B01330393039B052BF1D90A
:10BC30000023184604B0704782B003468DF80730E1
:10BC40009DF807305A1C074B83FB02135910D3177A
:10BC5000C91A0B469B000B44D11ACBB2184602B04E
:10BC6000704700BF6766666682B001900091009BD6
:10BC7000DB7B012B04D1009B9A88019BA3F8E82071
:10BC800000BF02B0704700B585B001900091019BE4
:10BC9000002283F8F220009B9A88019BB3F8E830D9
:10BCA0009A4216D1019B1B7983F00103DBB2002B72
:10BCB0000FD00121019800F08FFA0390039B002B15
:10BCC00007D0019B9B6B002B03D0019B9B6B0398C0
:10BCD000984700BF05B05DF804FB00B585B0019042
:10BCE0000091009B1B88262B1ED1009B1B7A012BE9
:10BCF00003D0009B1B7A022B17D1019B9B7818461F
:10BD0000FFF79AFF03461946019800F065FA039081
:10BD1000039B002B09D0019B9B6B002B05D0019B43
:10BD20009B6B0398984700E000BF05B05DF804FBEB
:10BD300000B585B001900B468DF80330019BEB33C5
:10BD40001846FFF762FF03468DF80F309DF8033069
:10BD5000013B032B32D801A252F823F06DBD010044
:10BD600091BD0100A5BD0100B1BD0100019B9B7902
:10BD7000002B0DD0019B93F8243083F00103DBB23C
:10BD8000002B05D09DF80F30002B01D0012316E0C9
:10BD9000019BDB79002B05D09DF80F30002B01D0E3
:10BDA00002230CE0019B1B7A002B01D0032306E049
:10BDB000019B5B7A002B01D0042300E0002318468E
:10BDC00005B05DF804FB00BF82B001900091019BBB
:10BDD000012283F83120019B0022C3F8E420019B5B
:10BDE00003F1EA02009B5A60009B00229A60009BCC
:10BDF00002221A70009B80229A810023184602B00A
:10BE0000704782B001900091019B022283F831209B
:10BE1000009B03221A70019B1B699AB2009B9A81B6
:10BE2000019B0022C3F8E420019B03F1EA02009B7E
:10BE30005A60019BDA68009B9A600023184602B0A2
:10BE4000704700B583B00190019B5B79002B0FD048
:10BE5000019B93F8F23083F00103DBB2002B07D093
:10BE60000198FFF7CAFE0346002B01D0012300E032
:10BE7000002303F00103DBB2184603B05DF804FBB6
:10BE800000B585B001900B468DF80330019BD3F8C7
:10BE9000D400019BB3F8D83001221946FFF77FFE8A
:10BEA0000390039B002B03D0039B9DF803201A7083
:10BEB000019B03F15400019B03F1D401019B3C332E
:10BEC0001A46FFF792FE0346184605B05DF804FBDC
:10BED00000B585B001900091019B5A69009B9A6062
:10BEE000019B9B699AB2009B9A81019B012283F876
:10BEF0003C200198FFF7A5FF0346002B13D0009BC1
:10BF000002221A7504210198FFF7BAFF0390039BE0
:10BF10000293029B002B01D0029B0FE0019B0522A4
:10BF200083F8312003E0019B032283F83120019B39
:10BF300003F1D402019BC3F8E4200023184605B0A6
:10BF40005DF804FB00B585B001900091019BDA69B2
:10BF5000009B9A60019B1B6A9AB2009B9A81019B8D
:10BF6000012283F83C200198FFF76BFF0346002B6A
:10BF700013D0009B02221A7504210198FFF780FF5D
:10BF80000390039B0293029B002B01D0029B0FE0C6
:10BF9000019B062283F8312003E0019B042283F8F1
:10BFA0003120019B03F1D402019BC3F8E42000235C
:10BFB000184605B05DF804FB82B00190019B9B78A8
:10BFC000002B06D0019B93F82030002B01D00023DA
:10BFD0000AE0019B9B6A042B03D0019B5B6A042B44
:10BFE00001D1002300E00123184602B0704784B05D
:10BFF0000190019B93F82430002B03D01F23ADF850
:10C000000E3002E01F23ADF80E30BDF80E3018469A
:10C0100004B0704782B001900B468DF80330019B4D
:10C020009DF8032083F8302000BF02B0704730B580
:10C0300087B001900091009B002B02D0019B002B48
:10C0400001D10E23B5E0009B78331846FFF7B4FF0B
:10C05000034683F00103DBB2002B01D00723A8E0E5
:10C06000019B00229A70019A009B141D03F1780530
:10C070000FCD0FC40FCD0FC495E8070084E807006B
:10C08000019B002283F83020009BD3F8A420019B61
:10C090005A63009BD3F8A820019B9A63019B4FF63B
:10C0A000FF72A3F8E820019B03F1D402019BC3F8BF
:10C0B000E420019BEA3307220021184609F0CAFA5E
:10C0C000019B1B7883F00103DBB2002B03D0019BA3
:10C0D000FF2283F85420019B03F15502019BC3F812
:10C0E000D4200198FFF783FF03461A46019BA3F86B
:10C0F000D8200098019B03F15501019BD8331A46C3
:10C10000FFF7DDFB0590059B0493049B002B01D0FA
:10C11000049B4EE0019B03F19302019BC3F8DC20DA
:10C120000198FFF764FF03461A46019BA3F8E0203D
:10C13000009B03F13C00019BD3F8DC10019BE03332
:10C140001A46FFF7BCFB0590059B0393039B002B4E
:10C1500001D0039B2DE0019B012283F85120019B1C
:10C160009B699AB2019BA3F84820019B012283F8A6
:10C170003C20019B00221A64019B002283F850207E
:10C18000019B5A69019B5A64019B03F15400019B76
:10C190003C331A460021FFF728FD0590059B0293CA
:10C1A000029B002B01D0029B03E0019B01221A702D
:10C1B000059B184607B030BD82B00190019B1B68FB
:10C1C000012B03D0019B1B68022B01D1012300E04E
:10C1D0000023184602B0704700B585B001900B46A9
:10C1E0008DF80330019B1B7883F00103DBB2002B39
:10C1F00001D0082309E1019B9DF803209A70019B5F
:10C20000EA3307220021184609F024FA019B9B79A2
:10C21000002B03D0019B9B78012B0FD0019BDB7976
:10C22000002B03D0019B9B78012B07D0019BDB796E
:10C23000002B14D0019B9B78022B10D1019B5B6BD0
:10C24000002B08D0019B012283F8F120019B5B6B3E
:10C250000820984703E0019B002283F8F1209DF815
:10C26000033019460198FFF763FD03461A46019B08
:10C270009A70019B5B6B002B20D0019B9B78032B5A
:10C2800003D0019B9B78042B18D1019B5B79002B79
:10C2900014D0019B93F8F23083F00103DBB2002B42
:10C2A0000CD0019B002283F8F420019B012283F82B
:10C2B000F320019B5B6B0720984703E0019B002262
:10C2C00083F8F320019B3C3318220021184609F023
:10C2D000C1F9019B012283F83C20019B2C331846B5
:10C2E000FFF76AFF0346002B06D0019BDB6ADAB238
:10C2F000019B83F8512003E0019B012283F8512028
:10C30000019B93F82430002B12D0019B2833184650
:10C31000FFF752FF0346002B06D0019B9B6ADAB25F
:10C32000019B83F8522003E0019B012283F85220F5
:10C33000019B002283F85020019B9B78042B32D86C
:10C3400001A252F823F000BF9DC301005DC30100AC
:10C350006DC301007DC301008DC30100019B3C330F
:10C3600019460198FFF730FD03901DE0019B3C3317
:10C3700019460198FFF745FD039015E0019B3C33FA
:10C3800019460198FFF7A4FD03900DE0019B3C3393
:10C3900019460198FFF7D6FD039005E0019B0022A6
:10C3A00083F8312000E000BF019B9B78002B20D058
:10C3B000019B03F15400019BD3F8E410019B3C3333
:10C3C0001A46FFF712FC0390039B002B01D0039B3E
:10C3D0001BE0019B93F85420019B93F830301946E1
:10C3E0001046FFF706FC0390039B002B01D0039B34
:10C3F0000BE0019B5B6B002B06D0019B5B6B019AF2
:10C4000092F83120104698470023184605B05DF891
:10C4100004FB00BF00B585B001900091009B039321
:10C42000019B1B88262B10D0262B13DC102B02D04F
:10C43000112B05D00EE001990398FFF715FC0AE0D7
:10C4400001990398FFF71FFC05E001990398FFF796
:10C4500044FC00E000BF00BF05B05DF804FB75DFE1
:10C46000704700BF184676DF704700BF18467ADF76
:10C47000704700BF18467BDF704700BF18460000BA
:10C4800084B00346ADF806300023039316E00F494D
:10C49000039A13469B0013449B000B441B88BDF872
:10C4A00006209A4207D1039A13469B0013449B002F
:10C4B000064A134406E0039B01330393039B002BBE
:10C4C000E5D00023184604B0704700BFB82600200E
:10C4D00082B001900B46ADF80230019BBDF80220FE
:10C4E0001A80019B00221A72019B054903F10A027E
:10C4F0000B4603CB1060516000BF02B0704700BF15
:10C50000E826002082B00190019B4FF6FF721A804E
:10C5100000BF02B0704788B00390029111461A46DE
:10C520000B46ADF806301346ADF80430039B9B88EC
:10C530001A46BDF8063013440793039B9B8819469F
:10C54000039B9B88BDF80620934228BF13469BB2ED
:10C55000CB1A0693039BDB881A46BDF804301344BC
:10C560000593039BDB881946039BDB88BDF80420F9
:10C57000934228BF13469BB2CB1A0493029B5A885E
:10C58000039B1B889A4205D3029B5A88039B5B88B6
:10C590009A4201D900231CE0029B9B881A46069B05
:10C5A000934205D8029B9B881A46079B934201D26F
:10C5B00000230EE0029BDB881A46049B934205D8B9
:10C5C000029BDB881A46059B934201D2002300E0C0
:10C5D0000123184608B0704700B583B00190064BA0
:10C5E0009B69002B03D0044B9B690198984700BFBF
:10C5F00003B05DF804FB00BFCC26002000B585B079
:10C6000003460091ADF80630BDF806300099184693
:10C61000FFF725FF0390039B002B05D0039B112BF5
:10C6200002D00398FFF7D8FF039B002B0CBF012318
:10C630000023DBB2184605B05DF804FB00B589B0F5
:10C640000190019B0793079B9BB21846FFF718FFC9
:10C650000690069B002B42D0069B1A7A224B1B7B2E
:10C660009A4215D2079B9AB2069B0A331946104686
:10C67000FFF7C4FF03468DF813309DF81330002BED
:10C680002DD0069B1B7A0133DAB2069B1A7226E084
:10C69000069B00221A72144B1B7C002B0FD0079BA9
:10C6A0009BB23B211846FFF7DEFE0590059B002B51
:10C6B00005D0059B082B02D00598FFF78DFF0A4B8C
:10C6C0005B69002B0BD000238DF80C30079B9BB2CD
:10C6D000ADF80E30044B5B6903AA1046984700BFC3
:10C6E00009B05DF804FB00BFCC26002030B587B050
:10C6F0000190019B002B01D10E2353E02B4A019B9B
:10C7000014461D460FCD0FC495E8070084E80700C6
:10C71000264B274A1A60019B1B68002B11D0019BF6
:10C720001B681846FFF7A3FE0490049B002B01D062
:10C73000049B37E0019B1A681D4B1068516803C3C6
:10C7400008E01B48FFF797FE0490049B002B01D0E4
:10C75000049B27E00023059320E0059A13469B00E5
:10C7600013449B00134A134403930398FFF7CAFE34
:10C77000059B5B01104A1A44039B5A60039B0433D8
:10C780000E4A0021184604F0E3FA0490049B002BA3
:10C7900001D0032306E0059B01330593059B002B85
:10C7A000DBD00023184607B030BD00BFCC260020E8
:10C7B000E8260020B8260020982600203DC601006B
:10C7C00000B587B003460091ADF80630009B5B7A58
:10C7D000002B1AD1009B1B7A002B03D1164B5B68F0
:10C7E000059302E0144B9B680593009B5B68BDF8C2
:10C7F00006200599184604F0DBFA0490049B002BF0
:10C8000016D00498FFF7E8FE12E0009B00221A728F
:10C81000094B5B69002B0BD001238DF80C30BDF860
:10C820000630ADF80E30044B5B6903AA10469847FA
:10C8300000BF07B05DF804FBCC26002000B585B032
:10C840000190019BDB7B8DF80F30019B9B88ADF83D
:10C850000C309DF80F30012B2CD14FF6FF70FFF7F5
:10C860000FFE0290029B002B03D10420FFF7B4FEC1
:10C8700021E0BDF80C3019460298FFF729FE029B13
:10C8800003F10A00019B03F110014FF6FF7340F220
:10C89000F312FFF740FE03461A46029B5A72074BFB
:10C8A000DB89002B07D1BDF80C3002991846FFF741
:10C8B00087FF00E000BF05B05DF804FBCC26002038
:10C8C00000B587B00190019B9B88ADF81630BDF88C
:10C8D00016301846FFF7D4FD0490049B002B0ED0B1
:10C8E000049B5B68184604F099FA0390039B002BA5
:10C8F00002D00398FFF770FE0498FFF703FE00BF15
:10C9000007B05DF804FB000000B587B00190019B03
:10C9100006330593059B1A88194BDB899A422BD164
:10C92000059B5B89022B27D1019B9B88ADF81230B8
:10C93000BDF812301846FFF7A3FD0390039B002BB0
:10C940001AD0059B0C33184600F067FA0346002BFB
:10C9500006D0BDF8123003991846FFF731FF0BE0FF
:10C96000039B5B68184604F059FA0290029B002B67
:10C9700002D00298FFF730FE00BF07B05DF804FB5D
:10C98000CC26002000B585B00190019B9B88ADF8B6
:10C990000E30BDF80E301846FFF772FD0290029B74
:10C9A000002B15D0029B03F10A00019B03F1080143
:10C9B0004FF6FF7340F2F312FFF7ADFD03461A4640
:10C9C000029B5A72BDF80E3002991846FFF7F8FE26
:10C9D00000BF05B05DF804FB00B583B00190009185
:10C9E000019B1B88502B12D0502B18DC122B12D01D
:10C9F000122B14DC102B02D0112B04D00FE0019865
:10CA0000FFF71CFF0CE00198FFF75AFF08E00198C0
:10CA1000FFF77AFF04E00198FFF7B4FF00E000BFE2
:10CA200000BF03B05DF804FB30B58FB001900091FA
:10CA300000230293009B002B1AD000230D9314E0D7
:10CA40006B460D99184605F07CFB0346002B09D078
:10CA5000029B5A1C02920D9A92B25B0038336B44CF
:10CA600023F82C2C0D9B01330D930D9B132BE7D931
:10CA7000019B1D4602AC0FCC0FC50FCC0FC594E82F
:10CA8000070085E8070001980FB030BD00B583B0FE
:10CA90000346ADF80630BDF80630132B01D900234C
:10CAA0000CE0BDF806301946064805F019FBBDF844
:10CAB00006301946044805F013FB0123184603B05D
:10CAC0005DF804FBF8260020F426002000B585B0B0
:10CAD0000346ADF80630002303930DE0039B9B0053
:10CAE000094A13440433BDF806201146184605F0E0
:10CAF0000FFB039B01330393039B1D2BEED900BF58
:10CB000000BF05B05DF804FBF026002000B583B03F
:10CB10000346ADF80630BDF806301946034805F067
:10CB2000F7FA00BF03B05DF804FB00BFF826002051
:10CB300030B59BB0184B9B68DB431893164B5A6873
:10CB400018AB1146184605F058FB189A6B4611466B
:10CB50001846FFF769FF0DAC6D460FCD0FC40FCD22
:10CB60000FC495E8070084E80700002319930BE041
:10CB7000199B5B0068336B4433F8303C1846FFF771
:10CB8000A5FF199B013319930D9B199A9A42EFD374
:10CB900000BF00BF1BB030BDF026002000B583B041
:10CBA00001900B46ADF8023013468DF801309DF828
:10CBB0000130002B06D0BDF802301946019805F06F
:10CBC0008FFA05E0BDF802301946019805F0A0FA89
:10CBD00000BF03B05DF804FB00B585B00190009183
:10CBE000019B9B88ADF80E30019B1B88103B0A2BE4
:10CBF0007BD801A252F823F025CC01004BCC0100D8
:10CC0000EBCC0100EBCC0100EBCC0100EBCC010044
:10CC1000EBCC0100EBCC0100EBCC0100B5CC01006A
:10CC200057CC0100FFF784FFBDF80E301846FFF720
:10CC30002DFF034683F00103DBB2002B52D02D4AB7
:10CC4000F021042003F0A4F94CE0BDF80E301846A2
:10CC5000FFF75CFF49E0019B1B7AC3F30313DBB2D0
:10CC60008DF80D309DF80D30032B8CBF0123002370
:10CC7000DAB2BDF80E3019461F48FFF78FFF9DF856
:10CC80000D30022B8CBF01230023DAB2BDF80E3029
:10CC900019461A48FFF782FF9DF80D30012B8CBF13
:10CCA00001230023DAB2BDF80E3019461448FFF70D
:10CCB00075FF1AE0019B1B7A002B15D1019B5B7A53
:10CCC000C3F3C003DBB2002B14BF012300238DF894
:10CCD0000C309DF80C20BDF80E3019460648FFF7C1
:10CCE0005DFF01E000BF00E000BF00BF05B05DF8E0
:10CCF00004FB00BFA45A02000827002004270020DC
:10CD00000027002000B583B00346ADF80630BDF81B
:10CD10000630132B01D9002306E0BDF80630194672
:10CD2000034805F00EFA0346184603B05DF804FB0D
:10CD3000F426002000B583B00346ADF80630BDF8F8
:10CD400006301846FFF7DEFF0346002B02D0BDF881
:10CD5000063000E01423184603B05DF804FB00B56C
:10CD600087B003900B460192ADF80A30019B002B6F
:10CD700001D10E2338E0019B00221A60039B002B97
:10CD800001D10E2330E0039B1B68002B01D10E2341
:10CD90002AE0039BDB8803F003039BB2002B01D046
:10CDA000072321E0BDF80A301846FFF7C3FF03460A
:10CDB0008DF817309DF81730142B01D1052313E09F
:10CDC000039B1B799DF817209A4201D304230BE0A3
:10CDD000039B1B689DF817200399C98801FB02F289
:10CDE0001A44019B1A600023184607B05DF804FB43
:10CDF00082B00190019B1B781AB2019B01331B7812
:10CE00001BB21B021BB213431BB29BB2184602B0EB
:10CE10007047AADF704700BF184600B585B0019083
:10CE20000198FFF7E5FF0346ADF80E30BDF80E3070
:10CE300003F00103002B14BF01230023DBB21846CB
:10CE400005B05DF804FB000082B0034600918DF848
:10CE50000730009A137823F00F031370009A1378A9
:10CE600023F0F00313709DF80730052B5BD801A267
:10CE700052F823F08DCE0100A3CE0100BDCE0100FB
:10CE8000D7CE0100F1CE01000BCF0100009A13783C
:10CE900023F00F031370009A137823F0F00313703C
:10CEA00040E0009A1378012161F303031370009AA4
:10CEB0001378012161F30713137033E0009A13789C
:10CEC000012161F303031370009A1378022161F3C7
:10CED0000713137026E0009A1378012161F303030E
:10CEE0001370009A1378032161F30713137019E08C
:10CEF000009A1378022161F303031370009A1378E8
:10CF0000012161F3071313700CE0009A13780221DA
:10CF100061F303031370009A1378022161F307137E
:10CF2000137000BF00BF00BF02B0704700B595B0DE
:10CF3000034602910192ADF80E30029B9B78002BC4
:10CF400003D101238DF81E3003E0029B9B788DF8FE
:10CF50001E30029B1B88ADF81C3006AB032200215B
:10CF6000184608F077FB029B5B7C06AA1146184620
:10CF7000FFF76AFF029B9A7C06AB01331946104605
:10CF8000FFF762FF029BDA7B9DF81A3062F3C3035E
:10CF90008DF81A30029B1A7C9DF81A3062F3041344
:10CFA0008DF81A30029B1A7B9DF81A3062F3000349
:10CFB0008DF81A30029B1B7D002B01D0022200E06D
:10CFC00001229DF81A3062F342038DF81A300DAB3E
:10CFD0001C220021184608F03DFB029B5B7B03F0FE
:10CFE0001003DBB2002B06D1029B5B7B03F0200316
:10CFF000DBB2002B24D004AB03220021184608F03A
:10D0000029FB029BDA7C04AB013319461046FFF77B
:10D010001BFF9DF81030012262F303038DF81030DE
:10D020009DF81030012262F307138DF810309DF83F
:10D030001230012262F342038DF8123004AB1293D6
:10D04000029B5B7B8DF83430029B9B7B8DF83530E7
:10D0500008AB14220021184608F0FCFA07AB08932D
:10D0600006AB0993029B9B88ADF82C30029B9B6812
:10D07000002B06D0029BDB88ADF82830029B9B6812
:10D080000C93029B9B69002B4FD005AB0322002120
:10D09000184608F0DFFA029B9B691B88ADF83C300C
:10D0A000029B9B695B88ADF83E30029B9B695B6885
:10D0B0000E9305AB1193029B9B691B7B05AA11463E
:10D0C0001846FFF7C1FE029B9B695A7B05AB0133F3
:10D0D00019461046FFF7B8FE029B9B699A7A9DF8A5
:10D0E000163062F3C3038DF81630029B9B69DA7A1F
:10D0F0009DF8163062F304138DF81630029B9B697D
:10D100001A7A9DF8163062F300038DF81630029BF0
:10D110009B699B7B002B01D0022200E001229DF83D
:10D12000163062F342038DF81630029BDB69002B48
:10D1300002D0029BDB69109308AA0DA9BDF80E006E
:10D14000019BFFF766FE0346184615B05DF804FB29
:10D15000A5DF704700BF1846B5DF704700BF18460F
:10D1600082B00190019BF7221A80019B17225A80FE
:10D17000019B00221A71019B00225A7100BF02B06C
:10D18000704784B001900091009B9B88ADF80E30F1
:10D19000BDF80E2013465B0013445B00019A134454
:10D1A00006330293009BDB7B012B04D1019B1A8881
:10D1B000029B1A8000E000BF00BF04B0704700B5BA
:10D1C00083B001900091009B9B881A4613465B0038
:10D1D00013445B00019A134406331846FFF7C0FF5F
:10D1E00000BF03B05DF804FB00B587B0019000916B
:10D1F000009B9B88ADF81630009B5B89ADF814301E
:10D20000BDF8162013465B0013445B00019A1344DB
:10D2100006330493049B1B88BDF81420934228BF57
:10D2200013469AB2049B5A80049B5B88172B38BF25
:10D2300017239AB2049B5A80019BDB68002B15D000
:10D24000049B5B79002B11D040F67723ADF80830B2
:10D25000BDF81630ADF80A30049B5B88ADF80C3091
:10D26000019BDB6802AA114601989847049B0022A3
:10D270005A71049B00221A7100BF07B05DF804FBCD
:10D2800010B588B001900091009B9B88ADF81A30D2
:10D29000009BDB88ADF81830BDF81A2013465B0000
:10D2A00013445B00019A134406330593BDF818300C
:10D2B000172B38BF1723ADF81830059B1B88BDF816
:10D2C0001820934228BF13469AB2059B5A80059BAB
:10D2D00000221A71059B1A88BDF81A3011461846AB
:10D2E000FFF73AFF0790079B002B0FD0164A174B0A
:10D2F000D31ADB081B0443F00104079806F084F9F5
:10D3000003461A461249204606F022FE059B5B7929
:10D31000002B16D1019BDB68002B13D040F677233E
:10D32000ADF80C30BDF81A30ADF80E30059B5B88B7
:10D33000ADF81030019BDB6803AA114601989847AD
:10D3400000E000BF08B010BDB0570200485702000F
:10D35000105B020000B585B001900091019B002B8D
:10D3600001D10E2320E0019B009ADA60019BF72295
:10D370001A80019BF7225A80019BFB221A7100231D
:10D3800003930DE0039A13465B0013445B00019A7C
:10D39000134406331846FFF7E3FE039B0133039360
:10D3A000039B002BEED00023184605B05DF804FB6C
:10D3B00082B001900B46ADF80230019B002B01D1E9
:10D3C0000E230EE0BDF80230162B03D9BDF8023053
:10D3D000F72B01D9072304E0019BBDF802201A8036
:10D3E0000023184602B0704710B586B00190009136
:10D3F000009B0593019B9B88ADF81230BDF812305D
:10D40000002B6ED1019B1B88552B19D0552B1CDC92
:10D410003A2B10D03A2B18DC102B02D0112B05D050
:10D4200013E001990598FFF7ACFE0FE0019905980C
:10D43000FFF7C5FE0AE001990598FFF7D5FE05E064
:10D4400001990598FFF71CFF00E000BFBDF812200E
:10D45000059913465B0013445B000B440A331B78A9
:10D46000002B3FD0BDF81220059913465B001344F2
:10D470005B000B4406331A88BDF81230114618467B
:10D48000FFF766FE0390039B002B16D1BDF8122018
:10D49000059913465B0013445B000B440A330022DA
:10D4A0001A70BDF81220059913465B0013445B0007
:10D4B0000B440B3301221A7014E0039B112B11D083
:10D4C000094A0A4BD31ADB081B0443F001040398F2
:10D4D00006F09AF803461A460549204606F038FD3C
:10D4E00000E000BF06B010BDB05702004857020070
:10D4F000405B0200B0DF704700BF184666DF704730
:10D5000000BF184682B001900091019B002B01D111
:10D510000E2316E0009B002B01D10E2311E0019B8E
:10D520001B78DE2B01D108230BE0009B1A68019BBE
:10D530005A60019BDE221A70019B4FF6FF725A80DF
:10D540000023184602B0704782B001900B46ADF838
:10D550000230019B002B01D10E230AE0019B1B78B6
:10D56000DE2B01D0082304E0019BBDF802205A8085
:10D570000023184602B0704700B585B00190019BAA
:10D580001B7A002B18D0019B5B8800211846FFF7FF
:10D59000B5FF0390039B002B03D1019B00221A725D
:10D5A0000AE0039B112B03D1019B01221A7203E0B5
:10D5B000019B5B680398984700BF05B05DF804FBCA
:10D5C00000B583B001900091009B1B79012B0BD11A
:10D5D000009B1A88019B5B889A4205D1019B01221E
:10D5E0001A720198FFF7C8FF00BF03B05DF804FB93
:10D5F00082B00190009100BF02B0704700B589B0C1
:10D6000001900091009B1A88019B5B889A4236D159
:10D61000009B02330793079B1B78022B31D1079B9A
:10D620001B7A042B07D0079B1B7A062B03D0079B82
:10D630001B7A052B27D102AB00221A605A609A6030
:10D64000DA6002238DF808304FF4C073ADF80C3067
:10D65000079B1B7A052B02D10023ADF80C30009BF1
:10D660001B8802AA11461846FFF744FF0690069B46
:10D67000002B09D0019B5B680698984704E000BF27
:10D6800002E000BF00E000BF09B05DF804FB00B598
:10D6900085B001900091009B002B43D0019B002B93
:10D6A00040D0009B0393039B1B78DE2B3AD1019B58
:10D6B0009A88039B5B889A4202D10398FFF75CFF2C
:10D6C000019B1B88512B18D0512B28DC112B1BD010
:10D6D000112B24DC012B02D0022B07D01FE0019B71
:10D6E000043319460398FFF76BFF1BE0019B0433DB
:10D6F00019460398FFF77CFF14E0019B0433194699
:10D700000398FFF77BFF0DE0019B9A88039B5B88E2
:10D710009A4206D1039B4FF6FF725A8001E000BF88
:10D7200000E000BF05B05DF804FBA8DF704700BF54
:10D730001846ADDF704700BF1846AEDF704700BF28
:10D74000184662DF704700BF184600B58FB00190E1
:10D75000009100230393019B5869009B9B8803AAB7
:10D760001946FFF7FCFA0D9005AB08220021184678
:10D7700007F070FF04AB06930223ADF814300023CA
:10D78000ADF81630009B9888019B1B8905AA1946A5
:10D79000FFF7CFFF0D900D9B002B26D1019B9B69BE
:10D7A000002B22D0069B1846FFF737FB0346002BC1
:10D7B0001BD0039B002B02D0039B01221A7007ABE6
:10D7C00018220021184607F045FF02238DF81C306F
:10D7D000019B0893009B9B88ADF82430039B0A9320
:10D7E000019B9B6907AA1046984700BF0FB05DF8E0
:10D7F00004FB00B58DB001900091009B06330B93A4
:10D80000019B5869009B9B8803AA1946FFF7A7FA5A
:10D810000A9004AB18220021184607F01BFF019B59
:10D820000593009B9B88ADF81830039B07930B9BD7
:10D830001A88019B1B899A4225D10B9B5B89022B7D
:10D8400021D1039B002B38D00B9B0C331846FFF7DC
:10D85000E4FA0346002B06D0039B01221A70022330
:10D860008DF8103005E0039B00221A7003238DF819
:10D870001030019B9B69002B1FD0019B9B6904AA60
:10D880001046984719E00B9B1A88019B9B899A4286
:10D8900014D1019B9B69002B10D000238DF8103010
:10D8A0000B9B0C3308930B9B5B89ADF82430019BD9
:10D8B0009B6904AA1046984700E000BF00BF0DB066
:10D8C0005DF804FB00B58BB001900091019B586995
:10D8D000009B9B8802AA1946FFF741FA0990099B11
:10D8E000002B1ED1029B1B78002B1BD0019B9B6938
:10D8F000002B17D003AB18220021184607F0AAFE10
:10D9000001238DF80C30019B0493009B9B88ADF89C
:10D910001430029B0693019B9B6903AA104698470B
:10D9200000E000BF0BB05DF804FB00B585B00190CE
:10D930000091009B002B1ED0019B002B1BD0009B55
:10D940000393019B1B88572B10D0572B15DC102BF2
:10D9500002D0502B05D010E001990398FFF7F5FE97
:10D960000CE001990398FFF744FF07E00199039841
:10D97000FFF7A8FF02E000BF00E000BF05B05DF8C0
:10D9800004FB000010B592B0019000914F4B0AAC1F
:10D990000FCB84E80F00019B002B01D10E2391E0F7
:10D9A000009B002B01D10E238CE0009B1A68019B89
:10D9B0009A61019A0AAB11461846FFF7C2FE119010
:10D9C000119B1093109B002B01D0109B7AE0019BC0
:10D9D0001B788DF83A300123ADF83830019B9A1C42
:10D9E0000EAB19460120FFF7A0FE1190119B0F937B
:10D9F0000F9B002B01D00F9B64E002AB2022002183
:10DA0000184607F027FE0223ADF80830019B1B786B
:10DA10008DF80A30F423ADF80C300123ADF80E3048
:10DA200001238DF814309DF8153043F008038DF86C
:10DA300015309DF8153043F004038DF8153001239F
:10DA40008DF8193001238DF81A30019B5888019BFD
:10DA500003F10C0202AB1946FFF768FA1190119B13
:10DA6000002B01D0119B2DE002AB20220021184693
:10DA700007F0F0FD0323ADF80830019B1B788DF80B
:10DA80000A30F423ADF80C300123ADF80E30012339
:10DA90008DF814309DF8153043F010038DF81530D3
:10DAA00001238DF8193001238DF81A3001238DF8E8
:10DAB0001B30019B5888019B1A1D02AB1946FFF7CA
:10DAC00035FA0346184612B010BD00BF7C5B020059
:10DAD00000B58DB0039002910192ADF80230039B26
:10DAE000002B01D10E2342E0039B5B6905AABDF820
:10DAF00002101846FFF733F90B900B9B0A930A9B11
:10DB0000002B01D00A9B32E0BDF802304FF6FF72C5
:10DB1000934202D0059B002B01D1052327E0059BF2
:10DB20001B7883F00103DBB2002B01D008231EE039
:10DB3000019B1B88F42B01D9072318E006AB1022A8
:10DB40000021184607F086FD039B9B88ADF818302E
:10DB5000029B0993019B089301238DF81A3006AAB2
:10DB6000BDF8023011461846FFF7E7FD0346184698
:10DB70000DB05DF804FB000082B003468DF807305D
:10DB80009DF90730002B13DB9DF8073003F01F02CF
:10DB900009499DF907305B09012000FA02F22033A0
:10DBA00041F82320BFF34F8F00BFBFF36F8F00BF3B
:10DBB00000BF02B0704700BF00E100E0044BD3F8A3
:10DBC0000034002B14BF01230023DBB2184670473A
:10DBD0000000014008B5FFF7F1FF034683F00103A1
:10DBE000DBB2002B04D000F04FFA024B00229A70F7
:10DBF00000BF08BD6C27002000B583B0002301934F
:10DC0000184B1B78002B02D0852301931CE0154B89
:10DC100000229A60134B00225A60124B00221A61B4
:10DC2000104B0022DA60104800F00CFA019007F067
:10DC3000BDF9034683F00103DBB2002B01D000F0F5
:10DC40001BFA084B01221A70FFF7B8FF0346002B9E
:10DC500002D0044B01229A70019B184603B05DF874
:10DC600004FB00BF6C27002019DD010084B0019087
:10DC7000019B1B680393039B002B03D0039B1A6833
:10DC8000019B1A60039B184604B0704700B583B02F
:10DC900000238DF807300DF10703184603F054F9FF
:10DCA000094BDB68013B084AD360074BDB68002B5C
:10DCB00001D1FFF78FFF9DF80730184603F04EF9AA
:10DCC00000BF03B05DF804FB6C27002000B585B0F1
:10DCD00003468DF807309DF80730002B02D10C4B1E
:10DCE000039301E00B4B03930398FFF7BFFF0290F0
:10DCF000029B002B06D0029B5B689DF80720104614
:10DD00009847F1E700BF00BF05B05DF804FB00BF16
:10DD1000742700207C27002000B583B003468DF8CF
:10DD200007309DF80730002B05D10A4B01225A70AD
:10DD30000020FFF7CBFF9DF80730012B05D1054BE5
:10DD400001229A700120FFF7C1FF00BF03B05DF808
:10DD500004FB00BF6C27002000B583B00190009148
:10DD6000019B002B05D1054B01225A700020FFF7C3
:10DD7000ADFF00BF03B05DF804FB00BF6C270020BF
:10DD800000B585B0034600918DF807309DF8073047
:10DD9000032B29D0032B2CDC002B02D0012B04D029
:10DDA00027E00020FFF7E8FE24E000238DF80F3085
:10DDB0000DF10F03184603F0C7F8104B1B7883F0E2
:10DDC0000103DBB2002B01D0FFF716FF0B4BDB6822
:10DDD00001330A4AD360094B01229A709DF80F3033
:10DDE000184603F0BBF805E000F046F9FFF74EFFD8
:10DDF00000E000BF00BF05B05DF804FB6C27002009
:10DE0000054B1B78002B04D1034B01221A70002311
:10DE100000E08523184670478027002082B0034623
:10DE20008DF807309DF90730002B0CDB9DF807308B
:10DE300003F01F0205499DF907305B09012000FA34
:10DE400002F241F8232000BF02B0704700E100E079
:10DE500082B0034600918DF807309DF90730002B02
:10DE60000ADB009BDAB20C499DF907305201D2B2AD
:10DE70000B4483F800230BE0009BDAB207499DF8BE
:10DE8000073003F00F03043B5201D2B20B441A7661
:10DE900000BF02B0704700BF00E100E000ED00E00D
:10DEA00082B00190019B1B0B5BB2184602B0704719
:10DEB00000B583B003460A468DF8073013468DF847
:10DEC00006309DF806209DF9073011461846FFF7E9
:10DED000BFFF00BF03B05DF804FB00B583B003468D
:10DEE0008DF807309DF907301846FFF797FF00BF00
:10DEF00003B05DF804FB000082B003468DF80730E4
:10DF00000F4A9DF90730002B00DA1F335B115BB21B
:10DF100052F823209DF90730594203F01F0301F006
:10DF20001F0158BF4B425BB222FA03F303F0010317
:10DF3000002B14BF01230023DBB2184602B0704748
:10DF400000E100E082B001904FF08042019BC2F8F6
:10DF5000083300BF02B0704782B003468DF8073027
:10DF60009DF8073003F1804301221A6000BF02B020
:10DF7000704784B00346ADF80630BDF8063003F1B3
:10DF8000804300221A60BDF8063003F180431B680D
:10DF90000393039B00BF04B0704782B00346ADF803
:10DFA0000630BDF8063003F180431B68002B14BF18
:10DFB00001230023DBB2184602B0704782B0019003
:10DFC0004FF08042019BC2F8183500BF02B0704785
:10DFD0004FF08043D3F818341B0C03F00103002BDF
:10DFE00014BF01230023DBB21846704700B583B08D
:10DFF00006238DF807304FF08040FFF751FF0346AE
:10E000001846FFF779FF034683F00103DBB2002BCC
:10E0100013D04FF08040FFF743FF03461A469DF8A8
:10E02000073019461046FFF743FF4FF08040FFF7D7
:10E0300037FF03461846FFF750FF00BF03B05DF8F7
:10E0400004FB000084B0019000230393094B1B796B
:10E05000002B02D08523039308E0064B00225A715F
:10E06000044A019B1360034B01221A71039B18465B
:10E0700004B070478427002008B5FFF7B7FF0020E1
:10E08000FFF79CFF00BF08BD08B50220FFF75AFF4D
:10E090004FF48270FFF76DFF0C20FFF75DFF00BFAC
:10E0A000FFF796FF0346002BFAD100BF00BF08BD63
:10E0B00008B54FF48070FFF770FF0346002B0AD0BD
:10E0C0004FF48070FFF755FF0120FFF73BFF1F4B18
:10E0D0001B68002098474FF48270FFF75EFF0346ED
:10E0E000002B0AD04FF48270FFF743FF0220FFF7A6
:10E0F00029FF164B1B68012098474FF48870FFF7E3
:10E100004CFF0346002B0AD04FF48870FFF731FF15
:10E110001020FFF717FF0D4B1B68022098474FF4A4
:10E120008670FFF73AFF0346002B0DD04FF4867040
:10E13000FFF71FFF0820FFF705FF044B00225A716D
:10E14000024B1B680320984700BF08BD84270020AE
:10E1500000B583B00346ADF80630BDF8063018466A
:10E1600000F026F803461B68012B0CBF0123002397
:10E17000DBB2184603B05DF804FB00B585B003467A
:10E18000ADF80630BDF80630184600F011F8034629
:10E190001A4600231360BDF80630184600F008F850
:10E1A00003461B680393039B00BF05B05DF804FBA7
:10E1B00082B00346ADF80630BDF8063003F1804367
:10E1C00003F5C043184602B07047000082B00190CA
:10E1D000034BD3F80423019B1340184602B0704749
:10E1E0000060004082B00190054A019B03F5A273D4
:10E1F00052F823301B0A03F01F03184602B0704781
:10E200000060004082B00190064A019B03F5A273B2
:10E2100052F823301B0C03F00303DBB2184602B0A4
:10E22000704700BF0060004082B001904FF0A043F3
:10E23000184602B0704700B585B001900B468DF8C6
:10E24000033001AB1846FFF7EFFF0390019A039BE1
:10E2500002F5E07253F82230019A23F44031039B17
:10E2600002F5E07243F82210019A039B02F5E07276
:10E2700053F822109DF803301B04019A1943039BA5
:10E2800002F5E07243F8221000BF05B05DF804FB10
:10E2900000B585B0019001AB1846FFF7C5FF0390AC
:10E2A000019A039B02F5E07253F822301B0C03F035
:10E2B0000303DBB2184605B05DF804FB86B003909B
:10E2C000029101924FF0A0430493039B059319E040
:10E2D000059B9B0018336B4453F8083CD3F820256A
:10E2E000019B1A60059B9B0018336B4453F8083C54
:10E2F000019A1268C3F82025019B04330193059B02
:10E3000001330593039A029B1344059A9A42DFD383
:10E3100000BF00BF06B0704700B585B0019001ABEB
:10E320001846FFF781FF0390019B012202FA03F3D5
:10E330001A46039BC3F8202500BF05B05DF804FB17
:10E3400084B001900091009B0393019BDB08029332
:10E35000019B03F0070301930122019B02FA03F3DF
:10E360000399029A0A4412781340184604B0704781
:10E3700082B00190044A019B1344303393F900307A
:10E38000184602B0704700BF8C27002082B0019071
:10E39000034A019B52F82330184602B0704700BF71
:10E3A0008C27002084B00190074A019B134450330E
:10E3B00093F900308DF80F309DF80F3023F0C00333
:10E3C000184604B0704700BF8C27002084B001902D
:10E3D000074A019B1344503393F900308DF80F30F6
:10E3E0009DF80F309B09DBB2184604B0704700BFA0
:10E3F0008C27002000B585B00190019A01210020F2
:10E40000FFF75CFF002303930BE0039B9B00019A43
:10E4100013441B68002B01D0012306E0039B01334A
:10E420000393039B002BF0D00023184605B05DF842
:10E4300004FB000000B587B00190002305935BE06A
:10E44000344A059B1344503393F90030B3F1FF3F36
:10E450004ED00598FFF7A6FF049001990498FFF7A6
:10E460006FFF0346002B44D00598FFF7AFFF03462C
:10E470008DF80F300498FFF70BFF03468DF80E3030
:10E480009DF80E30022B01D1032300E002238DF80A
:10E490000D309DF80D3019460498FFF7CCFE049816
:10E4A000FFF73AFF0498FFF763FF03461846FFF7AC
:10E4B0006DFF0290029B002B1BD09DF80F30032BA9
:10E4C0000FD09DF80E30022B03D19DF80F30012B99
:10E4D00007D09DF80E30032B0BD19DF80F30022B87
:10E4E00007D19DF80F20029B11460498984700E041
:10E4F00000BF059B01330593059B032BA0D9019811
:10E50000FFF778FF0346002B97D100BF00BF07B08D
:10E510005DF804FB8C27002000B589B0002306932A
:10E52000002300934FF48073ADF81230012307935A
:10E530000023059321E0BDF812301846FFF708FECE
:10E540000346002B0ED00798FFF740FE0346002B32
:10E5500008D0BDF812301846FFF70FFE069A079B49
:10E5600013430693079B5B000793BDF812300433F7
:10E57000ADF81230059B01330593059B072BDAD9C3
:10E580004FF4BE70FFF7E4FD0346002B0DD04FF4AF
:10E59000BE70FFF7F2FD069B43F0004306936B4607
:10E5A0001A4601210020FFF789FE069BDBB2002BF3
:10E5B00029D0012307930023059321E0079A069BA6
:10E5C0001340002B16D00598FFF70CFE039005981A
:10E5D000FFF718FE03468DF80B300598FFF7D6FEBF
:10E5E0000190019B002B05D09DF80B20019B11464B
:10E5F00003989847079B5B000793059B013305939E
:10E60000059B072BDAD9069B002B03DA6B461846CD
:10E61000FFF710FF00BF09B05DF804FB82B00346AE
:10E620008DF807309DF80730044A012101FA03F301
:10E63000C2F8043500BF02B0704700BF00F00140CF
:10E6400084B00346029101928DF80F3008499DF87D
:10E650000F30A233029A41F83320054A9DF80F305B
:10E66000A233DB001344019A5A6000BF04B0704724
:10E6700000F0014082B003468DF807309DF8073066
:10E68000012202FA03F3184602B0704700B583B0C6
:10E6900003468DF807309DF807301846FFF7EAFF6C
:10E6A0000346C3F31003002B14BF01230023DBB286
:10E6B000184603B05DF804FB82B00190019BB3F5EE
:10E6C000003F34BF01230023DBB2184602B070477D
:10E6D00000B583B003468DF807309DF80730184623
:10E6E000FFF7C8FF03461846FFF7E6FF0346184644
:10E6F00003B05DF804FB000000B583B003468DF85D
:10E7000007309DF807301846FFF7B4FF0246064B66
:10E710001B681340002B14BF01230023DBB21846F3
:10E7200003B05DF804FB00BFE827002000B583B00C
:10E7300003468DF807309DF807301846FFF79AFF1B
:10E740000246044B1B681343024A136000BF03B028
:10E750005DF804FBE827002000B587B00190002396
:10E7600004930023059304230493274B059300236C
:10E770008DF80F303EE000238DF80E300DF10E03C2
:10E78000184602F0E1FB9DF80F301846FFF772FFC4
:10E790000246059B1340002B15D09DF80F301846FC
:10E7A000FFF7AAFF034683F00103DBB2002B0AD078
:10E7B0009DF80F301846FFF7B9FF019B9DF80F2019
:10E7C0001A70002304939DF80E30184602F0C6FB21
:10E7D000049B002B12D09DF80F301846FFF74AFF1C
:10E7E0000346DB43059A134005939DF80F30013330
:10E7F0008DF80F30059B002BBDD100E000BF049BBE
:10E80000184607B05DF804FBFFFF010000B587B0B4
:10E810000346029101928DF80F30029B002B02D02B
:10E82000019B002B01D10E2325E0002305939DF8C9
:10E830000F301846FFF72AFF034683F00103DBB2CF
:10E84000002B02D00723059314E09DF80F301846E3
:10E85000FFF752FF034683F00103DBB2002B02D027
:10E860000823059306E09DF80F30019A0299184697
:10E87000FFF7E6FE059B184607B05DF804FB00B500
:10E8800085B003468DF80730002303939DF80730C9
:10E890001846FFF71DFF034683F00103DBB2002B90
:10E8A00002D0072303931AE09DF807301846FFF7BC
:10E8B000EDFE0346002B0DD09DF807301846FFF7FC
:10E8C0001BFF034683F00103DBB2002B02D00823B9
:10E8D000039304E09DF807301846FFF79FFE039B63
:10E8E000184605B05DF804FB08B5024B1B68984755
:10E8F00008BD00BFEC27002082B003468DF807302A
:10E900009DF90730002B0CDB9DF8073003F01F0248
:10E9100005499DF907305B09012000FA02F241F830
:10E92000232000BF02B0704700E100E082B0034640
:10E9300000918DF807309DF90730002B0ADB009B12
:10E94000DAB20C499DF907305201D2B20B4483F878
:10E9500000230BE0009BDAB207499DF8073003F073
:10E960000F03043B5201D2B20B441A7600BF02B02F
:10E97000704700BF00E100E000ED00E000B583B0AB
:10E9800003460A468DF8073013468DF806309DF889
:10E9900006209DF9073011461846FFF7C7FF00BF54
:10E9A00003B05DF804FB00B583B003468DF8073073
:10E9B0009DF907301846FFF79FFF00BF03B05DF8D1
:10E9C00004FB82B003468DF807309DF8073003F151
:10E9D000804303F5E04301221A6000BF02B0704794
:10E9E00082B003468DF807309DF8073003F180436D
:10E9F00003F5E043184602B0704782B00346ADF815
:10EA00000630BDF8063003F1804303F5E0431B6890
:10EA1000002B14BF01230023DBB2184602B070475D
:10EA200084B00346ADF80630BDF8063003F18043EC
:10EA300003F5E04300221A60BDF8063003F180437D
:10EA400003F5E0431B680393039B00BF04B07047CA
:10EA500082B003468DF807300B468DF8063013461A
:10EA60008DF805300A499DF807309DF8052051338F
:10EA70001B010B4404331A6005499DF807309DF8CB
:10EA8000062051331B010B441A6000BF02B07047CF
:10EA90000070004082B00190034A019BC2F8043329
:10EAA00000BF02B0704700BF0070004082B001900C
:10EAB000034A019BC2F8083300BF02B0704700BF91
:10EAC00000700040024B0122C3F8002500BF7047D0
:10EAD0000070004082B001900091054A019BC2F88D
