:020000021000EC
:10900000006000201992010001920100039201000A
:109010000592010007920100099201000000000082
:109020000000000000000000000000000B920100A2
:109030000D920100000000000F920100119201004A
:10904000F1C601001392010055CC010069DD010059
:1090500031D101000000000051CB010089CD010099
:109060001392010013920100139201001392010068
:109070001392010013920100139201001392010058
:10908000D9DD01001DEC01001392010013920100D3
:109090005DEC010013920100552E020013920100B5
:1090A0001392010013920100000000000000000074
:1090B0001392010013920100000000000000000064
:1090C00000000000000000000000000000000000A0
:1090D0000000000000000000000000000000000090
:1090E0000000000000000000000000000000000080
:1090F0000000000000000000000000000000000070
:10910000000000000000000000000000000000005F
:10911000000000000000000000000000000000004F
:10912000000000000000000000000000000000003F
:10913000000000000000000000000000000000002F
:10914000000000000000000000000000000000001F
:10915000000000000000000000000000000000000F
:1091600000000000000000000000000000000000FF
:1091700000000000000000000000000000000000EF
:1091800000000000000000000000000000000000DF
:1091900000000000000000000000000000000000CF
:1091A00000000000000000000000000000000000BF
:1091B00000000000000000000000000000000000AF
:1091C000000000000000000000000000000000009F
:1091D000000000000000000000000000000000008F
:1091E000000000000000000000000000000000007F
:1091F000000000000000000000000000000000006F
:10920000FEE7FEE7FEE7FEE7FEE7FEE7FEE7FEE736
:10921000FEE7FEE700F002B8FFF7FCBF0B484FF097
:109220000701884385460A48804700F019B8094875
:1092300009490A4A884207D0521A05D003780130FA
:109240000B700131013AF9D1704700000060002035
:10925000E1A50100DC320200A0240020B42400209B
:1092600039493A480A1A02D0072291438D463849B3
:1092700038480A1A06D00722914381F3098802224E
:1092800082F3148834483549354A00F03EF83548B1
:109290003549364A00F039F835483649364A00F043
:1092A00034F836483649374A00F02FF836483749FF
:1092B000374A00F02AF837483749384A00F025F88D
:1092C00037483849384A00F020F8384838490022F1
:1092D00000F033F837483849002200F02EF83748BC
:1092E0003749091A09F078FE364A9047244825493B
:1092F000884205D00268043003B4904703BCF7E706
:1093000000200021304A9047FEE7884214D0521ACC
:1093100012D003460B4313430324234206D10368B0
:1093200004300B600431043AF9D1704703780130FE
:109330000B700131013AF9D17047884202D00270B6
:109340000130FAE77047000000600020005800205C
:109350000060002000600020804B0200B424002048
:1093600038250020CC930100CC930100B0310200DD
:10937000804B0200B4240020B4240020F03202000C
:10938000F0320200F0320200F0320200F03202004D
:10939000F0320200F0320200F03202007D4B020097
:1093A000044C0200382500203825002038250020F4
:1093B000B4380020B4380020B4380020B43800207D
:0C93C000B44000202F92010085940100B1
:1093CC0000B583B0094A0A21082004F05DFE019023
:1093DC00019B0093009B002B04D0054A4E21009862
:1093EC0004F054FD00BF03B000BD00BF3C250020BD
:1093FC00F032020000B583B04FF40041002008F0B9
:10940C00E7F90190019B0093009B002B04D0054AC7
:10941C005621009804F03AFD08F07CF900BF03B027
:10942C0000BD00BFF032020000B583B007F098FF1A
:10943C000190019B0093009B002B04D0034A6221F6
:10944C00009804F023FD00BF03B000BDF032020011
:10945C0000B583B005F002FC0190019B0093009BCA
:10946C00002B04D0034A7621009804F00FFD00BFB6
:10947C0003B000BDF032020000B583B0FFF7BAFFB5
:10948C00FFF7E6FFFFF79CFFFFF7CEFF00F004FDB0
:10949C0000F080FD302000F051FD03468DF80730C0
:1094AC00084A094BD31ADB081B0443F003039DF84D
:1094BC0007200649184608F04AFC0023184603B05A
:1094CC0000BD00BF7C320200443202005433020063
:1094DC0084B001900B468DF8033013468DF80230A2
:1094EC0000230393019B032B3DD89DF80230012BE5
:1094FC000CD19DF80330012B05D1019BDBB20E334F
:10950C008DF8023002E000238DF802309DF8033014
:10951C00022B0FD0022B23DC002B16D0012B1FD1DA
:10952C001449019A13465B0013440B449DF8022026
:10953C001A701AE00F49019A13465B0013440B444E
:10954C0001339DF802201A700FE00A49019A134664
:10955C005B0013440B4402339DF802201A7004E0A4
:10956C000723039301E007230393039B184604B0DE
:10957C00704700BFEC25002000B583B0012200210C
:10958C000020FFF7A5FF0190019B002B04D0019B4D
:10959C00072B01D0019B1CE0072202210120FFF7C1
:1095AC0097FF0190019B002B04D0019B072B01D04E
:1095BC00019B0EE0042202210020FFF789FF01909D
:1095CC00019B002B04D0019B072B01D0019B00E0D9
:1095DC000023184603B000BD00B583B00122022160
:1095EC000020FFF775FF0190019B002B04D0019B1D
:1095FC00072B01D0019B1CE0072202210120FFF761
:10960C0067FF0190019B002B04D0019B072B01D01D
:10961C00019B0EE00A2200210020FFF759FF019068
:10962C00019B002B04D0019B072B01D0019B00E078
:10963C000023184603B000BD00B585B00190009121
:10964C00019B1B88102B02D0112B18D02FE0194B2B
:10965C001B68002B0DD1FFF78FFF0390039B002B92
:10966C0007D0154B1B68002B03D0134B1B680398BA
:10967C009847104B1B6801330E4A136017E00D4BD3
:10968C001B68013B0B4A13600A4B1B68002B0DD166
:10969C00FFF7A2FF0390039B002B07D0064B1B6820
:1096AC00002B03D0044B1B680398984700BF00BFE6
:1096BC0005B000BDFC250020F825002000B587B0C2
:1096CC0001900091019B039303238DF80830019BBB
:1096DC005B6902AA1046984700BF07B000BD00B5F1
:1096EC0087B001900091019B039302238DF8083001
:1096FC00019B5B6902AA1046984700BF07B000BDEA
:10970C0000B589B001900091009B0633079303AB21
:10971C0010220021184609F0ADFC019B0493079B15
:10972C001A88019B1B899A421CD1079B5B89022BCF
:10973C0018D1079B0C33184602F00DF80346002B8A
:10974C0003D000238DF80C3002E001238DF80C308F
:10975C00019B5B69002B1FD0019B5B6903AA104620
:10976C00984719E0079B1A88019B9B899A4213D151
:10977C00019B5B69002B0FD004238DF80C30079BE9
:10978C000C330593079B5B89ADF81830019B5B6923
:10979C0003AA10469847FFE700BF09B000BD00B50B
:1097AC0085B001900091009B0393039B002B1CD070
:1097BC00019B002B19D0019B1B88502B10D0502BD8
:1097CC0015DC102B02D0112B05D010E00199039859
:1097DC00FFF774FF0CE001990398FFF780FF07E097
:1097EC0001990398FFF78CFF02E000BF00E000BF77
:1097FC0005B000BD76DF704700BF184677DF7047B5
:10980C0000BF18467FDF704700BF18468FDF7047D8
:10981C0000BF1846B1DF704700BF1846064B1B78D7
:10982C00DAB2064B1B78DBB29A420CBF0123002341
:10983C00DBB21846704700BF582C0020592C002072
:10984C0000B585B04BE02C4B1B78DBB219462B4A8C
:10985C00DC2301FB03F313441B88ADF80630264BC5
:10986C001B78DBB21A46DC2302FB03F3234A1344B6
:10987C00991C234B1B880DF10602224802F017FBA2
:10988C000390039B002B11D11B4B1B78DBB20133D4
:10989C00DAB21D4BA3FB021399080B465B000B4479
:1098AC005B00D31ADAB2144B1A7018E0039B132B1B
:1098BC001ED0039B082B1BD0039B052B18D0039B9E
:1098CC000C2B15D0039B072B12D0039B0293029BEE
:1098DC00002B04D00D4A4F21029804F0D7FAFFF761
:1098EC009DFF034683F00103DBB2002BABD100E0FC
:1098FC0000BF00BF05B000BD592C00203027002050
:10990C00D8240020BC240020ABAAAAAA74330200DD
:10991C0030B591B003900291039B1B88572B00F03C
:10992C00E480572B00F32281562B00F0CB80562B72
:10993C0000F31C81522B00F09E80522B00F31681F9
:10994C003B2B00F0AC803B2B00F31081212B62D021
:10995C00212B00F30B81132B78D0132B00F30681F2
:10996C00122B00F0C580122B00F30081102B02D0BB
:10997C00112B40D0FAE0844A844BD31ADB081B0429
:10998C0043F003038249184608F0D4F9039B9A88E4
:10999C00804B1A807F4B1B8819467F4802F07AF85F
:1099AC000F900F9B0893089B002B05D07B4A4FF41C
:1099BC00B371089804F06AFA764B1B880422194696
:1099CC000320FFF71BFF0F900F9B0793079B002BA8
:1099DC0005D0724A40F26911079804F057FA704B9F
:1099EC001B88ADF818306B4B1B8806AA114618461D
:1099FC00FFF70CFFC5E0644A644BD31ADB081B0469
:109A0C0043F003036749184608F094F9614B4FF68D
:109A1C00FF721A80B5E000238DF8143000238DF806
:109A2C001530039B9B8805AA11461846FFF7EEFEDE
:109A3C000F900F9B0B930B9B002B00F09980574AB8
:109A4C004FF4C3710B9804F021FA91E0514B188834
:109A5C00002300228521FFF7D5FE0F900F9B0A9360
:109A6C000A9B002B00F086804C4A4FF4C6710A9872
:109A7C0004F00CFA7EE0474B1888002300220021EA
:109A8C00FFF7C8FE0F900F9B0D930D9B002B73D00F
:109A9C00424A4FF4C9710D9804F0F8F96CE0039B3D
:109AAC009B8813211846FFF7A5FE0F900F9B0C9374
:109ABC000C9B002B62D0394A40F299110C9804F09F
:109ACC00E5F95BE0039B9B8813211846FFF792FE98
:109ADC000F900F9B0E930E9B002B51D02F4A4FF4DF
:109AEC00D0710E9804F0D2F94AE0FFF7A9FE48E0D5
:109AFC00039B08330993244A244BD31ADB081B0419
:109B0C0043F00300099B5B881A4613465B019B1AC2
:109B1C009B001344244A82FB03125211DB17D31A05
:109B2C001C46099B5B881A4613465B019B1A9B00DB
:109B3C0013441D4A82FB03125111DA178A1A64214D
:109B4C0001FB02F29A1A1546099B9B881946099B40
:109B5C00DB881A4613469B0013445B00019300916B
:109B6C002B462246114908F02AF90AE000BF08E00A
:109B7C0000BF06E000BF04E000BF02E000BF00E051
:109B8C0000BF00BF11B030BD7C3202004432020075
:109B9C00E0340200D8240020142600207433020084
:109BAC0028350200EC3402001F85EB51FC34020016
:109BBC0000B583B00190019B0433184603F0DAFC26
:109BCC0000BF03B000BD00B589B0059003921A46E2
:109BDC000B468DF8133013468DF812300023079383
:109BEC00059B181D9DF812209DF813109DF8283028
:109BFC0000931346039A03F0D5FF0790079B184672
:109C0C0009B000BD00B587B0039001921A460B460F
:109C1C008DF80B3013468DF80A3000230593039B07
:109C2C00181D9DF80A309DF80B10019A03F0E1FF06
:109C3C000590059B184607B000BD000000B587B025
:109C4C00029111461A4603468DF80F300B468DF8DB
:109C5C000E3013468DF80D3000238DF817301B4B4A
:109C6C0000221A709DF80E209DF80F109DF80D30F3
:109C7C0000931346029A1648FFF7A5FF0490049B25
:109C8C00002B11D09DF8173001338DF81730114A85
:109C9C00114BD31ADB081B0443F003039DF8172068
:109CAC000E49184608F053F808F0C8F80346002B84
:109CBC00FAD100BF054B1B78DBB283F00103DBB29A
:109CCC00002BF7D100BF00BF07B000BD3825002026
:109CDC00483502007C320200443202005835020042
:109CEC0000B589B002921A4603468DF80F300B4628
:109CFC008DF80E3013468DF80D30234B00221A7060
:109D0C009DF80E308DF8103004AA9DF80F10012329
:109D1C00009301231D48FFF756FF0790079B0693FE
:109D2C00069B002B04D01A4A3E21069804F0AEF88C
:109D3C0000BF154B1B78DBB283F00103DBB2002BA9
:109D4C00F7D1114B00221A709DF80D309DF80F10B1
:109D5C00029A0E48FFF756FF0790079B0593059B49
:109D6C00002B04D00A4A4421059804F08FF800BF58
:109D7C00054B1B78DBB283F00103DBB2002BF7D170
:109D8C0000BF00BF09B000BD3825002048350200D7
:109D9C007835020000B585B001900091019B1B78CD
:109DAC00022B40D0022B4FDC002B02D0012B29D0F0
:109DBC004AE0019B1B79012B0CD12F4B1B781AB25B
:109DCC002D4B5B781BB21B021BB213431BB2ADF8BD
:109DDC000E304AE0019B1B79002B46D0019B1B796E
:109DEC00022B42D0019B1B79032B3ED1234A244BDF
:109DFC00D31ADB081B0443F003032249184607F06F
:109E0C0099FF32E01D4A1E4BD31ADB081B0443F0AA
:109E1C0003031D49184607F08DFF08F00FF80346A1
:109E2C00002BFAD122E0154A154BD31ADB081B0480
:109E3C0043F003031549184607F07CFF07F0FEFFBB
:109E4C000346002BFAD111E00C4A0D4BD31ADB0858
:109E5C001B0443F003030E49184607F06BFF07F091
:109E6C00EDFF0346002BFAD100E000BF094B0122A5
:109E7C001A7000BF05B000BD5C2C00207C320200C3
:109E8C0044320200F4350200FC3502000C360200AC
:109E9C00183602003825002000B587B001AB00222F
:109EAC001A605A609A60DA601B2301931A2302939A
:109EBC004FF0CC73039302238DF8103001238DF8EF
:109ECC00113001A90023174A174802F095FA0590A2
:109EDC00059B002B10D0154A154BD31ADB081B041D
:109EEC0043F003031349184607F024FF07F0A6FFBD
:109EFC000346002BFAD112E00C4A0D4BD31ADB08A7
:109F0C001B0443F003030C49184607F013FF07F03A
:109F1C0095FF0346002BFAD10348FFF749FE00BF1B
:109F2C0007B000BDA19D0100483502007C32020043
:109F3C00443202002C3602005436020000B585B0C3
:109F4C0003468DF8073003AA9DF8071001237020F3
:109F5C00FFF7C6FE9DF80C30184605B000BD00B5E5
:109F6C0085B003460A468DF8073013468DF8063047
:109F7C009DF807308DF80C309DF806308DF80D30BB
:109F8C0003A9002302227020FFF758FE00BF05B082
:109F9C0000BD000000B585B0002303935AE03F4993
:109FAC00039A13465B0013440B441B788DF8063060
:109FBC003A49039A13465B0013440B4401331B7854
:109FCC008DF805303549039A13465B0013440B4456
:109FDC0002331B788DF804309DF80430002B35D0FB
:109FEC009DF80430FF2B08D19DF805209DF8063014
:109FFC0011461846FFF7B3FF29E09DF806301846C6
:10A00C00FFF79CFF03468DF803309DF90430DB43CA
:10A01C005AB29DF9033013405BB28DF803309DF8B2
:10A02C0005209DF8043013408DF805309DF8032071
:10A03C009DF8053013438DF802309DF802209DF8F1
:10A04C00063011461846FFF78AFF00E000BF039B5D
:10A05C0001330393039BB3F5AF7FA0DB0023029383
:10A06C0002E0029B01330293029BB3F5AF7FF8DB56
:10A07C003120FFF763FF03468DF807309DF807305A
:10A08C0063F07F03DBB219463120FFF768FF002134
:10A09C00E620FFF764FF00BF05B000BDEC36020000
:10A0AC00BFF34F8F00BF064BDB6803F4E06204493B
:10A0BC00044B1343CB60BFF34F8F00BF00BFFDE7D2
:10A0CC0000ED00E00400FA0582B00A4B1B68019316
:10A0DC00094B1B680093019B0E2B06D1009B002B98
:10A0EC0001D1012302E0012300E00023184602B055
:10A0FC00704700BF300100103401001082B0224BB9
:10A10C001B680193214B1B680093019B082B2CD1DE
:10A11C00009B052B25D0009B052B24D8009B042BE2
:10A12C001DD0009B042B1ED8009B032B15D0009B2D
:10A13C00032B18D8009B022B0DD0009B022B12D89E
:10A14C00009B002B03D0009B012B02D00BE00123C2
:10A15C0016E0012314E0012312E0012310E0012397
:10A16C000EE001230CE001230AE0019B0E2B06D12B
:10A17C00009B002B01D1012302E0012300E000230E
:10A18C00184602B0704700BF3001001034010010B7
:10A19C0082B0224B1B680193214B1B680093019BDF
:10A1AC00082B2CD1009B052B25D0009B052B24D8EC
:10A1BC00009B042B1DD0009B042B1ED8009B032B53
:10A1CC0015D0009B032B18D8009B022B0DD0009BA5
:10A1DC00022B12D8009B002B03D0009B012B02D02A
:10A1EC000BE0012316E0012314E0012312E001230C
:10A1FC0010E001230EE001230CE001230AE0019B97
:10A20C000E2B06D1009B002B01D1012302E0012370
:10A21C0000E00023184602B0704700BF3001001068
:10A22C003401001082B01D4B1B6801931C4B1B6842
:10A23C000093019B082B2CD1009B052B25D0009B58
:10A24C00052B24D8009B042B1DD0009B042B1ED85F
:10A25C00009B032B15D0009B032B18D8009B022BC3
:10A26C000DD0009B022B12D8009B002B03D0009B1F
:10A27C00012B02D00BE001230CE000230AE00023A9
:10A28C0008E0002306E0002304E0002302E00023A2
:10A29C0000E00023184602B0704700BF30010010E8
:10A2AC003401001082B01D4B1B6801931C4B1B68C2
:10A2BC000093019B082B2CD1009B052B25D0009BD8
:10A2CC00052B24D8009B042B1DD0009B042B1ED8DF
:10A2DC00009B032B15D0009B032B18D8009B022B43
:10A2EC000DD0009B022B12D8009B002B03D0009B9F
:10A2FC00012B02D00BE001230CE000230AE0002329
:10A30C0008E0002306E0002304E0002302E0002321
:10A31C0000E00023184602B0704700BF3001001067
:10A32C003401001082B01D4B1B6801931C4B1B6841
:10A33C000093019B082B2CD1009B052B25D0009B57
:10A34C00052B24D8009B042B1DD0009B042B1ED85E
:10A35C00009B032B15D0009B032B18D8009B022BC2
:10A36C000DD0009B022B12D8009B002B03D0009B1E
:10A37C00012B02D00BE001230CE000230AE00023A8
:10A38C0008E0002306E0002304E0002302E00023A1
:10A39C0000E00023184602B0704700BF30010010E7
:10A3AC003401001082B01D4B1B6801931C4B1B68C1
:10A3BC000093019B082B2CD1009B052B25D0009BD7
:10A3CC00052B24D8009B042B1DD0009B042B1ED8DE
:10A3DC00009B032B15D0009B032B18D8009B022B42
:10A3EC000DD0009B022B12D8009B002B03D0009B9E
:10A3FC00012B02D00BE001230CE000230AE0002328
:10A40C0008E0002306E0002304E0002302E0002320
:10A41C0000E00023184602B0704700BF3001001066
:10A42C003401001082B0224B1B680193214B1B6836
:10A43C000093019B082B2CD1009B052B25D0009B56
:10A44C00052B24D8009B042B1DD0009B042B1ED85D
:10A45C00009B032B15D0009B032B18D8009B022BC1
:10A46C000DD0009B022B12D8009B002B03D0009B1D
:10A47C00012B02D00BE0012316E0012314E0012391
:10A48C0012E0012310E001230EE001230CE0012374
:10A49C000AE0019B0E2B06D1009B002B01D101235E
:10A4AC0002E0012300E00023184602B0704700BF11
:10A4BC00300100103401001082B00A4B1B6801936C
:10A4CC00094B1B680093019B0E2B06D1009B002BA4
:10A4DC0001D1012302E0012300E00023184602B061
:10A4EC00704700BF300100103401001082B01D4BCA
:10A4FC001B6801931C4B1B680093019B082B2CD1F0
:10A50C00009B052B25D0009B052B24D8009B042BEE
:10A51C001DD0009B042B1ED8009B032B15D0009B39
:10A52C00032B18D8009B022B0DD0009B022B12D8AA
:10A53C00009B002B03D0009B012B02D00BE00023CF
:10A54C000CE000230AE0002308E0002306E00123CE
:10A55C0004E0012302E0012300E00023184602B0CE
:10A56C00704700BF300100103401001008B5FFF730
:10A57C00BDFF0346002B07D04FF010234FF0804255
:10A58C00D3F80832C2F8583500BF08BD00BF044BE1
:10A59C00D3F80034002BFAD000BF00BF704700BFC7
:10A5AC0000E0014000B583B00190044A019BC2F861
:10A5BC000435FFF7EBFF00BF03B000BD00E0014026
:10A5CC00024B034A1A6000BF704700BFDC24002016
:10A5DC000090D00308B5FFF777FD0346002B06D09B
:10A5EC008C4B1B685B0B8C4A03F007031360FFF763
:10A5FC0085FD0346002B0ED04FF080430022C3F89C
:10A60C000C214FF080430022C3F810214FF08043FF
:10A61C000022C3F83825FFF7BBFD0346002B76D08C
:10A62C004FF080537D4AD3F80434C2F820354FF0F4
:10A63C0080537A4AD3F80834C2F824354FF080534B
:10A64C00764AD3F80C34C2F828354FF08053734A4D
:10A65C00D3F81034C2F82C354FF080536F4AD3F82E
:10A66C001434C2F830354FF080536C4AD3F8183498
:10A67C00C2F834354FF08053684AD3F81C34C2F812
:10A68C0040354FF08053654AD3F82034C2F8443536
:10A69C004FF08053614AD3F82434C2F848354FF058
:10A6AC0080535E4AD3F82834C2F84C354FF08053AF
:10A6BC005A4AD3F82C34C2F850354FF08053574ACD
:10A6CC00D3F83034C2F854354FF08053534AD3F892
:10A6DC003434C2F860354FF08053504AD3F83834D4
:10A6EC00C2F864354FF080534C4AD3F83C34C2F86E
:10A6FC0068354FF08053494AD3F84034C2F86C3572
:10A70C004FF08053454AD3F84434C2F87035FFF704
:10A71C0089FD0346002B02D0414B424A1A60FFF7D9
:10A72C00C1FD0346002B03D03F4BFB22C3F8182579
:10A73C00FFF7F8FD0346002B0AD03C4B1B6823F0B7
:10A74C000F023B4B1B6803F00F03384913430B609C
:10A75C00FFF728FE0346002B03D0364B4FF4007254
:10A76C001A60FFF75FFE0346002B0DD04FF08043BD
:10A77C00D3F8003403F00103002B05D04FF08043D5
:10A78C006FF00102C3F80024FFF796FE0346002B7E
:10A79C0005D0264B1B68254A43F00F031360FFF7C7
:10A7AC00E5FE4FF01023D3F80032002B05DB4FF001
:10A7BC001023D3F80432002B15DA0120FFF7F2FE38
:10A7CC004FF010231222C3F80022FFF7DFFE4FF0E8
:10A7DC0010231222C3F80422FFF7D8FE0020FFF743
:10A7EC00E1FEFFF75DFC144B1B6803F00103002B2B
:10A7FC000CD00120FFF7D6FE0F4B00221A60FFF79A
:10A80C00C5FE0020FFF7CEFEFFF74AFCFFF7D8FE8F
:10A81C0000BF08BD440200103C05004000C00040D1
:10A82C008C5600404881030000F00040E40E0040CC
:10A83C0058020010409602400C12001086B0039093
:10A84C0001921A460B46ADF80A3013468DF80930C2
:10A85C00039B002B02D0019B002B01D100235CE059
:10A86C000023ADF816300CE0BDF81630039A1344F3
:10A87C001B781A46BDF8163013449BB20133ADF861
:10A88C001630BDF816305A1CBDF80A309A420FDA51
:10A89C00019B1B88BDF816209A42E5D3BDF81630F3
:10A8AC000133039A13441B789DF809209A42DBD19B
:10A8BC00BDF81620BDF80A309A4201D300232CE0D3
:10A8CC00BDF816300233ADF81230BDF81630039ACD
:10A8DC0013441B78002B08D0BDF81630039A134490
:10A8EC001B78013BADF8143002E00023ADF81430B6
:10A8FC00BDF81430002B08D0BDF81220BDF8143070
:10A90C001A44BDF80A309A4201DD002305E0019B90
:10A91C00BDF812201A80BDF81430184606B07047E6
:10A92C0000B585B001900B46ADF8023013468DF89A
:10A93C0001300023ADF80C309DF8013003AABDF8AE
:10A94C0002100198FFF77AFF0346ADF80E30BDF800
:10A95C000E30002B01D1002304E0BDF80C301A4658
:10A96C00019B1344184605B000BD72DF704700BF51
:10A97C00184673DF704700BF184682B00190019BE8
:10A98C0093F8F430184602B0704784B0019000235D
:10A99C0003930AE0019A039B13441B78002B01D00C
:10A9AC00012306E0039B01330393039B052BF1D991
:10A9BC000023184604B0704782B003468DF8073068
:10A9CC009DF807305A1C074B83FB02135910D31701
:10A9DC00C91A0B469B000B44D11ACBB2184602B0D5
:10A9EC00704700BF6766666682B001900091009B5D
:10A9FC00DB7B012B04D1009B9A88019BA3F8E820F8
:10AA0C0000BF02B0704700B585B001900091019B6A
:10AA1C00002283F8F220009B9A88019BB3F8E8305F
:10AA2C009A4216D1019B1B7983F00103DBB2002BF8
:10AA3C000FD00121019800F086F90390039B002BA5
:10AA4C0007D0019B9B6B002B03D0019B9B6B039846
:10AA5C00984700BF05B000BD00B585B001900091CE
:10AA6C00009B1B88262B1ED1009B1B7A012B03D02D
:10AA7C00009B1B7A022B17D1019B9B781846FFF782
:10AA8C009BFF03461946019800F05DF90390039B68
:10AA9C00002B09D0019B9B6B002B05D0019B9B6B62
:10AAAC000398984700E000BF05B000BD00B585B025
:10AABC0001900B468DF80330019BEB331846FFF7E2
:10AACC0064FF03468DF80F309DF80330042B2CD017
:10AADC00042B30DC032B22D0032B2CDC012B02D0DB
:10AAEC00022B12D027E0019B9B79002B0DD0019BF0
:10AAFC0093F8243083F00103DBB2002B05D09DF8D2
:10AB0C000F30002B01D0012316E0019BDB79002BC9
:10AB1C0005D09DF80F30002B01D002230CE0019BD7
:10AB2C001B7A002B01D0032306E0019B5B7A002BE0
:10AB3C0001D0042300E00023184605B000BD82B00C
:10AB4C0001900091019B012283F83120019B00228E
:10AB5C00C3F8E420019B03F1EA02009B5A60009BBE
:10AB6C0000229A60009B02221A70009B80229A811C
:10AB7C000023184602B0704782B001900091019BEF
:10AB8C00022283F83120009B03221A70019B1B695F
:10AB9C009AB2009B9A81019B0022C3F8E420019B8E
:10ABAC0003F1EA02009B5A60019BDA68009B9A60F1
:10ABBC000023184602B0704700B583B00190019B8A
:10ABCC005B79002B0FD0019B93F8F23083F00103DB
:10ABDC00DBB2002B07D00198FFF7CFFE0346002B0A
:10ABEC0001D0012300E0002303F00103DBB218467F
:10ABFC0003B000BD00B585B001900B468DF8033055
:10AC0C00019BD3F8D400019BB3F8D830012219462C
:10AC1C00FFF786FE0390039B002B03D0039B9DF84C
:10AC2C0003201A70019B03F15400019B03F1D40122
:10AC3C00019B3C331A46FFF798FE0346184605B0B5
:10AC4C0000BD00B585B001900091019B5A69009B35
:10AC5C009A60019B9B699AB2009B9A81019B01228D
:10AC6C0083F83C200198FFF7A7FF0346002B13D075
:10AC7C00009B02221A7504210198FFF7BBFF039079
:10AC8C00039B0293029B002B01D0029B0FE0019BC4
:10AC9C00052283F8312003E0019B032283F8312045
:10ACAC00019B03F1D402019BC3F8E4200023184656
:10ACBC0005B000BD00B585B001900091019BDA692B
:10ACCC00009B9A60019B1B6A9AB2009B9A81019B24
:10ACDC00012283F83C200198FFF76EFF0346002BFE
:10ACEC0013D0009B02221A7504210198FFF782FFF2
:10ACFC000390039B0293029B002B01D0029B0FE05D
:10AD0C00019B062283F8312003E0019B042283F887
:10AD1C003120019B03F1D402019BC3F8E4200023F2
:10AD2C00184605B000BD82B00190019B1B68012B39
:10AD3C0003D0019B1B68022B01D1012300E00023EF
:10AD4C00184602B0704700B585B001900B468DF8DF
:10AD5C000330019B1B7883F00103DBB2002B01D085
:10AD6C00082309E1019B9DF803209A70019BEA33AB
:10AD7C0007220021184608F07DF9019B9B79002BD6
:10AD8C0003D0019B9B78012B0FD0019BDB79002B0F
:10AD9C0003D0019B9B78012B07D0019BDB79002B07
:10ADAC0014D0019B9B78022B10D1019B5B6B002B69
:10ADBC0008D0019B012283F8F120019B5B6B0820DA
:10ADCC00984703E0019B002283F8F1209DF80330A3
:10ADDC0019460198FFF76AFE03461A46019B9A70C2
:10ADEC00019B5B6B002B20D0019B9B78032B03D02A
:10ADFC00019B9B78042B18D1019B5B79002B14D001
:10AE0C00019B93F8F23083F00103DBB2002B0CD0E2
:10AE1C00019B002283F8F420019B012283F8F3208C
:10AE2C00019B5B6B0720984703E0019B002283F892
:10AE3C00F320019B3C3318220021184608F01AF924
:10AE4C00019B012283F83C20019B2C331846FFF711
:10AE5C006AFF0346002B06D0019BDB6ADAB2019B2A
:10AE6C0083F8512003E0019B012283F85120019BC0
:10AE7C0093F82430002B12D0019B28331846FFF78F
:10AE8C0052FF0346002B06D0019B9B6ADAB2019B52
:10AE9C0083F8522003E0019B012283F85220019B8E
:10AEAC00002283F85020019B9B78042B25D0042B87
:10AEBC0030DC032B19D0032B2CDC022B0DD0022BF6
:10AECC0028DC002B21D0012B24D1019B3C331946CB
:10AEDC000198FFF734FE03901DE0019B3C331946AB
:10AEEC000198FFF749FE039015E0019B3C3319468E
:10AEFC000198FFF7A6FE03900DE0019B3C33194629
:10AF0C000198FFF7D7FE039005E0019B002283F820
:10AF1C00312000E000BF019B9B78002B20D0019BCF
:10AF2C0003F15400019BD3F8E410019B3C331A4607
:10AF3C00FFF71BFD0390039B002B01D0039B1BE031
:10AF4C00019B93F85420019B93F83030194610461E
:10AF5C00FFF70FFD0390039B002B01D0039B0BE02D
:10AF6C00019B5B6B002B06D0019B5B6B019A92F8EB
:10AF7C003120104698470023184605B000BD00B597
:10AF8C0085B001900091009B0393019B1B88262B9D
:10AF9C0010D0262B13DC102B02D0112B05D00EE079
:10AFAC0001990398FFF720FD0AE001990398FFF738
:10AFBC002AFD05E001990398FFF74EFD00E000BF64
:10AFCC0000BF05B000BD000084B00346ADF80630EC
:10AFDC000023039316E00F49039A13469B00134476
:10AFEC009B000B441B88BDF806209A4207D1039A9C
:10AFFC0013469B0013449B00064A134406E0039B34
:10B00C0001330393039B002BE5D00023184604B0B7
:10B01C00704700BF602C002082B001900B46ADF849
:10B02C000230019BBDF802201A80019B00221A728B
:10B03C00019B054903F10A020B4603CB10605160DA
:10B04C0000BF02B0704700BF902C002082B001906E
:10B05C00019B4FF6FF721A8000BF02B0704788B098
:10B06C000390029111461A460B46ADF80630134672
:10B07C00ADF80430039B9B881A46BDF80630134488
:10B08C000793039B9B881946039B9B88BDF806205E
:10B09C00934228BF13469BB2CB1A0693039BDB88C3
:10B0AC001A46BDF8043013440593039BDB881946FC
:10B0BC00039BDB88BDF80420934228BF13469BB248
:10B0CC00CB1A0493029B5A88039B1B889A4205D384
:10B0DC00029B5A88039B5B889A4201D900231CE08F
:10B0EC00029B9B881A46069B934205D8029B9B8821
:10B0FC001A46079B934201D200230EE0029BDB8889
:10B10C001A46049B934205D8029BDB881A46059B82
:10B11C00934201D2002300E00123184608B0704787
:10B12C0000B583B00190054B9B69002B03D0034BFA
:10B13C009B690198984700BF03B000BD742C002098
:10B14C0000B587B003460091ADF80630009B5B7AE2
:10B15C00002B1AD1009B1B7A002B03D1164B5B687A
:10B16C00059302E0144B9B680593009B5B68BDF84C
:10B17C0006200599184603F0A5FD0490049B002BAE
:10B18C0016D00498FFF7CCFF12E0009B00221A7235
:10B19C00094B5B69002B0BD001238DF80C30BDF8EB
:10B1AC000630ADF80E30044B5B6903AA1046984785
:10B1BC0000BF07B000BD00BF742C002000B585B0E7
:10B1CC000190019BDB7B8DF80F30019B9B88ADF8C8
:10B1DC000C309DF80F30012B2CD14FF6FF70FFF780
:10B1EC00F3FE0290029B002B03D10420FFF798FF83
:10B1FC0021E0BDF80C3019460298FFF70DFF029BB9
:10B20C0003F10A00019B03F110014FF6FF7340F2AA
:10B21C00F312FFF724FF03461A46029B5A72074BA0
:10B22C00DB89002B07D1BDF80C3002991846FFF7CB
:10B23C0087FF00E000BF05B000BD00BF742C0020EC
:10B24C0000B587B00190019B9B88ADF81630BDF816
:10B25C0016301846FFF7B8FE0490049B002B0ED056
:10B26C00049B5B68184603F063FD0390039B002B63
:10B27C0002D00398FFF754FF0498FFF7E7FE00BFD6
:10B28C0007B000BD00B587B00190019B0633059354
:10B29C00059B1A88194BDB899A422BD1059B5B893C
:10B2AC00022B27D1019B9B88ADF81230BDF81230D0
:10B2BC001846FFF789FE0390039B002B1AD0059BC1
:10B2CC000C33184600F047FA0346002B06D0BDF8A5
:10B2DC00123003991846FFF733FF0BE0039B5B68B2
:10B2EC00184603F025FD0290029B002B02D0029819
:10B2FC00FFF716FF00BF07B000BD00BF742C002085
:10B30C0000B585B00190019B9B88ADF80E30BDF85F
:10B31C000E301846FFF758FE0290029B002B15D0FA
:10B32C00029B03F10A00019B03F108014FF6FF7326
:10B33C0040F2F312FFF793FE03461A46029B5A7231
:10B34C00BDF80E3002991846FFF7FAFE00BF05B0A3
:10B35C0000BD00B583B001900091019B1B88502B60
:10B36C0012D0502B18DC122B12D0122B14DC102BF9
:10B37C0002D0112B04D00FE00198FFF71FFF0CE057
:10B38C000198FFF75DFF08E00198FFF77BFF04E0F1
:10B39C000198FFF7B5FF00E000BF00BF03B000BD90
:10B3AC0030B58FB00190009100230293009B002BCD
:10B3BC001AD000230D9314E06B460D99184604F037
:10B3CC001FFE0346002B09D0029B5A1C02920D9AB9
:10B3DC0092B25B0038336B4423F82C2C0D9B013359
:10B3EC000D930D9B132BE7D9019B1D4602AC0FCC83
:10B3FC000FC50FCC0FC594E8070085E8070001982E
:10B40C000FB030BD00B583B00346ADF80630BDF8C3
:10B41C000630132B01D900230CE0BDF80630194679
:10B42C00064804F0BEFDBDF806301946044804F089
:10B43C00B8FD0123184603B000BD00BFA02C0020AE
:10B44C009C2C002000B585B00346ADF806300023D7
:10B45C0003930DE0039B9B00094A13440433BDF88E
:10B46C0006201146184604F0B3FD039B01330393E9
:10B47C00039B1D2BEED900BF00BF05B000BD00BF64
:10B48C00982C002000B583B00346ADF80630BDF80B
:10B49C0006301946024804F09BFD00BF03B000BD06
:10B4AC00A02C002030B59BB0184B9B68DB43189345
:10B4BC00164B5A6818AB1146184604F0FBFD189A47
:10B4CC006B4611461846FFF76BFF0DAC6D460FCD62
:10B4DC000FC40FCD0FC495E8070084E807000023C4
:10B4EC0019930BE0199B5B0068336B4433F8303CC9
:10B4FC001846FFF7A7FF199B013319930D9B199A57
:10B50C009A42EFD300BF00BF1BB030BD982C002077
:10B51C0000B583B001900B46ADF8023013468DF8A0
:10B52C0001309DF80130002B06D0BDF802301946D1
:10B53C00019804F036FD05E0BDF80230194601987B
:10B54C0004F046FD00BF03B000BD000000B585B09F
:10B55C0001900091019B9B88ADF80E30019B1B88DC
:10B56C001A2B23D01A2B66DC192B4ED0192B62DC2C
:10B57C00102B02D0112B13D05DE0FFF793FFBDF819
:10B58C000E301846FFF73EFF034683F00103DBB293
:10B59C00002B4DD0294AF021042002F077FC47E023
:10B5AC00BDF80E301846FFF76DFF44E0019B1B7A87
:10B5BC00C3F30313DBB28DF80D309DF80D30032B64
:10B5CC008CBF01230023DAB2BDF80E3019461C489B
:10B5DC00FFF79EFF9DF80D30022B8CBF012300233B
:10B5EC00DAB2BDF80E3019461648FFF791FF9DF8F8
:10B5FC000D30012B8CBF01230023DAB2BDF80E30C5
:10B60C0019461148FFF784FF15E0019B1B7A002BAC
:10B61C0010D1019B5B7AC3F3C0038DF80C309DF8FD
:10B62C000C20BDF80E3019460548FFF771FF01E0FC
:10B63C0000BF00E000BF00BF05B000BD083B02002A
:10B64C00B02C0020AC2C0020A82C002000B583B01E
:10B65C000346ADF80630BDF80630132B01D9002394
:10B66C0006E0BDF806301946034804F0C9FC034651
:10B67C00184603B000BD00BF9C2C002000B583B061
:10B68C000346ADF80630BDF806301846FFF7DEFF6E
:10B69C000346002B02D0BDF8063000E014231846F8
:10B6AC0003B000BD00B587B003900B460192ADF816
:10B6BC000A30019B002B01D10E2338E0019B0022A4
:10B6CC001A60039B002B01D10E2330E0039B1B68F7
:10B6DC00002B01D10E232AE0039BDB8803F003032C
:10B6EC009BB2002B01D0072321E0BDF80A3018468D
:10B6FC00FFF7C4FF03468DF817309DF81730142B55
:10B70C0001D1052313E0039B1B799DF817209A4266
:10B71C0001D304230BE0039B1B689DF817200399AE
:10B72C00C98801FB02F21A44019B1A6000231846D7
:10B73C0007B000BD82B00190019B1B781AB2019B2F
:10B74C0001331B781BB21B021BB213431BB29BB2FF
:10B75C00184602B0704700B585B001900198FFF70C
:10B76C00E9FF0346ADF80E30BDF80E3003F00103CF
:10B77C00DBB2184605B000BDA5DF704700BF184608
:10B78C00B5DF704700BF184682B00190019BF722CD
:10B79C001A80019B17225A80019B00221A71019B6F
:10B7AC0000225A7100BF02B0704784B00190009122
:10B7BC00009B9B88ADF80E30BDF80E2013465B0045
:10B7CC0013445B00019A134406330293009BDB7B0A
:10B7DC00012B04D1019B1A88029B1A8000E000BF48
:10B7EC0000BF04B0704700B583B001900091009B7E
:10B7FC009B881A4613465B0013445B00019A134462
:10B80C0006331846FFF7C0FF00BF03B000BD00B5FC
:10B81C0087B001900091009B9B88ADF81630009B7F
:10B82C005B89ADF81430BDF8162013465B00134449
:10B83C005B00019A134406330493049B1B88BDF8E8
:10B84C001420934228BF13469AB2049B5A80049B3F
:10B85C005B88172B38BF17239AB2049B5A80019B25
:10B86C00DB68002B15D0049B5B79002B11D040F6C4
:10B87C007723ADF80830BDF81630ADF80A30049BCC
:10B88C005B88ADF80C30019BDB6802AA114601986D
:10B89C009847049B00225A71049B00221A7100BF26
:10B8AC0007B000BD10B588B001900091009B9B883B
:10B8BC00ADF81A30009BDB88ADF81830BDF81A20B3
:10B8CC0013465B0013445B00019A13440633059343
:10B8DC00BDF81830172B38BF1723ADF81830059B5F
:10B8EC001B88BDF81820934228BF13469AB2059BBB
:10B8FC005A80059B00221A71059B1A88BDF81A30D4
:10B90C0011461846FFF73CFF0790079B002B0FD002
:10B91C00164A174BD31ADB081B0443F00104079893
:10B92C0005F088FD03461A461249204606F00FFA28
:10B93C00059B5B79002B16D1019BDB68002B13D088
:10B94C0040F67723ADF80C30BDF81A30ADF80E3058
:10B95C00059B5B88ADF81030019BDB6803AA114690
:10B96C000198984700E000BF08B010BD9C3202005F
:10B97C0044320200743B020010B586B00190009175
:10B98C00009B0593019B9B88ADF81230BDF81230DB
:10B99C00002B6ED1019B1B88552B19D0552B1CDC11
:10B9AC003A2B10D03A2B18DC102B02D0112B05D0CF
:10B9BC0013E001990598FFF7F8FE0FE0019905983F
:10B9CC00FFF711FF0AE001990598FFF720FF05E04A
:10B9DC0001990598FFF766FF00E000BFBDF8122043
:10B9EC00059913465B0013445B000B440A331B7828
:10B9FC00002B3FD0BDF81220059913465B00134471
:10BA0C005B000B4406331A88BDF8123011461846F9
:10BA1C00FFF7B2FE0390039B002B16D1BDF812204A
:10BA2C00059913465B0013445B000B440A33002258
:10BA3C001A70BDF81220059913465B0013445B0085
:10BA4C000B440B3301221A7014E0039B112B11D001
:10BA5C00094A0A4BD31ADB081B0443F00104039870
:10BA6C0005F0E8FC03461A460549204606F06FF936
:10BA7C0000E000BF06B010BD9C3202004432020050
:10BA8C00A43B0200B0DF704700BF184666DF70476A
:10BA9C0000BF184682B001900B46ADF80230019BF6
:10BAAC00002B01D10E230AE0019B1B78DE2B01D069
:10BABC00082304E0019BBDF802205A80002318469D
:10BACC0002B0704700B585B00190019B1B7A002B2A
:10BADC0018D0019B5B8800211846FFF7D7FF039015
:10BAEC00039B002B03D1019B00221A720AE0039BDB
:10BAFC00112B03D1019B01221A7203E0019B5B689D
:10BB0C000398984700BF05B000BD00B583B0019005
:10BB1C000091009B1B79012B0BD1009B1A88019B78
:10BB2C005B889A4205D1019B01221A720198FFF79A
:10BB3C00C9FF00BF03B000BD82B00190009100BFEF
:10BB4C0002B0704700B589B001900091009B1A8833
:10BB5C00019B5B889A4236D1009B02330793079B6B
:10BB6C001B78022B31D1079B1B7A042B07D0079B28
:10BB7C001B7A062B03D0079B1B7A052B27D102AB14
:10BB8C0000221A605A609A60DA6002238DF808303D
:10BB9C004FF4C073ADF80C30079B1B7A052B02D108
:10BBAC000023ADF80C30009B1B8802AA11461846E6
:10BBBC00FFF768FF0690069B002B09D0019B5B6882
:10BBCC000698984704E000BF02E000BF00E000BF09
:10BBDC0009B000BD00B585B001900091009B002B11
:10BBEC0043D0019B002B40D0009B0393039B1B78FD
:10BBFC00DE2B3AD1019B9A88039B5B889A4202D137
:10BC0C000398FFF75FFF019B1B88512B18D0512B1A
:10BC1C0028DC112B1BD0112B24DC012B02D0022B86
:10BC2C0007D01FE0019B043319460398FFF76DFF03
:10BC3C001BE0019B043319460398FFF77DFF14E0CA
:10BC4C00019B043319460398FFF77CFF0DE0019B21
:10BC5C009A88039B5B889A4206D1039B4FF6FF722E
:10BC6C005A8001E000BF00E000BF05B000BDADDFB1
:10BC7C00704700BF1846AEDF704700BF184600B5CE
:10BC8C008FB00190009100230393019B5869009B96
:10BC9C009B8803AA1946FFF705FD0D9005AB0822FA
:10BCAC000021184607F0E6F904AB06930223ADF821
:10BCBC0014300023ADF81630009B9888019B1B892B
:10BCCC0005AA1946FFF7D3FF0D900D9B002B26D12B
:10BCDC00019B9B69002B22D0069B1846FFF73BFD6E
:10BCEC000346002B1BD0039B002B02D0039B01228D
:10BCFC001A7007AB18220021184607F0BBF9022373
:10BD0C008DF81C30019B0893009B9B88ADF8243068
:10BD1C00039B0A93019B9B6907AA1046984700BF97
:10BD2C000FB000BD00B58DB001900091009B0633A3
:10BD3C000B93019B5869009B9B8803AA1946FFF73C
:10BD4C00B1FC0A9004AB18220021184607F092F9B6
:10BD5C00019B0593009B9B88ADF81830039B0793C0
:10BD6C000B9B1A88019B1B899A4225D10B9B5B89E3
:10BD7C00022B21D1039B002B38D00B9B0C33184684
:10BD8C00FFF7E9FC0346002B06D0039B01221A7037
:10BD9C0002238DF8103005E0039B00221A70032358
:10BDAC008DF81030019B9B69002B1FD0019B9B6968
:10BDBC0004AA1046984719E00B9B1A88019B9B8993
:10BDCC009A4214D1019B9B69002B10D000238DF853
:10BDDC0010300B9B0C3308930B9B5B89ADF8243014
:10BDEC00019B9B6904AA1046984700E000BF00BF66
:10BDFC000DB000BD00B58BB001900091019B58694E
:10BE0C00009B9B8802AA1946FFF74CFC0990099BE2
:10BE1C00002B1ED1029B1B78002B1BD0019B9B6916
:10BE2C00002B17D003AB18220021184607F022F97B
:10BE3C0001238DF80C30019B0493009B9B88ADF87B
:10BE4C001430029B0693019B9B6903AA10469847EA
:10BE5C0000E000BF0BB000BD00B585B001900091B3
:10BE6C00009B002B1ED0019B002B1BD0009B03932F
:10BE7C00019B1B88572B10D0572B15DC102B02D095
:10BE8C00502B05D010E001990398FFF7F8FE0CE059
:10BE9C0001990398FFF746FF07E001990398FFF714
:10BEAC00A9FF02E000BF00E000BF05B000BD00B577
:10BEBC008DB0039002910192ADF80230039B002BE0
:10BECC0001D10E2342E0039B5B6905AABDF8021069
:10BEDC001846FFF7E7FB0B900B9B0A930A9B002B72
:10BEEC0001D00A9B32E0BDF802304FF6FF7293424C
:10BEFC0002D0059B002B01D1052327E0059B1B7865
:10BF0C0083F00103DBB2002B01D008231EE0019B60
:10BF1C001B88F42B01D9072318E006AB1022002153
:10BF2C00184607F0A7F8039B9B88ADF81830029BC6
:10BF3C000993019B089301238DF81A3006AABDF8CA
:10BF4C00023011461846FFF796FE034618460DB010
:10BF5C0000BD000082B003468DF807309DF9073014
:10BF6C00002B13DB9DF8073003F01F0209499DF9E4
:10BF7C0007305B09012000FA02F2203341F823203C
:10BF8C00BFF34F8F00BFBFF36F8F00BF00BF02B076
:10BF9C00704700BF00E100E0044BD3F80034002BE5
:10BFAC0014BF01230023DBB2184670470000014088
:10BFBC0008B5FFF7F1FF034683F00103DBB2002B5A
:10BFCC0004D000F07BFB024B00229A7000BF08BD2E
:10BFDC00142D002000B583B000230193174B1B7860
:10BFEC00002B02D0852301931CE0144B00229A6095
:10BFFC00124B00225A60114B00221A610F4B002287
:10C00C00DA600F4800F038FB019006F0E5FE0346BD
:10C01C0083F00103DBB2002B01D000F047FB074B90
:10C02C0001221A70FFF7B8FF0346002B02D0034B16
:10C03C0001229A70019B184603B000BD142D0020FC
:10C04C00F9C0010084B00190019B1B680393039B12
:10C05C00002B03D0039B1A68019B1A60039B1846A4
:10C06C0004B0704700B583B000238DF807300DF194
:10C07C000703184602F0EEFE094BDB68013B084A49
:10C08C00D360074BDB68002B01D1FFF791FF9DF8C4
:10C09C000730184602F0E7FE00BF03B000BD00BF3A
:10C0AC00142D002000B585B003468DF807309DF89F
:10C0BC000730002B02D10B4B039301E00A4B039387
:10C0CC000398FFF7BFFF0290029B002B06D0029B48
:10C0DC005B689DF8072010469847F1E700BF00BF4A
:10C0EC0005B000BD1C2D0020242D002000B583B010
:10C0FC0003468DF807309DF80730002B05D1094B0E
:10C10C0001225A700020FFF7CDFF9DF80730012B5C
:10C11C0005D1044B01229A700120FFF7C3FF00BF29
:10C12C0003B000BD142D002000B583B00190009128
:10C13C00019B002B05D1044B01225A700020FFF704
:10C14C00B1FF00BF03B000BD142D002000B585B0B9
:10C15C00034600918DF807309DF80730032B29D04A
:10C16C00032B2CDC002B02D0012B04D027E0002069
:10C17C00FFF7F0FE24E000238DF80F300DF10F03D4
:10C18C00184602F067FE104B1B7883F00103DBB2FC
:10C19C00002B01D0FFF71EFF0B4BDB6801330A4A63
:10C1AC00D360094B01229A709DF80F30184602F0AB
:10C1BC005AFE05E000F07AFAFFF754FF00E000BFEA
:10C1CC0000BF05B000BD00BF142D002000B585B028
:10C1DC000190019B002B0AD0064B43F00103039303
:10C1EC00019B9B010293039B0298984700E000BFC0
:10C1FC0005B000BD003C020082B001904FF0A0439E
:10C20C00184602B0704700B585B0019001AB1846D6
:10C21C00FFF7F2FF0390019B012202FA03F3194688
:10C22C00039800F032F800BF05B000BD00B585B032
:10C23C00019001AB1846FFF7DFFF0390019B012231
:10C24C0002FA03F31946039800F029F800BF05B071
:10C25C0000BD00B585B0019001AB1846FFF7CCFFCF
:10C26C000390039800F009F80246019B22FA03F3AD
:10C27C0003F00103184605B000BD82B00190019B8C
:10C28C00D3F81035184602B0704782B00190009177
:10C29C00019B009AC3F8082500BF02B0704782B01A
:10C2AC0001900091019B009AC3F80C2500BF02B0CD
:10C2BC00704700B585B001904FF0A042019B1B6800
:10C2CC0003F5E07340F20C6142F823104FF0A042EA
:10C2DC00019B5B6803F5E07340F20C6142F823109C
:10C2EC00019B1B681846FFF78EFF019B5B68184685
:10C2FC00FFF789FF4FF0A042019B1B6803F5E07329
:10C30C0040F20D6142F823104FF0A042019B5B6894
:10C31C0003F5E07340F20D6142F823100420FFF79F
:10C32C0055FF002303931EE0019B5B681846FFF743
:10C33C0090FF0346002B03D0039B002B17D124E066
:10C34C00019B1B681846FFF771FF0420FFF73EFFA7
:10C35C00019B1B681846FFF756FF0420FFF736FFBA
:10C36C00039B01330393039B082BDDDD00E000BF2F
:10C37C00019B5B681846FFF759FF0420FFF726FF67
:10C38C00019B5B681846FFF73EFF05B000BD00003F
:10C39C0000B589B001900091009B0793019B1B781D
:10C3AC008DF80C30019B1B798DF81030019B5B795B
:10C3BC008DF81130019B9B68DBB28DF81230019B1C
:10C3CC00DB68DBB28DF81330019B1B690593019B75
:10C3DC005B690693064A079B52F823300549079A76
:10C3EC0051F8221003AA1046984700BF09B000BDAF
:10C3FC00282D00202C2D002000B587B00390029131
:10C40C0001920093039B1B7805931249059B019A9B
:10C41C0041F823201049059B009A41F82320029BE8
:10C42C005B7B002B02D00298FFF743FF00230493A1
:10C43C00039B181D019B002B01D0084A00E0002231
:10C44C00059B029901F000F80490049B184607B074
:10C45C0000BD00BF282D00202C2D00209DC3010005
:10C46C0082B003468DF807309DF90730002B0CDBAA
:10C47C009DF8073003F01F0205499DF907305B0951
:10C48C00012000FA02F241F8232000BF02B07047ED
:10C49C0000E100E082B0034600918DF807309DF971
:10C4AC000730002B0ADB009BDAB20C499DF90730F0
:10C4BC005201D2B20B4483F800230BE0009BDAB29A
:10C4CC0007499DF8073003F00F03043B5201D2B229
:10C4DC000B441A7600BF02B0704700BF00E100E0C9
:10C4EC0000ED00E082B00190019B1B0B5BB2184683
:10C4FC0002B0704700B583B003460A468DF807308A
:10C50C0013468DF806309DF806209DF9073011462C
:10C51C001846FFF7BFFF00BF03B000BD00B583B0E6
:10C52C0003468DF807309DF907301846FFF798FF42
:10C53C0000BF03B000BD000082B003468DF8073089
:10C54C000E4A9DF90730002B00DA1F335B115BB2EA
:10C55C0052F823209DF90730594203F01F0301F0D4
:10C56C001F0158BF4B425BB222FA03F303F00103E5
:10C57C00C3F30003DBB2184602B0704700E100E0E1
:10C58C0082B001904FF08042019BC2F8083300BF8B
:10C59C0002B0704782B003468DF807309DF8073023
:10C5AC0003F1804301221A6000BF02B0704784B0CF
:10C5BC000346ADF80630BDF8063003F18043002287
:10C5CC001A60BDF8063003F180431B680393039B8C
:10C5DC0000BF04B0704782B00346ADF80630BDF81A
:10C5EC00063003F180431B68002B14BF012300238A
:10C5FC00DBB2184602B0704782B001904FF0804217
:10C60C00019BC2F8183500BF02B070474FF0804351
:10C61C00D3F818341B0C03F00103C3F30003DBB293
:10C62C001846704700B583B006238DF807304FF0DD
:10C63C008040FFF757FF03461846FFF77DFF034680
:10C64C0083F00103DBB2002B13D04FF08040FFF7D7
:10C65C0049FF03461A469DF8073019461046FFF766
:10C66C0049FF4FF08040FFF73DFF03461846FFF7A8
:10C67C0055FF00BF03B000BD84B0019000230393AD
:10C68C00094B1B79002B02D08523039308E0064B42
:10C69C0000225A71044A019B1360034B01221A7148
:10C6AC00039B184604B07047302D002008B5FFF7E7
:10C6BC00B9FF0020FFF7A0FF00BF08BD08B502209E
:10C6CC00FFF75EFF4FF48270FFF771FF0C20FFF74E
:10C6DC0061FF00BFFFF79AFF0346002BFAD100BFA2
:10C6EC0000BF08BD08B54FF48070FFF774FF034618
:10C6FC00002B0AD04FF48070FFF759FF0120FFF791
:10C70C003FFF1F4B1B68002098474FF48270FFF7C8
:10C71C0062FF0346002B0AD04FF48270FFF747FFED
:10C72C000220FFF72DFF164B1B68012098474FF492
:10C73C008870FFF750FF0346002B0AD04FF4887027
:10C74C00FFF735FF1020FFF71BFF0D4B1B68022076
:10C75C0098474FF48670FFF73EFF0346002B0DD031
:10C76C004FF48670FFF723FF0820FFF709FF044BF7
:10C77C0000225A71024B1B680320984700BF08BD6A
:10C78C00302D002000B583B00346ADF80630BDF85F
:10C79C000630184600F024F803461B68012B0CBF2A
:10C7AC0001230023DBB2184603B000BD00B585B0F1
:10C7BC000346ADF80630BDF80630184600F010F808
:10C7CC0003461A4600231360BDF80630184600F0E5
:10C7DC0007F803461B680393039B00BF05B000BD1D
:10C7EC0082B00346ADF80630BDF8063003F1804345
:10C7FC0003F5C043184602B07047000082B00190A8
:10C80C00034BD3F80423019B1340184602B0704726
:10C81C000060004082B00190054A019B03F5A273B1
:10C82C0052F823301B0A03F01F03184602B070475E
:10C83C000060004082B00190064A019B03F5A27390
:10C84C0052F823301B0C03F00303DBB2184602B082
:10C85C00704700BF0060004082B001904FF0A043D1
:10C86C00184602B0704700B585B001900B468DF8A4
:10C87C00033001AB1846FFF7EFFF0390019A039BBF
:10C88C0002F5E07253F82230019A23F44031039BF5
:10C89C0002F5E07243F82210019A039B02F5E07254
:10C8AC0053F822109DF803301B04019A1943039B83
:10C8BC0002F5E07243F8221000BF05B000BD00B5D0
:10C8CC0085B0019001AB1846FFF7C6FF0390019AA3
:10C8DC00039B02F5E07253F822301B0C03F00303A8
:10C8EC00DBB2184605B000BD86B0039002910192F0
:10C8FC004FF0A0430493039B059319E0059B9B0009
:10C90C0018336B4453F8083CD3F82025019B1A606C
:10C91C00059B9B0018336B4453F8083C019A126832
:10C92C00C3F82025019B04330193059B0133059328
:10C93C00039A029B1344059A9A42DFD300BF00BFAF
:10C94C0006B0704700B585B0019001AB1846FFF7F3
:10C95C0083FF0390019B012202FA03F31A46039B07
:10C96C00C3F8202500BF05B000BD84B00190009134
:10C97C00009B0393019BDB080293019B03F00703CD
:10C98C0001930122019B02FA03F30399029A0A44D0
:10C99C0012781340184604B07047000082B0019022
:10C9AC00044A019B1344303393F90030184602B00B
:10C9BC00704700BF382D002082B00190034A019BC4
:10C9CC0052F82330184602B0704700BF382D0020B3
:10C9DC0084B00190074A019B1344503393F9003003
:10C9EC008DF80F309DF80F3023F0C003184604B0BB
:10C9FC00704700BF382D002084B00190074A019B7E
:10CA0C001344503393F900308DF80F309DF80F30EC
:10CA1C009B09DBB2184604B0704700BF382D0020CC
:10CA2C0000B585B00190019A01210020FFF75CFF51
:10CA3C00002303930BE0039B9B00019A13441B6898
:10CA4C00002B01D0012306E0039B01330393039BCE
:10CA5C00002BF0D00023184605B000BD00B589B0FE
:10CA6C000190002307935DE0354A079B1344503334
:10CA7C0093F90030B3F1FF3F50D00798FFF7A8FFB0
:10CA8C00059001990598FFF770FF0346002B46D0DF
:10CA9C000798FFF7B1FF03468DF813300598FFF7A1
:10CAAC000EFF03468DF812309DF81230022B03D185
:10CABC0003238DF81B3002E002238DF81B309DF808
:10CACC001B3019460598FFF7CEFE0598FFF73AFF85
:10CADC000598FFF763FF03461846FFF76DFF0390B9
:10CAEC00039B002B1BD09DF81330032B0FD09DF80C
:10CAFC001230022B03D19DF81330012B07D09DF877
:10CB0C001230032B0BD19DF81330022B07D19DF85B
:10CB1C001320039B11460598984700E000BF079B24
:10CB2C0001330793079B032B9ED90198FFF778FFDE
:10CB3C000346002B95D100BF00BF09B000BD00BF5C
:10CB4C00382D002000B589B00023069300230093F4
:10CB5C004FF48073ADF81230012307930023059333
:10CB6C0021E0BDF812301846FFF70CFE0346002BEF
:10CB7C000ED00798FFF742FE0346002B08D0BDF8F5
:10CB8C0012301846FFF712FE069A079B13430693C2
:10CB9C00079B5B000793BDF812300433ADF81230DD
:10CBAC00059B01330593059B072BDAD94FF4BE7017
:10CBBC00FFF7E8FD0346002B0DD04FF4BE70FFF7D6
:10CBCC00F5FD069B43F0004306936B461A46012184
:10CBDC000020FFF789FE069BDBB2002B29D0012336
:10CBEC0007930023059321E0079A069B1340002B23
:10CBFC0016D00598FFF70EFE03900598FFF71AFE66
:10CC0C0003468DF80B300598FFF7D6FE0190019B7B
:10CC1C00002B05D09DF80B20019B114603989847DB
:10CC2C00079B5B000793059B01330593059B072B23
:10CC3C00DAD9069B002B03DA6B461846FFF70EFF7A
:10CC4C0000BF09B000BD000008B5024B1B68984737
:10CC5C0008BD00BF942D002082B00190019B044AB6
:10CC6C00934201D1034B00E00023184602B07047F9
:10CC7C0000200040942D002000B587B00190009159
:10CC8C000198FFF7E9FF0490049B002B25D00023AB
:10CC9C008DF8173000238DF80B300DF10B0318466F
:10CCAC0002F0D8F8049B1B79002B03D001238DF8DC
:10CCBC00173005E0049B009A1A60049B01221A713C
:10CCCC009DF80B30184602F0CEF89DF81730002B6B
:10CCDC0003D011230393039B02E000230393039BD4
:10CCEC00184607B000BD82B003468DF807309DF89A
:10CCFC00073003F1804303F5E04301221A6000BFC3
:10CD0C0002B0704782B00346ADF80630BDF806306D
:10CD1C0003F1804303F5E0431B68002B14BF012390
:10CD2C000023DBB2184602B0704784B00346ADF85E
:10CD3C000630BDF8063003F1804303F5E0430022D2
:10CD4C001A60BDF8063003F1804303F5E0431B681D
:10CD5C000393039B00BF04B07047000082B00190A6
:10CD6C000091054A019BC2F82C36034A009BC2F87D
:10CD7C00303600BF02B070470070004000B58FB075
:10CD8C004FF48270FFF7BEFF0346002B46D04FF4E2
:10CD9C008270FFF7CAFF8E4B93F82E3083F001039D
:10CDAC00DBB2002B04D18A4B93F82F30002B35D0FB
:10CDBC0000238DF81C30864B5B680893844B1B89D1
:10CDCC009BB2ADF82430824BDB68002B03D1804B37
:10CDDC0000221A7419E07E4B1A8B7D4B5A837C4BC4
:10CDEC00DB687B4A53607A4B1A8B794B1A81784BF0
:10CDFC000022DA60764B93F82E3083F00103DBB21D
:10CE0C00002B02D00020FFF76EFF714B1B6807AAA6
:10CE1C00104698476E4B002283F82F206C4B93F8EA
:10CE2C002E30002B5ED04FF48070FFF76BFF034663
:10CE3C00002B57D04FF48070FFF777FF644B5B8B60
:10CE4C00634A92F82D2093421BD9614B5B8B604A4D
:10CE5C0092F82D209B1A9AB25D4B5A835C4B5A6800
:10CE6C005B4B1B899BB21946594B5B8BCB1A5B00F6
:10CE7C001344574A92F82D2011461846FFF76EFFBF
:10CE8C0029E0534B5B8B524A92F82D20934214D1DC
:10CE9C004F4BDB68002B10D04D4B012283F82F2019
:10CEAC004B4B00225A834A4BDB68494A92F82D209F
:10CEBC0011461846FFF752FF0DE0454B5B8B444A79
:10CECC0092F82D20934206D1414B012283F82F205A
:10CEDC003F4B00225A834FF48270FFF726FF042049
:10CEEC00FFF701FF4FF48870FFF70CFF0346002B90
:10CEFC000ED04FF48870FFF718FF354B00221A74D0
:10CF0C0002238DF81030324B1B6804AA1046984748
:10CF1C004FF48A70FFF7F6FE0346002B07D04FF450
:10CF2C008A70FFF702FF2A4B00221A744CE0284B40
:10CF3C005B690D9345E00D9B0A930A9B002B01D175
:10CF4C00202303E00A9BB3FA83F3DBB20C934FF07C
:10CF5C0000420C9B22FA03F3DB430D9A13400D9312
:10CF6C000C9B9BB246339BB29B00ADF82E30BDF8A8
:10CF7C002E301846FFF7C6FE0346002B21D0BDF815
:10CF8C002E301846FFF7D1FE01238DF80430BDF882
:10CF9C002E30A3F58C73DB08DBB28DF80830BDF8AE
:10CFAC002E30A3F58C7303F00403C3F3800383F0DA
:10CFBC000103DBB28DF80930054B1B6801AA104642
:10CFCC0098470D9B002BB6D100BF0FB000BD00BF22
:10CFDC009C2D002084B001900B46ADF80230BDF8BA
:10CFEC000230019A134400221A60BDF80230019AF3
:10CFFC0013441B680393039B00BF04B0704782B0BB
:10D00C0001900B46ADF80230BDF80230019A134482
:10D01C001B68002B14BF01230023DBB2184602B09F
:10D02C00704782B001904FF0A043184602B0704791
:10D03C0000B585B0019001AB1846FFF7F2FF0390E5
:10D04C00019B012202FA03F31946039800F016F82B
:10D05C0000BF05B000BD00B585B0019001AB18460E
:10D06C00FFF7DFFF0390019B012202FA03F319463D
:10D07C00039800F00DF800BF05B000BD82B0019020
:10D08C000091019B009AC3F8082500BF02B07047BD
:10D09C0082B001900091019B009AC3F80C2500BF4F
:10D0AC0002B0704700B583B00190019BDB7FFF2B72
:10D0BC000ED0019B9B7F002B05D0019BDB7F18467C
:10D0CC00FFF7C9FF04E0019BDB7F1846FFF7B0FFB9
:10D0DC00019B00225A77019B00221A72019B1B684C
:10D0EC00019A02F10800019A52681146984700BF54
:10D0FC0003B000BD00B583B0019000914FF48C716A
:10D10C000198FFF77CFF0346002B07D04FF48C717E
:10D11C000198FFF75FFF0098FFF7C4FF00BF03B053
:10D12C0000BD000008B503494FF04020FFF7E2FFB7
:10D13C0000BF08BDCC2D002082B003468DF807300F
:10D14C009DF90730002B0CDB9DF8073003F01F0214
:10D15C0005499DF907305B09012000FA02F241F8FC
:10D16C00232000BF02B0704700E100E082B003460C
:10D17C0000918DF807309DF90730002B0ADB009BDE
:10D18C00DAB20C499DF907305201D2B20B4483F844
:10D19C0000230BE0009BDAB207499DF8073003F03F
:10D1AC000F03043B5201D2B20B441A7600BF02B0FB
:10D1BC00704700BF00E100E000ED00E082B001909C
:10D1CC00019B1B0B5BB2184602B0704700B583B0D5
:10D1DC0003460A468DF8073013468DF806309DF845
:10D1EC0006209DF9073011461846FFF7BFFF00BF18
:10D1FC0003B000BD00B583B003468DF807309DF930
:10D20C0007301846FFF798FF00BF03B000BD82B08F
:10D21C0001900B468DF803309DF80330019A1344AE
:10D22C0001221A6000BF02B0704784B001900B4617
:10D23C00ADF80230BDF80230019A134400221A6096
:10D24C00BDF80230019A13441B680393039B00BF83
:10D25C0004B0704782B001900B46ADF80230BDF8B7
:10D26C000230019A13441B68002B14BF01230023C6
:10D27C00DBB2184602B0704782B001900091019B5E
:10D28C00009AC3F8042300BF02B0704782B001902B
:10D29C000091019B009AC3F8082300BF02B07047AD
:10D2AC0082B00190019B0522C3F8002500BF02B09B
:10D2BC00704782B00190019B0022C3F8002500BF8B
:10D2CC0002B0704784B0039002910192039B029AC2
:10D2DC00C3F80825039B019AC3F80C2500BF04B0C2
:10D2EC00704782B001900091019B009AC3F82425ED
:10D2FC0000BF02B0704784B00190019BD3F8C434D6
:10D30C000393019B039AC3F8C424039B184604B0EF
:10D31C00704782B001900B468DF803309DF80320C6
:10D32C00019BC3F8882500BF02B0704782B0019002
:10D33C00019BD3F81835DBB2184602B0704782B0A7
:10D34C0001900B468DF803309DF80320019BC3F828
:10D35C001C2500BF02B0704782B001900091019B68
:10D36C00009AC3F8002200BF02B0704782B001904F
:10D37C004FF0A043184602B0704700B585B001903D
:10D38C00084611461A4603468DF803300B468DF8B5
:10D39C00023013468DF8013001AB1846FFF7E6FF5B
:10D3AC0003909DF803209DF802305B001A439DF812
:10D3BC0001309B001A439DF818301B0242EA03010E
:10D3CC009DF81C301B04019A1943039B02F5E07273
:10D3DC0043F8221000BF05B000BD84B001900323B8
:10D3EC000393019B03F00103002B02D04FF4024383
:10D3FC000393019B03F00203002B02D048F201239C
:10D40C000393019B03F00403002B02D048F2022388
:10D41C000393039B184604B0704700B583B001908A
:10D42C000091009B5A6B009B9B6A9A4207D0019813
:10D43C00FFF73FFF0198FFF733FF002300E00123C4
:10D44C00184603B000BD000000B58BB005900491E8
:10D45C0003920293059B1B791A4613461B019B1AD8
:10D46C009B00424A13440793079B93F82E30002BE2
:10D47C0003D008230993099B74E0059B1A68059B4C
:10D48C001B7919463A4B53F8213019461046FFF7D1
:10D49C00F3FB0346002B03D011230993099B61E096
:10D4AC00079B039A1A60079B029A5A60079B0022FB
:10D4BC009A60079B002283F82D20079B002283F89B
:10D4CC003120079B002283F83020049B5A7B079B5A
:10D4DC0083F83820049B18680023019306230093DB
:10D4EC00032300220021FFF748FF049B5868002308
:10D4FC00019306230093032300220021FFF73DFF35
:10D50C00059B1B680893049B1968049B5B681A466F
:10D51C000898FFF7D7FE049B9B6819460898FFF7FD
:10D52C00E0FE079B1B68002B15D0059B1B6818465B
:10D53C00FFF744FE03461A46049B1B7B1946104614
:10D54C00FFF744FE059B1B681846FFF737FE0346A2
:10D55C001846FFF74FFE079B012283F82E2000236D
:10D56C000993099B18460BB000BD00BFF02D00209D
:10D57C00303C020000B585B00190019B1B791A4626
:10D58C0013461B019B1A9B00074A13440393019BF0
:10D59C001B6802930298FFF783FE039B022283F819
:10D5AC002E2000BF05B000BDF02D002000B583B0CB
:10D5BC0001900091009B5A6B009B9B6A9A420AD285
:10D5CC00009B5A6A009B5B6B13441B7819460198AD
:10D5DC00FFF7B5FE1EE0009B93F82C30002B05D016
:10D5EC001C210198FFF713FE002314E0009B1B6A1B
:10D5FC0003F04003002B09D01C210198FFF707FE14
:10D60C00009B012283F82D20002304E014210198B3
:10D61C00FFF7FDFD0123184603B000BD10B582B025
:10D62C0001900091009B5A6B009B9B6A9A4244D2DA
:10D63C00009B5A6A009B5B6BD4180198FFF776FE2F
:10D64C0003462370009B5B6B5A1C009B5A63009B28
:10D65C005A6B009B9B6A013B9A420AD1009B1B6A46
:10D66C0003F04003002B04D102210198FFF774FE54
:10D67C001FE0009B5A6B009B9B6A9A4207D1009B50
:10D68C001B6A03F04003002B01D1012316E0009B21
:10D69C005A6B009B9B6A9A420BD1009B1B6A03F04E
:10D6AC004003002B05D0009B022283F82D20002381
:10D6BC0004E020210198FFF7AAFD0123184602B0CF
:10D6CC0010BD00B585B00190009100238DF80F308E
:10D6DC004FF482710198FFF7BDFD0346002B07D074
:10D6EC004FF482710198FFF7A0FD01238DF80F30E4
:10D6FC00009B93F82F30002B0FD04FF492710198B0
:10D70C00FFF793FD4FF48E710198FFF78EFD4FF4E8
:10D71C0084710198FFF789FD78E04FF492710198BC
:10D72C00FFF798FD0346002B0DD04FF49271019832
:10D73C00FFF77BFD14210198FFF769FD009B012287
:10D74C0083F82F2062E04FF48E710198FFF782FD71
:10D75C000346002B2BD04FF48E710198FFF765FD1B
:10D76C00009B5B6B5A1C009B5A634FF4927101989F
:10D77C00FFF770FD0346002B0DD04FF4927101980A
:10D78C00FFF753FD14210198FFF741FD009B012287
:10D79C0083F82F203AE000990198FFF707FF034622
:10D7AC0083F00103DBB2002B30D0002354E04FF4A4
:10D7BC0084710198FFF74EFD0346002B26D04FF4E1
:10D7CC0084710198FFF731FD4FF492710198FFF7C6
:10D7DC0041FD0346002B0DD04FF492710198FFF7D9
:10D7EC0024FD14210198FFF712FD009B012283F800
:10D7FC002F200BE000990198FFF710FF034683F0F0
:10D80C000103DBB2002B01D0002325E09DF80F3083
:10D81C00002B20D0009B002283F82D20009B93F836
:10D82C002F3083F00103DBB2002B12D0009901984A
:10D83C00FFF7F3FD0346002B14BF01230023DBB2DB
:10D84C0083F00103DBB203F00103DAB2009B83F82F
:10D85C002F20002300E00123184605B000BD000076
:10D86C0000B587B00190009100230593374B0393CB
:10D87C004FF482710198FFF7D8FC4FF49271019824
:10D88C00FFF7D3FC4FF48E710198FFF7CEFC4FF4E9
:10D89C0084710198FFF7C9FC00210198FFF75CFD2A
:10D8AC00009B00225A63009B002283F82F2020212A
:10D8BC000198FFF7ACFC009B93F82D30012B03D0A3
:10D8CC0008210198FFF7A3FC00990198FFF76EFE61
:10D8DC00009B1B68002B0DD0009B40F286229A60A7
:10D8EC00009B9B6819460198FFF7C6FC2AE0039B36
:10D8FC00013B0393039B002B06DD00990198FFF776
:10D90C00E0FE0346002BF2D1009B93F82F30002B46
:10D91C000DD00198FFF7EFFC0490049B002B04D072
:10D92C000498FFF75AFD059001E003230593039B30
:10D93C00002B07DC0198FFF7BCFC0198FFF7B0FC4B
:10D94C0003230593059B184607B000BDA086010074
:10D95C0000B587B001900091002305933D4B0393D4
:10D96C004FF482710198FFF760FC4FF492710198AB
:10D97C00FFF75BFC4FF48E710198FFF756FC4FF4E8
:10D98C0084710198FFF751FC009B00225A63009BA5
:10D99C00002283F82F20009B9B6A012B0AD1009B4D
:10D9AC001B6A03F04003002B04D102210198FFF7FE
:10D9BC00D3FC03E001210198FFF7CEFC2021019854
:10D9CC00FFF725FC009B93F82D30022B03D0002190
:10D9DC000198FFF71CFC009B1B68002B0DD0009BD3
:10D9EC0040F286229A60009B9B6819460198FFF7CB
:10D9FC0043FC2AE0039B013B0393039B002B06DDB6
:10DA0C0000990198FFF75DFE0346002BF2D1009BB5
:10DA1C0093F82F30002B0DD00198FFF76CFC04907D
:10DA2C00049B002B04D00498FFF7D7FC059001E071
:10DA3C0003230593039B002B07DC0198FFF739FCAC
:10DA4C000198FFF72DFC03230593059B184607B09F
:10DA5C0000BD00BFA086010030B587B003900291D5
:10DA6C000192009300230593029B93F82D30012B18
:10DA7C0005D1019B1B78012B01D108236DE0029B82
:10DA8C0093F82D30022B05D1019B1B78012B01D073
:10DA9C00082362E032490398FFF7F8FB029B93F8E6
:10DAAC003030DBB2002B09D0029B9B6819460398DF
:10DABC00FFF7E2FB11230593059B4EE0009B03F05F
:10DACC000403C3F3800383F00103DAB2029B83F8EF
:10DADC003020029B009A1A62029B019A03F10C04FB
:10DAEC0015460FCD0FC42B682360019B5A68029B0F
:10DAFC009A62019BDA68029B5A62019B5B78194619
:10DB0C000398FFF706FC019B1B78012B17D0019B98
:10DB1C001B78002B04D1009B03F02003002B01D0B9
:10DB2C00012300E0002303F00103DAB2029B83F827
:10DB3C002C2002990398FFF793FE059004E00299BC
:10DB4C000398FFF705FF0590029B1B68002B03D180
:10DB5C00029B002283F83020059B184607B030BD8D
:10DB6C008642040000B587B0039002910192002315
:10DB7C000593039B1B791A4613461B019B1A9B00AA
:10DB8C00074A13440493039B1868019B029A049957
:10DB9C00FFF762FF0590059B184607B000BD00BF5C
:10DBAC00F02D002000B58BB00390019200930B4632
:10DBBC008DF80B3000238DF814309DF80B308DF858
:10DBCC001530009B069300230793019B08930023B9
:10DBDC0009939DF83030002B01D0202200E0002268
:10DBEC0005AB19460398FFF7BDFF034618460BB06B
:10DBFC0000BD00B58BB00390019200930B468DF8DD
:10DC0C000B3001238DF814309DF80B308DF8153046
:10DC1C00009B069300230793019B08930023099311
:10DC2C0005AB002219460398FFF79CFF03461846E4
:10DC3C000BB000BD30B58BB00190009100990198EC
:10DC4C00FFF73FFD0346002B40F08480009B93F8C8
:10DC5C002F3083F00103DBB2002B31D0009B1B7BF8
:10DC6C00022B03D0009B1B7B032B29D1009B5A6AF0
:10DC7C00009B9B699A4223D1009BDA69009B5A62F4
:10DC8C00009B5A69009B9A62009B1B6A03F020035D
:10DC9C00C3F34013DAB2009B83F82C20009B0022C4
:10DCAC0083F82D20009B1B7B032B04D1009901983A
:10DCBC00FFF7D6FD4FE000990198FFF749FE4AE0C7
:10DCCC00009B04AC03F10C050FCD0FC42B68236033
:10DCDC00009B93F82F30002B22D00198FFF70BFB01
:10DCEC000990099B03F00203002B03D001238DF84C
:10DCFC000C3018E0099B03F00403002B03D0022323
:10DD0C008DF80C300FE0099B03F00103002B03D0BE
:10DD1C0003238DF80C3006E004238DF80C3002E060
:10DD2C0000238DF80C30009B002283F83020009BE0
:10DD3C001B6A03F00403002B04D0009B93F82F30D4
:10DD4C00002B08D0009B1B68009A516803AA104650
:10DD5C00984700E000BF0BB030BD000008B5034988
:10DD6C000348FFF767FF00BF08BD00BFF02D002080
:10DD7C000030004084B00346ADF80630BDF80630E4
:10DD8C0003F1804303F5803300221A60BDF806309E
:10DD9C0003F1804303F580331B680393039B00BF9F
:10DDAC0004B0704782B00346ADF80630BDF80630BB
:10DDBC0003F1804303F580331B68002B14BF012350
:10DDCC000023DBB2184602B07047000008B54FF4D0
:10DDDC008070FFF7E7FF0346002B06D0044B1B684F
:10DDEC0098474FF48070FFF7C5FF00BF08BD00BF18
:10DDFC002C2E002086B003900291019201238DF805
:10DE0C0017309DF81730204A039B13601E4A029B63
:10DE1C0053601D4A019B9360039B44F201029342A1
:10DE2C0012D0039B44F20202934220D1019B164A6A
:10DE3C00D360154BDB681B68134A9361124BDB688C
:10DE4C005B68114AD36112E0019B0F4A13610E4BC0
:10DE5C001B699B680C4A53610B4B1B691B680A4A74
:10DE6C009361094B1B695B68074AD36100BF72B6AB
:10DE7C0000BF00BF9DF81730DBB2002BFAD162B6A1
:10DE8C0000BF00BF06B07047302E002000B583B035
:10DE9C0002900091019244F2010071466A4600F032
:10DEAC0003F803B000BD00BF30B58BB007900691EE
:10DEBC00059272B600BF04F005FA03F0BFFF0346EB
:10DECC00002BFAD1079B44F2020293422FD0079BFE
:10DEDC0044F20202934269D8079B44F20102934236
:10DEEC0037D0079B44F2010293425FD8079B012B6A
:10DEFC0005D0079B41F2010293420CD056E0394AFF
:10DF0C00394BD31ADB081B0443F00103374918467D
:10DF1C0003F010FF57E0334A334BD31ADB081B04D2
:10DF2C0043F001033249184603F004FF4BE0059B14
:10DF3C0009932C4A2C4BD31ADB081B0443F0010029
:10DF4C00099B5B681A46099B1B682A4903F00FFF63
:10DF5C0039E0059B0893234A234BD31ADB081B0497
:10DF6C0043F00104089B9D68089B9B68184603F0CE
:10DF7C0061FA03461846089B5B681946089B1B68A8
:10DF8C00069A02920193009103462A461A492046AA
:10DF9C0003F02CFF134A144BD31ADB081B0443F079
:10DFAC0001031649184603F0C5FE0CE00D4A0E4B52
:10DFBC00D31ADB081B0443F00103069A10491846D8
:10DFCC0003F0C5FE00BF0F4B1B6803F00103002BD1
:10DFDC0000D000BE059A06990798FFF70BFF00BF0B
:10DFEC000BB030BD7C32020044320200443C0200D3
:10DFFC00643C0200883C0200A43C0200CC3C0200C1
:10E00C00E03C0200F0ED00E082B00190019B03F0D7
:10E01C000303002B0CBF01230023DBB2184602B014
:10E02C007047000082B003468DF807309DF807302A
:10E03C009AB2064B1B889A4204D29DF807300133E2
:10E04C00DBB200E00023184602B070475C2E0020C3
:10E05C0000B583B00A4B1B788DF80730094B1B7841
:10E06C00DBB21846FFF7DEFF03461A469DF8073071
:10E07C0093420CBF01230023DBB2184603B000BD52
:10E08C00582E0020592E002000B585B00346009272
:10E09C00ADF806300B46ADF80430BDF80430013352
:10E0AC009BB2DB00ADF80E300098FFF7ADFF0346D6
:10E0BC0083F00103DBB2002B01D0072317E00D4ADC
:10E0CC00009B1360BDF80E30009A13440A4A13608B
:10E0DC000A4B00221A700A4B00221A70094ABDF82A
:10E0EC0006301380084ABDF804301380002318460C
:10E0FC0005B000BD502E0020542E0020592E0020BB
:10E10C00582E00205A2E00205C2E002000B587B01F
:10E11C0003900B460192ADF80A30364B1B88BDF8C4
:10E12C000A209A4260D84FF6FF73ADF812300023E4
:10E13C008DF811300DF11103184600F08BFEFFF72E
:10E14C0087FF0346002B0ED12B4B1B78DBB2ADF8AF
:10E15C001230294B1B78DBB21846FFF763FF0346DE
:10E16C001A46254B1A709DF81130184600F07BFEAC
:10E17C00BDF812304FF6FF72934232D01F4B1A6823
:10E18C00BDF81230DB001344019A1A60039B002B7C
:10E19C001CD0BDF80A30002B18D0194B1B68BDF8E9
:10E1AC0012201449098801FB02F21344BDF80A201D
:10E1BC000399184604F02CFF104B1A68BDF8123066
:10E1CC00DB001344BDF80A209A8007E00B4B1A6859
:10E1DC00BDF81230DB00134400229A800023059313
:10E1EC0004E00423059301E009230593059B1846DD
:10E1FC0007B000BD5A2E0020592E0020502E0020B2
:10E20C00542E002082B003468DF807309DF907305C
:10E21C00002B0CDB9DF8073003F01F0205499DF91C
:10E22C0007305B09012000FA02F241F8232000BFFD
:10E23C0002B0704700E100E082B003468DF8073071
:10E24C009DF90730002B13DB9DF8073003F01F02FC
:10E25C0009499DF907305B09012000FA02F22033CD
:10E26C0041F82320BFF34F8F00BFBFF36F8F00BF68
:10E27C0000BF02B0704700BF00E100E082B003466F
:10E28C008DF807309DF90730002B0DDB9DF807301A
:10E29C0003F01F0206499DF907305B09012000FAC3
:10E2AC0002F2403341F8232000BF02B0704700BF98
:10E2BC0000E100E082B003468DF807309DF907308D
:10E2CC00002B0DDB9DF8073003F01F0206499DF96A
:10E2DC0007305B09012000FA02F2603341F8232079
:10E2EC0000BF02B0704700BF00E100E082B00346FF
:10E2FC0000918DF807309DF90730002B0ADB009B4D
:10E30C00DAB20C499DF907305201D2B20B4483F8B2
:10E31C0000230BE0009BDAB207499DF8073003F0AD
:10E32C000F03043B5201D2B20B441A7600BF02B069
:10E33C00704700BF00E100E000ED00E000B585B0E3
:10E34C000190019B002B0AD0064B43F00103039371
:10E35C00019B9B010293039B0298984700E000BF2E
:10E36C0005B000BD003D020000B583B00190054A28
:10E37C00019BC2F8083506211120FFF7B7FF00BF3B
:10E38C0003B000BD0010014008B50D4B4FF48032B6
:10E39C00C3F844230A4B4FF48032C3F804231120F2
:10E3AC00FFF788FF1120FFF72DFF054B01221A60A4
:10E3BC002F20FFF7C3FF034B01221A7000BF08BDCB
:10E3CC00001001407E2F002008B51120FFF734FF0C
:10E3DC000E4B4FF48032C3F848230C4B4FF4803271
:10E3EC00C3F80823094B01225A602F20FFF7A6FF20
:10E3FC00064B01229A60064B00221A602F20FFF771
:10E40C009DFF044B00221A7000BF08BD0010014094
:10E41C00702F00207E2F0020024BD3F804351846B5
:10E42C00704700BF0010014082B001900091019A2A
:10E43C00009BD31A23F07F43184602B070470000AC
:10E44C0082B00190034A019BC2F8403500BF02B074
:10E45C00704700BF0010014086B00190284B1B682C
:10E46C00002B03D1264A019B136045E0019B1A68DF
:10E47C00234B1B681B689A4210D8214B1B681968E8
:10E48C00019B1A681E4B1B688A1A1A601C4B1A686F
:10E49C00019BDA611A4A019B13602DE0019B1B68FA
:10E4AC000393174B1B680593154B1B68049309E0EA
:10E4BC00049B1B68039AD31A0393049B0593049B38
:10E4CC00DB690493049B002B04D0049B1B68039A08
:10E4DC009A42EDD8049B002B05D0049B1A68039B31
:10E4EC00D21A049B1A60019B039A1A60019B049A2E
:10E4FC00DA61059B019ADA6100BF06B0704700BF74
:10E50C006C2F002000B587B00190294B1B6803933A
:10E51C00274B1B680593059B049308E0049A019B09
:10E52C009A4208D0049B0593049BDB690493049BDB
:10E53C00002BF3D100E000BF049B002B01D1002382
:10E54C0033E0059A049B9A4214D1194B1B68DB6982
:10E55C00174A1360164B1B68002B0BD1154B01226D
:10E56C009A60154B00221A60144B01221A702F204E
:10E57C00FFF7E4FE049B1B680293049BDA69059B7E
:10E58C00DA61059BDB690493049B002B05D0049B8B
:10E59C001A68029B1A44049B1A60054B1B68039A69
:10E5AC009A4214BF01230023DBB2184607B000BD0A
:10E5BC006C2F002000100140702F00207F2F0020B6
:10E5CC0008B51120FFF75AFE00BF08BD08B514208E
:10E5DC00FFF754FE00BF08BD00B583B00190019B4E
:10E5EC005B69019A92691046984700BF03B000BD61
:10E5FC0000B585B02A4B1B68002B4ED0002301932D
:10E60C00FFF70AFF0246274B1B6819461046FFF717
:10E61C000BFF0290224B1B6803931DE0039B1B68AE
:10E62C00029A9A421CD3039B1B68029AD31A029338
:10E63C00039B1B68019A13440193039B0093039B58
:10E64C00DB690393009B1B7C002B05D0009B0022F5
:10E65C001A740098FFF7C0FF039B002BDED100E07B
:10E66C0000BF114B1A78114B1B789A420CD10F4BEF
:10E67C001B780133DAB20D4B1A700C4B1B78022B42
:10E68C0002D10A4B00221A70084B1B781946084A13
:10E69C00019B42F82130FFF799FF00BF05B000BD88
:10E6AC006C2F0020702F00207C2F00207D2F00204D
:10E6BC00742F002082B00190184B1A78184B1B78DD
:10E6CC009A4223D0154B1B780133DAB2134B1A70D4
:10E6DC00124B1B78022B02D1104B00221A700F4BDD
:10E6EC001B781A460F4B53F82220019B1A60019B92
:10E6FC001A680D4B1B6813440B4A13600A4B1B68BA
:10E70C0023F07F43084A1360012303E0019B00229E
:10E71C001A600023184602B0704700BF7C2F0020FF
:10E72C007D2F0020742F0020702F002088B00390C4
:10E73C00029101920023079338E0204B1B6806934B
:10E74C00069B1B68039A9A4206D2069B1A68039B87
:10E75C00D21A069B1A602EE0069B1B68039AD31AEA
:10E76C000393069B1B68079A13440793069B00228E
:10E77C001A60124B1B680593069BDB690F4A1360EA
:10E78C00069BDB68002B11D0029A079B134423F0E5
:10E79C007F42069B5A60069BDA68069B9A60019B37
:10E7AC001A68069BDA61019B059A1A60034B1B6879
:10E7BC00002BC2D100BF00BF08B070476C2F0020E7
:10E7CC0000B589B0019000238DF81F30654B1B6894
:10E7DC000593AAE0019B002B05D0019B0693069B99
:10E7EC00DB69019361E0604B1B781A4613465B00B2
:10E7FC001344DB005C4A1344043304935A4B1B78D8
:10E80C000133DAB2584B1A70574B1A78564B9B7827
:10E81C009A4202D1544B00221A70049B5B680693F7
:10E82C00049B1B78032B1ED0032B7EDC012B1FD0EB
:10E83C00022B7AD1049B5B681846FFF763FE0346F4
:10E84C00002B02D001238DF81F30069B00221A7476
:10E85C006BE0444B1B680393039B00221A74039BCD
:10E86C00DB69404A13603F4B1B68002BF1D15CE025
:10E87C0000BF069B1B7C002B00D056E0049B9A68C3
:10E88C00069B5A60049BDA68069B9A60049B1A6983
:10E89C00069BDA60049B5A69069B9A61334B1B7882
:10E8AC00002B02D0069B00225A60069B5A68304B04
:10E8BC001B68D31A23F07F432E4A93420ED8069B33
:10E8CC005B682B4A126811461846FFF7ADFD0246ED
:10E8DC00069B9B681A44069B1A6017E0244B1A6827
:10E8EC00069B5B6819461046FFF79EFD0290069B3F
:10E8FC009B68029A9A4206D2069B9A68029BD21A8D
:10E90C00069B1A6002E0069B00221A60069B0022FE
:10E91C005A60069B00229A60069B01221A74069B81
:10E92C000022DA610698FFF797FD019B002B7FF41C
:10E93C0051AF0D4B1A780C4B5B789A427FF44AAF6F
:10E94C009DF81F30002B04D1064B1B68059A9A4288
:10E95C0001D0012300E0002303F00103DBB21846D1
:10E96C0009B000BD6C2F0020602E00207F2F0020EE
:10E97C00702F0020FEFF7F0010B588B00190274B50
:10E98C001B68002B44D0254B1B681B680793FFF7B3
:10E99C0043FD0690224B1B68059305990698FFF7DB
:10E9AC0043FD0346033304931E4B1B7883F0010392
:10E9BC00DBB2002B01D0FFF7E7FC049A079B9342D4
:10E9CC0038BF1346059A13440593059B23F07F43E8
:10E9DC0005930598FFF734FDFFF71EFD039006998C
:10E9EC000398FFF721FD0346DC1C06990598FFF7F9
:10E9FC001BFD03469C420DD9FFF70EFD034618463E
:10EA0C00FFF71EFD2F20FFF799FCFFF7D9FD01E062
:10EA1C00FFF7DAFC00BF08B010BD00BF6C2F002060
:10EA2C00702F00207E2F002000B587B000230193AB
:10EA3C0000238DF81730184B1B680493174B1B6879
:10EA4C0003936B461846FFF735FE03468DF80B30E3
:10EA5C009DF80B30002B08D0009B01AA0499184696
:10EA6C00FFF764FE01238DF81730019B1846FFF762
:10EA7C00A7FE0346002B02D001238DF817309DF81A
:10EA8C001730002B02D00398FFF776FF044B0022BF
:10EA9C001A7000BF07B000BD702F00206C2F002033
:10EAAC007F2F002082B003468DF80730034A9DF873
:10EABC000730537000BF02B0704700BF602E0020BB
:10EACC0084B00190144B5B7801338DF80F30124BEE
